:020000040800F2
:1000000000080020CD0C0008050D0008E70D0008D1
:1000100000000000000000000000000000000000E0
:10002000000000000000000000000000050D0008B6
:100030000000000000000000050D00089508000801
:10004000050D0008050D0008050D0008050D000848
:10005000050D0008050D0008050D0008050D000838
:1000600000000000050D0008050D0008050D000842
:10007000050D0008050D0008050D0008050D000818
:10008000050D0008050D0008050D00080000000022
:10009000050D0008050D0008050D0008050D0008F8
:1000A000050D0008050D0008050D0008050D0008E8
:0800B000050D0008050D000814
:1000B80084B0014602AA10701078C207002A019184
:1000C800009004D0FFE70098012805D003E0074816
:1000D80000F020FEFEDEFEDE02A80078C007002841
:1000E80002D0FFE704B07047FCE7C0464C0E00089A
:1000F80080B582B000F056FA0090FFE70120009921
:100108000140084602B080BD80B584B00146029027
:100118000A480078C0070028009104D0FFE703A828
:100128000021017006E000F063FCFFE703A801214D
:100138000170FFE703A8007804B080BD000000202C
:1001480083B001460190019802900298009103B093
:10015800704783B00146019001980290029800917F
:1001680003B0704780B58CB00146029002980990A0
:100178000998019100F050FC00F055FC0490FFE74D
:10018800049805900498069005A8079006A808907A
:100198000798089900F0B3FA0090FFE702980699CB
:1001A8000A900B910A9800F037FC0B9900F048FC74
:1001B800FFE70CB080BD81B000200090009801B02E
:1001C800704784B00A460346029003910398029947
:1001D800086002980192009304B0704780B588B017
:1001E800014602900191FFF7E6FF0490FFE704A89B
:1001F8000590059800F055FA0090FFE702980499D9
:1002080006900791069800F007FC079900F018FC83
:10021800FFE708B080BD80B588B001460290019123
:10022800FFF7C9FF0490FFE704A80590059800F0C0
:1002380028FA0090FFE7029804990690079106981B
:1002480000F0EAFB079900F0FBFBFFE708B080BD70
:1002580081B000200090009801B0704784B00A4631
:10026800034602900391039802990860029801924C
:10027800009304B0704780B588B0014602900191A0
:10028800FFF7E6FF0490FFE704A80590059800F043
:1002980017FA0090FFE702980499069007910698CC
:1002A80000F0BAFB079900F0CBFBFFE708B080BD70
:1002B80080B588B0014602900191FFF7C9FF04900C
:1002C800FFE704A80590059800F00AFA0090FFE7F8
:1002D8000298049906900791069800F09DFB0799EB
:1002E80000F0AEFBFFE708B080BD83B00146019087
:1002F800019802900298009103B0704780B58CB0C5
:1003080001460290029809900998019100F084FB37
:1003180000F089FB0490FFE7049805900498069084
:1003280005A8079006A808900798089900F099FA78
:100338000090FFE7029806990A900B910A9800F03E
:100348006BFB0B9900F07CFBFFE70CB080BD80B520
:100358008CB001460290029809900998019100F02A
:100368005BFB00F060FB0490FFE70498059004989D
:10037800069005A8079006A808900798089900F025
:100388005BFA0090FFE7029806990A900B910A9889
:1003980000F042FB0B9900F053FBFFE70CB080BD67
:1003A80080B58CB001460290029809900998019195
:1003B80000F032FB00F037FB0490FFE7049805904B
:1003C8000498069005A8079006A808900798089929
:1003D80000F0E7F90090FFE7029806990A900B9160
:1003E8000A9800F019FB0B9900F02AFBFFE70CB004
:1003F80080BD83B001460190019802900298009157
:1004080003B0704780B58CB00146029002980990FD
:100418000998019100F000FB00F005FB0490FFE74C
:10042800049805900498069005A8079006A80890D7
:100438000798089900F0A0F90090FFE7029806993C
:100448000A900B910A9800F0E7FA0B9900F0F8FA75
:10045800FFE70CB080BD000084B00146029002980E
:10046800007803280191009016D800987844007904
:10047800400087440105090D03A8002101700CE024
:1004880003A80121017008E003A80221017004E01B
:1004980003A80321017000E0FEDE039804B0704752
:1004A80085B00A460346039004A80170029201939E
:1004B800FFE7039801680C229143016004A80078C3
:1004C8000321084080000090FFE703980168009A24
:1004D80011430160039805B0704780B584B00146A8
:1004E8000290029803AA01231370039A01911146FE
:1004F80000F005F80090FFE7009804B080BD80B5D3
:1005080088B00A460346069007A801700699059127
:1005180004930392FFF7A0FF0290FFE70598029962
:10052800FFF7BEFF0190FFE7019808B080BD00000B
:1005380080B584B001460390039802910190FFE7CB
:1005480001988108481C00210029009006D1FFE786
:10055800009800F0DDFAFFE704B080BD014800F024
:10056800D9FBFEDEEC0E000880B584B000F0D4FAAA
:100578000390FFE703980190FFE7012001990140EC
:100588000091FFE70098012804D1FFE702A80121A4
:10059800017003E002A800210170FFE702A80078BB
:1005A80004B080BD80B586B0FFF7DEFF02A90870F1
:1005B800FFE700F022F8FFE700F0B1FAFFE705A82F
:1005C80004900498FFF7A0FD03A90870FFE702A8AC
:1005D80000F044FA0090FFE70098C107002903D013
:1005E800FFE700F005F8FFE703A8007806B080BD34
:1005F80080B500F08BFAFFE780BD80B500F084FA83
:10060800FFE780BD80B590B0014607900798089035
:100618000798099007980A900898069100F088F9B9
:100628000590FFE705982830FFF7F5FDFFE70898E4
:1006380000F07EF90490FFE704982830FFF7CEFD1C
:10064800FFE7089800F074F90390FFE70398243057
:10065800FFF711FEFFE7089800F06AF90290FFE73C
:1006680002982430FFF724FEFFE7089800F060F9AD
:100678000190FFE701982C30FFF774FDFFE710B0F9
:1006880080BD80B584B00146039003980022D24310
:1006980001911146FFF795FD0090FFE7009804B01F
:1006A80080BD80B584B00146039003980022019173
:1006B8001146FFF786FD0090FFE7009804B080BD63
:1006C80080B584B00146039003980022D24301917B
:1006D8001146FFF7C3FD0090FFE7009804B080BD06
:1006E80080B584B001460390039800220191114619
:1006F800FFF7B4FD0090FFE7009804B080BD80B517
:100708008AB00A460346089009910998069205930B
:10071800FFF716FD0490FFE7049800F03FF90390F7
:10072800FFE70398FFF715FD0290FFE7029800F036
:100738000BF90190FFE701980AB080BD80B588B039
:100748000146039003980490039805900498029139
:1007580000F0A5F80190FFE70198FFF753FEFFE7C7
:10076800049800F09CF80090FFE700981430FFF719
:1007780017FEFFE708B080BD80B588B00A4603467B
:1007880006900791079804920393FFF732FE0290B0
:10079800FFE70298FFF7A1FE0190FFE7019808B074
:1007A80080BD80B588B00A46034606900791079831
:1007B80004920393FFF799FD0290FFE7029800F077
:1007C80089F80190FFE7019808B080BD88B0FFF76D
:1007D8008FFC0390FFE70120039901400846FFF7CB
:1007E80067FCFFE704A8FFF70DFFFFE704A8FFF782
:1007F800A5FFFFE704A80590FFE77D208000FFF72D
:1008080097FEFFE7059800F04AF80290FFE7029884
:100818001430FFF79CFDFFE77D208000FFF788FE7E
:10082800FFE7059800F03BF80190FFE701981430C6
:10083800FFF764FDFFE7E0E780B588B00A460346A6
:1008480006900791079804920393FFF74EFD0290D4
:10085800FFE7029800F03EF80190FFE7019808B022
:1008680080BD80B588B00A46034606900791079870
:1008780004920393FFF739FD0290FFE7029800F016
:100888001AF80190FFE7019808B080BD81B068466A
:100898000321017001B0704705200007704780B53B
:1008A80084B0014603900291FFF7F6FF0190FFE73D
:1008B800019804B080BD80B584B0014603900398C8
:1008C80001220291114600F014F80190FFE7019807
:1008D80004B080BD80B584B001460390039800221F
:1008E8000291114600F005F80190FFE7019804B065
:1008F80080BD85B00A460346039004A801700292A1
:100908000193FFE70398016802229143016004A85C
:10091800007840000090FFE703980168009A1143AF
:100928000160039805B07047004870470010024006
:1009380080B584B0014603900291FFF7F5FF01905E
:10094800FFE7019804B080BD80B584B001460390EC
:10095800039801220291114600F005F80190FFE783
:10096800019804B080BD85B00A460346039004A8E8
:10097800017002920193FFE70398016802229143F4
:10098800016004A8007840000090FFE70398016820
:10099800009A11430160039805B0704780B584B090
:1009A80001460390039801220291114600F005F8D0
:1009B8000190FFE7019804B080BD85B00A46034660
:1009C800039004A8017002920193FFE7039801685D
:1009D80001229143016004A800780090FFE7039882
:1009E8000168009A11430160039805B07047000040
:1009F800CCB007480078C007002804D0FFE70548B6
:100A080000F088F9FEDE0248012101704CB0704701
:100A180000000020680F000882B00146019001988C
:100A2800009102B0704784B00146029002980068B5
:100A38000390039801910090FFE7009804B0704775
:100A480084B00A4603460290039102980399016014
:100A580001920093FFE704B07047000080B584B0AE
:100A6800014603900398064A0291114600F00AF8DD
:100A78000190FFE7012001990140084604B080BDBC
:100A8800800F000892B00A46034606900791069820
:100A9800007800210F910E900F980E9905920493FB
:100AA80003900291FFE702980990079909780022BC
:100AB800119210911199109A01910092FFE70098F4
:100AC8000A9009990A9A914204D1FFE70BA80121DB
:100AD800017003E00BA800210170FFE70BA8007864
:100AE800C007002808D0FFE7069807990C900D91D9
:100AF80008A80121017003E008A800210170FFE7A0
:100B080008A8007812B0704772B6704762B670478E
:100B1800C0460138FCD17047EFF31080704782B0AF
:100B280002B0704780B588B00A4603460690079120
:100B380005920493FFE706980799884202D3FFE7D6
:100B480008B080BD0698039000F048F80290FFE7CF
:100B58000398029900F04BF8FFE70698012100F08E
:100B680053F80190FFE701980690E4E7B0B58AB022
:100B780013460C460546079008910992069305947A
:100B88000495FFE707980899884202D3FFE70AB05F
:100B9800B0BD079809990390084600F059F80290EB
:100BA800FFE70398029900F063F8FFE7079801212F
:100BB80000F02AF80190FFE70198079009980121B1
:100BC80000F034F80090FFE700980990DAE782B067
:100BD80001980090FFE7009802B0704782B00020AB
:100BE800019001980090FFE7009802B0704784B028
:100BF8000A46034602900391029803990160019204
:100C08000093FFE704B0704786B00A460346039096
:100C18000491039804998900401805900598029258
:100C280001930090FFE7009806B0704786B00A4627
:100C3800034603900491039804998900401805908D
:100C48000598029201930090FFE7009806B070475C
:100C580080B584B0014602900191FFF7B8FF039078
:100C6800FFE7029800680390FFE7039804B080BD8F
:100C780084B00A46034602900391029803990160E2
:100C88000192009304B0704784B0014602AA107024
:100C980010780428019100900FD8009878440079C2
:100CA8004000874406030204050007E006E005E06B
:100CB80004E0034800F02EF8FEDEFEDE04B07047C4
:100CC800CC0F000800F024F8FFE707480749FFF7B2
:100CD80029FFFFE706480749074AFFF747FFFFE7ED
:100CE800FFF774FDFEDEC04600000020040000206F
:100CF80000000020000000205410000882B0FFE728
:100D080001A8042101700198FFF7BEFFFFE7F7E78C
:100D1800704770478CB00CC808380546083532CD86
:100D280040690793069206AA0092012201920022C6
:100D380002920392054B0493059208AA32C20B90C3
:100D4800684608A900F004F8FEDEC046E40F000873
:100D580088B01CC90968064D0295064D0195039097
:100D6800049205930694079101A800F02BF8FEDE83
:100D7800E40F0008E40F0008014802497047C04624
:100D8800C9F13E4038EF3BE384B0014602AA107037
:100D980010780428019100900FD8009878440079C1
:100DA8004000874406030204050007E006E005E06A
:100DB80004E00348FFF7AEFFFEDEFEDE04B0704736
:100DC8003C10000884B0014602900191FFE703A897
:100DD800042101700398FFF7D7FFFFE7F7E7EFF368
:100DE8000880FFE784B0014602900191FFE703A85D
:0E0DF800042101700398FFF747FFFFE7F7E7BC
:100E100063616C6C656420604F7074696F6E3A3A00
:100E2000756E77726170282960206F6E2061206076
:100E30004E6F6E65602076616C75656C6962636F7C
:100E400072652F6F7074696F6E2E7273100E0008CA
:100E50002B0000003B0E00081100000063010000A1
:100E6000150000000000000000000000000000006D
:100E70002F55736572732F61726B6F2F2E636172C2
:100E8000676F2F72656769737472792F7372632F3E
:100E90006769746875622E636F6D2D3165636336A3
:100EA00032393964623965633832332F636F727453
:100EB00065782D6D2D302E352E382F7372632F618E
:100EC000736D2E727300000000000000000000002F
:100ED000617474656D707420746F20616464207730
:100EE000697468206F766572666C6F77D00E000843
:100EF0001C000000700E00085500000037000000C4
:100F000015000000617373657274696F6E2066610D
:100F1000696C65643A20214445564943455F504514
:100F2000524950484552414C532F55736572732FA7
:100F300061726B6F2F4769744875622F73746D33DC
:100F4000322D72732D61726B6F2F73746D33326C2F
:100F5000302F7372632F73746D33326C3078312F8E
:100F60006D6F642E72730000040F000825000000EE
:100F7000290F00083D000000686902000900000018
:100F8000007468657265206973206E6F20737563E5
:100F900068207468696E6720617320612072656CD7
:100FA0006178656420636F6D70696C657220666539
:100FB0006E63656C6962636F72652F73796E632F00
:100FC00061746F6D69632E7273000000810F0008F9
:100FD00032000000B30F00081600000036090000C0
:100FE000180000001B0D00080000000001000000B8
:100FF000810D00087468657265206973206E6F202A
:1010000073756368207468696E672061732061205E
:1010100072656C6178656420636F6D70696C657270
:101020002066656E63656C6962636F72652F7379A4
:101030006E632F61746F6D69632E7273F40F000815
:1010400032000000261000081600000036090000DB
:041050001800000084
:0400000508000CCD16
:00000001FF
