:020000040800F2
:1000000000080020090C0008490C00088F100008A7
:1000100000000000000000000000000000000000E0
:10002000000000000000000000000000490C000873
:100030000000000000000000490C0008490C000806
:10004000490C0008490C0008490C0008490C00083C
:10005000490C0008490C0008490C0008490C00082C
:1000600000000000490C0008490C0008490C000879
:10007000490C0008490C0008490C0008490C00080C
:10008000490C0008490C0008490C00080000000059
:10009000490C0008490C0008490C0008490C0008EC
:1000A000490C0008490C0008490C0008490C0008DC
:0800B000490C0008490C00088E
:1000B8008EB003AC20702B2002900C48019001A850
:1000C8000B4900F008FD0B4A0D920AAA13C2022040
:1000D80009900AA908910021079106910590064800
:1000E800049004A8054900F0D5FDFEDEF8120008CA
:1000F800CF0A0008BD090008C0120008E81200086D
:1001080090B000F079FD0127384004A9087000F08C
:100118006FFD00F074FDE6480078002801D0002447
:1001280002E000F051FD012404A800F05DFD002864
:1001380001D000F05FFD002C00D195E10AAD284602
:1001480000F0CCF904AC2046294600F0CDF9204651
:1001580000F022FC00F0C0FCC1680C229143C16091
:1001680000F0BAFC416802229143416000F0B4FCFF
:10017800016804220A4308218A4302607D0400F0D2
:10018800ABFC85610AA800F0B7FB0A9D0B980390A9
:100198000FA800F0DCFB204600F0B8FC0646806B98
:1001A8000E900EA800F0DEFC0E98B063204600F01A
:1001B800A1FB192200210B4600F0D9FE04460029B4
:1001C80000D10F46002F00D052E10422002128461A
:1001D8000B4600F0CCFE0246002900D00121002980
:1001E80000D049E1002A00D14AE12046114600F03A
:1001F800D8FE05466427394600F0D3FE044600269B
:1002080031463A46334600F0B2FE002900D00121BB
:10021800002900D038E1291A7641854200D237E119
:1002280010220025084629462B4600F0A0FE00298A
:1002380000D00121002900D02EE1024632322946A1
:100248006941824200D22BE10398070A64211046D3
:1002580000F0A7FE240104430FAE304600F052FC24
:10026800C460304600F04EFC4560304600F04AFC61
:100278008560304600F046FC02900E95F9B2881E63
:1002880042424241500201220029019200D10A460D
:100298009102039C2206120B89180F180EA800F071
:1002A80028FC00F01CFC00F01FFC0168824A114089
:1002B800394301600E9802990860FF200003240961
:1002C80002900440304600F01DFC446000F0EBFB57
:1002D8000AA800F011FB0A9C0B980390304600F026
:1002E80012FB04AE304600F011FC0746806B0E90FE
:1002F8000EA800F031FC0E98B863304600F0FAFA08
:10030800192229462B4600F032FE0546002901989D
:1003180000D10846002800D0AAE004220021204687
:100328000B4600F024FE0246002900D001210029D6
:1003380000D0A1E00194002A00D1A1E0284611468E
:1003480000F02FFE06466424214600F02AFE0546EA
:100358000027394622463B4600F009FE002900D016
:100368000121002900D08FE0311A7F41864200D256
:100378008EE01022002608463146334600F0F7FD8D
:10038800002900D00121002900D085E00246323240
:100398007641824200D283E06421104600F001FEDB
:1003A8002901084301242202002739463B4600F070
:1003B800DEFD0646002900D10C46002C74D1039CB2
:1003C800200A00900FAD284600F0D6FBC6602846EC
:1003D80000F0D2FB4760284600F0CEFB8760284635
:1003E80000F0CAFB06460E970198000D210340183D
:1003F800029F38400099C9B2002901D10A4600E09D
:10040800012292020243881E414241414C02144398
:100418000EA800F0BFFB00F0B3FB00F0B6FB0168CC
:10042800254A1140214301600E9830600398040961
:100438003C40284600F0A0FB446000F0EBFA0FA80F
:1004480000F0E9FA0C46C00707D10FA8214600F0D2
:100458002BFBC0B20528F8D0F1E7E0B20528EED0B2
:100468002046FFF725FEFEDE124800F0F5FBFEDE13
:10047800194800F0F1FBFEDE164800F0EDFBFEDE49
:10048800134800F0E9FBFEDE104800F0E5FBFEDE55
:100498000D4800F0E1FBFEDE0A4800F0DDFBFEDE61
:1004A800074800F0D9FBFEDE044800F0D5FBFEDE6D
:1004B80000000020A4120008FFE9FFFF4C1200080A
:1004C800341200081C12000804120008C4110008A5
:1004D800AC11000878110008601100080021817330
:1004E8008181032101707047F0B589B0074608780B
:1004F8000128069131D0022816D003284ED108A829
:1005080000F004FB064603200002079007A800F04D
:1005180019FB0798306008A800F0F8FA006840074F
:10052800F9D50124DE4E48E13D464E6808A800F0A2
:10053800EDFA074603200002079007A800F0F6FA34
:10054800079838600120440408A800F0DFFA006822
:100558002042F9D002242F462FE10597887803908E
:10056800487804904C688E6808A800F0CFFA0746CF
:10057800032002900502012C34D1079507A800F04A
:10058800D5FA079838600124670408A800F0BEFA75
:1005980000683842F9D02004019032E00597012420
:1005A80020034F7879030D1808AE304600F0AEFAF4
:1005B8004560304600F0AAFA06460320000207907C
:1005C80007A800F0B9FA0798306008A800F09EFA6A
:1005D80000688005F9D5E603781CC0B2864000247F
:1005E800059FEAE0079507A800F0ACFA079838607D
:1005F80008A800F08BFA00684007F9D500200190A0
:10060800A74E08A800F082FA0746079507A800F049
:1006180087FA0798386001277C0608A800F076FA60
:1006280000682042F9D10498401E072800D988E0C4
:100638007844007940008744035424341464744493
:100648000422002130460B4600F091FC002900D01E
:100658000121039F002900D180E0994800F0FCFAAD
:10066800FEDE1022002130460B4600F080FC0029F7
:1006780000D00121039F002970D08D4800F0ECFACA
:10068800FEDE0822002130460B4600F070FC0029EF
:1006980000D00121039F002960D0874800F0DCFAD0
:1006A800FEDE0C22002130460B4600F060FC0029DB
:1006B80000D00121039F002950D07E4800F0CCFAD9
:1006C800FEDE3022002130460B4600F050FC0029A7
:1006D80000D10F46002F039F40D0724800F0BCFAAB
:1006E800FEDE0622002130460B4600F040FC0029C1
:1006F80000D00121039F002930D0704800F0ACFAE7
:10070800FEDE1822002130460B4600F030FC00299E
:1007180000D00121039F002920D0644800F09CFAF2
:10072800FEDE2022002130460B4600F020FC002986
:1007380000D00121039F002910D05B4800F08CFAFB
:10074800FEDE0322002130460B4600F010FC002993
:1007580000D00121039F002900D09DE0022F03D083
:10076800032F06D1860805E0032100F01AFC06468F
:1007780000E0460803955348864200D388E0049871
:100788008004B905014301980D1808AF384600F0F8
:10079800BDF9C560384600F0B9F9074603980790D7
:1007A80007A800F0B7F90798386008A800F0AEF974
:1007B80000682042F9D0059F029C08A800F0A6F91D
:1007C800C168434A0A401119069D2A7B13071B0E6C
:1007D800C9186C7B23020B43A97BCD021D43C5605E
:1007E800002A304609D0D21FD0B2904230D11F28FB
:1007F80032D81F2002403046D040002C0246034623
:100808000ED0E31EDAB29A422AD11F2A2CD81F2210
:1008180013400246DA40002493186441934227D3D8
:100828000029044605460ED0C91ECCB28C4223D1FD
:100838001F2C25D81F2421400446CC40002125190F
:100848004941A54220D33E60391D3DC109B0F0BDE4
:10085800214800F001FAFEDE1E4800F0FDF9FEDE38
:10086800204800F0F9F9FEDE1D4800F0F5F9FEDE3B
:100878001A4800F0F1F9FEDE1D4800F0EDF9FEDE41
:100888001A4800F0E9F9FEDE174800F0E5F9FEDE47
:100898000D4800F0E1F9FEDE0C4800F0DDF9FEDE5F
:1008A8000024F400EC130008041400081C140008C9
:1008B800341400084C140008641400087C14000860
:1008C8009414000801366E0144150008AC140008A1
:1008D8000CC0FFFF9C15000884150008E4150008EB
:1008E800CC150008B41500082C16000814160008CA
:1008F800FC150008806870470021817181804B21B8
:10090800C90101607047B0B50F24250200F0E4F872
:10091800016AA94303256A028918016200F0DCF81C
:10092800016820220A4310218A430260240300F050
:10093800D3F8016AA1436A038918016200F0CCF870
:10094800016880220A4340218A430260B0BD70B525
:1009580000F0C2F8416A40220A43B0218A43426249
:100968000324A50400F0B8F80168A9430125EA04A6
:10097800891801600F20060200F0AEF8416AB14301
:10098800AA0289184162240500F0A6F80168A1436B
:100998006A058918016070BD10B582B000F0B6F81C
:1009A8000446C06A019001A800F0D1F80198E062FD
:1009B80002B010BD10B584B00078401E032809D8D5
:1009C800784400794000874401080C1001AC0F4AB4
:1009D80005230DE001AC0E4A01E001AC0A4A0723E9
:1009E80006E001AC074A062302E001AC044A0B23E7
:1009F800204600F0A1FA204600F05EF904B010BDD0
:100A08004B16000856160008441600085C16000825
:100A180061160008704770B582B000F0A9F8C06987
:100A2800C1070AD181070AD441070AD401070AD4A9
:100A3800800632D4012005242CE0032404E000249D
:100A480002E0012400E0022400F092F805460026A6
:100A5800019601A800F0B2F80198286200F088F821
:100A68000546019601A800F0A4F80198286200F054
:100A78007FF80546019601A800F096F801982862CB
:100A880000F076F80546019601A800F088F801986C
:100A980028620120214602B070BD00F069F82421C7
:100AA800445C0020F6E7704710B50C4600F026F8C5
:100AB800C069000601D4052010BD00F01FF82821E8
:100AC8004454062010BD80B50A460368416818469C
:100AD80000F044FA80BD70470520000770470168A0
:100AE80008220A4302607047016804220A43026030
:100AF8007047016801220A43026070470048704746
:100B080000440040004870470044004000487047D7
:100B1800001002400121090602680A43026070477A
:100B28000121090602688A4302607047012109040D
:100B380002680A43026070470121090202680A43F9
:100B480002607047016801220A4302607047016829
:100B580001220A43026070470121890402680A439E
:100B6800026070470121490402680A430260704725
:100B7800004870470048004000487047004800405F
:100B8800016808220A4302607047016804220A4388
:100B980002607047016801220A43026070470168D9
:100BA80008220A4302607047016804220A4302606F
:100BB8007047016802220A430260704701680122F7
:100BC8000A4302607047000005480178002902D1F5
:100BD800012101707047034800F03EF8FEDEC04670
:100BE80000000020EC160008017848424841704790
:100BF80072B6704762B67047EFF31080704770475F
:100C080000F01FF809480A4901E0002204C18142A6
:100C1800FBD308480849814204D2084A08CA08C1D7
:100C28008142FBD3FFF76CFAFEDEC04604000020C9
:100C38000000002000000020000000201817000815
:100C4800FEE7704770470000014802497047C046F8
:100C580005957E84636E3E648CB018C808380546D6
:100C6800083526CD40690794069300230593084C60
:100C78000494039302930123019306AB00930B9012
:100C880008A826C0684608A900F004F8FEDEC04699
:100C98000417000888B01CC90968079103A91DC179
:100CA800034802900348019001A800F05FF9FEDEB6
:100CB8000417000804170008B0B50446057A406810
:100CC80000281ED0002D01D0012519E001280FD1E0
:100CD800607A00280CD021680878400708D4886911
:100CE800C969CB68094901252A469847002807D1D0
:100CF80021688869C969CB68054901229847054672
:100D08002572002D00D001252846B0BD1417000813
:100D180015170008F0B589B0174605460069AB6895
:100D2800012B089502D1002803D196E0002800D1B4
:100D3800C6E0002F67D001930297CA19112000045A
:100D480003906869C74300200D4604910E4601468A
:100D580005926C1C287840B2C3B2002803DB2546F4
:100D68007F1C47D153E01F200790944206D06C782F
:100D78003F2020400690AC1C254603E01046002288
:100D880006920546079A1A405809072809D3079278
:100D98000598854208D028783F2202406C1C2546D9
:100DA80004E09001069A11E00022054606988001A9
:100DB800121818090F2807D3059885420CD02878EF
:100DC8003F2303406D1C09E00798000313182546CC
:100DD800059A7F1C0ED11AE0002325469001079A38
:100DE8005207D20A8018C31803988342059A06D07E
:100DF8007F1C0CD0881B4119AA422E46A9D1029FFC
:100E08000499089D09E00027002B26D158E0039893
:100E18008342029F089D04D10499019B002B1CD199
:100E28004EE000290C4604990CD0BC420AD00020A0
:100E3800BC42024608D20A573F20C34300209A42C8
:100E4800024601DB20460A46002A00D00746002A4F
:100E5800019B00D01146002B32D00020002F0AD071
:100E68003C460A4613789B09022B00D1401C641E9D
:100E7800521C002CF6D1381AEE68B04220D200205D
:100E8800002F02460BD000223B460C462578AD09C0
:100E9800022D00D1521C5B1E641C002BF6D1D21B04
:100EA8003023089CE45C032C034600D023469419A5
:100EB8009A0704910DD0022B0ED00021079110E063
:100EC800A869EA69D3683A4698470446204609B0B3
:100ED800F0BD0794044604E06108621C52080792BA
:100EE8000C46C64335466D1CA54209D2089A51687E
:100EF8009069D269126990470028F4D00124E5E787
:100F0800089D68680690A869E969CB6804993A461B
:100F1800984701240028D9D12846AD69C769761CAD
:100F28000798864206D23A692846069990470028CB
:100F3800F5D0CBE70024C9E770B51D460E46044638
:100F48008869C969CB6811462A4698472072266085
:100F58006842684160720020606070BD80B50B46D1
:100F6800014610461A46FFF7D5FE80BDFEE770B56C
:100F78005143050C140C2E46664371184343C91897
:100F880092B2554380B24243130C5B191D0C4919A8
:100F98009BB260431818030CC918000492B2801859
:100FA80070BDF0B581B000293AD004460020002C6D
:100FB80034D00D46202700293E46009004D028460C
:100FC80000F030F806460098002C04D0204600F0C7
:100FD80029F807460098F11B1F291FD802D120467F
:100FE80001B0F0BD701CC01B4B1C1F2633402246AD
:100FF800DA40711A31408C400021E30F5200D218B8
:10100800D3435B19DB171E462E40921B64000C432A
:1010180001211940401EF0D16000081801B0F0BD50
:10102800FEDEFEDE020C03D01021002A03D103E00D
:101038002021002A00D01046020A0ED1002A0FD122
:10104800020910D1002A11D1820812D1002A13D125
:10105800012814D84042401870470839002AEFD0B8
:1010680010460209EED0091F002AEDD0104682086A
:10107800ECD0891E002AEBD010460128EAD90120BD
:10108800C0434018704770460421084202D1EFF36C
:0C109800088002E0EFF30980FFE7FEE7AC
:1010B000617474656D707420746F2061646420774E
:1010C000697468206F766572666C6F770000000047
:1010D000617474656D707420746F206D756C7469C3
:1010E000706C792077697468206F766572666C6FB2
:1010F0007700000000000000000000000000000079
:101100002F55736572732F61726B6F2F2E6361722F
:10111000676F2F72656769737472792F7372632FAB
:101120006769746875622E636F6D2D316563633610
:1011300032393964623965633832332F73746D33F1
:10114000326C3078782D68616C2D302E312E352F31
:101150007372632F73657269616C2E727300000085
:10116000D010000821000000001100085D00000000
:10117000D10000001F000000D01000082100000076
:10118000001100085D000000D10000003E000000DA
:10119000617474656D707420746F2064697669641D
:1011A00065206279207A65726F0000009011000856
:1011B00019000000001100085D000000D1000000CF
:1011C0001F000000D01000082100000000110008DE
:1011D0005D000000D30000002C00000000000000B3
:1011E000617474656D707420746F207375627472AD
:1011F0006163742077697468206F766572666C6FBE
:1012000077000000E0110008210000000011000834
:101210005D000000D300000025000000D010000891
:1012200021000000001100085D000000D300000054
:1012300025000000B01000081C000000001100088C
:101240005D000000D300000024000000D010000862
:1012500021000000001100085D000000D700000020
:101260001F00000063616C6C656420604F707469DE
:101270006F6E3A3A756E77726170282960206F6ED2
:10128000206120604E6F6E65602076616C756573BD
:1012900072632F6C6962636F72652F6F7074696F10
:1012A0006E2E7273641200082B0000008F1200086B
:1012B0001500000059010000150000003A20000050
:1012C000BC12000800000000BC1200080200000070
:1012D0007372632F6C6962636F72652F72657375C9
:1012E0006C742E7273000000D0120008150000000C
:1012F000E50300000500000063616C6C656420601C
:10130000526573756C743A3A756E777261702829FC
:1013100060206F6E20616E20604572726020766181
:101320006C75650000000000000000000000000077
:10133000617474656D707420746F2073756274725B
:101340006163742077697468206F766572666C6F6C
:101350007700000000000000000000000000000016
:10136000617474656D707420746F206D756C746930
:10137000706C792077697468206F766572666C6F1F
:1013800077000000000000000000000000000000E6
:101390002F55736572732F61726B6F2F2E6361729D
:1013A000676F2F72656769737472792F7372632F19
:1013B0006769746875622E636F6D2D31656363367E
:1013C00032393964623965633832332F73746D335F
:1013D000326C3078782D68616C2D302E312E352F9F
:1013E0007372632F7263632E7273000060130008C0
:1013F00021000000901300085A000000EE000000D9
:10140000260000006013000821000000901300086F
:101410005A000000ED0000002600000060130008E4
:1014200021000000901300085A000000EC000000AA
:10143000260000006013000821000000901300083F
:101440005A000000EB0000002600000060130008B6
:1014500021000000901300085A000000EA0000007C
:10146000260000006013000821000000901300080F
:101470005A000000E9000000250000006013000889
:1014800021000000901300085A000000E80000004E
:1014900025000000601300082100000090130008E0
:1014A0005A000000E700000025000000601300085B
:1014B00021000000901300085A000000E600000020
:1014C00025000000617373657274696F6E20666138
:1014D000696C65643A2066726571203C3D20323447
:1014E0002E6D687A28292E302F55736572732F61FF
:1014F000726B6F2F2E636172676F2F7265676973EE
:101500007472792F7372632F6769746875622E63C2
:101510006F6D2D31656363363239396462396563C5
:101520003832332F73746D33326C3078782D6861B4
:101530006C2D302E312E352F7372632F7263632E14
:1015400072730000C414000824000000E8140008AE
:101550005A000000F600000011000000000000002A
:10156000617474656D707420746F2073686966743B
:10157000206C6566742077697468206F7665726682
:101580006C6F7700301300082100000090130008F2
:101590005A00000016010000240000006015000839
:1015A00023000000901300085A00000016010000FC
:1015B0001E000000301300082100000090130008F6
:1015C0005A0000001C0100002D00000060150008FA
:1015D00023000000901300085A0000001C010000C6
:1015E000270000006013000821000000901300088D
:1015F0005A0000001D010000180000003013000810
:1016000021000000901300085A000000240100008F
:101610002D00000060150008230000009013000852
:101620005A00000024010000270000006013000899
:1016300021000000901300085A000000250100005E
:10164000180000004F76657272756E5F457874659C
:101650006E7369626C655061726974794E6F6973FB
:10166000654672616D696E67617373657274696FE7
:101670006E206661696C65643A2021444556494391
:10168000455F5045524950484552414C532F557380
:101690006572732F61726B6F2F2E636172676F2F8C
:1016A00072656769737472792F7372632F676974D7
:1016B0006875622E636F6D2D31656363363239391B
:1016C00064623965633832332F73746D33326C3032
:1016D0002D302E372E312F7372632F73746D33328A
:1016E0006C3078312F6D6F642E72730068160008AD
:1016F000250000008D1600085E000000C2030000F7
:10170000090000004D0C000800000000010000006E
:08171000510C00082C29000017
:0400000508000C09DA
:00000001FF
