:020000040800F2
:10000000000800205D090008A1090008F90B00089C
:1000100000000000000000000000000000000000E0
:10002000000000000000000000000000A10900081E
:100030000000000000000000A1090008A10900085C
:10004000A1090008A1090008A1090008A1090008E8
:10005000A1090008A1090008A1090008A1090008D8
:1000600000000000A1090008A1090008A10900087A
:10007000A1090008A1090008A10900084508000815
:10008000A1090008A1090008A1090008000000005A
:10009000A1090008A1090008A1090008A109000898
:1000A000A1090008A1090008A1090008A109000888
:0800B000A1090008A1090008E4
:1000B8007047704770470000F0B503AF83B0002960
:1000C80047D04118112212040092234B0191421C7F
:1000D800047865B2ECB2002D01D4104633E01F2538
:1000E8008A4204D042783F261640801C01E0002650
:1000F800084625406209062A09D9884209D00178AC
:1001080002913F2202990A400199401C03E0AA018A
:100118000EE000220846B601961922090F2A06D3D6
:10012800884207D002783F241440401C03E02A0389
:10013800B41808E00024B2016D07ED0A5219141929
:10014800009A944205D01A681206FCD51C7388429E
:10015800BDD103B0F0BDC0461C440040F0B503AFAC
:1001680083B04118112212040092254B0191421CC0
:10017800047865B2ECB2002D01D4104633E01F2597
:100188008A4204D042783F261640801C01E00026AF
:10019800084625406209062A09D9884209D001780B
:1001A80002913F2202990A400199401C03E0AA01EA
:1001B8000EE000220846B601961922090F2A06D336
:1001C800884207D002783F241440401C03E02A03E9
:1001D800B41808E00024B2016D07ED0A5219141989
:1001E800009A944205D01A681206FCD51C738842FE
:1001F800BDD104480221FFF75FFF03B0F0BDC04640
:100208001C440040A80C0008D0B502AF1446FFF704
:1002180053FF00200649225C0B681B06FCD50A73B5
:10022800401C0A28F7D103480221FFF745FFD0BD3B
:100238001C440040A80C000880B500AF00F002F88C
:10024800FEDE000080B500AFAAB000F059FC0446FD
:1002580001252C4000F050FCF94801780029079549
:1002680001D0002501E001210170002C01D100F02E
:1002780045FC002D00D1B2E2F248F34B036001685F
:100288004907FCD5C168F14A0A40511CC160C16ADE
:1002980001263143C162054605200A900407616AB8
:1002A800402009900143B0229143616203208104F8
:1002B80022688A43F10451182160616AE44A1140B6
:1002C8001A46FF320A43626201050346109022680B
:1002D8008A4371055118216070040F960D90A96B1F
:1002E8000143A96359020A468332DA4BDA600022D5
:1002F8005A6076030696C0369E600D2005901860F9
:100308005A60E3680C25AB43E360636802200290FF
:1003180083436360236804200E90034308200890F9
:1003280083432360236ACA4803405918216221681D
:1003380020200C90014310200190C04303900140FD
:1003480021600F2004900503206AA84310994D03EB
:100358004019206220688025054309988543256057
:100368000F9B9804B7498D6B05438D63BA48BB4D05
:10037800C5600B9242608660059901604260E06842
:10038800B74A1040E06060680399084060602068E0
:1003980010401A028018206004990805226A8243D6
:1003A8002262109DA80222688243D8021018206099
:1003B8000806216A8143216229032068099188433C
:1003C800069940182060206AA64908402062A803C0
:1003D80022688243D8030490101820601803994EAD
:1003E800726B02437263A04D0B9868609648733035
:1003F80028605802726B024372633246481CFB4EF7
:10040800B1680143B160E06810998843E0602068F2
:1004180008432060906B18439063906A1843906279
:10042800DB430593906A1840906223AA26AB069393
:1004380003CA03C310889178997018800F9B9A0794
:1004480010680599084010600B989084F420906219
:10045800E748908510680E9908431060536110684A
:1004680018430592106011A8069B06CB06C0198890
:100478009A7882700180DF480C99FFF76FFE0D981B
:10048800A0610F9800050D94A061DB480246511C3D
:10049800AB685C06640F00D09CE19B07F8D5127826
:1004A8002A73AA6853065B0F00D093E1D207F8D0ED
:1004B8002A7B821C91420A46E9D10D9801998161F3
:1004C80030680F9A10433060B0681043B0603068ED
:1004D800C007FCD01098F0607069072188437061EC
:1004E800B2623068089908433060B0680E990843D2
:1004F800B06030680007FCD5306CB06802990843DA
:10050800B060306810433060B068C007FCD111A8F3
:1005180014AD29460CC80CC10288807888700A80FE
:100528000F9E0598C660B7480499016000F0E8FA84
:10053800044600F0E1FA23A806CD06C02988AA7867
:1005480082700180B0490868002800D03BE10B9810
:1005580041C10E6023A826A90CC80CC10288807866
:1005680088700A80AB4D2868002800D02BE1344001
:1005780010982871681D26A90B2200F0C4FAA64815
:1005880028616861A861E861286268620B98286040
:10059800002C01D100F0B2FAA0481D21FFF7DEFDC2
:1005A80009200690C043109007219D48FFF7D6FD0B
:1005B80000F036FAC00703D1C8B22428F8D107E002
:1005C800C8B20528F4D0F3E0E0B2052800D0EFE087
:1005D80000F026FA0C46C007F6D100F021FA0D46C5
:1005E800C00707D0E8B20528F7D0E1E0F0B2052847
:1005F80000D0DDE000F014FA0E46C007F6D103E0A3
:10060800C8B2052800D0D3E000F00AFAC007F7D135
:10061800E0B24728DCD1E8B24E28D9D1F0B2472859
:10062800D6D1C8B24728D3D10A9C642C21D0641CE7
:1006380000F0F6F9C00719D0C8B20528F8D0B7E01D
:100648003400002000100240010300000CC0FFFF2E
:10065800FFF0FFFF00440040004800400083060010
:10066800FFFCFFFFFFFFFF0F00300140C8B20A2860
:10067800DBD126AA099E16810B982790269017A9E8
:100688000E91134630CB30C11B880B801681279002
:1006980026901AAB0D93114630C930C309881980CA
:1006A80016813546279026901DA90C91134650CBEC
:1006B80050C11B880B80158127900646269020ADD7
:1006C800294618CA18C110880880062456482146A9
:1006D8000E9AFFF799FD554821460D9AFFF794FDAC
:1006E800072153480C9AFFF78FFD524821462A46A6
:1006F800FFF78AFD00F004FA054600F0FDF94249CB
:10070800086800285FD10E604868012800D18E680B
:10071800E80701D100F0F2F926A80021018127910C
:100728000E9126910A21304600F0F6F905461098F8
:10073800684381190A2E04D23020014326A8417249
:100748002AE0642E1FD3079E069CF00737D030316D
:1007580026A80155641E0A2C0F9E00D30E9E0A215E
:10076800284600F0D9F9109941436918632D0546C8
:10077800EBD80A2C23D23022114326AA1155611E28
:10078800092906D924E03020014326A84172089996
:100798002846303026AA505426A823AA114618C83D
:1007A80018C10088088005212348FFF72DFDFBE6C6
:1007B80012482B2126AA1B4B00F098F8FEDE204693
:1007C80000F07DF8FEDE1148102129AA104BF3E74E
:1007D800601EF5E709482B2126AA094BECE70248D9
:1007E8002B2100F067F8FEDE200C000800240140F1
:1007F8001AFF0000AC0C0008AA0C00085C0C0008EA
:10080800980C000800E100E028000020100C000807
:100818004C0C0008000000200024F400CC0C000858
:10082800E90C0008880C0008F00C0008F60C000819
:10083800FC0C0008030D0008090D0008B0B502AF54
:1008480082B000F05DF9044600F056F914480168DA
:1008580000291ED10021CA4302600379042B10D05D
:10086800124B00211960124B1D68002D11D11A601E
:100878005A68012A02D19A68521C9A601960016864
:10088800491C01221440016001D100F037F902B07F
:10089800B0BD0448102101AA034B00F027F8FEDE82
:1008A80000000020100C00084C0C0008100000404C
:1008B8002800002080B500AF00F006F8FEDE80B505
:1008C80000AF00F001F8FEDE80B500AF00F066F87A
:1008D800FEDE000080B500AF8869C969CB680249AF
:1008E8000E22984780BDC0460E0D000880B500AFA7
:1008F800FFF7EAFFFEDE0000B0B502AF0446057A56
:10090800406800281ED0002D01D0012519E00128DB
:100918000FD1607A00280CD021680878400708D4E5
:100928008869C969CB68094901252A46984700287A
:1009380007D121688869C969CB68054901229847A8
:1009480005462572681E85412846B0BD1C0D000865
:100958001D0D000880B500AF00F01FF809480A49CE
:10096800814202D2002204C1FAE7084808498142BC
:1009780004D2084A08CA08C18142FBD3FFF75CFCCD
:10098800FEDEC04638000020280000202800002095
:10099800000000205C0D0008FEE77047FEE700003D
:1009A800D0B502AF84B000780C46C04678440079D0
:1009B8004000874402070D131900A069E169CB685C
:1009C800164909E0A069E169CB681349052210E0DE
:1009D800A069E169CB680F4907220AE0A069E169CB
:1009E800CB680B49062204E0A069E169CB68074996
:1009F8000B229847014601A8017200214172019417
:100A08000291FFF779FF04B0D0BDC046290D000858
:100A1800400D0008220D00083B0D0008340D0008A9
:100A2800104A11680120CB070BD18B070CD44B0758
:100A38000DD409070ED4106880060FD401200521B3
:100A480070470321034607E00021022304E0012147
:100A5800042301E00221082353607047117A002023
:100A68007047C0461C480040D0B502AF84B000783B
:100A78000C46C046784400794000874402080E14AA
:100A88001A20A069E169CB681A4904221CE0A06910
:100A9800E169CB6816490A2216E0A069E169CB68CA
:100AA8001249072210E0A069E169CB680E490922C2
:100AB8000AE0A069E169CB680A49032204E0A06959
:100AC800E169CB6806490B229847014601A80172E3
:100AD8000021417201940291FFF70EFF04B0D0BDCE
:100AE800290D0008590D0008500D0008220D0008B6
:100AF800460D00081E0D000872B6704762B67047B2
:100B0800EFF310807047002A05D00B780370491C5A
:100B1800401C521EF9D17047F0B503AF83B00029CD
:100B280039D004460020002C33D00D4602902026F0
:100B38000029304602D0284600F030F8002C05D0B5
:100B48000190204600F02AF806460198811B1F29CB
:100B580002981ED802D1204603B0F0BD481C1F23BE
:100B680006461E402246F240591A19408C40002180
:100B7800E30F5200D218D3435B19DB171E462E40F1
:100B8800921B64000C4301211940401EF0D1600003
:100B9800081803B0F0BDFEDEFEDE000080B5030CD1
:100BA80000AF002B1AD0180008210022FF231B02D7
:100BB800184201D01100000AF023034211D00C237F
:100BC8000009034211D08008012243089A430223F6
:100BD800BD465242181A1040401880BD18211022F4
:100BE800E4E70C2304310342EDD10231ECE7C046BF
:100BF80070460421084202D1EFF3088002E0EFF3C7
:080C08000980FFE7FEE7000090
:100C1000616C726561647920626F72726F7765646E
:100C200063616C6C656420604F7074696F6E3A3AF2
:100C3000756E77726170282960206F6E2061206068
:100C40004E6F6E65602076616C756500BD000008B2
:100C50000000000001000000DD08000863616C6C0A
:100C600065642060526573756C743A3A756E77727C
:100C70006170282960206F6E20616E20604572725D
:100C8000602076616C756500B90000080100000005
:100C900001000000A9090008BB00000801000000D5
:100CA00001000000710A00080D0A00012D202D200E
:100CB0002D202D2048414245587069636F207630C1
:100CC0002E302E31202D202D202D202D2D202D2099
:100CD0002D202D20424F4F5420434F4D504C455412
:100CE00045202D202D202D202D2D202D202D202D77
:100CF000555443203D204C4154203D204C4F4E47FD
:100D0000203D20414C54203D205354203D20426F33
:100D100072726F774D75744572726F722C294275BD
:100D200073794F76657272756E5F457874656E7310
:100D300069626C654672616D696E674E6F69736555
:100D40005061726974794672616D654572726F7235
:0C0D50004D6F64654661756C74437263FE
:100D5C000000000004000000000000000000000083
:100D6C000000000000000000000000000000000077
:080D7C0000000000000000006F
:040000050800095D89
:00000001FF
