:020000040800F2
:1000000000080020590D0008990D0008311800085B
:1000100000000000000000000000000000000000E0
:10002000000000000000000000000000990D000822
:100030000000000000000000990D0008990D000864
:10004000990D0008990D0008990D0008990D0008F8
:10005000990D0008990D0008990D0008990D0008E8
:1000600000000000990D0008990D0008990D000886
:10007000990D0008990D0008990D0008090A00085B
:10008000990D0008990D0008990D00080000000066
:10009000990D0008990D0008990D0008990D0008A8
:1000A000990D0008990D0008990D0008990D000898
:0800B000990D0008990D0008EC
:1000B800704770477047704770477047F0B581B018
:1000C8000D46046800200090802903D26846057018
:1000D800012035E0E80A0CD13F2029460140803153
:1000E8006A465170C0436905C90E0D181570022083
:1000F80026E0280C10D13F202840803069468870BF
:100108002805800E803048701F20C0432A04120F33
:1001180015180D70032013E03F21294080316846EF
:10012800C1700F21C943AA0C0A4302702905890E20
:1001380080318170A903890E8031417004201546F1
:100148006E4637182046294600F03AFDC0B2052809
:10015800F8D0761CBE4201D03578F3E7002001B014
:10016800F0BD0000B0B588B00068019002AA104642
:1001780038C938C038C938C001A8024900F0D6FECD
:1001880008B0B0BD681C0008F0B581B0002A0DD0D9
:100198000C468F18056826782846314600F010FD71
:1001A800C0B20528F8D0641CBC42F4D1002001B0CC
:1001B800F0BD000010B58CB002920191046801A84E
:1001C8000F4900F07DFD03AA13C201200B9003A87C
:1001D8000A9000200990089002200790094806908C
:1001E80005A8094906AA00F0A1FE002801D10CB013
:1001F80010BD06482B2106AA054B00F03DFEFEDE89
:10020800B90C0008681D0008681C0008F81C0008E4
:10021800541D0008B0B58EB002AC23800192009145
:1002280005686846114900F04BFD114A069203AA79
:1002380013C2079502200D9003A80C9000200B9084
:100248000A90032009900B48089007A80A4908AAB1
:1002580000F06CFE002801D10EB0B0BD07482B217C
:1002680008AA074B00F008FEFEDEC046B90C0008DD
:10027800E51600087C1D0008681C0008F81C00082A
:10028800541D0008AEB000F091FD0125284024A9B6
:10029800087000F087FD11AE00F08BFDFC48007877
:1002A800002801D0002402E000F04CFD2C4624A8D0
:1002B80000F074FD002801D000F076FD002C00D17C
:1002C8004BE30F9524360C962DA800F027FDF14935
:1002D80001602DA800F022FD00684007F9D52DA87F
:1002E80000F01CFDC168EC4A0A40511CC160EB4E8D
:1002F800304600F00EFC0546304600F00AFC10902F
:10030800304600F006FC0E90304600F002FC07462E
:10031800304600F0FEFB0446304600F0FAFB1BAE08
:1003280003213170239022970F4621940E98209034
:1003380010981F901E95304600F0EEFB24A800F0A0
:10034800E1FB249C25980B9005200207506A402168
:1003580008910843B02188435062B804116881436A
:100368000F9DE80408181060506ACD490840C94933
:10037800FF31014351623805116881436805081847
:100388000E921060304600F0C9FC6D04816B294361
:100398008163304600F0B0FB1922002110910B4612
:1003A80001F0C3F94A1E914100D0CAE2BB072146B9
:1003B8009943611A4A1E914100D0C4E205930D97F2
:1003C800A10000D1C1E201F0CAF906466427394606
:1003D80001F0C5F904464743F01B109B19465941E3
:1003E800BE4200D2B3E20F273E070146B143411A8D
:1003F8004A1E914100D0ACE200970496099501018C
:10040800084632301A465A41884200D2A3E21E46B4
:100418000B9F390A0A916421029101F0A0F9250184
:1004280005432DAC204600F075FCC560204600F061
:1004380071FC4660204600F06DFC8321890106911D
:1004480081600A98C0B2411E02468A4191023A066A
:10045800120B5118801E4242424150020D180D35B0
:10046800204600F057FC0560FF20019000033D097D
:1004780007900540204600F04DFC456000F09EFBCB
:100488000E9CE0680C218843E06060680226B04357
:100498006060206804210A9108430825A843206069
:1004A80024A800F02FFB249F25980390206A7C49FC
:1004B80008400D9A5102014321622068202101431E
:1004C80010200B908143216000980003216A81432A
:1004D800500308182062206880210143089881434E
:1004E80021601BAC204600F019FC0F998904826B2F
:1004F8000A438263204600F0FFFA192210990B463E
:1005080001F013F94A1E914100D01AE23946059AC2
:100518009143791A4A1E914100D014E20096089737
:10052800B90000D111E201F01AF90646029F3946D6
:1005380001F015F904464743F01B109B1946594131
:10054800BE4200D203E20146049A9143411A4A1E70
:10055800914100D0FDE10101084632301A465A4166
:10056800884200D2F7E10595642101F0F8F82101ED
:100578000143019800060A468243881A421E9041A8
:1005880000D0ECE1039E340A0D022DAF384600F08E
:10059800D5FBC560384600F0D1FB1099416038465C
:1005A80000F0CCFB06998160E0B2411E02468A4108
:1005B8009102089A120D3303D218079D2A400A4364
:1005C800801E41424141480210430D2404433846ED
:1005D80000F0B4FB046034092C40384600F0AEFB50
:1005E800446000F0D1FA0E9AD068EB490840D06018
:1005F80050680B9B98435060106808400F9D290273
:1006080040181060E54800F084FA0446384600F0C7
:1006180019FB384600F026FB384600F033FB1BAECA
:10062800304600F07BFB2903426B0A43426338469D
:1006380000F078FB10994160304600F061FA002C18
:1006480000D18EE10646214601F089F8A6420D9EAA
:1006580000D288E103280F9DCE4C01D2433422E01A
:10066800062801D24B341EE00C2801D253341AE07C
:10067800182801D25B3416E0302801D2633412E026
:10068800602801D26B340EE0C0280BD37B340AE01B
:1006980028000020010300000CC0FFFF0024F40024
:1006A800FFF0FFFF73342DA800F03CFB04601BAC87
:1006B800204600F00EFA08900E99C868B043C8604A
:1006C800086830430860284600F023FA07462046A9
:1006D80000F024FB816B29438163204600F01EFB58
:1006E800816A29438162204600F018FBED43816A44
:1006F8002940816224AE30460ECC0EC00ECC0EC00E
:100708000ECC0EC0304600F015FB01682940016090
:10071800304600F00FFB109D8584304600F0EEF95E
:10072800002F00D121E1394601F019F80446401E96
:100738006D41012C00D21AE1050C24AE304600F0C0
:10074800F9FA85626D1CAFB2781B411E88413046AC
:1007580000F0F0FAAF4200D00BE10646280400D1C1
:1007680009E12046394600F0FAFF010C00D004E107
:10077800B08524AC204600F0DDFA01680A9A1143DE
:100788000160204600F0D6FA0F9E4661204600F030
:10079800D1FA01683143016011A801462CCC2CC163
:1007A8002CCC2CC12CCC2CC1089B190C0C9A917008
:1007B80013802590249024AC794921222046FFF704
:1007C800F9FC78490B222046FFF7F4FC0E990998AA
:1007D800886130058861744C27467E1C3D7811A8D5
:1007E80000F0A0FA8068410600D5A1E0810600D596
:1007F8009AE0C10600D599E08007EFD511A800F06E
:1008080091FA057311A800F08DFA8068410600D5A9
:100818008EE0810600D587E0C10600D586E0C007D6
:10082800F0D011A800F07EFA007BA01C8642374663
:10083800D3D10E980B99816124A85E491E22FFF737
:10084800B9FC0C9E304600F00EF9304600F06EFA06
:10085800C16838229143B278D206120E0A437178E1
:100868004907090E1143C160304600F027F93046A8
:1008780000F05CFA044600F04DF9C1B2202900D31B
:1008880082E01F2108400F9D29468140A162304621
:1008980000F04CFA0168059A11430160304600F0F7
:1008A80045FA816804220A438260304600F03EFA25
:1008B80000680007F9D5304600F038FA046C707803
:1008C800012803D1B078032800D12402304600F073
:1008D800DFF8204600F0C6F8034624A836490C2263
:1008E800FFF798FCEC0300F055FA046011A800F03B
:1008F8004DF90C46C00708D0E0B20528F6D01BAA6F
:1009080014702A482B212D4B18E011A8214600F01D
:1009180057F9C0B20528F8D0294C24A8052200238D
:100928002146FFF777FCF8E70D9800E00A98009059
:100938001BAA009810701D482B211D4B00F09CFA33
:10094800FEDE2E4821E02C481FE02A481DE02848FA
:100958001BE0264819E0244817E00D4815E0214817
:1009680013E01F4811E01D480FE01B480DE019482F
:100978000BE0174809E0154807E02DAA022010707F
:100988000A482B21104BD9E70E4800F027FAFEDE63
:10099800D01C000801030000FFFCFFFFA086010037
:1009A800961D0008B71D0008941D0008F81C0008D3
:1009B800341D0008C21D0008E01D0008241D0008A1
:1009C800EC1D0008041A0008441D000864190008FA
:1009D8004C19000814190008CC180008181B000846
:1009E8007C1A0008501C0008381C0008201C00084D
:1009F800081C0008F01B0008D81B0008C01B0008D2
:100A080010B582B000F0D2F90121014068460170AA
:100A180000F0C8F900F0CDF90F4C2068002814D177
:100A28000020C14321602179042904D0201D00F051
:100A380039F92068401C2060684600F0AFF90028AA
:100A480001D000F0B1F902B010BD0448102101AA8C
:100A5800034B00F011FAFEDE00000020801C0008A5
:100A6800E81C00087047B0B5044600F05FF901685B
:100A7800012529430160204600F058F9816829437F
:100A88008160204600F052F90068C007F9D0B0BD77
:100A980010B5044600F04AF9816802220A438260D0
:100AA800204600F043F9016801220A43026020460B
:100AB80000F03CF98068C007F9D110BD10B50446B4
:100AC80000F034F941690722914322780A434261D0
:100AD80010BD10B582B000F021F901246102426B0B
:100AE8000A43426301A800F021F9210782680A43FA
:100AF8008260002002B010BD40697047806970476D
:100B0800C06970470021817181804B21C901016052
:100B1800704770470020704780B500F0FFF8C16A41
:100B280001220A43C26280BD10B584B00078C04675
:100B380078440079400087440205090D110001AC92
:100B4800104A05E001AC0E4A05230AE001AC0B4A45
:100B5800072306E001AC084A062302E001AC054A77
:100B68000B23204600F024FD204600F0A9F904B02C
:100B780010BDC046181E0008231E0008111E0008DC
:100B8800291E00082E1E0008704700000A49081F89
:100B98000068020708D00120086002220A600422C7
:100BA8000A6008220A6002E0800602D401200521BA
:100BB80070470979002070472048004070470000BE
:100BC80004480268120601D4052070470173062004
:100BD8007047C0461C44004010B584B00078C04639
:100BE800784400794000874402060A0E121601ACC8
:100BF800134A042312E001AC104A0A230EE001ACA8
:100C08000D4A07230AE001AC0A4A092306E001ACB1
:100C1800074A032302E001AC044A0B23204600F0F4
:100C2800C7FC204600F04CF904B010BD181E00089F
:100C3800351E0008381E0008111E0008411E000855
:100C4800F91D00080F200005052109070A6A8243DB
:100C58000A62032080020A6882430120C002101839
:100C6800086070470F200006052109070A6A8243B9
:100C78000A62032000030A68824301204003101817
:100C8800086070470F200007052109070A6A824398
:100C98000A62032080030A6882430120C0031018F7
:100CA8000860704780B500F045F80021016180BDFB
:100CB80080B50A4603684168184600F08BFC80BD81
:100CC8007047000010B584B00078C04678440079B9
:100CD80040008744010C040801AC0D4A01E001AC56
:100CE800094A082306E001AC064A092302E001ACE0
:100CF800064A0323204600F05BFC204600F0E0F89B
:100D080004B010BD4B1E0008541E0008641E0008E5
:100D18005C1E0008004870470044004000487047C7
:100D280000100240004870470030014000487047FA
:100D380000240140012080077047000000487047E8
:100D48000048004001480121017070472800002038
:100D580000F01FF809480A49814202D2002204C162
:100D6800FAE708480849814204D2084A08CA08C173
:100D78008142FBD3FFF786FAFEDEC0462C00002036
:100D8800280000202800002000000020B0200008D3
:100D9800FEE770470048704700E100E001784842EC
:100DA8004841704772B6704762B67047EFF31080DB
:100DB8007047704770470000014802497047C046B5
:100DC800D4459A0D92340DD080B58869C969CB682D
:100DD80001490E22984780BDC81E00088CB018C86B
:100DE80008380546083526CD406900260596094F7E
:100DF8000497039602960126019606AE009607947C
:100E080006930B9008A826C0684608A900F022F8A7
:100E1800FEDEC046681E00088CB0034601920091B1
:100E28000220079008A906910021059104910390DA
:100E38000648029006480B9069460A91099001A855
:100E4800089002A8194600F005F8FEDEFC1E00080E
:100E5800F316000888B01CC90968079103A91DC1C9
:100E6800034802900348019001A800F05DFCFEDEF3
:100E7800D81E0008681E00088EB0019100900393E8
:100E88000292022009900AA908910021079106916F
:100E980005900748049007480D9002A80C90064852
:100EA8000B9068460A9004A80449FFF7D3FFFEDEBA
:100EB800681F00081517000823170008901F00086E
:100EC800B0B50446057A406800281ED0002D01D030
:100ED800012519E001280FD1607A00280CD021687B
:100EE8000878400708D48869C969CB680949012589
:100EF8002A469847002807D121688869C969CB68BC
:100F080005490122984705462572681E85412846ED
:100F1800B0BDC04669200008A01F000880B50A4679
:100F28000068012100F05EFB80BD0000F0B597B0BD
:100F38001469536930250AAF032607977E55202583
:100F48000B9500270A971593149410AD13C50E97A7
:100F58000C97DD00651913959668002E00D1C0E046
:100F68005468D368A342254600D81D461268002D50
:100F780000D1E5E00695CB68116815465268984798
:100F88000121002800D0EEE0029104940798303047
:100F9800079001950C35103600200990C043059044
:100FA800012705988300F018011F09680B91317C0F
:100FB800079A11700893F1580A9103460C3BB168DF
:100FC800890002A254580999A746C046E50F0008AF
:100FD800E90F00080B1000082B100008F2681FE04A
:100FE800F168159A914200D3C0E0C900149C03919E
:100FF80061184968634A9142099912D10399615865
:101008000DE0129C13998C4209990AD021460831A7
:10101800129161685B4A9142099902D121680A6874
:1010280001210D920C913168890002A25458099946
:10103800A746C0464D10000851100008731000085C
:101048009310000872681FE07168159A914200D3E6
:101058008CE0C900149C039161184968494A91427F
:10106800099912D1039961580DE0129C13998C4289
:1010780009990AD02146083112916168414A914282
:10108800099902D121680A6801210F920E91196805
:10109800012908D108380168159A91426AD2C80016
:1010A8001499081806E012981399884266D00146E8
:1010B80008311291011D00680A680AA990470028A2
:1010C8003BD10698874249D2089829581198C36895
:1010D8002A6810989847083524367F1C00282CD198
:1010E8005FE75568AB42049500D81D461268002D8D
:1010F80025D0CB6811681646526898470121002808
:1011080031D1029101960C360020C043012780009E
:10111800099005CC0AA9083C904700280DD1AF4298
:101128001CD2099831581198C368326810989847AA
:10113800083608347F1C0028EBD0029913E0049C81
:10114800BC420FD9F8001158101842681198C368AA
:1011580010989847002805D0012104E0049C019AC2
:10116800BC42EFD80021084617B0F0BD0648FFF78B
:1011780053FEFEDE0648FFF74FFEFEDE0348FFF78C
:101188002DFEFEDE250F0008982000084C1F0008E1
:1011980088200008F0B587B01F4604460D9B00293B
:1011A800049305D020680121014006D02B2506E0D4
:1011B80020685D1C2D21059103E011252D0405955E
:1011C800CD1843070021002B02D40F46069114E0E6
:1011D800002F069203970CD00021134603E07F1ED0
:1011E8005B1C002F06D01E78B609022EF7D1491CC9
:1011F800F5E70021039FEA19551A0C9EA1680129F9
:1012080016D10396E668AE421FD900072DD43020C8
:10121800215C032900D10121751B0020794409793B
:1012280049008F4444014101002128460D463EE013
:1012380020460599069A3B4600F08EF8002840D1D2
:10124800A069E169CB6831460BE020460599069A0A
:101258003B4600F081F8002833D1A069E169CB68EA
:101268000399049A9847064671E0302001210291BB
:101278002154606020460599069A3B4600F06CF8B8
:10128800002863D1204630300178032900D101219C
:10129800751B00207944097949008F4438013501CC
:1012A800002128460D4632E06808691C4D08461C96
:1012B800761E08D06168A069E26912699047002823
:1012C800F6D0012643E06068019020460599069A09
:1012D8003B4600F041F80126002838D1019FA0695B
:1012E800E169CB680399049A984700282FD10296A0
:1012F8006D1CA669E4696D1E2CD0226930463946FA
:1013080090470028F7D021E06808691C4D08461C62
:10131800761E07D06168A069E269126990470028C3
:10132800F6D013E06668A069E169CB680399049A6E
:10133800984700280AD16D1CA769E4696D1E09D079
:1013480022693846314690470028F7D0029E304639
:1013580007B0F0BD0026FAE770B51C4615460646EC
:1013680011200004814207D0B069F26912699047E0
:10137800002801D0012070BD002D06D0B069F169A8
:10138800CB6829462246984770BD002070BD0000F2
:10139800F0B589B016460F4604460069A1680129D0
:1013A800089402D1002803D194E0002800D1B7E0C6
:1013B800002E66D001910396BA19112000040490FA
:1013C80060693E46471C00213546029605926C1C12
:1013D800287840B2C3B2002803D425467F1E47D1DF
:1013E80053E01F200790944206D06C783F2020409D
:1013F8000690AC1C254603E01046002206920546DE
:10140800079A1A405809062809D90792059885426B
:1014180008D028783F2202406C1C254604E0900141
:10142800069A11E00022054606988001121818094C
:101438000F2807D3059885420CD028783F2303400E
:101448006D1C09E00798000313182546059A7F1EAE
:101458000ED11AE0002325469001079A5207D20AB6
:101468008018C31804988342059A06D07F1E0CD0B2
:10147800881B4119AA422E46A9D1039E029F089CA7
:1014880009E00026002925D14AE004988342039EFA
:10149800089C04D1029F019900291BD140E0002932
:1014A800029F0CD0B1420AD00020B142024608D2B5
:1014B8007A563F20C34300209A42024601DB384651
:1014C8000A46002800D016460028019900D0074691
:1014D800002925D00020002E0CD031463A4603E0E2
:1014E800491E521C002905D013789B09022BF7D1FD
:1014F800401CF5E7301AE168884211D20020002E1E
:10150800024617D0002233463C4603E05B1E641CAB
:10151800002B0FD02578AD09022DF7D1521CF5E725
:10152800A069E169CB6839463246984704462046A7
:1015380009B0F0BD921B3023089CE45C032C0346E1
:1015480000D023465518C0467B441B795B009F4456
:1015580008010501002128460D4602E06808691CBB
:101568004D08441C641E09D0089A51689069D269D4
:10157800126990470028F5D00124D8E73946089F1A
:1015880078680790B869FA69D368324698470124A1
:101598000028CCD16E1CBD69FF69761E06D03A6959
:1015A8002846079990470028F7D0C0E70024BEE7EF
:1015B80070B51D460E4604468869C969CB68114650
:1015C8002A46984720722660684268416072002067
:1015D800606070BD80B50B46014610461A46FFF79D
:1015E800D7FE80BDF0B591B0039202910646364D04
:1015F800A84251D90120C04327274000049034460F
:101608002046324900F0ABF80690691C4143601A45
:10161800059080B26425294600F0A1F807A9C919E8
:1016280042002B4B9B5C049E8B558919284B9A18BA
:1016380052784A7045430598401B234D069E80B258
:1016480040001A5C8A7018184078C8703F1F2148FB
:1016580084423446D4D8632E21DDB0B264252946AD
:1016680000F07DF84543711B89B24900184A535C64
:10167800BF1E07ACE355E3195118497859700A2879
:1016880010DB4000124A135CB91E07AC63546318A0
:1016980010184078587009E02727632EDDDC3046A3
:1016A8000A28EEDA791E303007AA50542720401A4B
:1016B800019007A840180090074A00230398029950
:1016C800FFF768FD11B0F0BD0F27000010270000DC
:1016D800A11F0008FFE0F505681E000880B50A464E
:1016E80000880121FFF77EFF80BD80B50A460068AB
:1016F8000121FFF777FF80BD80B58869C969CB688C
:1017080001490522984780BDA820000880B50268D5
:101718004068C3681046984780BD80B50B4606C828
:101728001846FFF735FE80BDFEE770B55143050C3E
:10173800140C2E46664371184343C91892B2554398
:1017480080B24243130C5B191D0C49199BB26043CC
:101758001818030CC918000492B2801870BDF0B5AF
:1017680081B0002938D004460020002C32D00D4624
:101778000090202700293E4603D0284600F02EF886
:101788000646002C03D0204600F028F80746F11B37
:101798001F2900981ED802D1204601B0F0BD481C70
:1017A8001F2306461E402246F240591A19408C4013
:1017B8000021E30F5200D218D3435B19DB171E46F2
:1017C8002E40921B64000C4301211940401EF0D1A9
:1017D8006000081801B0F0BDFEDEFEDE030C10212B
:1017E800002B01D018000021FF231B02184211D042
:1017F800F023000A034211D00C230009034211D040
:101808008008012243089A4302235242181A1040C2
:1018180040187047F02308310342EDD10C230431FE
:101828000342EDD10231ECE770460421084202D1AF
:0E183800EFF3088002E0EFF30980FFE7FEE720
:101850002F55736572732F61726B6F2F2E636172D8
:10186000676F2F72656769737472792F7372632F54
:101870006769746875622E636F6D2D3165636336B9
:1018800032393964623965633832332F73746D339A
:10189000326C3078782D68616C2D302E352E302FDB
:1018A0007372632F74696D65722E7273000000008D
:1018B000617474656D707420746F206469766964F6
:1018C00065206279207A65726F000000B018000808
:1018D00019000000501800085C000000A000000083
:1018E00021000000000000000000000000000000D7
:1018F000617474656D707420746F20737562747296
:101900006163742077697468206F766572666C6FA6
:1019100077000000F01800082100000050180008AF
:101920005C000000A1000000230000000000000097
:10193000617474656D707420746F206164642077C5
:10194000697468206F766572666C6F77301900086D
:101950001C000000501800085C000000A8000000F7
:101960003A000000B01800081900000050180008E4
:101970005C000000A80000002E0000000000000035
:101980002F55736572732F61726B6F2F2E636172A7
:10199000676F2F72656769737472792F7372632F23
:1019A0006769746875622E636F6D2D316563633688
:1019B00032393964623965633832332F73746D3369
:1019C000326C3078782D68616C2D302E352E302FAA
:1019D0007372632F6164632E727300000000000055
:1019E000617474656D707420746F207368696674B7
:1019F000206C6566742077697468206F76657266FE
:101A00006C6F7700E01900082300000080190008BF
:101A10005A0000009E0000001D00000000000000B1
:101A20002F55736572732F61726B6F2F2E63617206
:101A3000676F2F72656769737472792F7372632F82
:101A40006769746875622E636F6D2D3165636336E7
:101A500032393964623965633832332F73746D33C8
:101A6000326C3078782D68616C2D302E352E302F09
:101A70007372632F7370692E72730000B0180008C0
:101A800019000000201A00085A000000C7000000DA
:101A900024000000696E7465726E616C206572725C
:101AA0006F723A20656E746572656420756E72653A
:101AB00061636861626C6520636F64652F5573654F
:101AC00072732F61726B6F2F2E636172676F2F724B
:101AD000656769737472792F7372632F67697468AD
:101AE00075622E636F6D2D316563633632393964EB
:101AF000623965633832332F73746D33326C3078EA
:101B0000782D68616C2D302E352E302F7372632F37
:101B10007370692E72730000941A00082800000088
:101B2000BC1A00085A000000380100000100000043
:101B3000617474656D707420746F206D756C746958
:101B4000706C792077697468206F766572666C6F47
:101B5000770000000000000000000000000000000E
:101B60002F55736572732F61726B6F2F2E636172C5
:101B7000676F2F72656769737472792F7372632F41
:101B80006769746875622E636F6D2D3165636336A6
:101B900032393964623965633832332F73746D3387
:101BA000326C3078782D68616C2D302E352E302FC8
:101BB0007372632F73657269616C2E72730000001B
:101BC000301B000821000000601B00085D000000C1
:101BD000EE0000001F000000301B00082100000084
:101BE000601B00085D000000EE0000003E000000E9
:101BF000B018000819000000601B00085D0000001C
:101C0000EE0000001F000000F01800082100000096
:101C1000601B00085D000000F000000025000000CF
:101C2000301B000821000000601B00085D00000060
:101C3000F000000025000000301900081C00000022
:101C4000601B00085D000000F000000024000000A0
:101C5000301B000821000000601B00085D00000030
:101C6000F40000001F000000BB000008040000009A
:101C70000400000091010008C50000086D01000883
:101C8000616C726561647920626F72726F776564EE
:101C900063616C6C656420604F7074696F6E3A3A72
:101CA000756E77726170282960206F6E20612060E8
:101CB0004E6F6E65602076616C75657372632F6C14
:101CC0006962636F72652F6F7074696F6E2E7273C5
:101CD000901C00082B000000BB1C00081500000031
:101CE0007A01000015000000BF000008000000009D
:101CF00001000000D10D000863616C6C6564206018
:101D0000526573756C743A3A756E777261702829F2
:101D100060206F6E20616E20604572726020766177
:101D20006C756500BD0000080100000001000000A6
:101D3000310B0008C1000008010000000100000094
:101D4000E10B0008B90000080100000001000000DC
:101D5000CD0C0008C30000080000000001000000D6
:101D6000011700080A000000641D000800000000C0
:101D7000641D0008010000000D0A0000641D000839
:101D800000000000641D000800000000781D00082D
:101D90000200000000012D202D202D202D20484183
:101DA0004245587069636F2076302E302E31202DD9
:101DB000202D202D202D0D426F6F74696E672E2E01
:101DC0002E0D2D202D202D202D20424F4F5420430D
:101DD0004F4D504C455445202D202D202D202D0DAC
:101DE0004144433A205653544F52453D54696D6522
:101DF0003D2062707320C2B573427573794869677C
:101E0000684E61636B4170623179656172686F75AC
:101E1000724F76657272756E5F457874656E736920
:101E2000626C655061726974794E6F697365467250
:101E3000616D696E674372634D6F64654661756C71
:101E4000744672616D654572726F72556E6465722B
:101E5000666C6F774F766572666C6F77496E6669F0
:101E60006E6974654E614E007372632F6C696263B4
:101E70006F72652F6E756D2F64656332666C742F9B
:101E800072617766702E7273696E646578206F7503
:101E900074206F6620626F756E64733A2074686593
:101EA000206C656E20697320003E00000100000078
:101EB0000000000000000000200000000000000002
:101EC00000C0000000030000426F72726F774D7512
:101ED000744572726F720000BD0D000800000000B2
:101EE00001000000C10D000820627574207468654F
:101EF00020696E646578206973200000881E0008E0
:101F000020000000E81E00081200000063616C6CF5
:101F1000656420604F7074696F6E3A3A756E7772BF
:101F20006170282960206F6E206120604E6F6E65A1
:101F3000602076616C75657372632F6C6962636F84
:101F400072652F6F7074696F6E2E72730C1F0008AC
:101F50002B000000371F0008150000007A01000068
:101F6000150000003A200000681E00080000000074
:101F7000641F0008020000007372632F6C696263C3
:101F80006F72652F726573756C742E72730000002A
:101F9000781F0008150000003C0400000500000048
:101FA0002930303031303230333034303530363023
:101FB00037303830393130313131323133313431F9
:101FC00035313631373138313932303231323232DF
:101FD00033323432353236323732383239333033C5
:101FE00031333233333334333533363337333833B5
:101FF00039343034313432343334343435343634A3
:102000003734383439353035313532353335343588
:10201000353536353735383539363036313632366E
:102020003336343635363636373638363937303754
:102030003137323733373437353736373737383744
:102040003938303831383238333834383538363832
:102050003738383839393039313932393339343918
:102060003539363937393839392C0000000000004D
:102070007372632F6C6962636F72652F666D742F64
:102080006D6F642E7273000070200008160000004F
:10209000570400002800000070200008160000000F
:1020A00063040000110000004572726F72000000AE
:1020B000000000000400000000000000000000001C
:1020C0000000000000000000000000000000000010
:0820D000000000000000000008
:0400000508000D5989
:00000001FF
