:020000040800F2
:1000000000080020210800086108000829120008E3
:1000100000000000000000000000000000000000E0
:10002000000000000000000000000000610800085F
:1000300000000000000000006108000861080008DE
:1000400061080008610800086108000861080008EC
:1000500061080008610800086108000861080008DC
:10006000000000006108000861080008610800083D
:1000700061080008610800086108000861080008BC
:10008000610800086108000861080008000000001D
:10009000610800086108000861080008610800089C
:1000A000610800086108000861080008610800088C
:0800B000610800086108000866
:1000B80070477047F0B581B00D4604680020009085
:1000C800802903D268460570012035E0E80A0CD182
:1000D8003F202946014080316A465170C043690576
:1000E800C90E0D181570022026E0280C10D13F20EB
:1000F80028408030694688702805800E8030487016
:100108001F20C0432A04120F15180D70032013E096
:100118003F21294080316846C1700F21C943AA0C8C
:100128000A4302702905890E80318170A903890E5E
:1001380080314170042015466E46371820462946FE
:1001480000F044FBC0B20528F8D0761CBE4201D0AE
:100158003578F3E7002001B0F0BD0000B0B588B0F5
:100168000068019002AA104638C938C038C938C09A
:1001780001A8024900F0F6FB08B0B0BDD41300088E
:10018800F0B581B0002A0DD00C468F180568267886
:100198002846314600F01AFBC0B20528F8D0641C86
:1001A800BC42F4D1002001B0F0BD000098B000F0CE
:1001B8002FFB0127384003A9087000F025FB00F049
:1001C8002AFB6C480078002801D0002402E000F0E7
:1001D80011FB3C4603A800F013FB002801D000F0F7
:1001E80015FB002C00D1AEE00CAD284600F0DCF881
:1001F80003AC2046294600F0DDF80CA8214600F0A3
:10020800AAFA14A800F0A0FA149D159802900520E7
:100218000007416A40220A43B0218A43426203260A
:10022800B10402688A43F904511801600F21009152
:100238000902426A8A43B9025118416231050268CB
:100248008A43790551180160204600F0CFFA7904F5
:10025800826B0A438263204600F074FA1922002454
:100268002146234600F05DFF4A1E91416DD1B1073A
:100278002A468A43A91A4A1E914168D10197A900C2
:1002880067D000F068FF06466427394600F063FF30
:1002980005464743F01B21466141BE425BD30099A6
:1002A800090702468A43811A4A1E914155D1010124
:1002B8000846323022466241884250D302990E0ADB
:1002C800642100F048FF2F01074317AD284600F0CE
:1002D80089FAC760284600F085FA4460284600F08D
:1002E80081FA832189018160F0B2411E02468A4168
:1002F8009102029F3A06120B5118801E4242424157
:1003080050020E180D36284600F06CFA0660FF20E1
:1003180000033E090640284600F064FA466000F0F3
:1003280053FA0C950894154807900694059401987B
:100338000490134803900CA8124903AA00F012FB7A
:10034800002810D1FEE70C480AE0164808E01448D7
:1003580006E0124804E0104802E00E4800E00C48AD
:1003680000F086FAFEDE08482B2117AA074B00F09A
:10037800CDFAFEDE000000202C140008A0140008AE
:1003880098140008D41300084414000870140008D6
:10039800BC1300087C130008641300084C13000801
:1003A80018130008001300080021817381810321BC
:1003B80001707047F0B587B0054608780F46059775
:1003C8000495C0467844007940008744013F1F2FB8
:1003D8000120054600037F7879030C1806AE3046E5
:1003E80000F004FA4460304600F000FA03210902E4
:1003F800016006A800F0FAF900688005F9D5EE0357
:10040800781CC0B286400024059FF4E07E6806A8E8
:1004180000F0ECF9B54901600120440406A800F099
:10042800E5F900682042F9D00224E4E006A800F0CB
:10043800DDF903210902491C016006A800F0D6F97C
:1004480000684007F9D50124A74ED4E0B878029097
:10045800787800907E68BD6806A800F0C7F9032187
:1004680003910C02012E0ED1A049016001277E04E0
:1004780006A800F0BBF900683042F9D038040190B2
:10048800009F2E460BE0611C016006A800F0AEF943
:1004980000684007F9D500200190934E009F06A8F8
:1004A80000F0A4F9046001204406029D06A800F0AB
:1004B8009DF900682042F9D1B80001A10858874683
:1004C800ED0400085B050008190500082F05000861
:1004D80003050008710500088705000845050008A0
:1004E8009D0500080322002130460B4600F019FE46
:1004F8004A1E914158D08948E8E00C220021304634
:100508000B4600F00EFE4A1E91414DD07C48DDE0BE
:100518000622002130460B4600F003FE4A1E914198
:1005280042D07948D2E00720400731468143701A0B
:10053800411E884100D0CCE0F00035E01F20C00605
:1005480031468143701A411E884100D0C3E07001D2
:100558002AE00398800731468143701A411E88417A
:1005680000D0BAE0B0001FE00F20000731468143F9
:10057800701A411E884100D0B1E0300114E0182201
:10058800002130460B4600F0CCFD4A1E91410BD0AD
:1005980059489BE03022002130460B4600F0C1FD4F
:1005A8004A1E914100D09CE0012D07D0022D01D0B8
:1005B800800804E0032100F0CEFD00E04008544923
:1005C800884200D981E00646B804A905014301988C
:1005D8000D1806AF384600F009F9C560384600F036
:1005E80005F94C49016006A800F000F900682042AE
:1005F800F9D0059F039C06A800F0F8F8C168484A9E
:100608000A4011193A7B13071B0EC9187C7B230279
:100618000B43B97BCD021D43C560002A304609D083
:10062800D21FD0B2904240D11F2840D81F2002408C
:100638003046D040002C024603460ED0E31EDAB204
:100648009A4236D11F2A36D81F2213400246DA4072
:1006580000249318644193422FD301930292039686
:100668000029044602460ED0C91ECCB28C4226D1BF
:100678001F2C26D81F2421400446CC4000212219D3
:100688004941A2421FD30092049A1146059F68CFA0
:1006980068C10399D1601061029850610198906116
:1006A800D4610098106207B0F0BD1F480EE01D48E5
:1006B8000CE020480AE01E4808E01C4806E02048F4
:1006C80004E01E4802E01C4800E0134800F0D0F89F
:1006D800FEDE0C48FAE70748F8E70C48F6E7074853
:1006E800F4E70348F2E7C0460024F40000030100E1
:1006F8008C150008A4150008BC150008D4150008BE
:10070800EC150008041600081C160008341600082A
:1007180000366E0100030001E41600084C160008BC
:100728000CC0FFFF14170008FC1600085C1700082F
:10073800441700082C170008A41700088C17000895
:1007480074170008406970470021817181804B212E
:10075800C9010160704710B50446084600F046F824
:10076800C26A01210A43C2620020E0770F22A27701
:1007780060770E222277E0760D22A27660760C2230
:100788002276E0750B22A27560750A222275E07444
:100798000922A274607408222274E0730722A273EB
:1007A800607306222273E0720522A272607204222C
:1007B8002272E0710322A271607102222271E0703C
:1007C800A1706070207010BD704700000448026876
:1007D800120601D405207047017306207047C046F1
:1007E8001C440040004870470044004000487047DF
:1007F80000100240014801210170704700000020EC
:10080800017848424841704772B6704762B67047EF
:10081800EFF310807047704700F01FF809480A4945
:10082800814202D2002204C1FAE7084808498142FD
:1008380004D2084A08CA08C18142FBD3FFF7B6FCB4
:10084800FEDEC0460400002000000020000000205A
:1008580000000020F0190008FEE77047704700000C
:10086800014802497047C046D4459A0D92340DD0CC
:100878008CB018C808380546083526CD40690026CA
:100888000596094F0497039602960126019606AE2F
:100898000096079406930B9008A826C0684608A9F6
:1008A80000F022F8FEDEC046BC1700088CB00346F4
:1008B800019200910220079008A906910021059154
:1008C800049103900648029006480B9069460A91E5
:1008D800099001A8089002A8194600F005F8FEDE64
:1008E80044180008E910000888B01CC90968079175
:1008F80003A91DC1034802900348019001A800F014
:100908000FFCFEDE20180008BC1700088EB001910D
:10091800009003930292022009900AA908910021ED
:100928000791069105900748049007480D9002A882
:100938000C9006480B9068460A9004A80449FFF7F3
:10094800D3FFFEDEB01800080D1100081B110008C7
:10095800D818000880B50A460068012100F044FB59
:1009680080BD0000F0B597B01469536930250AAF0F
:10097800032607977E5520250B9500270A97159380
:10098800149410AD13C50E970C97DD0065191395D7
:100998009668002E00D1C0E05468D368A34225466B
:1009A80000D81D461268002D00D1E5E00695CB68F9
:1009B80011681546526898470121002800D0EEE0DA
:1009C8000291049407983030079001950C35103641
:1009D80000200990C0430590012705988300F0186E
:1009E800011F09680B91317C079A11700893F1581F
:1009F8000A9103460C3BB168890002A25458099930
:100A0800A746C0461D0A0008210A0008430A000834
:100A1800630A0008F2681FE0F168159A914200D352
:100A2800C0E0C900149C039161184968634A914267
:100A3800099912D1039961580DE0129C13998C42BF
:100A480009990AD021460831129161685B4A91429E
:100A5800099902D121680A6801210D920C91316827
:100A6800890002A254580999A746C046850A000879
:100A7800890A0008AB0A0008CB0A000872681FE060
:100A88007168159A914200D38CE0C900149C0391B7
:100A980061184968494A9142099912D103996158E4
:100AA8000DE0129C13998C4209990AD0214608310D
:100AB80012916168414A9142099902D121680A68F4
:100AC80001210F920E911968012908D1083801688F
:100AD800159A91426AD2C8001499081806E012982B
:100AE8001399884266D0014608311291011D0068A9
:100AF8000A680AA9904700283BD10698874249D23C
:100B0800089829581198C3682A6810989847083592
:100B180024367F1C00282CD15FE75568AB4204952A
:100B280000D81D461268002D25D0CB6811681646DE
:100B3800526898470121002831D1029101960C365C
:100B48000020C04301278000099005CC0AA9083C71
:100B5800904700280DD1AF421CD2099831581198FE
:100B6800C368326810989847083608347F1C0028F4
:100B7800EBD0029913E0049CBC420FD9F80011583D
:100B8800101842681198C36810989847002805D033
:100B9800012104E0049C019ABC42EFD800210846D8
:100BA80017B0F0BD0648FFF781FEFEDE0648FFF7E6
:100BB8007DFEFEDE0348FFF75BFEFEDE5D090008F2
:100BC800D819000894180008C8190008F0B587B0AB
:100BD8001F4604460D9B0029049305D02068012177
:100BE800014006D02B2506E020685D1C2D210591CB
:100BF80003E011252D040595CD1843070021002B8E
:100C080002D40F46069114E0002F069203970CD0E9
:100C18000021134603E07F1E5B1C002F06D01E78C0
:100C2800B609022EF7D1491CF5E70021039FEA19FE
:100C3800551A0C9EA168012916D10396E668AE42A2
:100C48001FD900072DD43020215C032900D10121B0
:100C5800751B00207944097949008F4444014101FA
:100C6800002128460D463EE020460599069A3B4657
:100C780000F08EF8002840D1A069E169CB683146C0
:100C88000BE020460599069A3B4600F081F80028BB
:100C980033D1A069E169CB680399049A984706465D
:100CA80071E03020012102912154606020460599AD
:100CB800069A3B4600F06CF8002863D12046303095
:100CC8000178032900D10121751B00207944097995
:100CD80049008F4438013501002128460D4632E08D
:100CE8006808691C4D08461C761E08D06168A06912
:100CF800E269126990470028F6D0012643E060684F
:100D0800019020460599069A3B4600F041F80126D5
:100D1800002838D1019FA069E169CB680399049A3A
:100D2800984700282FD102966D1CA669E4696D1EAC
:100D38002CD022693046394690470028F7D021E068
:100D48006808691C4D08461C761E07D06168A069B2
:100D5800E269126990470028F6D013E06668A06936
:100D6800E169CB680399049A984700280AD16D1C59
:100D7800A769E4696D1E09D0226938463146904753
:100D88000028F7D0029E304607B0F0BD0026FAE7EB
:100D980070B51C461546064611200004814207D04E
:100DA800B069F26912699047002801D0012070BD2E
:100DB800002D06D0B069F169CB68294622469847CC
:100DC80070BD002070BD0000F0B589B016460F4612
:100DD80004460069A1680129089402D1002803D1BA
:100DE80094E0002800D1B7E0002E66D00191039668
:100DF800BA1911200004049060693E46471C00217E
:100E08003546029605926C1C287840B2C3B2002879
:100E180003D425467F1E47D153E01F2007909442F4
:100E280006D06C783F2020400690AC1C254603E095
:100E38001046002206920546079A1A4058090628C5
:100E480009D907920598854208D028783F220240A0
:100E58006C1C254604E09001069A11E00022054624
:100E680006988001121818090F2807D3059885429B
:100E78000CD028783F2303406D1C09E00798000335
:100E880013182546059A7F1E0ED11AE00023254621
:100E98009001079A5207D20A8018C318049883420F
:100EA800059A06D07F1E0CD0881B4119AA422E46EF
:100EB800A9D1039E029F089C09E00026002925D19C
:100EC8004AE004988342039E089C04D1029F01993A
:100ED80000291BD140E00029029F0CD0B1420AD062
:100EE8000020B142024608D27A563F20C343002070
:100EF8009A42024601DB38460A46002800D01646C8
:100F08000028019900D00746002925D00020002E8E
:100F18000CD031463A4603E0491E521C002905D040
:100F280013789B09022BF7D1401CF5E7301AE168CA
:100F3800884211D20020002E024617D000223346E4
:100F48003C4603E05B1E641C002B0FD02578AD09DE
:100F5800022DF7D1521CF5E7A069E169CB68394643
:100F6800324698470446204609B0F0BD921B30230C
:100F7800089CE45C032C034600D023465518C04661
:100F88007B441B795B009F4408010501002128462A
:100F98000D4602E06808691C4D08441C641E09D00F
:100FA800089A51689069D269126990470028F5D06B
:100FB8000124D8E73946089F78680790B869FA6924
:100FC800D3683246984701240028CCD16E1CBD69ED
:100FD800FF69761E06D03A69284607999047002887
:100FE800F7D0C0E70024BEE7F0B591B003920291B4
:100FF8000646364DA84251D90120C0432727400054
:10100800049034462046324900F0A5F80690691C41
:101018004143601A059080B26425294600F09BF888
:1010280007A9C91942002B4B9B5C049E8B55891953
:10103800284B9A1852784A7045430598401B234D0F
:10104800069E80B240001A5C8A7018184078C870F2
:101058003F1F214884423446D4D8632E21DDB0B2E4
:101068006425294600F077F84543711B89B2490089
:10107800184A535CBF1E07ACE355E3195118497869
:1010880059700A2810DB4000124A135CB91E07ACDD
:101098006354631810184078587009E02727632EA6
:1010A800DDDC30460A28EEDA791E303007AA5054C3
:1010B8002720401A019007A840180090074A0023EB
:1010C80003980299FFF782FD11B0F0BD0F270000C9
:1010D80010270000E8180008FFE0F505BC17000815
:1010E80080B50A4600680121FFF77EFF80BD000039
:1010F80080B58869C969CB6801490522984780BDD0
:10110800E819000880B502684068C3681046984727
:1011180080BD80B50B4606C81846FFF755FE80BD52
:10112800FEE770B55143050C140C2E466643711842
:101138004343C91892B2554380B24243130C5B191A
:101148001D0C49199BB260431818030CC9180004F8
:1011580092B2801870BDF0B581B0002938D004462D
:101168000020002C32D00D460090202700293E4652
:1011780003D0284600F02EF80646002C03D020465F
:1011880000F028F80746F11B1F2900981ED802D145
:10119800204601B0F0BD481C1F2306461E402246CB
:1011A800F240591A19408C400021E30F5200D2181E
:1011B800D3435B19DB171E462E40921B64000C4379
:1011C80001211940401EF0D16000081801B0F0BD9F
:1011D800FEDEFEDE030C1021002B01D018000021DA
:1011E800FF231B02184211D0F023000A034211D03A
:1011F8000C230009034211D08008012243089A43B6
:1012080002235242181A104040187047F023083140
:101218000342EDD10C2304310342EDD10231ECE756
:1012280070460421084202D1EFF3088002E0EFF390
:061238000980FFE7FEE75C
:10124000617474656D707420746F206D756C746951
:10125000706C792077697468206F766572666C6F40
:101260007700000000000000000000000000000007
:10127000617474656D707420746F2073756274721C
:101280006163742077697468206F766572666C6F2D
:1012900077000000000000000000000000000000D7
:1012A0002F55736572732F61726B6F2F2E6361728E
:1012B000676F2F72656769737472792F7372632F0A
:1012C0006769746875622E636F6D2D31656363366F
:1012D00032393964623965633832332F73746D3350
:1012E000326C3078782D68616C2D302E342E302F92
:1012F0007372632F73657269616C2E7273000000E4
:101300004012000821000000A01200085D0000004B
:10131000EC0000001F000000401200082100000047
:10132000A01200085D000000EC0000003E0000007C
:10133000617474656D707420746F2064697669647B
:1013400065206279207A65726F0000003013000812
:1013500019000000A01200085D000000EC00000071
:101360001F0000007012000821000000A0120008F9
:101370005D000000EE0000002500000040120008A3
:1013800021000000A01200085D000000EE00000037
:101390002500000000000000000000000000000028
:1013A000617474656D707420746F2061646420775B
:1013B000697468206F766572666C6F77A013000899
:1013C0001C000000A01200085D000000EE000000FC
:1013D00024000000B9000008040000000400000020
:1013E00089010008BD0000086501000863616C6C9C
:1013F000656420604F7074696F6E3A3A756E7772EB
:101400006170282960206F6E206120604E6F6E65CC
:10141000602076616C75657372632F6C6962636FAF
:1014200072652F6F7074696F6E2E7273EC13000803
:101430002B00000017140008150000007A010000BE
:101440001500000063616C6C656420605265737503
:101450006C743A3A756E77726170282960206F6EED
:1014600020616E2060457272602076616C75650047
:10147000BB0000080000000001000000F910000897
:101480002D202D202D202D204D616E79202D202DF9
:10149000202D202D0D0A00008014000816000000E9
:1014A000617474656D707420746F207375627472EA
:1014B0006163742077697468206F766572666C6FFB
:1014C00077000000000000000000000000000000A5
:1014D000617474656D707420746F206D756C7469BF
:1014E000706C792077697468206F766572666C6FAE
:1014F0007700000000000000000000000000000075
:10150000617474656D707420746F2073686966749B
:10151000206C6566742077697468206F76657266E2
:101520006C6F770000000000000000000000000069
:101530002F55736572732F61726B6F2F2E636172FB
:10154000676F2F72656769737472792F7372632F77
:101550006769746875622E636F6D2D3165636336DC
:1015600032393964623965633832332F73746D33BD
:10157000326C3078782D68616C2D302E342E302FFF
:101580007372632F7263632E72730000D0140008AD
:1015900021000000301500085A000000F200000091
:1015A00026000000D01400082100000030150008BB
:1015B0005A000000F100000026000000D0140008CE
:1015C00021000000301500085A000000F000000063
:1015D00026000000D014000821000000301500088B
:1015E0005A000000EF00000026000000D0140008A0
:1015F00021000000301500085A000000EE00000035
:1016000026000000D014000821000000301500085A
:101610005A000000ED00000025000000D014000872
:1016200021000000301500085A000000EC00000006
:1016300025000000D014000821000000301500082B
:101640005A000000EB00000025000000D014000844
:1016500021000000301500085A000000EA000000D8
:1016600025000000617373657274696F6E20666196
:10167000696C65643A2066726571203C3D203234A5
:101680002E6D687A28292E302F55736572732F615D
:10169000726B6F2F2E636172676F2F72656769734C
:1016A0007472792F7372632F6769746875622E6321
:1016B0006F6D2D3165636336323939646239656324
:1016C0003832332F73746D33326C3078782D686113
:1016D0006C2D302E342E302F7372632F7263632E75
:1016E00072730000641600082400000088160008C9
:1016F0005A000000FA00000011000000A0140008C9
:1017000021000000301500085A0000001A010000F6
:101710002400000000150008230000003015000818
:101720005A0000001A0100001E000000A01400086A
:1017300021000000301500085A00000020010000C0
:101740002D000000001500082300000030150008DF
:101750005A0000002001000027000000D0140008FB
:1017600021000000301500085A000000210100008F
:1017700018000000A0140008210000003015000827
:101780005A000000280100002D000000001500088C
:1017900023000000301500085A0000002801000056
:1017A00027000000D01400082100000030150008B8
:1017B0005A0000002901000018000000000000008D
:1017C0007372632F6C6962636F72652F6E756D2F14
:1017D00064656332666C742F72617766702E727303
:1017E000696E646578206F7574206F6620626F750E
:1017F0006E64733A20746865206C656E206973208E
:10180000003E000001000000000000000000000099
:10181000200000000000000000C0000000030000E5
:1018200065080008000000000100000069080008C9
:10183000206275742074686520696E64657820691B
:1018400073200000E0170008200000003018000896
:101850001200000063616C6C656420604F707469F5
:101860006F6E3A3A756E77726170282960206F6EDC
:10187000206120604E6F6E65602076616C756573C7
:1018800072632F6C6962636F72652F6F7074696F1A
:101890006E2E7273541800082B0000007F18000889
:1018A000150000007A010000150000003A20000039
:1018B000BC17000800000000AC180008020000007F
:1018C0007372632F6C6962636F72652F72657375D3
:1018D0006C742E7273000000C01800081500000020
:1018E0003C0400000500000030303031303230332D
:1018F00030343035303630373038303931303131BE
:1019000031323133313431353136313731383139A3
:10191000323032313232323332343235323632379B
:101920003238323933303331333233333334333581
:101930003336333733383339343034313432343367
:10194000343434353436343734383439353035314D
:101950003532353335343535353635373538353933
:10196000363036313632363336343635363636372B
:101970003638363937303731373237333734373511
:1019800037363737373837393830383138323833F7
:1019900038343835383638373838383939303931DD
:1019A00039323933393439353936393739383939C3
:1019B0007372632F6C6962636F72652F666D742F2B
:1019C0006D6F642E72730000B019000816000000DD
:1019D0005704000028000000B0190008160000009D
:1019E00063040000110000004572726F7200000075
:0400000508000821C6
:00000001FF
