:020000040800F2
:10000000000800205507000895070008610800084F
:1000100000000000000000000000000000000000E0
:10002000000000000000000000000000950700082C
:100030000000000000000000950700089507000878
:100040009507000895070008950700089507000820
:100050009507000895070008950700089507000810
:1000600000000000950700089507000895070008A4
:100070009507000895070008950700085D06000829
:100080009507000895070008950700080000000084
:1000900095070008950700089507000895070008D0
:1000A00095070008950700089507000895070008C0
:0800B000950700089507000800
:1000B80070477047F0B581B04118112212040092C0
:1000C800214B461C047865B2ECB2002D01D43046B1
:1000D80031E01F258E4204D047783F263E40801CE1
:1000E80001E00026084625406709062F06D9884200
:1000F80007D002783F271740401C04E0AC013419B0
:1001080019E000270846B201BE1822090F2A06D3B3
:10011800884207D002783F241440401C03E02A0399
:10012800B41808E00024B2016D07ED0A5219141939
:10013800009A944205D01A681206FCD51C738842AE
:10014800BFD101B0F0BDC0461C4400409AB000F0D9
:100158006BFB044600F064FBF7480178002901D0E6
:10016800002501E001250570E00701D100F05AFBE8
:10017800002D00D134E2F148F14D056001684907CE
:10018800FCD5C168EF4A0A40511CC160C16A01240C
:100198002143C1620646052009900307596A402099
:1001A80004900143B0229143596203208104074619
:1001B8001A688A43E10451181960596AE2480140F3
:1001C8002A46FF320A435A6239051A688A4361058A
:1001D8005118196060040C940690B16B0143B16327
:1001E80079023E460A468332D848C26000250A95FD
:1001F800456062030592C032039282600D2202922A
:10020800026045601A46DB680C24A343D360536838
:100218000225AB4353601368042423430827BB43D8
:100228001360136AF34803405918116213682021B8
:10023800194310200090C0430190014011600F2025
:1002480007900103106A88430B96710340181062E7
:100258001068802101430498814311600C9B980425
:10026800E24EB16B0143B163E44EE548F0600A9891
:1002780070600399B160029931607060D068E1499B
:100288000840D06050680199084050601068DD4906
:10029800084019024018106007980005116A814348
:1002A80011620B98800211688143D8020818106007
:1002B80007980006116A814311620B9B18031168A5
:1002C8008143059808181060106ACF4908401062E9
:1002D800114608929803126882430C9BD803049035
:1002E800101808601903C148426B0A434263C749A2
:1002F8000A9A4A60BE4A73320A605902426B0A433C
:100308004263C148401CC24A916801439160089AFF
:10031800D0680B998843D060106808431060B34ACE
:10032800906B18439063906A18439062DB4305937F
:10033800906A1840906213AA16AB079303CA03C3C6
:1003480010889178997018800C9A91070868059B15
:10035800184008600A988884F4208862AD48888527
:100368000868204308604A610868104305910860DE
:100378000DA8079B06CB06C019889A788270018061
:10038800A5482221FFF796FE0698089988610C98DF
:1003980000058861A14A511C9C4883685806400F93
:1003A80000D011E19807F7D51078984A107397484C
:1003B80082685006400F00D006E1D007F7D0934876
:1003C800007B9648801C81420A46E4D1089800992F
:1003D80081618F4A10680C9908431060906808433F
:1003E80090601068C007FCD0D06838218843D0607E
:1003F80050690721884350610C989062106838430F
:10040800106090682043906010680007FCD5106C5D
:1004180090682843906010680C99084310609068B1
:10042800C007FCD10DA810A907910CC80CC10288FF
:10043800807888700A800C980599C86000F0F4F9F3
:10044800089000F0EDF913A8079B06CB06C01988A1
:100458009A788270018074480168002900D0BAE057
:1004680074490A9A0260416013A816A90CC80CC105
:100478000288807888700A806F490868002800D050
:10048800A9E00B980871481D16A90B2200F0CFF9B6
:100498006A486949086148618861C86108624862B8
:1004A8000A9808600898C00701D100F0BBF96448B1
:1004B8000499016016A8C01C0890F069010705D0CE
:1004C8000C983062356234623762F6E78006F4D5FC
:1004D8005C4800782428F0D1F069010705D00C9811
:1004E8003062356234623762F6E78006F4D55548E3
:1004F80000780B900C98F1690A0704D030623562D5
:1005080034623762F7E78906F5D54E490978F2690A
:10051800130704D03062356234623762F7E7920617
:10052800F5D548480278F369180711D00C9830625D
:10053800356234623762F6E730000020001002406E
:10054800010300000CC0FFFFFFF0FFFF0044004064
:100558009806E8D53B4803780B984728BCD14E2924
:10056800BAD1472AB8D1472BB6D1099864280FD0F9
:10057800F1690A0705D00C99316235623462376235
:10058800F6E78906F4D5401C2E4909780A29EDD1E9
:1005980016A8592181702C4901800721089800F07C
:1005A80056F948210A98144BDA691206FCD5274AED
:1005B8001170401C0A2802D016A9095CF4E7092129
:1005C8002348FFF777FD78E715482B2116AA154B26
:1005D80000F08AF8FEDE1548102119AA144BF7E737
:1005E800014800F074F8FEDEC80800080010024058
:1005F80001030000FFF0FFFF0044004000480040F6
:1006080000830600FFFCFFFFFFFFFF0F00300140E3
:10061800002401401AFF00002E0900082C090008D8
:10062800F00800081C0900082800002078080008C5
:10063800E008000801000100000000200024F40088
:1006480000E100E0244800404845000028440040FC
:1006580050090008B0B582B000F0E6F8044600F092
:10066800DFF81448016800291DD10021CA4302603F
:100678000379042B10D0124B00211960114B1D680F
:10068800002D10D11A609A88012A02D1DA88521CEA
:10069800DA8019600168491C0160E00701D100F0A7
:1006A800C1F802B0B0BD0448102101AA034B00F004
:1006B8001BF8FEDE0000002078080008E0080008AB
:1006C800100000402800002000F062F8FEDEFFF76E
:1006D800FBFFFEDE80B58869C969CB6801490E2237
:1006E800984780BD59090008FFF7EEFFFEDE0000BD
:1006F800B0B50446057A406800281ED0002D01D008
:10070800012519E001280FD1607A00280CD0216852
:100718000878400708D48869C969CB680949012560
:100728002A469847002807D121688869C969CB6893
:1007380005490122984705462572681E85412846C5
:10074800B0BDC046680900086709000800F01FF836
:1007580009480A49814202D2002204C1FAE708483E
:100768000849814204D2084A08CA08C18142FBD319
:10077800FFF7ECFCFEDEC046340000202800002015
:10078800280000200000002098090008FEE77047B4
:10079800FEE7000010B584B000780C467844007974
:1007A8004000874402080E141A20A069E169CB684A
:1007B8001A4904221CE0A069E169CB6816490A229B
:1007C80016E0A069E169CB681249072210E0A06928
:1007D800E169CB680E4909220AE0A069E169CB68A2
:1007E8000A49032204E0A069E169CB6806490B22A3
:1007F8009847014601A801720021417201940291B3
:10080800FFF776FF04B010BD7409000892090008CC
:10081800890900086D0900087F09000869090008AE
:1008280072B6704762B67047EFF310807047002ABF
:1008380005D00B780370491C401C521EF9D1704733
:10084800002903D00270401C491EFBD1704780B5B7
:100858000022FFF7F5FF80BD70460421084202D14F
:0E086800EFF3088002E0EFF30980FFE7FEE700
:10087800616C726561647920626F72726F7765640A
:1008880063616C6C656420604F7074696F6E3A3A8E
:10089800756E77726170282960206F6E2061206004
:1008A8004E6F6E65602076616C75657372632F6C30
:1008B8006962636F72652F6F7074696F6E2E7273E1
:1008C800880800082B000000B30800081500000085
:1008D8007A01000015000000B900000800000000BF
:1008E80001000000DD06000863616C6C656420602F
:1008F800526573756C743A3A756E7772617028290F
:1009080060206F6E20616E20604572726020766193
:100918006C756500BB0000080100000001000000C4
:100928009D07000800012D202D202D202D20484155
:100938004245587069636F2076302E302E31202D55
:10094800202D202D202D0D0A2D202D202D202D0D80
:100958000A426F72726F774D75744572726F7229A1
:100968002C427573794F76657272756E5F4578742F
:10097800656E7369626C654672616D654572726F0A
:10098800724D6F64654661756C7443726300000054
:10099800000000000400000000000000000000004B
:1009A800000000000000000000000000000000003F
:0809B800000000000000000037
:040000050800075593
:00000001FF
