:020000040800F2
:1000000000080020A90E0008E90E00086119000888
:1000100000000000000000000000000000000000E0
:10002000000000000000000000000000E90E0008D1
:100030000000000000000000E90E0008E90E0008C2
:10004000E90E0008E90E0008E90E0008E90E0008B4
:10005000E90E0008E90E0008E90E0008E90E0008A4
:1000600000000000E90E0008E90E0008E90E000893
:10007000E90E0008E90E0008E90E00088D020008EC
:10008000E90E0008E90E0008E90E00080000000073
:10009000E90E0008E90E0008E90E0008E90E000864
:1000A000E90E0008E90E0008E90E0008E90E000854
:0800B000E90E0008E90E00084A
:1000B800704770477047704770477047F0B581B018
:1000C8000D46046800200090802903D26846057018
:1000D800012035E0E80A0CD13F2029460140803153
:1000E8006A465170C0436905C90E0D181570022083
:1000F80026E0280C10D13F202840803069468870BF
:100108002805800E803048701F20C0432A04120F33
:1001180015180D70032013E03F21294080316846EF
:10012800C1700F21C943AA0C0A4302702905890E20
:1001380080318170A903890E8031417004201546F1
:100148006E4637182046294600F0CCFDC0B2052877
:10015800F8D0761CBE4201D03578F3E7002001B014
:10016800F0BD0000B0B588B00068019002AA104642
:1001780038C938C038C938C001A8024900F06EFF34
:1001880008B0B0BD981D0008F0B581B0002A0DD0A8
:100198000C468F18056826782846314600F0A2FDDF
:1001A800C0B20528F8D0641CBC42F4D1002001B0CC
:1001B800F0BD000010B58CB002920191046801A84E
:1001C8000F4900F015FE03AA13C201200B9003A8E3
:1001D8000A9000200990089002200790094806908C
:1001E80005A8094906AA00F039FF002801D10CB07A
:1001F80010BD06482B2106AA054B00F0D5FEFEDEF1
:10020800E90D0008981E0008981D0008281E00081F
:10021800841E0008B0B58EB002AC23800192009114
:1002280005686846114900F0E3FD114A069203AAE1
:1002380013C2079502200D9003A80C9000200B9084
:100248000A90032009900B48089007A80A4908AAB1
:1002580000F004FF002801D10EB0B0BD07482B21E3
:1002680008AA074B00F0A0FEFEDEC046E90D000814
:1002780015180008AC1E0008981D0008281E000864
:10028800841E000870B582B028480188491C8AB2CB
:10029800531A5C1EA3418A4241D1018000F0FCFD43
:1002A800012420406946087000F0F2FD00F0F7FDD7
:1002B8001F4D286800282BD10020C6432E602979BD
:1002C80004291BD0281D00F085FD1C480168002961
:1002D8001ED10660818801290CD1C188491C8AB2C7
:1002E800531A5E1EB3418A421BD1C18014490A7851
:1002F80062400A70002101602868401C2860684636
:1003080000F0C2FD002801D000F0C4FD02B070BDAD
:100318000848102101AA084B00F046FEFEDE0A48F4
:1003280000E0084800F0F2FDFEDEC0463000002084
:1003380000000020B01D0008181E0008280000203A
:1003480032000020E81E0008D01E0008C0B000F0EF
:10035800A3FD0124204036A9087000F099FD00F0A3
:100368009EFDFA4800780028109401D0002401E08E
:1003780000F080FD36A800F087FD002801D000F0CD
:1003880089FD002C00D19DE33FA800F05FFDF049F6
:100398000160109C3FA800F059FD00684007F9D59E
:1003A8003FA800F053FDC168EA4A0A40511CC160E9
:1003B800E94D284600F03FFC0F90284600F03BFC32
:1003C8000E90284600F037FC0D90284600F033FCCC
:1003D8000746284600F02FFC0646284600F02BFC6E
:1003E80011AD03212970199018970F4617960D988B
:1003F80016900E9815900F981490284600F01EFC41
:1004080036A800F011FC369E37980F900520020799
:10041800506A402109910843B02188435062B804CA
:1004280011688143E00408181060506ACB490840FD
:10043800C749FF310143516238051168814360059E
:1004480008180E921060284600F000FD6404816BC5
:1004580021438163284600F0E1FB19220025294643
:100468002B4601F0FAF94A1E914100D02CE3BA0755
:10047800314606929143711A4A1E914100D025E3F4
:100488000D97B10000D123E301F001FA0646642775
:10049800394601F0FCF94743F31B29466941BE423E
:1004A80000D217E30F2102910A07194605929143DA
:1004B800591A4A1E914100D00EE306460A941901C2
:1004C800084632302A466A41884200D206E30F992C
:1004D8000C0A6421049101F0DAF9360106433FAFB2
:1004E800384600F0AFFCC660384600F0ABFC45600B
:1004F800384600F0A7FC8321890107918160E0B2AA
:10050800411E02468A4191020F9E3206120B511873
:10051800801E4242424150020C180D34384600F009
:1005280091FC0460FF200390000334090890044004
:10053800384600F087FC446000F0D2FB0E9CE0686F
:100548000C218843E0606068022100918843606064
:10055800206804210B9108430821019188432060F9
:1005680036A800F061FB369E37980F90206A7B49C9
:1005780008400D9A5102014321622068202101435D
:1005880010200C908143216002980003216A814366
:10059800500308182062206880210143099881438C
:1005A800216011AF384600F051FC10998904826B24
:1005B8000A438263384600F031FB192229462B464C
:1005C80001F04BF94A1E914100D07DE23146069A6E
:1005D8009143711A4A1E914100D077E20996B10001
:1005E80000D175E201F053F90646049C214601F05A
:1005F8004EF907464443301B29466941A64200D2BA
:1006080068E20146059A9143411A4A1E914100D079
:1006180062E20101084632302A466A41884200D225
:100628005CE2642101F033F93901014303980006C3
:100638000A468243881A421E904100D050E20F9F1A
:100648003A0A06920C023FAE304600F00FFCC46036
:10065800304600F00BFC4560304600F007FC079977
:1006680081600698C0B2411E02468A419102099AE9
:10067800120D3B03D218089F3A400A43801E41429C
:100688004141480210430D240443304600F0EEFB7C
:1006980004600F9804093C40304600F0E7FB4460D2
:1006A80000F004FB0E9AD0682D490840D0605068CD
:1006B8000C9B9843506010680840109C2102401819
:1006C8001060284800F0B7FA0F90304600F04CFB55
:1006D800304600F059FB304600F066FB11AF384653
:1006E80000F0B4FB2103426B0A434263304600F03A
:1006F800B1FB456038460F9C00F094FA002C00D1FD
:10070800F0E10646214601F0C2F8A6420D9F00D24C
:10071800EAE103280E4E01D2433626E0062801D22C
:100728004B3622E00C2801D253361EE0182801D29D
:100738005B361AE0302801D2633616E0602801D211
:100748006B3612E0C0280FD37B360EE03300002052
:10075800010300000CC0FFFF0024F400FFF0FFFFBE
:10076800FFFCFFFFA086010073363FA800F072FB74
:10077800066011AE304600F03EFA0F900E99C86838
:10078800B843C860086838430860109C204600F0E9
:1007980052FA0990304600F059FB816B214381637E
:1007A800304600F053FB816A21438162304600F0F5
:1007B8004DFBE443816A2140816236AF38460ECE54
:1007C8000EC00ECE0EC00ECE0EC0384600F04AFB4C
:1007D800016821400160384600F044FB85843846B2
:1007E80000F01EFA0999002900D17FE101F04FF8C5
:1007F800421E294669410990012800D278E1140C6B
:1008080036AE304600F02EFB8462641CA7B2381B5B
:10081800411E8841304600F025FBA74200D069E11F
:100828000646200400D167E10998394601F02FF8FF
:10083800010C109C00D061E1B08536AE304600F066
:1008480011FB01680B9A11430160304600F00AFB66
:100858004461304600F006FB0168214301601AAF8D
:1008680038460ECE0EC00ECE0EC00ECE0EC0384686
:1008780000F0AAFA264623AC20460ECF0EC00ECFB3
:100888000EC00ECF0EC000F007FB30402CA9087038
:1008980000F0FEFA2DA80ECC0EC00ECC0EC00ECC69
:1008A8000EC000F0FCFA9C4C2068002800D0F7E04D
:1008B80060C42DA836A94CC84CC14CC84CC14CC802
:1008C8004CC198480168083C002900D0E8E0011DA7
:1008D80036AAC8CAC8C1C8CAC8C1C8CAC8C105607A
:1008E8002CA800F0D1FA002801D000F0D3FA109F0C
:1008F800FE0300F0C5FA06600F9A100C2DA9887047
:100908000A803791369136AE874921223046FFF763
:1009180051FC86490B223046FFF74CFC0E990A9889
:10092800886138058861824F781C0F903E782DA821
:1009380000F090FA8068410600D5BCE0810600D539
:10094800B5E0C10600D5B4E08007EFD52DA800F0CA
:1009580081FA06732DA800F07DFA8068410600D55B
:10096800A9E0810600D5A2E0C10600D5A1E0C00734
:10097800F0D02DA800F06EFA007B6D48801C0F9F08
:100988008742D1D10E980C99816136A86B491E22F5
:10099800FFF710FC2DAE304600F0F7F8304600F0B7
:1009A8005DFAC16838229143B278D206120E0A4322
:1009B80071784907090E1143C160304600F010F9FB
:1009C800304600F04BFA064600F036F9C1B220294D
:1009D80000D39AE01F21084010998140B1622DAEE2
:1009E800304600F03BFA0168019A11430160304635
:1009F80000F034FA816804220A4382602DA800F0CE
:100A08002DFA00680007F9D52DAF384600F026FA10
:100A1800066C7878012804D12DA88078032800D1A5
:100A280036022DA800F0C6F8304600F0ADF80346AF
:100A380036A843490C22FFF7EDFB434E2DA800F0E2
:100A480037F90F46C00722D12DA8394600F04AF9D8
:100A5800C0B20528F8D000F01FFA1099084023A961
:100A6800087000F015FA00F01AFA2068002817D16B
:100A7800256023A800F008FA002801D000F00AFA3F
:100A880036A8052200233146FFF7C4FBD6E7F8B2A3
:100A98000528D3D023AA177026482B21294B03E019
:100AA8001E4810213FAA1E4B00F07EFAFEDE0D986C
:100AB80000E00B98009023AA009810701D482B2185
:100AC8001D4BF1E7134821E02E481FE02C481DE09C
:100AD8002A481BE0284819E0264817E0244815E072
:100AE800224813E0204811E01E480FE01C480DE0A2
:100AF8001A480BE0184809E0164807E02DAA02201A
:100B080010700C482B21124BCEE7104800F0FEF96C
:100B1800FEDEC046001E000828000020B01D0008A8
:100B2800181E000800000020001F0008211F0008F0
:100B3800C41E0008281E0008641E00082C1F000898
:100B48004A1F0008541E0008561F0008341B0008DE
:100B5800741E0008941A00087C1A0008441A000839
:100B6800FC190008481C0008AC1B0008801D000880
:100B7800681D0008501D0008381D0008201D0008C9
:100B8800081D0008F01C00087047B0B5044600F0C6
:100B980065F90168012529430160204600F05EF9E6
:100BA800816829438160204600F058F90068C00731
:100BB800F9D0B0BD10B5044600F050F981680222A2
:100BC8000A438260204600F049F9016801220A437D
:100BD8000260204600F042F98068C007F9D110BDD4
:100BE80010B5044600F03AF941690722914322788A
:100BF8000A43426110BD10B582B000F027F9012404
:100C08006102426B0A43426301A800F027F92107F9
:100C180082680A438260002002B010BD40697047B4
:100C280080697047C06970470021817181804B21BC
:100C3800C9010160704770470020704780B500F017
:100C480005F9C16A01220A43C26280BD10B584B0A9
:100C58000078C04678440079400087440205090DB1
:100C6800110001AC104A05E001AC0E4A05230AE068
:100C780001AC0B4A072306E001AC084A062302E050
:100C880001AC054A0B23204600F02AFD204600F05F
:100C9800AFF904B010BDC046821F00088D1F0008C0
:100CA8007B1F0008931F0008981F0008704700006A
:100CB8000A49081F0068020708D0012008600222BC
:100CC8000A6004220A6008220A6002E0800602D450
:100CD800012005217047097900207047204800400D
:100CE8007047000004480268120601D405207047C6
:100CF800017306207047C0461C44004010B584B0FC
:100D08000078C046784400794000874402060A0EFD
:100D1800121601AC134A042312E001AC104A0A234C
:100D28000EE001AC0D4A07230AE001AC0A4A092388
:100D380006E001AC074A032302E001AC044A0B2396
:100D4800204600F0CDFC204600F052F904B010BD5A
:100D5800821F00089F1F0008A21F00087B1F0008B1
:100D6800AB1F0008631F00080F20000505210907B5
:100D78000A6A82430A62032080020A6882430120C9
:100D8800C0021018086070470F20000605210907E7
:100D98000A6A82430A62032000030A688243012028
:100DA80040031018086070470F2000070521090745
:100DB8000A6A82430A62032080030A688243012088
:100DC800C00310180860704780B500F04BF8012187
:100DD800C16080BD80B500F045F80021016180BD8B
:100DE80080B50A4603684168184600F08BFC80BD50
:100DF8007047000010B584B00078C0467844007988
:100E080040008744010C040801AC0D4A01E001AC24
:100E1800094A082306E001AC064A092302E001ACAE
:100E2800064A0323204600F05BFC204600F0E0F869
:100E380004B010BDB51F0008BE1F0008CE1F000873
:100E4800C61F00080048704700440040004870472B
:100E580000100240004870470030014000487047C9
:100E680000240140012080077047000000487047B7
:100E780000480040014801210170704733000020FC
:100E88000048704700E100E0017848424841704757
:100E980072B6704762B67047EFF3108070477047BC
:100EA80000F01FF809480A49814202D2002204C111
:100EB800FAE708480849814204D2084A08CA08C122
:100EC8008142FBD3FFF742FAFEDEC0463400002021
:100ED8002800002028000020000000202022000810
:100EE800FEE7704770470000014802497047C04656
:100EF800D4459A0D92340DD080B58869C969CB68FC
:100F080001490E22984780BD382000088CB018C8C7
:100F180008380546083526CD406900260596094F4C
:100F28000497039602960126019606AE009607944A
:100F380006930B9008A826C0684608A900F022F876
:100F4800FEDEC046D41F00088CB003460192009113
:100F58000220079008A906910021059104910390A9
:100F68000648029006480B9069460A91099001A824
:100F7800089002A8194600F005F8FEDE6C2000086B
:100F88002318000888B01CC90968079103A91DC166
:100F9800034802900348019001A800F05DFCFEDEC2
:100FA80048200008D41F00088EB0019100900393D8
:100FB8000292022009900AA908910021079106913E
:100FC80005900748049007480D9002A80C90064821
:100FD8000B9068460A9004A80449FFF7D3FFFEDE89
:100FE800D8200008451800085318000800210008F8
:100FF800B0B50446057A406800281ED0002D01D0FF
:10100800012519E001280FD1607A00280CD0216849
:101018000878400708D48869C969CB680949012557
:101028002A469847002807D121688869C969CB688A
:1010380005490122984705462572681E85412846BC
:10104800B0BDC046D92100081021000880B50A4665
:101058000068012100F05EFB80BD0000F0B597B08C
:101068001469536930250AAF032607977E55202552
:101078000B9500270A971593149410AD13C50E9776
:101088000C97DD00651913959668002E00D1C0E015
:101098005468D368A342254600D81D461268002D1F
:1010A80000D1E5E00695CB68116815465268984767
:1010B8000121002800D0EEE0029104940798303016
:1010C800079001950C35103600200990C043059013
:1010D800012705988300F018011F09680B91317CDE
:1010E800079A11700893F1580A9103460C3BB168AE
:1010F800890002A254580999A746C046151100084C
:10110800191100083B1100085B110008F2681FE084
:10111800F168159A914200D3C0E0C900149C03916C
:1011280061184968634A9142099912D10399615833
:101138000DE0129C13998C4209990AD02146083176
:10114800129161685B4A9142099902D121680A6843
:1011580001210D920C913168890002A25458099915
:10116800A746C0467D11000881110008A311000898
:10117800C311000872681FE07168159A914200D384
:101188008CE0C900149C039161184968494A91424E
:10119800099912D1039961580DE0129C13998C4258
:1011A80009990AD02146083112916168414A914251
:1011B800099902D121680A6801210F920E911968D4
:1011C800012908D108380168159A91426AD2C800E5
:1011D8001499081806E012981399884266D00146B7
:1011E80008311291011D00680A680AA99047002871
:1011F8003BD10698874249D2089829581198C36864
:101208002A6810989847083524367F1C00282CD166
:101218005FE75568AB42049500D81D461268002D5B
:1012280025D0CB68116816465268984701210028D6
:1012380031D1029101960C360020C043012780006D
:10124800099005CC0AA9083C904700280DD1AF4267
:101258001CD2099831581198C36832681098984779
:10126800083608347F1C0028EBD0029913E0049C50
:10127800BC420FD9F8001158101842681198C36879
:1012880010989847002805D0012104E0049C019A91
:10129800BC42EFD80021084617B0F0BD0648FFF75A
:1012A80053FEFEDE0648FFF74FFEFEDE0348FFF75B
:1012B8002DFEFEDE5510000808220008BC2000089C
:1012C800F8210008F0B587B01F4604460D9B002999
:1012D800049305D020680121014006D02B2506E0A3
:1012E80020685D1C2D21059103E011252D0405952D
:1012F800CD1843070021002B02D40F46069114E0B5
:10130800002F069203970CD00021134603E07F1E9E
:101318005B1C002F06D01E78B609022EF7D1491C97
:10132800F5E70021039FEA19551A0C9EA1680129C7
:1013380016D10396E668AE421FD900072DD4302097
:10134800215C032900D10121751B0020794409790A
:1013580049008F4444014101002128460D463EE0E2
:1013680020460599069A3B4600F08EF8002840D1A1
:10137800A069E169CB6831460BE020460599069AD9
:101388003B4600F081F8002833D1A069E169CB68B9
:101398000399049A9847064671E03020012102918A
:1013A8002154606020460599069A3B4600F06CF887
:1013B800002863D1204630300178032900D101216B
:1013C800751B00207944097949008F44380135019B
:1013D800002128460D4632E06808691C4D08461C65
:1013E800761E08D06168A069E269126990470028F2
:1013F800F6D0012643E06068019020460599069AD8
:101408003B4600F041F80126002838D1019FA06929
:10141800E169CB680399049A984700282FD102966E
:101428006D1CA669E4696D1E2CD0226930463946C8
:1014380090470028F7D021E06808691C4D08461C31
:10144800761E07D06168A069E26912699047002892
:10145800F6D013E06668A069E169CB680399049A3D
:10146800984700280AD16D1CA769E4696D1E09D048
:1014780022693846314690470028F7D0029E304608
:1014880007B0F0BD0026FAE770B51C4615460646BB
:1014980011200004814207D0B069F26912699047AF
:1014A800002801D0012070BD002D06D0B069F16977
:1014B800CB6829462246984770BD002070BD0000C1
:1014C800F0B589B016460F4604460069A16801299F
:1014D800089402D1002803D194E0002800D1B7E095
:1014E800002E66D001910396BA19112000040490C9
:1014F80060693E46471C00213546029605926C1CE1
:10150800287840B2C3B2002803D425467F1E47D1AD
:1015180053E01F200790944206D06C783F2020406B
:101528000690AC1C254603E01046002206920546AC
:10153800079A1A405809062809D90792059885423A
:1015480008D028783F2202406C1C254604E0900110
:10155800069A11E00022054606988001121818091B
:101568000F2807D3059885420CD028783F230340DD
:101578006D1C09E00798000313182546059A7F1E7D
:101588000ED11AE0002325469001079A5207D20A85
:101598008018C31804988342059A06D07F1E0CD081
:1015A800881B4119AA422E46A9D1039E029F089C76
:1015B80009E00026002925D14AE004988342039EC9
:1015C800089C04D1029F019900291BD140E0002901
:1015D800029F0CD0B1420AD00020B142024608D284
:1015E8007A563F20C34300209A42024601DB384620
:1015F8000A46002800D016460028019900D0074660
:10160800002925D00020002E0CD031463A4603E0B0
:10161800491E521C002905D013789B09022BF7D1CB
:10162800401CF5E7301AE168884211D20020002EEC
:10163800024617D0002233463C4603E05B1E641C7A
:10164800002B0FD02578AD09022DF7D1521CF5E7F4
:10165800A069E169CB683946324698470446204676
:1016680009B0F0BD921B3023089CE45C032C0346B0
:1016780000D023465518C0467B441B795B009F4425
:1016880008010501002128460D4602E06808691C8A
:101698004D08441C641E09D0089A51689069D269A3
:1016A800126990470028F5D00124D8E73946089FE9
:1016B80078680790B869FA69D36832469847012470
:1016C8000028CCD16E1CBD69FF69761E06D03A6928
:1016D8002846079990470028F7D0C0E70024BEE7BE
:1016E80070B51D460E4604468869C969CB6811461F
:1016F8002A46984720722660684268416072002036
:10170800606070BD80B50B46014610461A46FFF76B
:10171800D7FE80BDF0B591B0039202910646364DD2
:10172800A84251D90120C0432727400004903446DD
:101738002046324900F0ABF80690691C4143601A14
:10174800059080B26425294600F0A1F807A9C919B7
:1017580042002B4B9B5C049E8B558919284B9A1889
:1017680052784A7045430598401B234D069E80B227
:1017780040001A5C8A7018184078C8703F1F2148CA
:1017880084423446D4D8632E21DDB0B2642529467C
:1017980000F07DF84543711B89B24900184A535C33
:1017A800BF1E07ACE355E3195118497859700A2848
:1017B80010DB4000124A135CB91E07AC635463186F
:1017C80010184078587009E02727632EDDDC304672
:1017D8000A28EEDA791E303007AA50542720401A1A
:1017E800019007A840180090074A0023039802991F
:1017F800FFF768FD11B0F0BD0F27000010270000AB
:1018080011210008FFE0F505D41F000880B50A463D
:1018180000880121FFF77EFF80BD80B50A46006879
:101828000121FFF777FF80BD80B58869C969CB685A
:1018380001490522984780BD1822000880B5026832
:101848004068C3681046984780BD80B50B4606C8F7
:101858001846FFF735FE80BDFEE770B55143050C0D
:10186800140C2E46664371184343C91892B2554367
:1018780080B24243130C5B191D0C49199BB260439B
:101888001818030CC918000492B2801870BDF0B57E
:1018980081B0002938D004460020002C32D00D46F3
:1018A8000090202700293E4603D0284600F02EF855
:1018B8000646002C03D0204600F028F80746F11B06
:1018C8001F2900981ED802D1204601B0F0BD481C3F
:1018D8001F2306461E402246F240591A19408C40E2
:1018E8000021E30F5200D218D3435B19DB171E46C1
:1018F8002E40921B64000C4301211940401EF0D178
:101908006000081801B0F0BDFEDEFEDE030C1021F9
:10191800002B01D018000021FF231B02184211D010
:10192800F023000A034211D00C230009034211D00E
:101938008008012243089A4302235242181A104091
:1019480040187047F02308310342EDD10C230431CD
:101958000342EDD10231ECE770460421084202D17E
:0E196800EFF3088002E0EFF30980FFE7FEE7EF
:101980002F55736572732F61726B6F2F2E636172A7
:10199000676F2F72656769737472792F7372632F23
:1019A0006769746875622E636F6D2D316563633688
:1019B00032393964623965633832332F73746D3369
:1019C000326C3078782D68616C2D302E352E302FAA
:1019D0007372632F74696D65722E7273000000005C
:1019E000617474656D707420746F206469766964C5
:1019F00065206279207A65726F000000E0190008A6
:101A000019000000801900085C000000A000000020
:101A100021000000000000000000000000000000A5
:101A2000617474656D707420746F20737562747264
:101A30006163742077697468206F766572666C6F75
:101A400077000000201A000821000000801900081B
:101A50005C000000A1000000230000000000000066
:101A6000617474656D707420746F20616464207794
:101A7000697468206F766572666C6F77601A00080B
:101A80001C000000801900085C000000A800000095
:101A90003A000000E0190008190000008019000851
:101AA0005C000000A80000002E0000000000000004
:101AB0002F55736572732F61726B6F2F2E63617276
:101AC000676F2F72656769737472792F7372632FF2
:101AD0006769746875622E636F6D2D316563633657
:101AE00032393964623965633832332F73746D3338
:101AF000326C3078782D68616C2D302E352E302F79
:101B00007372632F6164632E727300000000000023
:101B1000617474656D707420746F20736869667485
:101B2000206C6566742077697468206F76657266CC
:101B30006C6F7700101B000823000000B01A00082B
:101B40005A0000009E0000001D0000000000000080
:101B50002F55736572732F61726B6F2F2E636172D5
:101B6000676F2F72656769737472792F7372632F51
:101B70006769746875622E636F6D2D3165636336B6
:101B800032393964623965633832332F73746D3397
:101B9000326C3078782D68616C2D302E352E302FD8
:101BA0007372632F7370692E72730000E01900085E
:101BB00019000000501B00085A000000C700000078
:101BC00024000000696E7465726E616C206572722B
:101BD0006F723A20656E746572656420756E726509
:101BE00061636861626C6520636F64652F5573651E
:101BF00072732F61726B6F2F2E636172676F2F721A
:101C0000656769737472792F7372632F676974687B
:101C100075622E636F6D2D316563633632393964B9
:101C2000623965633832332F73746D33326C3078B8
:101C3000782D68616C2D302E352E302F7372632F06
:101C40007370692E72730000C41B00082800000026
:101C5000EC1B00085A0000003801000001000000E1
:101C6000617474656D707420746F206D756C746927
:101C7000706C792077697468206F766572666C6F16
:101C800077000000000000000000000000000000DD
:101C90002F55736572732F61726B6F2F2E63617294
:101CA000676F2F72656769737472792F7372632F10
:101CB0006769746875622E636F6D2D316563633675
:101CC00032393964623965633832332F73746D3356
:101CD000326C3078782D68616C2D302E352E302F97
:101CE0007372632F73657269616C2E7273000000EA
:101CF000601C000821000000901C00085D0000002E
:101D0000EE0000001F000000601C00082100000021
:101D1000901C00085D000000EE0000003E00000086
:101D2000E019000819000000901C00085D00000088
:101D3000EE0000001F000000201A00082100000033
:101D4000901C00085D000000F0000000250000006D
:101D5000601C000821000000901C00085D000000CD
:101D6000F000000025000000601A00081C000000C0
:101D7000901C00085D000000F0000000240000003E
:101D8000601C000821000000901C00085D0000009D
:101D9000F40000001F000000BB0000080400000069
:101DA0000400000091010008C50000086D01000852
:101DB000616C726561647920626F72726F776564BD
:101DC00063616C6C656420604F7074696F6E3A3A41
:101DD000756E77726170282960206F6E20612060B7
:101DE0004E6F6E65602076616C75657372632F6CE3
:101DF0006962636F72652F6F7074696F6E2E727394
:101E0000C01D00082B000000EB1D0008150000009D
:101E10007A01000015000000BF000008000000006B
:101E200001000000010F000863616C6C65642060B4
:101E3000526573756C743A3A756E777261702829C1
:101E400060206F6E20616E20604572726020766146
:101E50006C756500BD000008010000000100000075
:101E6000550C0008C100000801000000010000003E
:101E7000050D0008B9000008010000000100000085
:101E8000FD0D0008C3000008000000000100000074
:101E9000311800080A000000941E0008000000002D
:101EA000941E0008010000000D0A0000941E0008A6
:101EB00000000000941E000800000000A81E00089A
:101EC0000200000000017372632F70616C2E727348
:101ED000601A00081C000000C61E00080A0000006E
:101EE0008100000014000000601A00081C000000BF
:101EF000C61E00080A00000089000000190000004A
:101F00002D202D202D202D204841424558706963F9
:101F10006F2076302E302E31202D202D202D202D9B
:101F20000D426F6F74696E672E2E2E0D2D202D20A1
:101F30002D202D20424F4F5420434F4D504C45549F
:101F400045202D202D202D202D0D4144433A205693
:101F500053544F52453D54696D653D206270732066
:101F6000C2B57342757379486967684E61636B41A6
:101F700070623179656172686F75724F76657272E1
:101F8000756E5F457874656E7369626C65506172D9
:101F90006974794E6F6973654672616D696E6743E6
:101FA00072634D6F64654661756C744672616D65F0
:101FB0004572726F72556E646572666C6F774F769C
:101FC0006572666C6F77496E66696E6974654E619D
:101FD0004E000000000000007372632F6C696263A2
:101FE0006F72652F6E756D2F64656332666C742F2A
:101FF00072617766702E7273696E646578206F7592
:1020000074206F6620626F756E64733A2074686521
:10201000206C656E20697320003E00000100000006
:102020000000000000000000200000000000000090
:1020300000C0000000030000426F72726F774D75A0
:10204000744572726F720000ED0E0008000000000F
:1020500001000000F10E00082062757420746865AC
:1020600020696E646578206973200000F81F0008FD
:1020700020000000582000081200000063616C6C12
:10208000656420604F7074696F6E3A3A756E77724E
:102090006170282960206F6E206120604E6F6E6530
:1020A000602076616C75657372632F6C6962636F13
:1020B00072652F6F7074696F6E2E72737C200008CA
:1020C0002B000000A7200008150000007A01000086
:1020D000150000003A200000D41F00080000000096
:1020E000D4200008020000007372632F6C696263E1
:1020F0006F72652F726573756C742E7273000000B9
:10210000E8200008150000003C0400000500000065
:1021100029303030313032303330343035303630B1
:102120003730383039313031313132313331343187
:10213000353136313731383139323032313232326D
:102140003332343235323632373238323933303353
:102150003133323333333433353336333733383343
:102160003934303431343234333434343534363431
:102170003734383439353035313532353335343517
:1021800035353635373538353936303631363236FD
:1021900033363436353636363736383639373037E3
:1021A00031373237333734373537363737373837D3
:1021B00039383038313832383338343835383638C1
:1021C00037383838393930393139323933393439A7
:1021D0003539363937393839392C000000000000DC
:1021E0007372632F6C6962636F72652F666D742FF3
:1021F0006D6F642E72730000E0210008160000006D
:102200005704000028000000E0210008160000002C
:1022100063040000110000004572726F720000003C
:1022200000000000040000000000000000000000AA
:10223000000000000000000000000000000000009E
:08224000000000000000000096
:0400000508000EA938
:00000001FF
