:020000040800F2
:1000000000080020A5090008E50900086D0B00089C
:1000100000000000000000000000000000000000E0
:10002000000000000000000000000000E5090008DA
:100030000000000000000000E5090008E5090008D4
:10004000E5090008E5090008E5090008E5090008D8
:10005000E5090008E5090008E5090008E5090008C8
:1000600000000000E5090008E5090008E5090008AE
:10007000E5090008E5090008E5090008A5080008E9
:10008000E5090008E5090008E5090008000000008E
:10009000E5090008E5090008E5090008E509000888
:1000A000E5090008E5090008E5090008E509000878
:0800B000E5090008E50900085C
:1000B80070477047F0B581B0002944D0411811222B
:1000C80012040092214B461C047865B2ECB2002D54
:1000D80001D4304631E01F258E4204D047783F26B0
:1000E8003E40801C01E00026084625406709062F8F
:1000F80006D9884207D002783F271740401C04E001
:10010800AC01341919E000270846B201BE182209CB
:100118000F2A06D3884207D002783F241440401C97
:1001280003E02A03B41808E00024B2016D07ED0AC1
:1001380052191419009A944205D01A681206FCD56F
:100148001C738842BFD101B0F0BDC0461C440040BA
:10015800F0B581B04118112212040092234B461CBD
:10016800047865B2ECB2002D01D4304631E01F2589
:100178008E4204D047783F263E40801C01E000268E
:10018800084625406709062F06D9884207D0027815
:100198003F271740401C04E0AC01341919E0002740
:1001A8000846B201BE1822090F2A06D3884207D092
:1001B80002783F241440401C03E02A03B41808E0E6
:1001C8000024B2016D07ED0A52191419009A9442DD
:1001D80005D01A681206FCD51C738842BFD10448A2
:1001E8000221FFF767FF01B0F0BDC0461C44004084
:1001F800380C000810B51446FFF75CFF00200749CB
:10020800225C0B681B06FCD50A73401C0A28F7D130
:1002180003480221FFF74EFF10BDC0461C440040B2
:10022800380C0008A8B000F027FC044600F020FCB9
:10023800FB48017801250029049501D0002501E03B
:1002480001210170E00701D100F014FC002D00D15C
:10025800F8E2F448F44D056001684907FCD5C16827
:10026800F24A0A40511CC160C16A01263143C16289
:100278000446052005900307596A40200890014369
:10028800B022914359620320810407461A688A43C1
:10029800F10451181960596AE54801402A46FF32AD
:1002A8000A435A6239051A688A4371055118196058
:1002B80070040C90A16B0143A16379023C460A4685
:1002C8008332DC4DEA60002209926A6070030A906A
:1002D800C0300790A8600D20069028606A60DA6830
:1002E8000C25AA430D93DA605A6802200E908243C7
:1002F8005A601A680420029002430827BA431A6019
:100308001A6ACB480240511819621A6820200B90CB
:10031800024310200190C043039002401A600F224C
:100328001103186A88432546610340181862186843
:1003380080210143089881431960B004B94CA16B2E
:100348000143A163BC4CBD48E0600998606007990F
:10035800A160069921606060D868B9490840D860F2
:1003680058680399084058601868B5490840310230
:10037800401818601005196A81431962A8021968A3
:100388008143F002081818601006196A814319623F
:1003980029031868079188430A9940181860186A51
:1003A800A84908401862A8031A688243F003069017
:1003B8001018186030039B4B5A6B02435A63A24AC9
:1003C8000998506098487330106070025A6B024365
:1003D8005A631A46481C9D4B9968014399600D9BC6
:1003E800D868A843D860186808952843186011464B
:1003F800906B354630439063906A30439062F24385
:10040800886A10401646886221AA24AB0A9303CA58
:1004180003C31088917899701880AA071068304033
:10042800106009989084F42090628948908510683B
:1004380002990E46084310605561106828430392DC
:1004480010600FA80A9B06CB06C019889A7882709C
:10045800018080480B99FFF77BFE0C980D99886105
:10046800284628058861FC4A511CF94883685806C3
:10047800400F00D0E1E19807F7D51078F44A1073DF
:10048800F34882685006400F00D0D6E1D007F7D075
:10049800EF48007BF048801C81420A46E4D10D9861
:1004A80001998161EB4A10682946284310609068D9
:1004B800284390601068C007FCD0D0683821884372
:1004C800D0605069072188435061956210683843AD
:1004D800106090683043906010680007FCD5106C7D
:1004E80090680E99084390601068284310609068DF
:1004F800C007FCD10FA812A90B910CC80CC1028827
:10050800807888700A8003980C95C56000F0B4FA6A
:100518000D9000F0ADFA21A80B9B06CB06C01988F8
:100528009A7882700180CF490868002800D07BE162
:10053800099808600C984860886021A824A90CC80C
:100548000CC10288807888700A80C9490868002828
:1005580000D069E108980871481D24A90B2200F011
:100568008EFAC448C249086148618861C861086256
:100578004862099808600D98C00701D100F07AFA1E
:10058800BD4806990160BD481D21FFF7E1FD09201E
:100598000390C0430A900721BA48FFF7D9FDE069E4
:1005A800010705D025620E98206226622762F6E7C9
:1005B8008006F4D5B24800782428F0D1E069010714
:1005C80005D025620E98206226622762F6E780062B
:1005D800F4D5AB4800780D90E1690A0705D025628B
:1005E8000E98206226622762F6E78906F4D5A448A9
:1005F8000178E269130705D025620E982062266209
:100608002762F6E79206F4D59D480278E369180751
:1006180022D025620E98206226622762F6E7C0463D
:100628003400002000100240010300000CC0FFFF4E
:10063800FFF0FFFF00440040004800400083060030
:10064800FFFCFFFFFFFFFF0F0030014000240140C7
:100658001AFF00003C0C00089806D7D58848037894
:100668000D984728AAD14E29A8D1472AA6D1472BA9
:10067800A4D1059864280FD0E1690A0705D025623E
:100688000E99216226622762F6E78906F4D5401C96
:100698007B4909780A29EDD124AB0D930798188175
:1006A80009982590249015A908910C910C9806CBCF
:1006B80006C00C9019880C9801800D99079A0A8138
:1006C80009982590249018AA06920C910B920C9ADE
:1006D8000B980ACA0AC00B900C920C9909880B98BF
:1006E800018007990D9A11810998259024901BA9DA
:1006F8000B910C910C980ACA0AC00C9011880C989E
:10070800018007990D9A11810998259024901EA9B6
:100718000C9110460CC80CC10088088006210D9168
:100728005948089AFFF766FD58480D99069AFFF749
:1007380061FD072156480B9AFFF75CFD55480D9956
:100748000C9AFFF757FD00F097F90C9000F090F91C
:1007580044490868002867D1099A0A60486801284E
:1007680001D0104600E088680D900C98C00701D1B0
:1007780000F080F924A80021018125910891249195
:100788000A210D9800F084F902460A9850430D9BFF
:10079800C1180A2B04D23020014324A8417232E048
:1007A8001846642B26D304980D90039B0D98C00718
:1007B80036D0303124A8C1545B1E0C930A2B28462E
:1007C80000D308980D900A2110460B9200F060F9AA
:1007D8000A9941430B9A5118632A02460C9BE5D8A3
:1007E8000A2B1DD23022114324AAD154591E09299B
:1007F80006D920E03020014324A84172394610462A
:10080800303024AA505424AA21A90D9109CA09C13B
:1008180010880880052120480D9AFFF7EBFCBAE6FE
:10082800184600F075F8FEDE0F48102127AA0F4B76
:1008380000F082F8FEDE581EF3E708482B2124AAB0
:10084800074BF5E7014800F069F8FEDED40B000815
:1008580000300140002401403A0C0008FC0B00085D
:10086800280C000828000020840B0008EC0B000866
:10087800000000200024F40000E100E05C0C000807
:1008880024480040790C0008800C0008860C0008F9
:100898008C0C0008930C0008990C0008B0B582B0C5
:1008A80000F0EAF8044600F0E3F81448016800296B
:1008B8001DD10021CA4302600379042B10D0124BCA
:1008C80000211960114B1D68002D10D11A605A685B
:1008D800012A02D19A68521C9A6019600168491C61
:1008E8000160E00701D100F0C5F802B0B0BD0448CE
:1008F800102101AA034B00F01FF8FEDE00000020C3
:10090800840B0008EC0B00081000004028000020B1
:1009180000F001F8FEDE00F063F8FEDEFFF7FBFFF3
:10092800FEDE000080B58869C969CB6801490E22DE
:10093800984780BD9E0C0008FFF7EDFFFEDE000023
:10094800B0B50446057A406800281ED0002D01D0B5
:10095800012519E001280FD1607A00280CD0216800
:100968000878400708D48869C969CB68094901250E
:100978002A469847002807D121688869C969CB6841
:1009880005490122984705462572681E8541284673
:10099800B0BDC046AD0C0008AC0C000800F01FF854
:1009A80009480A49814202D2002204C1FAE70848EC
:1009B8000849814204D2084A08CA08C18142FBD3C7
:1009C800FFF730FCFEDEC04638000020280000207B
:1009D8002800002000000020DC0C0008FEE770471B
:1009E800FEE7000010B584B000780C467844007922
:1009F8004000874402080E141A20A069E169CB68F8
:100A08001A4904221CE0A069E169CB6816490A2248
:100A180016E0A069E169CB681249072210E0A069D5
:100A2800E169CB680E4909220AE0A069E169CB684F
:100A38000A49032204E0A069E169CB6806490B2250
:100A48009847014601A80172002141720194029160
:100A5800FFF776FF04B010BDB90C0008D70C0008EA
:100A6800CE0C0008B20C0008C40C0008AE0C00083C
:100A780072B6704762B67047EFF310807047002A6D
:100A880005D00B780370491C401C521EF9D17047E1
:100A9800F0B581B0002938D004460020002C32D0AF
:100AA8000D460090202700293E4603D0284600F036
:100AB8002FF80646002C03D0204600F029F80746F8
:100AC800F11B1F2900981ED802D1204601B0F0BDA5
:100AD800481C1F2306461E402246F240591A194058
:100AE8008C400021E30F5200D218D3435B19DB1767
:100AF8001E462E40921B64000C4301211940401EE3
:100B0800F0D16000081801B0F0BDFEDEFEDE000086
:100B180080B5030C00AF1021002B01D01800002174
:100B2800FF231B02184212D0F023000A034212D0FE
:100B38000C230009034212D08008012243089A437B
:100B48000223BD465242181A1040401880BDF023B7
:100B580008310342ECD10C2304310342ECD10231B9
:100B6800EBE7C04670460421084202D1EFF3088043
:0A0B780002E0EFF30980FFE7FEE75B
:100B8400616C726561647920626F72726F776564FB
:100B940063616C6C656420604F7074696F6E3A3A7F
:100BA400756E77726170282960206F6E20612060F5
:100BB4004E6F6E65602076616C75657372632F6C21
:100BC4006962636F72652F6F7074696F6E2E7273D2
:100BD400940B00082B000000BF0B00081500000058
:100BE4007A01000015000000B900000800000000B0
:100BF400010000002D09000863616C6C65642060CD
:100C0400526573756C743A3A756E777261702829FF
:100C140060206F6E20616E20604572726020766184
:100C24006C756500BB0000080100000001000000B5
:100C3400ED0900080D0A00012D202D202D202D2066
:100C440048414245587069636F2076302E302E310A
:100C5400202D202D202D202D2D202D202D202D2028
:100C6400424F4F5420434F4D504C455445202D2066
:100C74002D202D202D2D202D202D202D5554432089
:100C84003D204C4154203D204C4F4E47203D2041B7
:100C94004C54203D205354203D20426F72726F7794
:100CA4004D75744572726F72292C427573794F7643
:100CB400657272756E5F457874656E7369626C6592
:100CC4004672616D654572726F724D6F64654661FF
:080CD400756C744372630000AB
:100CDC000000000004000000000000000000000004
:100CEC0000000000000000000000000000000000F8
:080CFC000000000000000000F0
:04000005080009A541
:00000001FF
