:020000040800F2
:10000000000800205117000895170008E525000892
:1000100000000000000000000000000000000000E0
:10002000000000000000000000000000951700081C
:100030000000000000000000951700089517000858
:1000400095170008951700089517000895170008E0
:1000500095170008951700089517000895170008D0
:100060000000000095170008951700089517000874
:10007000951700089517000895170008AD1400089B
:100080009517000895170008951700080000000054
:100090009517000895170008951700089517000890
:1000A0009517000895170008951700089517000880
:0800B0009517000895170008E0
:1000B800704770477047F0B503AF83B0002A49D046
:1000C8000D4604468B181120000401900293691C08
:1000D800287840B2C6B2002801D40D4630E01F206F
:1000E800994204D06A783F211140AD1C01E00021FB
:1000F8001D463040DF2E07D99D4207D02A783F237E
:1001080013406D1C2A4603E080010EE01A460023C6
:1001180089015918F02E07D3029B9A4207D0157807
:100128003F232B40551C03E000030E1808E0002372
:1001380089014007C00A0818C6180198864209D0E4
:100148002068314601F05AFAC0B20528F8D0029B5F
:100158009D42BCD103B0F0BDF0B503AF83B00446F7
:10016800002A48D00D468B181120000401900293F4
:10017800691C287840B2C6B2002801D40D4630E088
:100188001F20994204D06A783F211140AD1C01E03C
:1001980000211D463040DF2E07D99D4207D02A781E
:1001A8003F2313406D1C2A4603E080010EE01A46E7
:1001B800002389015918F02E07D3029B9A4207D0D1
:1001C80015783F232B40551C03E000030E1808E068
:1001D800002389014007C00A0818C61801988642FA
:1001E80009D02068314601F009FAC0B20528F8D0D4
:1001F800029B9D42BCD1034902222046FFF75BFFC8
:1002080003B0F0BD24290008F0B503AF85B003930F
:100218000446FFF750FFB86800281BD000210126CC
:1002280002900A46880003990D180192501C049008
:10023800F00716D02968206801F0E0F9C0B2052857
:10024800F6D002980499814201D3002600E00126E5
:100258008142E6D1074902222046FFF72CFF05B06C
:10026800F0BD034A0198029901F0EAFAFEDEC046A1
:100278003429000824290008D0B502AF0446606874
:1002880001F0A6F9C00707D0C8B20528F7D0606802
:1002980001F098F90020D0BDC8B2D0BDF0B503AFC9
:1002A8008FB00E46019004A82C2101F0F6FE002E16
:1002B80006D40A21304601F06BFE044630460CE0B5
:1002C8002D2004900A253046294602F0BBF8C117B4
:1002D80044184C404543A81B0A300A21039101F0F9
:1002E8008EFE09363020132E02D201430E9127E0EC
:1002F800029001430E912046002109260A2C16D3AC
:100308000546C80729D12846039C214601F040FE2E
:1003180044432B1B02990B43B10004AA53500022FB
:10032800761E52410121891A632D0546E9D8C9076D
:1003380019D10A2E1BD8B3003030C1B204AAD1504B
:10034800019E301D04A91CC91CC03CC93CC03CC945
:100358003CC0002030700FB0F0BD094821210A4A86
:1003680001F058FAFEDE06482121064AF8E70B217B
:10037800024A304601F064FAFEDEC0467C2A0008D4
:10038800902600086C2A00085C2A0008F0B503AF24
:1003980089B0029000200690054604460391A20009
:1003A8008A18641C16683346303B092B07D92D2E52
:1003B80036D1121D641C01250C2CF3D139E0002321
:1003C800089308AA00920A220699059302F04BF8AE
:1003D80001900898431E02469A41002850D10122F4
:1003E80006910029049201DA05980490303E059B95
:1003F8009B41019880190699594106910029164692
:1004080000DA059E04998E1B711E8E41002B00DABE
:10041800059A0499891A4A424A41324002D032E088
:10042800002E25D103990B2CB9D1EA0706990FD0D4
:1004380000E006990023079307AA0092DA431346BF
:1004480002F011F8079C621E23469341002C20D12C
:100458000122D40700230419594104D102994860A4
:1004680008461A4609E0042002994870084604E044
:1004780003200299487008460122027009B0F0BDB5
:100488000648212101E007481C21074A01F0C2F96A
:10049800FEDE02482121024AF8E7C046002800088B
:1004A8009C2A0008C02600088C2A000880B500AFE6
:1004B80000F002F8FEDED4D4F0B503AFFFB0FFB011
:1004C8009FB0FFA81C30149001F066F9044601267D
:1004D800344001F05DF91CA8199028A80F9001F08C
:1004E8005EF9DC480178002901D0002502E00121ED
:1004F800017035460E96002C01D101F04BF9002D04
:1005080001D100F030FF1998243019900F982C3041
:100518000F90D149D148086008684007FCD5C868E1
:100528000A46CF490140481CD060CE4C204601F015
:1005380020F81B90204601F01CF81A90204601F084
:1005480018F81790204601F014F80646204601F0E6
:1005580010F80546204601F00CF83DA9189103242F
:100568000C70459044964395179842901A9841907C
:100578001B984090084600F0FFFFE120400200F081
:10058800F7FF0546052009900207506A4021179198
:100598000843B02188435062A004116881430126B2
:1005A800F00408181060506AAF490840AB49FF31A1
:1005B800014351621694200511688143700508189B
:1005C8001A9210607104A44A906B139108439063C7
:1005D800189800F0C7FF192200242146234601F08D
:1005E80016FF4A1E914101D000F0C9FE16998A07EC
:1005F80029460C929143691A4A1E914101D000F094
:10060800BEFE1B961894A90001D100F0B0FE01F0BF
:10061800BFFC04466426314601F0BAFC0546464351
:10062800A01B18994941B44201D200F0A3FE0F243F
:10063800230701469943411A4A1E914101D000F00F
:100648009EFE0A940B93010108463230189C2246FC
:100658006241884201D200F08FFE6426314601F0E3
:1006680097FC290101438148C160446083218901C5
:10067800109181600D210D910160446000F0BCFF74
:100688001A9DE8680C218843E86068680221069191
:10069800884368602868042112910843082107915B
:1006A800884328604B20C00100F062FF0890286A48
:1006B8006D490840169A5102014329622868202191
:1006C8001191084310211591884328600A98000366
:1006D800296A814350030818286228688021014349
:1006E8001798814329601B9880045B4A916B0143EA
:1006F80091633DA800F036FF192221461792234640
:1007080001F085FE4A1E914101D000F038FE089B99
:1007180019460C9A9143591A4A1E914101D000F08A
:100728002EFE990001D100F022FE01F031FC0546B1
:10073800314601F02DFC04464643A81B189949414F
:10074800B54201D200F016FE01460B9A9143411AB8
:100758004A1E914101D000F012FE010108463230D4
:10076800189D2A466A41884201D200F005FE64219C
:1007780001F00EFC21010143FF2000060A468243D6
:10078800881A421E904101D000F0F9FD080238494C
:10079800C8604D60109888600D9808604D6000F042
:1007A800F3FE1A9AD06833490840D0605068159B08
:1007B80098435060106808401B9E31024018106032
:1007C8002D4800F0D6FE0546FFAC1834204600F050
:1007D80057FF204600F064FF204600F071FF300309
:1007E8001D4A516B01435163244C189860603DA821
:1007F80000F0BCFE002D01D100F0C5FD06462946DB
:1008080001F0C6FBAE4201D200F0C0FD032802D2BF
:100818001248433036E0062802D210484B3031E007
:100828000C2802D20D4853302CE0182802D20B486D
:100838005B3027E0302802D20848633022E0602885
:1008480002D206486B301DE0C02819D303487B301C
:1008580018E0C046340000200010024001030000E8
:100868000CC0FFFF0024F400FFF0FFFF004400402D
:1008780000480040FFFCFFFFA08601000030014057
:10088800F748733020603DAE304600F059FE1090B6
:100898001A9AD06816998843D06010680843106087
:1008A8001B9D284600F065FE0D90F749886B28438C
:1008B8008863886A28438862EA430C92886A1040F1
:1008C8008862A1A802462ACE2AC22ACE2AC22ACEE5
:1008D8002AC21B998E0731680C9A11403160189D05
:1008E800B58400F041FE0D99002901D100F052FDB8
:1008F80001F04EFB411E2A466A41012801D200F050
:100908004CFD090CB1624A1C91B28B1A5D1EAB41B9
:10091800914201D000F044FD01F03AFB010C01D0F6
:1009280000F042FDB08530681299084330601B9989
:100938007161306808433060A1A81CAD29464CC8D5
:100948004CC14CC84CC14CC84CC1109A100C1999D8
:1009580088700A802795269526A8CC49119E32468C
:10096800FFF7FAFB18980F9908803290319630906B
:100978002F902E962D902C902B902A95299528957E
:100988001A9E1398B061284600F01CFE1B980005BB
:10099800B0610F98401C1390BD4801460A78491C65
:1009A800A3685D0601D500F0D5FC9D0601D500F0D1
:1009B800CDFCDD0601D500F0CBFC9B07F0D52273FA
:1009C800A268530601D500F0C5FC930601D500F0D6
:1009D800BDFCD30601D500F0BBFCD207F0D0227BCA
:1009E800821C9142DAD11A9815998161A94C206824
:1009F8001B9E30432060A0683043A0602068C00779
:100A0800FCD000F0B7FDC2B21F2A01D900F0D5FC16
:100A1800199841781A91491E4B424B415B018178E4
:100A2800CD001D43EB1CE36063690725AB430578E4
:100A38001D43656133469340A362226807980243C9
:100A48002260A26804230D931A43A2602268120749
:100A5800FCD5226CA36802250C952B43A360236860
:100A680033432360A368DB07FCD11A98012801D01F
:100A7800104600E01002032900D0104600F05EFD89
:100A88001CA834AC21462CC82CC12CC82CC12CC89D
:100A98002CC1204600F024FEF0037F490860FFAE19
:100AA8004C3630460ECC0EC00ECC0EC00ECC0EC04E
:100AB80000F072FE1A9000F06BFE3DA80ECE0EC03C
:100AC8000ECE0EC00ECE0EC000F069FE7349086847
:100AD800002801D000F075FC189D0D601B9E4E602B
:100AE8008E603DA8A1A91CC81CC11CC81CC11CC87B
:100AF8001CC16B4A1168002901D000F064FC314622
:100B08001A983040111DA1AA58CA58C158CA58C1CC
:100B180058CA58C162490D60002801D100F03AFE58
:100B280026A860491D22FFF717FBFFA818302830B8
:100B38000B90FFA8183028300A903DA81430169062
:100B4800A1A8001D1590A1A8001D0890A1A8001D2E
:100B58000790A1A8001D0690A1A8001D0590A1A8B6
:100B6800001D0490A1A8001D0390E843129026A838
:100B780001224D491A92FFF7EFFA179801013DA893
:100B8800199101F08AFA28A8FFF776FB054628A8EC
:100B9800FFF772FB242D0546F9D1044628AE3046EE
:100BA800FFF76AFB1B903046FFF766FB05463046A9
:100BB800FFF762FB472DE6D14728E4D14720419053
:100BC80040901B983F903E9424203D906024169DB1
:100BD800641E07D02E1D28A8FFF74EFB28600A28A0
:100BE8003546F5D1A1A83DA9199A01F030FAA49883
:100BF8004728189E00D0F2E2A598472800D0EEE2D8
:100C0800A698412800D0EAE2139806703446304688
:100C18001A9B012B02D1A29C214606E09900A1AAA9
:100C280051582A2900D1B6E14C402C2903D02A2951
:100C380000D0A8E1AFE1401C00D726E35D1EA90063
:100C4800A1AA51582C2900D19DE1821E082A00D959
:100C580099E192001A9303A39A581A9B9746C046A3
:100C680001030000B50C0008610D00081D0D000807
:100C7800310E0008250F00088F0F00088F0F00089D
:100C88008F0F0008230D000800100240542B0008A5
:100C9800042B00080024014000E100E028000020A7
:100CA80000000020742B0008912B00081B94FFA85B
:100CB80018302C2101F0F1F903210B9A129C002322
:100CC800681A5B418D4200D2CEE2632800D9C5E2A2
:100CD800491C8000A1AB18581060A00012180929FF
:100CE800EDD1FFA81830FFA94C310A4638C838C2E0
:100CF80078C878C278C878C2FFAC44342046FFF779
:100D080045FB2078012800D165E21498C06A2B9031
:100D1800022000E12E91042035E11B94FFA8183031
:100D28002C2101F0BAF90A990C9A129C0023A81AEE
:100D38005B41954200D2AEE2632800D99FE2800071
:100D4800A1AB18582C2800D1EBE0521C0860A00079
:100D58000918072AEAD1FBE0FFA81830242101F07E
:100D68009CF90021284608380A464A41082D00D235
:100D7800AAE2632800D9ADE2A1AA2B46093B494162
:100D8800092D00D2ABE2632B00D9AEE21B948000A0
:100D9800105819909900A1AA5258FFAB1833FFA90F
:100DA8004C310C4661CB61C461CB61C461CB61C479
:100DB800149E72651998B065FFAC44342046FFF75D
:100DC800E5FA2078012800D105E2F06A2C901A98FB
:100DD8008000A1A9401801462039096819910146E7
:100DE8001C390968119101461439096810911038A5
:100DF8000568FFAC4C341C21204601F04EF91998C7
:100E0800F0641198306510987065B565FFAD1835B8
:100E180028462146FFF7BAFA2878012800D1DAE1F6
:100E280030682D90032076E0FFA81830202101F0CB
:100E380034F90021284608380A464A41082D00D2CC
:100E480058E2632800D95BE2A1AE2B46093B0A466B
:100E58004A41092D00D258E2632B00D95BE21B946A
:100E6800A1AA2C460A3C49410A2D00D259E2632C1A
:100E780000D95FE2800030581990990050581190BD
:100E8800A100A1AB58581090FFAC1834FFA94C3101
:100E98000D464DCC4DC54DCC4DC5149D10982865BB
:100EA800119868651998A865FFAC44342046FFF787
:100EB8006DFA2078012800D18DE1E86A2F901A9800
:100EC8008000A1A9401801462039096819910146F6
:100ED8001C390968119101461439096810911038B4
:100EE8000668FFAC4C341C21204601F0D6F819984E
:100EF800E8641198286510986865AE65FFAE1836E5
:100F080030462146FFF742FA3078012800D162E1E5
:100F1800286830900998189E1B9C33E03191062070
:100F280031E0FFA81830FFA94C310A4638C838C24A
:100F380078C878C278C878C2FFAC44342046FFF736
:100F480025FA2078012800D145E11498C06A32902A
:100F5800FFA81830FFA94C310A4638C838C278C8EB
:100F680078C278C878C2FFAC44342046FFF70EFA3E
:100F780020780128189E1B9C00D16CE11498C06A47
:100F880032900A201A9B5B1C642B00D041E60F9814
:100F9800447000784BE013980470981C612B00D9BA
:100FA800CFE11B948000A1AA1158980080184368CB
:100FB80000200E9A0D9C1D46303D0A2D0BD2E3B23F
:100FC8009D40EBB2C0B2C018C3B21C1A651EAC413A
:100FD800834223D04FE11D46613D062D0CD2E4B279
:100FE800573BA340DBB2C0B2C018C3B21C1A651E7F
:100FF800AC41834212D05FE11D46413D062D00D32E
:10100800EDE0E4B2373BA340DBB2C0B2C018C3B2D4
:101018001C1A651EAC41834200D051E1D30700225F
:10102800002B0B461446C6D10F9908701B9CC0B202
:10103800E1B2814200D0D2E026A81322E349FFF7AB
:101048008BF82B99A1AC2046FFF728F920780128C6
:1010580005D126A80A22DE49FFF77EF80FE03DAB4E
:101068000398194634C834C174C874C174C874C1AB
:101078000B20009026A80622F849FFF7C5F82C99FE
:10108800A1AC2046FFF70AF92078012805D126A847
:101098000622F449FFF760F80FE03DAB04981946C3
:1010A80034C834C174C874C174C874C10B200090AA
:1010B80026A80922EA49FFF7A7F82D99A1AC2046EE
:1010C800FFF7ECF82078012805D126A80622E54983
:1010D800FFF742F80EE03DAB0598194634C834C115
:1010E80074C874C174C874C10B22009226A8DE4962
:1010F800FFF78AF82E98A19001201B90009026A84F
:101108000922A1ABD949FFF77FF82F99A1AC204656
:10111800FFF7C4F82078012805D126A80622D1496E
:10112800FFF71AF80FE03DAB1846069954C954C0AA
:1011380074C974C074C974C00B20009026A80A2210
:10114800CB49FFF761F83099A1AC2046FFF7A6F824
:101158002078012805D126A80622C249FEF7FCFFFF
:101168000FE03DAB1846079934C934C074C974C040
:1011780074C974C00B20009026A80C22BD49FFF743
:1011880043F83198A1901B98009026A80922A1AB9A
:10119800B649FFF739F83299A1AC2046FFF77EF837
:1011A8002078012805D126A80622AE49FEF7D4FFEB
:1011B8000FE03DAB1846089934C934C074C974C0EF
:1011C80074C974C00B20009026A80622AA49FFF70C
:1011D8001BF8189E0BE013981B990170189E26A8FF
:1011E80018229D49FEF7B8FF299800F0EBF9804CCA
:1011F80000F0D2FA054600F0CBFA00F0D0FA2068E9
:1012080000284FD126606668A468E80701D100F07D
:10121800C1FA002E00D13446A1AD28462146FFF779
:101228003DF82878012805D126A809229549FEF716
:1012380093FF9CE43DAB1846159934C934C074C972
:1012480074C074C974C00B20009026A805228C496C
:10125800FEF7DAFF8BE413980470C0E713991B9A22
:101268000A706421794A6EE013981B9901706B48E3
:101278002121774A5BE064481C21664A57E01399AC
:101288001B9A0A706421644A5DE0139804705E48F2
:101298001C21704A4BE013981B9901705F4821216B
:1012A8005F4A44E07548009053481021FFAA18325D
:1012B800524B00F08BFAFEDE53481C21544A36E0AC
:1012C80051481C21514A32E0139804705348212197
:1012D8005D4A2CE013990C706421584A33E0139846
:1012E80004704E482121574A21E013980470642164
:1012F800534A14E013980470484821214E4A16E0D6
:1013080013990C706421474A1DE0139804704348F0
:101318002121484A0BE0139804706421424A184678
:1013280011E013981B9901703C482121404A00F0B4
:1013380071FAFEDE13981B99017064213B4A20461E
:1013480001E064212F4A00F07BFAFEDE169800E0E7
:1013580012980690A1AA069810702048009020487C
:101368002B21204BA5E71B482B211B4ADFE74848C8
:10137800192106E0294803E023481C2101E04748D9
:101388002121474AD3E74248192101E04148282151
:10139800414ACCE73E48192104E02048212101E0D8
:1013A80019481C21384AC2E728AA0220107036487A
:1013B80000900B482B21354B7BE70B4823210B4A28
:1013C800B5E70C486FE70E486DE7C046AA2B000842
:1013D800BD2B00089C280008E82A0008082B0008F4
:1013E800D828000804290008702700087C2800086D
:1013F800280000201C2C00088C280008C828000899
:101408002C2C000850290008C0260008CC2A000807
:10141800BC2A0008AC2A0008802900089026000889
:1014280070290008A0290008C0290008E029000840
:10143800D0290008B029000890290008002A0008CF
:10144800202A0008102A0008F0290008402A00086D
:10145800302A000860290008922B0008C72B0008D2
:10146800D32B0008CD2B0008DC2B0008E72B000845
:10147800F02B0008FA2B0008062C0008242B000883
:10148800152C00080C2C0008582600081429000800
:101498007026000848270008382700080028000898
:1014A800F0270008F0B503AF83B000F075F90446E3
:1014B80000F06EF900F073F9194D2868002824D15E
:1014C8000020C6432E602979042916D0281D00F073
:1014D8000DF917480168002919D1066041680129EA
:1014E80007D18168144A914201DC491C00E00021BF
:1014F8008160002101602868401C01210C4028609F
:1015080001D100F047F903B0F0BD064800E00948F2
:1015180000900548102102AA044B00F057F9FEDE9E
:10152800000000203C2C00088C280008C82800086F
:10153800280000204C2C0008FDFFFF7F7047D4D402
:1015480001204102054A13680B4313600007044950
:101558000A6802430A6000207047C04634100240FF
:10156800082401404069704780697047C069704726
:1015780070477047002070470248016801220A43FB
:10158800026070472C1002407047D4D40C49086898
:10159800C20707D1820708D4420709D400070AD432
:1015A800052070470320012207E00020022204E002
:1015B8000120042201E0022008224A607047C04648
:1015C8001C48004001480F21016070472048004036
:1015D80080B500AFFFF7DAFFC1B20120052904D1B9
:1015E80004490A68920601D4052180BD097A0020C1
:1015F80080BDC0461C4800407047D4D404480268E7
:10160800120601D405207047017306207047C046B2
:101618001C440040D0B502AF84B00078784400790B
:101628004000874402060A0E121601AC134A04232E
:1016380012E001AC104A0A230EE001AC0D4A072360
:101648000AE001AC0A4A092306E001AC074A032371
:1016580002E001AC044A0B23204600F0DAFB2046E6
:1016680000F020F904B0D0BD672C0008722C0008E7
:10167800752C0008602C00087E2C00085C2C0008E3
:101688000F200005052109070A6A82430A62032020
:1016980080020A6882430120C0021018086070475F
:1016A8000F200006052109070A6A82430A620320FF
:1016B80000030A688243012040031018086070473D
:1016C8000F200007052109070A6A82430A620320DE
:1016D80080030A6882430120C0031018086070471D
:1016E80001480121016070470C00004001480021B9
:1016F8000160704710000040D0B502AF84B0007898
:101708007844007940008744010C040801AC0D4A74
:1017180001E001AC094A082306E001AC064A0923A6
:1017280002E001AC064A0323204600F072FB204683
:1017380000F0B8F804B0D0BD882C0008912C00083F
:10174800A12C0008992C000880B500AF00F01FF804
:1017580009480A49814202D2002204C1FAE708482E
:101768000849814204D2084A08CA08C18142FBD309
:10177800FEF79CFEFEDEC046380000202800002050
:101788002800002000000020C42D0008FEE7704754
:1017980072B6704762B67047EFF3108070477047B3
:1017A8007047D4D4014802497047C046938EA95D5A
:1017B8007E76EAAD80B500AF8869C969CB68024911
:1017C8000E22984780BDC046A42C000880B500AF03
:1017D8008EB00191009003930292022009900AA909
:1017E8000891002107910691059007480490074841
:1017F8000D9002A80C9006480B9068460A9004A821
:10180800B96800F03DF8FEDEB42C0008491F000856
:10181800591F000880B500AF88B000230593074C16
:101828000494039302930123019306AB0093079159
:1018380006906846114600F023F8FEDEA42C000846
:1018480080B500AF8CB0019100900220079008A9E4
:1018580006910021059104910390074802900748DA
:101868000B9069460A91099001A8089002A81146B0
:1018780000F006F8FEDEC046E82C0008451E000809
:1018880080B500AF84B003910290044801900448E9
:101898000090684600F064FBFEDEC046C42C0008D9
:1018A800A42C0008B0B502AF0446017A40680028AD
:1018B80020D00125002918D101280ED1607A0028EE
:1018C8000BD021680878400707D48869C969CB68B4
:1018D8000B4901229847002807D121688869C969FE
:1018E800CB6808490122984705462572681E85413C
:1018F8002846B0BD0D46681E85412846B0BDC04685
:10190800F82C0008F92C0008F0B503AF89B004469C
:10191800FE68002905D025680121294007D02B2021
:1019280007E02568701C07902D20059004E0112021
:10193800000405908819079068070021002804957D
:1019480007D408910691079BBD68A16801291ED09C
:101958003BE00396002B089306920ED00021184610
:10196800134603E0401E5B1C002807D01E78C025E4
:101978003540802DF6D1491CF4E70021089A0798D4
:101988008218531A039EBD68A16801291DD1E16818
:1019980099421AD9049800072DD42020225C032AE2
:1019A80000D10122C91A00200295920001A39A5879
:1019B8000B469746651A0008CD1900085F1A0008FB
:1019C800CD1900080023084648E020460599069AE4
:1019D800089B00F0AFF8002803D00125284609B07D
:1019E800F0BDA069E169CB682946324698470546AB
:1019F800284609B0F0BD029107932020215C01918F
:101A080001210491215460680090302060602046D4
:101A18000599069A089B00F08DF8002803D0049DCC
:101A2800284609B0F0BD2046203006900278032AE7
:101A38000798029900D101220396091A00200295FD
:101A48000E46C0467A441279520097443A0137014B
:101A58000026084635E04808491C4B080393451CF6
:101A68006D1E07D06168A069E26912699047002875
:101A7800F6D0B2E76068079020460599069A089B59
:101A880000F058F801250028A8D1A069E169CB68C1
:101A98000299324698470028A0D104950398461C1D
:101AA800A569E469761E38D02269284607999047C7
:101AB8000028F7D0049D284609B0F0BD4808491C05
:101AC8004E08451C6D1E0AD06168A069E26912695A
:101AD80090470028F6D0049D284609B0F0BD6068FC
:101AE8000890A069E169CB680299039A9847002891
:101AF80003D0049D284609B0F0BD751CA069079065
:101B0800E6696D1E0DD0326907980899904700283C
:101B1800F7D0049D284609B0F0BD0025284609B035
:101B2800F0BD019806990870009860600025284665
:101B380009B0F0BDF0B503AF81B01C4615460646A6
:101B480011200004814208D0B069F26912699047F7
:101B5800002802D0012001B0F0BD002D07D0B069E7
:101B6800F169CB6829462246984701B0F0BD0020AC
:101B780001B0F0BDF0B503AF8BB006460069B3689D
:101B8800012B0A9602D1012803D085E0012800D054
:101B980037E104930792881809907369002B08911C
:101BA80053D01120000402900720800401900026E1
:101BB8000846099904E00999421B96195B1E47D00B
:101BC800814200D116E10546401C2A7852B2002A0B
:101BD800F2D5D4B2884207D068783F210140A81CCA
:101BE8000246E02CE7D303E00A460021E02CE2D3CA
:101BF800069109998A4208D010783F210140059141
:101C0800501C0246F02CD6D304E0002205920A4666
:101C1800F02CD0D309998A4205D010783F21014091
:101C28000391501C01E000210391A20401990A408C
:101C380006990C03A21805998C01121903995218D8
:101C480002998A420999B7D1D4E000260846099931
:101C5800814200D1CEE0027852B2002A69D4002E27
:101C6800079A08990CD096420AD00020964203465B
:101C780008D28C573F20C34300209C42034601DB17
:101C88000846334600282CD01A4600280A9E2BD135
:101C98000498012800D0B4E00891002A29D0002037
:101CA8001546089B03E06D1E5B1C002D06D01C78B2
:101CB800C0210C40802CF6D1401CF4E7131AF068C0
:101CC80083421BD2002607921346089C03E05B1E42
:101CD800641C002B17D025780D40802DF7D1761C79
:101CE800F5E700280A9ED3D0014604980128D3D0EE
:101CF80087E0F068002801D0002605E0B069F169A6
:101D0800CB68089980E0079AB51A20210A9B5C5C89
:101D18000021032C0B4600D02346079228180646BC
:101D28007B441B795B009F4412010F01002601468A
:101D38000DE0441CD3B28C4237D0851C4078800615
:101D4800000DE02B36D28AE74108401C46084C1C9F
:101D5800641E0BD00A9A51689069D269126990473B
:101D68000028F5D0012420460BB0F0BD0A9D686814
:101D78000990A869E969CB680899079A98470124E6
:101D880000280BD1761CA8690890ED69761E08D04A
:101D98002A690898099990470028F7D020460BB07F
:101DA800F0BD002420460BB0F0BD00200D46E02B0E
:101DB80000D254E78D4206D02A783F2414406A1C8A
:101DC800F02B05D24BE700240A46F02B00D246E759
:101DD80004438A4203D012783F20104000E00020DC
:101DE800A2015B07DB0AD2181018112212049042D4
:101DF80000D034E7079A08990A9E0498012800D170
:101E08004AE7B069F369DB689847044620460BB097
:101E1800F0BDF0B503AF81B01D460E460446886993
:101E2800C969CB6811462A469847207226606842DD
:101E3800684160720020606001B0F0BDF0B503AF8A
:101E480091B0029106683948864255D90120C043AD
:101E5800272440000390354606952846344900F06B
:101E680097F8014605903148401C4843281A0490C9
:101E780080B26426314600F08BF807A909194200A0
:101E88002C4B9B5C039D4B5549192A4B9A18527849
:101E98004A7046430498801B059E80B240001A5C35
:101EA8008A7018184078C870241F23480699814200
:101EB8003546D1D8632E22DDB0B26425294600F01C
:101EC80067F84543711B89B249001A4A535C254695
:101ED800A51E07AC635563195118497859700A282B
:101EE80011DB4000134A135CA91E07AC6354631846
:101EF8001018407858700AE02724632EDCDC30463E
:101F080025460A28EDDA691E303007AA50542720E2
:101F1800401A019007A8401800900121074A0023A1
:101F28000298FFF7F1FC11B0F0BDC0460F27000082
:101F380010270000FA2C0008FFE0F505A42C000883
:101F480080B500AF02684068C3681046984780BDF6
:101F580080B500AF0B4606C81846FFF70BFE80BDDC
:101F6800FEE7D0B502AF93060BD4002A08D01F2392
:101F780054421A40D0401C400B46A3401843D1405D
:101F8800D0BD1F200240D140002208461146D0BDD6
:101F9800F0B503AF81B000292FD0044600260028F1
:101FA8000DD00D46084600F0EFFA0090204600F0EC
:101FB800EBFA0099091A1F2901D803D126463046A1
:101FC80001B0F0BD481C2246C2401F23591A8C405C
:101FD8000021E30F5200D218D3435B19DB171E46CA
:101FE8002E40921B64000C4301211940401EF0D181
:101FF80060000E18304601B0F0BDFEDEFEDE00B512
:1020080081B06A4600F0AEF9009901B000BDFEDE6D
:1020180010B584B002AC009400F045F8029A039B16
:1020280004B010BDFEDE10B584B002AC009400F020
:1020380075FA029A039B04B010BDFEDE002A05D093
:102048000B780370491C401C521EF9D1704780B5AB
:1020580000AF042A04D308C908C0121F032AFAD8FB
:10206800FFF7ECFF80BD002903D00270401C491E19
:10207800FBD17047D0B502AF1346D2B2042909D3B9
:102088001B06D31814041B1914021B1908C0091FB6
:102098000329FBD8FFF7E7FFD0BD80B500AF0022CA
:1020A800FFF7E8FF80BDD0B502AF82B0BC680094EE
:1020B80000F002F802B0D0BDF0B503AF89B0144605
:1020C800BD680029079116D00E46002C2AD006902C
:1020D800002B039366D00494184600F055FA044682
:1020E800304600F051FA201A1F2800D8AEE0002D23
:1020F80052D006984DE00026F1434A1C3146714102
:10210800A21A8B4142D2002D00D1F8E0002C00D158
:102118001EE10021696021460690FFF770FF0698CE
:102128002960EEE0002B00D112E1002860D0069073
:1021380004945808874908401A1A874C1846930887
:1021480022402340D2181309D418844A1440844BDF
:102158005C43240E012C6ED1002D324604D0441E5F
:102168001440069E2E606C60441E844365080D4032
:10217800611B8C087848014004400819010940187F
:10218800764908404343180EC24041E0002D00D173
:10219800BFE028600798686000221646104631465E
:1021A80009B0F0BD60086B490840221A6A499308D3
:1021B8000A400B40D21813092046D418674A144025
:1021C800674B5C43240E012C27D1002D07D0002437
:1021D8002946451E069E35400D604C605E49012823
:1021E80000D09BE0069A079E1046314609B0F0BD24
:1021F800002D08D000202860304619461C46FFF7FD
:10220800FEFE2346696030461946FFF7C1FE0246C6
:1022180000261046314609B0F0BD049000F0B4F92C
:102228000446304600F0B0F9211A2020C043401A75
:10223800019021310EE0039000F0A6F904463046E3
:1022480000F0A2F9201A1E2800D950E73F21091AE8
:102258000191411C089102953F200090089A024084
:10226800069D2846079C2146FFF77BFE05900E46F3
:10227800019A009802402846214600F0B2F8089AD0
:10228800002A36D000240790059D05940892E80F8F
:1022980073001E18F0436B000691CD0FEB18DD4359
:1022A80004996D18039C6041C217154625401046D5
:1022B8000840181AAE410546012313400799480003
:1022C800059A1043C90F069A52005118089A521ECF
:1022D8001C460790D9D1029A002A01D02C4660C228
:1022E8004200D218C00F49000E181046314609B0F6
:1022F800F0BD0023059D029A002AEFD1F0E7002CDB
:1023080026D02146FFF744FE02461046314609B062
:10231800F0BD32461046314609B0F0BD441E844334
:1023280065080C4805400846611B8C0801400440BC
:10233800081901094018104043431A0E06980799D6
:10234800FFF70FFE02460E461046314609B0F0BDB3
:10235800FEDEFEDE55555555333333330F0F0F0F61
:1023680001010101F0B503AF83B0002937D00D4654
:102378000446002600282AD02846019200F004F9D5
:1023880002940446029800F0FFF8019A211A029C70
:102398001F291CD826461AD0481C2346C3401F2292
:1023A800521A214691400022CC0F5B001B19DC43D6
:1023B8006419E41726462E409B1B4900114301224D
:1023C8002240401EF0D148001618019A029C002AAB
:1023D80002D07543601B1060304603B0F0BDFEDECE
:1023E800FEDED0B502AF93060BD4002A08D01F2317
:1023F80054421A4091401C400346E3401943904020
:10240800D0BD1F210A40014691400020D0BDF0B543
:1024180003AF5143050C140C2E4666437118434311
:10242800C91892B2554380B24243130C5B191D0C74
:1024380049199BB260431818030CC918000492B2DA
:102448008018F0BDD0B502AFCC176140091B08D089
:10245800C21754405040801AFFF79AFD6040001B95
:10246800D0BDFEDEFEDEF0B503AF89B00C46B9681C
:10247800002603910E6001210491C90725464D40AD
:10248800054305920894069007931D4604D1901EB3
:102498002846B04137D239E04D40154304D1801E5B
:1024A8000898B0412FD231E0DD176B406A40521BCB
:1024B8000292AB41E21754405040801A9441019077
:1024C800801E2046B04121DB0298801E1846B0418C
:1024D8001CDB6A4012430AD104984042B141029A77
:1024E800FFF796FD019A801AA1410CDB0EE00298D5
:1024F800424235469D4130462B46FFF794FD019AEE
:10250800801AA14102DA0398049901600598079995
:10251800069A089BFFF77BFF09B0F0BDF0B503AF43
:1025280085B01D460490DC17234603956B40204672
:1025380002925040001BA3410090184322D0CD17AF
:102548006C40B86801900E4669402846049A50408D
:10255800401BA941009AFFF75BFD0D4665406040AE
:10256800001BA54104462946029A039BFFF74FFF2B
:10257800049A101A019A10608E4156602046294626
:1025880005B0F0BDFEDEFEDE80B5030C00AF002B0B
:102598001AD0180008210022FF231B02184201D07C
:1025A8001100000AF023034211D00C230009034252
:1025B80011D08008012243089A430223BD465242A3
:1025C800181A1040401880BD18211022E4E70C2387
:1025D80004310342EDD10231ECE7C04670460421D4
:1025E800084202D1EFF3088002E0EFF30980FFE729
:0425F800FEE7D4D452
:1025FC002F55736572732F61726B6F2F2E6361721F
:10260C00676F2F72656769737472792F7372632F9A
:10261C006769746875622E636F6D2D3165636336FF
:10262C0032393964623965633832332F73746D33E0
:10263C00326C3078782D68616C2D302E362E322F1E
:10264C007372632F74696D65722E7273FC250008AA
:10265C005C000000D200000001000000000000003F
:10266C0000000000617474656D707420746F2064D8
:10267C006976696465206279207A65726F00000062
:10268C0000000000617474656D707420746F2073A9
:10269C00756274726163742077697468206F7665F3
:1026AC0072666C6F770000000000000000000000F4
:1026BC0000000000617474656D707420746F20618B
:1026CC0064642077697468206F766572666C6F77C6
:1026DC002F55736572732F61726B6F2F2E6361723E
:1026EC00676F2F72656769737472792F7372632FBA
:1026FC006769746875622E636F6D2D31656363361F
:10270C0032393964623965633832332F73746D33FF
:10271C00326C3078782D68616C2D302E362E322F3D
:10272C007372632F7370692E72730000DC260008BD
:10273C005A0000003801000001000000696E746549
:10274C00726E616C206572726F723A20656E746580
:10275C0072656420756E726561636861626C652078
:10276C00636F6465617474656D707420746F20732D
:10277C0068696674206C6566742077697468206F6C
:10278C00766572666C6F772F55736572732F6172F5
:10279C006B6F2F2E636172676F2F7265676973742D
:1027AC0072792F7372632F6769746875622E636F09
:1027BC006D2D31656363363239396462396563383E
:1027CC0032332F73746D33326C3078782D68616CC2
:1027DC002D302E362E322F7372632F736572696112
:1027EC006C2E7273932700085D000000CB02000072
:1027FC0001000000617474656D707420746F206D3D
:10280C00756C7469706C792077697468206F766563
:10281C0072666C6F772F55736572732F61726B6F65
:10282C002F2E636172676F2F72656769737472798B
:10283C002F7372632F6769746875622E636F6D2DC9
:10284C0031656363363239396462396563383233E2
:10285C002F73746D33326C3078782D68616C2D3039
:10286C002E362E322F7372632F6164632E727300B7
:10287C00212800085A0000003F0100002A00000037
:10288C00616C726561647920626F72726F776564D6
:10289C0063616C6C656420604F7074696F6E3A3A5A
:1028AC00756E77726170282960206F6E20612060D0
:1028BC004E6F6E65602076616C756500B90000081E
:1028CC000000000001000000BD17000863616C6C83
:1028DC0065642060526573756C743A3A756E7772E4
:1028EC006170282960206F6E20616E2060457272C5
:1028FC00602076616C756500BB000008010000006B
:10290C00010000001D160008BD00000801000000B9
:10291C0001000000011700080D0A7372632F636F2A
:10292C006E736F6C652E7273262900080E00000002
:10293C00310000002A0000007372632F6E6D656118
:10294C002E727300442900080B000000A700000041
:10295C0020000000442900080B0000003900000092
:10296C0021000000442900080B0000008D0000002D
:10297C002F000000442900080B0000008D0000000F
:10298C0028000000442900080B0000006D00000026
:10299C003E000000442900080B0000006D00000000
:1029AC0037000000442900080B0000006E000000F6
:1029BC003D000000442900080B0000006E000000E0
:1029CC0036000000442900080B0000006F000000D6
:1029DC003D000000442900080B0000006F000000BF
:1029EC0036000000442900080B0000004F000000D6
:1029FC003D000000442900080B0000004F000000BF
:102A0C0036000000442900080B00000050000000B4
:102A1C003C000000442900080B000000500000009E
:102A2C0035000000442900080B00000043000000A2
:102A3C003F000000442900080B0000004300000088
:102A4C00380000007372632F6E666D742E72730003
:102A5C00502A00080B0000002E0000000D000000A2
:102A6C00502A00080B000000330000000900000091
:102A7C00502A00080B000000340000000900000080
:102A8C00502A00080B000000450000001600000052
:102A9C00502A00080B000000550000001200000036
:102AAC00502A00080B0000006B00000024000000FE
:102ABC00502A00080B0000006C00000024000000ED
:102ACC00502A00080B0000006D00000024000000DC
:102ADC007372632F70616C2E72730000DC2A000815
:102AEC000A000000170000002B0000007372632F17
:102AFC00726164696F2E727300010000F82A00087D
:102B0C000C0000001B000000270000007372632FF4
:102B1C006D61696E2E727300182B00080B0000009B
:102B2C008700000034000000696E646578206F75C2
:102B3C0074206F6620626F756E64733A20746865DA
:102B4C00206C656E206973202D202D202D202D20CA
:102B5C0048414245587069636F2076302E302E31D3
:102B6C00202D202D202D202D2D202D202D202D20F1
:102B7C00424F4F5420434F4D504C455445202D202F
:102B8C002D202D202D2D5B6770735D202D20496726
:102B9C006E6F72696E67207061636B6574215B6721
:102BAC0070735D202D204E6577207061636B6574AA
:102BBC0021555443204552524F5221555443203DE8
:102BCC00204552524F52214C4154204444203D2028
:102BDC004C4154204D4D6D6D203D204C4154204EA8
:102BEC0053203D204C4F4E47204444203D204C4F19
:102BFC004E47204D4D6D6D203D20414C54203D20C5
:102C0C005354204552524F52215354203D20000022
:102C1C00182B00080B0000004100000018000000F9
:102C2C00182B00080B000000420000001B000000E5
:102C3C00182B00080B000000920000003700000069
:102C4C00182B00080B000000960000003500000057
:102C5C00427573794F76657272756E5F45787465DF
:102C6C006E7369626C654372634D6F646546617522
:102C7C006C744672616D654572726F72556E6465E7
:102C8C0072666C6F774F766572666C6F77496E669D
:102C9C00696E6974654E614E426F72726F774D75D5
:102CAC00744572726F723A20A42C00080000000068
:102CBC00B22C000802000000A91700080000000058
:102CCC0001000000AD17000820627574207468655F
:102CDC0020696E646578206973200000342B00082D
:102CEC0020000000D42C0008120000002C293030E9
:102CFC0030313032303330343035303630373038A4
:102D0C003039313031313132313331343135313692
:102D1C003137313831393230323132323233323478
:102D2C00323532363237323832393330333133325E
:102D3C003333333433353336333733383339343044
:102D4C003431343234333434343534363437343833
:102D5C003439353035313532353335343535353622
:102D6C003537353835393630363136323633363408
:102D7C0036353636363736383639373037313732EE
:102D8C0037333734373537363737373837393830D4
:102D9C0038313832383338343835383638373838C3
:102DAC0038393930393139323933393439353936B2
:082DBC003937393839390000BC
:102DC40000000000040000000000000000000000FB
:102DD40000000000000000000000000000000000EF
:082DE4000000000000000000E7
:040000050800175187
:00000001FF
