:020000040800F2
:10000000000800205902000899020008B9020008FF
:1000100000000000000000000000000000000000E0
:10002000000000000000000000000000990200082D
:10003000000000000000000099020008990200087A
:100040009902000899020008990200089902000824
:100050009902000899020008990200089902000814
:1000600000000000990200089902000899020008A7
:1000700099020008990200089902000899020008F4
:100080009902000899020008990200080000000087
:1000900099020008990200089902000899020008D4
:1000A00099020008990200089902000899020008C4
:0800B000990200089902000802
:1000B80000F0F1F8FEDE000086B000F0F6F8044625
:1000C80000F0EFF857480178002901D0002501E039
:1000D80001250570E00701D100F0E5F8002D00D1F9
:1000E8009CE0524D5248286029684907FCD5E968C8
:1000F800504A0A40511CE960E96A0122114313463B
:10010800E96205210E07F1680C229143F1607168DC
:1001180002220492914371603168042203921143D0
:1001280008220292914331605A041C46B261716AF6
:10013800402301931943B027B943716203218F0407
:100148003368BB43E7040594DB193360736A3A4F9D
:100158003B40FF30184370620805336883436005ED
:1001680018183060A86B1043A8634B0218468330F8
:10017800324FF86000207860B8600D2200923A6033
:100188007860346A2C4A1440E318336233682024B8
:100198001C4310239C4334600F231B03346A9C4385
:1001A8004B03E3183362336880241C43019B9C4350
:1001B8003460059B9B04AC6B1C43AC63204C214B07
:1001C800E3606060A060009A226060601E4A1F4D74
:1001D8000CE0B30711D473070CD4330711D4B3065A
:1001E80004D51678FB691B06FCD52E70E669F30763
:1001F800EFD003E00598014601E001460598049A0E
:1002080002E0049A1146059820622262039820624F
:10021800029820620846FFF74BFFFEDE024800F016
:100228003DF8FEDE00000020100300080010024028
:10023800010300000CC0FFFFFFF0FFFF0044004077
:10024800004800400083060024480040284400403D
:1002580000F01FF809480A4901E0002204C1814260
:10026800FBD308480849814204D2084A08CA08C191
:100278008142FBD3FFF720FFFEDEC04604000020CA
:1002880000000020000000200000002028030008D3
:10029800FEE77047FEE7FFF7FDFFFEDEFFF7FBFF17
:1002A800FEDE72B6704762B67047EFF31080704793
:1002B80070460421084202D1EFF3088002E0EFF310
:0602C8000980FFE7FEE7DC
:1002D00063616C6C656420604F7074696F6E3A3A4C
:1002E000756E77726170282960206F6E20612060C2
:1002F0004E6F6E65602076616C75657372632F6CEE
:100300006962636F72652F6F7074696F6E2E72739E
:10031000D00200082B000000FB02000815000000BE
:08032000590100001500000066
:040000050800025994
:00000001FF
