:020000040800F2
:10000000000800209D0E0008DD0E0008751900088C
:1000100000000000000000000000000000000000E0
:10002000000000000000000000000000DD0E0008DD
:100030000000000000000000DD0E0008DD0E0008DA
:10004000DD0E0008DD0E0008DD0E0008DD0E0008E4
:10005000DD0E0008DD0E0008DD0E0008DD0E0008D4
:1000600000000000DD0E0008DD0E0008DD0E0008B7
:10007000DD0E0008DD0E0008DD0E0008090B00088B
:10008000DD0E0008DD0E0008DD0E00080000000097
:10009000DD0E0008DD0E0008DD0E0008DD0E000894
:1000A000DD0E0008DD0E0008DD0E0008DD0E000884
:0800B000DD0E0008DD0E000862
:1000B800704770477047704770477047F0B581B018
:1000C8000D46046800200090802903D26846057018
:1000D800012035E0E80A0CD13F2029460140803153
:1000E8006A465170C0436905C90E0D181570022083
:1000F80026E0280C10D13F202840803069468870BF
:100108002805800E803048701F20C0432A04120F33
:1001180015180D70032013E03F21294080316846EF
:10012800C1700F21C943AA0C0A4302702905890E20
:1001380080318170A903890E8031417004201546F1
:100148006E4637182046294600F0D6FDC0B205286D
:10015800F8D0761CBE4201D03578F3E7002001B014
:10016800F0BD0000B0B588B00068019002AA104642
:1001780038C938C038C938C001A8024900F078FF2A
:1001880008B0B0BDA81D0008F0B581B0002A0DD098
:100198000C468F18056826782846314600F0ACFDD5
:1001A800C0B20528F8D0641CBC42F4D1002001B0CC
:1001B800F0BD000010B58CB002920191046801A84E
:1001C8000F4900F01FFE03AA13C201200B9003A8D9
:1001D8000A9000200990089002200790094806908C
:1001E80005A8094906AA00F043FF002801D10CB070
:1001F80010BD06482B2106AA054B00F0DFFEFEDEE7
:10020800FD0D0008A81E0008A81D0008381E0008DB
:10021800941E0008B0B58EB002AC23800192009104
:1002280005686846114900F0EDFD114A069203AAD7
:1002380013C2079502200D9003A80C9000200B9084
:100248000A90032009900B48089007A80A4908AAB1
:1002580000F00EFF002801D10EB0B0BD07482B21D9
:1002680008AA074B00F0AAFEFEDEC046FD0D0008F6
:1002780029180008BC1E0008A81D0008381E000820
:10028800941E0008C4B000F033FE012420403AA9AF
:10029800087000F029FE12AE00F02DFEFC48007830
:1002A800002801D0002502E000F0EEFD25463AA81E
:1002B80000F016FE002801D000F018FE002D00D135
:1002C800C6E324360D9643A800F0CAFDF149016043
:1002D80043A800F0C5FD00684007F9D543A800F021
:1002E800BFFDC168EC4A0A40511CC160EB4D28466D
:1002F80000F0ABFC1190284600F0A7FC10902846AF
:1003080000F0A3FC0F90284600F09FFC0746284603
:1003180000F09BFC0646284600F097FC31AD03210F
:100328002970399038970F4637960F98369010985D
:10033800359011983490284600F08AFC3AA800F0CD
:100348007DFC3A9E3B98119005200207506A402197
:1003580009910843B02188435062B8041168814369
:10036800E00408181060506ACD490840C949FF31B7
:1003780001435162380511688143600508181092DD
:100388001060284600F06CFD6204816B0A921143EC
:100398008163284600F04CFC1922002529462B468B
:1003A80001F065FA4A1E914100D045E3BB0731468A
:1003B8009943711A4A1E914100D03FE307930F9762
:1003C800B10000D13CE301F06CFA074664263146DF
:1003D80001F067FA0E904643B81B29466941B742B7
:1003E80000D22FE30F26330701469943411A4A1ECC
:1003F800914100D028E30396069301010846323064
:100408002A466A41884200D220E31199090A0C91D0
:100418006421059101F045FA0E990E01064343AF98
:10042800384600F019FDC660384600F015FD4560F5
:10043800384600F011FD83218901089181600C98EC
:10044800C0B2411E02468A419102119A1206120B4D
:100458005118801E4242424150020E180D3638464D
:1004680000F0FAFC0660FF200490000311990E09C1
:100478000E900640384600F0EFFC466000F03AFC6B
:10048800109EF0680C218843F06070680221019189
:1004980088437060306804210B9108430821029159
:1004A800884330603AA800F0C9FB3A9F3B98119006
:1004B800306A7B4908400F9A510201433162306823
:1004C8002021014310200C908143316003980003E0
:1004D800316A814350030818306230688021014333
:1004E80009988143316031AE304600F0B9FCA1046F
:1004F800826B0A438263304600F09AFB1922294630
:100508002B4601F0B4F94A1E914100D094E23946D5
:10051800079A9143791A4A1E914100D08EE20997B1
:10052800B90000D18CE201F0BCF90746059E3146BE
:1005380001F0B7F94643BB1B29466941B74200D2CF
:1005480080E21946069A9143591A4A1E914100D0F1
:100558007AE206461901084632302A466A4188423C
:1005680000D273E2642101F09CF93101014304983F
:1005780000060A468243881A421E904100D069E26A
:100588001198000A07900E0243AF384600F078FC35
:10059800C660384600F074FC4560384600F070FCD0
:1005A800089981600798C0B2411E02468A419102AB
:1005B800099A120D119B1B03D2180E9B1A400A436D
:1005C800801E41424141480210430D2606433846E9
:1005D80000F056FC0660119806090E980640384649
:1005E80000F04EFC466000F06BFB109AD0682D4975
:1005F8000840D06050680C9B9843506010680840D1
:10060800210240181060284800F01FFB119038465E
:1006180000F0B4FB384600F0C1FB384600F0CEFBD2
:1006280031AE304600F01CFC2103426B0A434263A2
:100638003846119F00F018FC4560304600F0FCFA7F
:10064800002F00D108E20646394601F02AF9BE42D9
:1006580000D203E203280F4E01D2433627E00628D2
:1006680001D24B3623E00C2801D253361FE018285C
:1006780001D25B361BE0302801D2633617E06028D0
:1006880001D26B3613E0C02810D37B360FE0C0468A
:1006980030000020010300000CC0FFFF0024F4001C
:1006A800FFF0FFFFFFFCFFFFA0860100733643A8A1
:1006B80000F0DAFB066031AF384600F0A6FA119078
:1006C800109AD0680F998843D0601068084310606A
:1006D800204600F0BAFA0E90384600F0C1FB816B54
:1006E80021438163384600F0BBFB816A2143816264
:1006F800384600F0B5FBE2430992816A11408162F5
:100708003AAE30460ECF0EC00ECF0EC00ECF0EC082
:10071800304600F0B1FB0168099A1140016030468B
:1007280000F0AAFB8584304600F084FA0E9900296F
:1007380000D195E101F0B5F8421E294669410E90B5
:10074800012800D28EE1160C3AA8099000F094FB1B
:100758008662761CB7B2B81B411E8841099800F022
:100768008BFBB74200D07FE10990300400D17DE1D6
:100778000E98394601F095F8010C00D078E10999F6
:1007880088853AAE304600F077FB01680B9A114332
:100798000160304600F070FB4461304600F06CFBAD
:1007A80001682143016012A801468CCE8CC18CCE11
:1007B8008CC18CCE8CC1119B190C0D9A9170138031
:1007C8001D901C901CAEB14921223046FFF7F2FC67
:1007D800AF490B223046FFF7EDFC10990A98886163
:1007E80020058861AB4F781C11903E7812A800F064
:1007F8003BFB8068410600D517E1810600D510E172
:10080800C10600D50FE18007EFD512A800F02CFB38
:10081800067312A800F028FB8068410600D504E1A1
:10082800810600D5FDE0C10600D5FCE0C007F0D088
:1008380012A800F019FB007B9648801C119F874284
:10084800D1D110980C9981611CA895491E22FFF7F7
:10085800B1FC0D9F384600F0A2F9384600F008FBBD
:10086800C16838229143BA78D206120E0A437978C1
:100878004907090E1143C160384600F0BBF93846F4
:1008880000F0F6FA064600F0E1F9C1B2202900D3DB
:10089800F5E01F21084021468140B162384600F04A
:1008A800E7FA0168029A11430160384600F0E0FA5D
:1008B800816804220A438260384600F0D9FA006849
:1008C8000007F9D5384600F0D3FA066C7878012885
:1008D80003D1B878032800D13602384600F074F9FD
:1008E800304600F05BF903461CA86E490C22FFF75E
:1008F80091FC12A800F0E6F90E46C00708D0F0B245
:100908000528F6D03AAA167063482B21664B85E075
:1009180012A8314600F0F0F9C0B20528F8D012A8A4
:100928001EAE31468CC88CC18CC88CC18CC88CC199
:10093800304600F053FA27AF38460ECE0EC00ECE22
:100948000EC00ECE0EC000F0D3FA204030A90870B9
:1009580000F0CAFA31A80ECF0EC00ECF0EC00ECFCF
:100968000EC000F0C8FA514F3868002852D15248DA
:100978003D60786031A83AA94CC84CC14CC84CC1FC
:100988004CC84CC14D480168002943D1011D3AAA01
:1009980049CA49C149CA49C149CA49C14748056004
:1009A80030A800F09DFA002801D000F09FFAE60375
:1009B80000F092FA066000F09BFA20403AA908700D
:1009C80000F092FA00F097FA3868002822D13C4EDD
:1009D800E8433860B8880128284607D1FB881CA856
:1009E80005223146FFF716FC3868401C38603AA8E3
:1009F80000F076FA002801D000F078FA00F078FAD2
:100A080020403AA9087000F06FFA00F074FA3868CC
:100A18000028DDD02648102143AA264B00F0CEFA44
:100A2800FEDE0F9800E00B9801903AAA019810702A
:100A380019482B21194BF1E7304821E02E481FE0D7
:100A48002C481DE02A481BE0284819E0264817E0F2
:100A58000D4815E0234813E0214811E01F480FE036
:100A68001D480DE01B480BE0194809E0174807E04E
:100A780027AA0220107008482B21134BCEE71148F3
:100A880000F04EFAFEDEC046101E0008D61E000812
:100A9800F71E0008D41E0008381E0008741E00083F
:100AA800021F0008201F0008641E000828000020FC
:100AB800C01D0008281E00080100020000000020D8
:100AC800371F0008441B0008841E0008A41A0008E9
:100AD8008C1A0008541A00080C1A0008581C000840
:100AE800BC1B0008901D0008781D0008601D000848
:100AF800481D0008301D0008181D0008001D0008CA
:100B0800B0B582B000F0F4F90121014068460170E7
:100B180000F0EAF900F0EFF91B4C2068002827D113
:100B28000020C54325602179042917D0201D00F035
:100B38005BF91848016800291AD1056081880129E4
:100B480008D1C188491C8AB2531A5D1EAB418A423A
:100B580015D1C180002101602068401C20606846D2
:100B680000F0BEF9002801D000F0C0F902B0B0BD15
:100B78000648102101AA064B00F020FAFEDE0648BE
:100B880000F0CEF9FEDEC04600000020C01D0008BF
:100B9800281E0008280000203C1F00087047B0B538
:100BA800044600F065F901680125294301602046E3
:100BB80000F05EF9816829438160204600F058F909
:100BC8000068C007F9D0B0BD10B5044600F050F970
:100BD800816802220A438260204600F049F90168D0
:100BE80001220A430260204600F042F98068C007EB
:100BF800F9D110BD10B5044600F03AF94169072251
:100C0800914322780A43426110BD10B582B000F0CA
:100C180027F901246102426B0A43426301A800F0EC
:100C280027F9210782680A438260002002B010BDBC
:100C38004069704780697047C069704700218171B9
:100C480081804B21C90101607047704700207047BF
:100C580080B500F005F9C16A01220A43C26280BD6D
:100C680010B584B00078C0467844007940008744C5
:100C78000205090D110001AC104A05E001AC0E4A4D
:100C880005230AE001AC0B4A072306E001AC084A39
:100C9800062302E001AC054A0B23204600F02AFD9A
:100CA800204600F0AFF904B010BDC0467B1F000815
:100CB800861F0008741F00088C1F0008911F000879
:100CC800704700000A49081F0068020708D0012081
:100CD800086002220A6004220A6008220A6002E010
:100CE800800602D401200521704709790020704749
:100CF800204800407047000004480268120601D4EA
:100D080005207047017306207047C0461C44004008
:100D180010B584B00078C046784400794000874414
:100D280002060A0E121601AC134A042312E001ACA3
:100D3800104A0A230EE001AC0D4A07230AE001AC71
:100D48000A4A092306E001AC074A032302E001AC82
:100D5800044A0B23204600F0CDFC204600F052F94F
:100D680004B010BD7B1F0008981F00089B1F0008D7
:100D7800741F0008A41F00085C1F00080F2000054E
:100D8800052109070A6A82430A62032080020A6869
:100D980082430120C0021018086070470F20000627
:100DA800052109070A6A82430A62032000030A68C8
:100DB8008243012040031018086070470F20000785
:100DC800052109070A6A82430A62032080030A6828
:100DD80082430120C00310180860704780B500F0F6
:100DE8004BF80121C16080BD80B500F045F80021B5
:100DF800016180BD80B50A4603684168184600F065
:100E08008BFC80BD7047000010B584B00078C046E8
:100E18007844007940008744010C040801AC0D4A6D
:100E280001E001AC094A082306E001AC064A09239F
:100E380002E001AC064A0323204600F05BFC204692
:100E480000F0E0F804B010BDAE1F0008B71F00089E
:100E5800C71F0008BF1F0008004870470044004033
:100E680000487047001002400048704700300140B9
:100E780000487047002401400120800770470000A7
:100E88000048704700480040014801210170704740
:100E98003000002000F01FF809480A49814202D2B8
:100EA800002204C1FAE708480849814204D2084AE6
:100EB80008CA08C18142FBD3FFF7E4F9FEDEC04649
:100EC8003400002028000020280000200000002016
:100ED80020220008FEE770470048704700E100E064
:100EE800017848424841704772B6704762B6704709
:100EF800EFF31080704770477047000001480249BF
:100F08007047C046D4459A0D92340DD080B5886993
:100F1800C969CB6801490E22984780BD3020000876
:100F28008CB018C808380546083526CD4069002613
:100F38000596094F0497039602960126019606AE78
:100F48000096079406930B9008A826C0684608A93F
:100F580000F022F8FEDEC046CC1F00088CB0034625
:100F6800019200910220079008A90691002105919D
:100F7800049103900648029006480B9069460A912E
:100F8800099001A8089002A8194600F005F8FEDEAD
:100F9800642000083718000888B01CC90968079140
:100FA80003A91DC1034802900348019001A800F05D
:100FB8005DFCFEDE40200008CC1F00088EB00191C9
:100FC800009003930292022009900AA90891002137
:100FD8000791069105900748049007480D9002A8CC
:100FE8000C9006480B9068460A9004A80449FFF73D
:100FF800D3FFFEDED0200008591800086718000843
:10100800F8200008B0B50446057A406800281ED0CC
:10101800002D01D0012519E001280FD1607A0028A0
:101028000CD021680878400708D48869C969CB685A
:10103800094901252A469847002807D12168886967
:10104800C969CB6805490122984705462572681E7B
:1010580085412846B0BDC046D121000808210008B6
:1010680080B50A460068012100F05EFB80BD0000E3
:10107800F0B597B01469536930250AAF032607976E
:101088007E5520250B9500270A971593149410ADCB
:1010980013C50E970C97DD00651913959668002EF9
:1010A80000D1C0E05468D368A342254600D81D4645
:1010B8001268002D00D1E5E00695CB681168154649
:1010C800526898470121002800D0EEE0029104946C
:1010D80007983030079001950C351036002009909C
:1010E800C0430590012705988300F018011F09687F
:1010F8000B91317C079A11700893F1580A910346B5
:101108000C3BB168890002A254580999A746C04609
:10111800291100082D1100084F1100086F1100084F
:10112800F2681FE0F168159A914200D3C0E0C90047
:10113800149C039161184968634A9142099912D134
:10114800039961580DE0129C13998C4209990AD0B1
:1011580021460831129161685B4A9142099902D18E
:1011680021680A6801210D920C913168890002A258
:1011780054580999A746C0469111000895110008CE
:10118800B7110008D711000872681FE07168159A36
:10119800914200D38CE0C900149C039161184968FE
:1011A800494A9142099912D1039961580DE0129C5C
:1011B80013998C4209990AD0214608311291616825
:1011C800414A9142099902D121680A6801210F9286
:1011D8000E911968012908D108380168159A9142B9
:1011E8006AD2C8001499081806E012981399884220
:1011F80066D0014608311291011D00680A680AA9E3
:10120800904700283BD10698874249D20898295828
:101218001198C3682A6810989847083524367F1CA7
:1012280000282CD15FE75568AB42049500D81D46CD
:101238001268002D25D0CB68116816465268984769
:101248000121002831D1029101960C360020C043BB
:1012580001278000099005CC0AA9083C904700287E
:101268000DD1AF421CD2099831581198C368326821
:1012780010989847083608347F1C0028EBD002994C
:1012880013E0049CBC420FD9F800115810184268AA
:101298001198C36810989847002805D0012104E0E8
:1012A800049C019ABC42EFD80021084617B0F0BD53
:1012B8000648FFF753FEFEDE0648FFF74FFEFEDE48
:1012C8000348FFF72DFEFEDE69100008082200081B
:1012D800B4200008F8210008F0B587B01F4604467E
:1012E8000D9B0029049305D020680121014006D0F8
:1012F8002B2506E020685D1C2D21059103E01125B2
:101308002D040595CD1843070021002B02D40F4664
:10131800069114E0002F069203970CD00021134683
:1013280003E07F1E5B1C002F06D01E78B609022E34
:10133800F7D1491CF5E70021039FEA19551A0C9EBD
:10134800A168012916D10396E668AE421FD90007A5
:101358002DD43020215C032900D10121751B0020E8
:101368007944097949008F44440141010021284604
:101378000D463EE020460599069A3B4600F08EF859
:10138800002840D1A069E169CB6831460BE02046CE
:101398000599069A3B4600F081F8002833D1A069E8
:1013A800E169CB680399049A9847064671E03020B2
:1013B800012102912154606020460599069A3B4616
:1013C80000F06CF8002863D12046303001780329FA
:1013D80000D10121751B00207944097949008F4407
:1013E80038013501002128460D4632E06808691C9D
:1013F8004D08461C761E08D06168A069E26912692A
:1014080090470028F6D0012643E060680190204606
:101418000599069A3B4600F041F80126002838D184
:10142800019FA069E169CB680399049A984700284D
:101438002FD102966D1CA669E4696D1E2CD0226915
:101448003046394690470028F7D021E06808691CE3
:101458004D08461C761E07D06168A069E2691269CA
:1014680090470028F6D013E06668A069E169CB6868
:101478000399049A984700280AD16D1CA769E46962
:101488006D1E09D022693846314690470028F7D0AA
:10149800029E304607B0F0BD0026FAE770B51C463C
:1014A8001546064611200004814207D0B069F2694A
:1014B80012699047002801D0012070BD002D06D088
:1014C800B069F169CB6829462246984770BD00206B
:1014D80070BD0000F0B589B016460F460446006995
:1014E800A1680129089402D1002803D194E00028BA
:1014F80000D1B7E0002E66D001910396BA191120E9
:101508000004049060693E46471C00213546029657
:1015180005926C1C287840B2C3B2002803D4254633
:101528007F1E47D153E01F200790944206D06C7865
:101538003F2020400690AC1C254603E010460022C0
:1015480006920546079A1A405809062809D90792AB
:101558000598854208D028783F2202406C1C254611
:1015680004E09001069A11E00022054606988001E1
:10157800121818090F2807D3059885420CD0287827
:101588003F2303406D1C09E0079800031318254604
:10159800059A7F1E0ED11AE0002325469001079A6E
:1015A8005207D20A8018C31804988342059A06D0B5
:1015B8007F1E0CD0881B4119AA422E46A9D1039E32
:1015C800029F089C09E00026002925D14AE00498DA
:1015D8008342039E089C04D1029F019900291BD1D4
:1015E80040E00029029F0CD0B1420AD00020B1424D
:1015F800024608D27A563F20C34300209A42024648
:1016080001DB38460A46002800D016460028019912
:1016180000D00746002925D00020002E0CD03146E6
:101628003A4603E0491E521C002905D013789B094D
:10163800022BF7D1401CF5E7301AE168884211D235
:101648000020002E024617D0002233463C4603E015
:101658005B1E641C002B0FD02578AD09022DF7D135
:10166800521CF5E7A069E169CB68394632469847CC
:101678000446204609B0F0BD921B3023089CE45C68
:10168800032C034600D023465518C0467B441B79DB
:101698005B009F4408010501002128460D4602E031
:1016A8006808691C4D08441C641E09D0089A5168D2
:1016B8009069D269126990470028F5D00124D8E7CB
:1016C8003946089F78680790B869FA69D36832463E
:1016D800984701240028CCD16E1CBD69FF69761E8D
:1016E80006D03A692846079990470028F7D0C0E7FE
:1016F8000024BEE770B51D460E4604468869C969D0
:10170800CB6811462A46984720722660684268418D
:1017180060720020606070BD80B50B4601461046BF
:101728001A46FFF7D7FE80BDF0B591B0039202913B
:101738000646364DA84251D90120C043272740000C
:10174800049034462046324900F0ABF80690691CF4
:101758004143601A059080B26425294600F0A1F83B
:1017680007A9C91942002B4B9B5C049E8B5589190C
:10177800284B9A1852784A7045430598401B234DC8
:10178800069E80B240001A5C8A7018184078C870AB
:101798003F1F214884423446D4D8632E21DDB0B29D
:1017A8006425294600F07DF84543711B89B249003C
:1017B800184A535CBF1E07ACE355E3195118497822
:1017C80059700A2810DB4000124A135CB91E07AC96
:1017D8006354631810184078587009E02727632E5F
:1017E800DDDC30460A28EEDA791E303007AA50547C
:1017F8002720401A019007A840180090074A0023A4
:1018080003980299FFF768FD11B0F0BD0F2700009B
:101818001027000009210008FFE0F505CC1F00088B
:1018280080B50A4600880121FFF77EFF80BD80B59C
:101838000A4600680121FFF777FF80BD80B58869F7
:10184800C969CB6801490522984780BD182200085C
:1018580080B502684068C3681046984780BD80B567
:101868000B4606C81846FFF735FE80BDFEE770B583
:101878005143050C140C2E46664371184343C9188E
:1018880092B2554380B24243130C5B191D0C49199F
:101898009BB260431818030CC918000492B2801850
:1018A80070BDF0B581B0002938D004460020002C66
:1018B80032D00D460090202700293E4603D0284606
:1018C80000F02EF80646002C03D0204600F028F839
:1018D8000746F11B1F2900981ED802D1204601B0E7
:1018E800F0BD481C1F2306461E402246F240591AE6
:1018F80019408C400021E30F5200D218D3435B19E2
:10190800DB171E462E40921B64000C430121194030
:10191800401EF0D16000081801B0F0BDFEDEFEDE0A
:10192800030C1021002B01D018000021FF231B02FB
:10193800184211D0F023000A034211D00C230009E9
:10194800034211D08008012243089A4302235242DD
:10195800181A104040187047F02308310342EDD19F
:101968000C2304310342EDD10231ECE77046042127
:10197800084202D1EFF3088002E0EFF30980FFE7A5
:02198800FEE778
:101990002F55736572732F61726B6F2F2E63617297
:1019A000676F2F72656769737472792F7372632F13
:1019B0006769746875622E636F6D2D316563633678
:1019C00032393964623965633832332F73746D3359
:1019D000326C3078782D68616C2D302E352E302F9A
:1019E0007372632F74696D65722E7273000000004C
:1019F000617474656D707420746F206469766964B5
:101A000065206279207A65726F000000F019000885
:101A100019000000901900085C000000A000000000
:101A20002100000000000000000000000000000095
:101A3000617474656D707420746F20737562747254
:101A40006163742077697468206F766572666C6F65
:101A500077000000301A00082100000090190008EB
:101A60005C000000A1000000230000000000000056
:101A7000617474656D707420746F20616464207784
:101A8000697468206F766572666C6F77701A0008EB
:101A90001C000000901900085C000000A800000075
:101AA0003A000000F0190008190000009019000821
:101AB0005C000000A80000002E00000000000000F4
:101AC0002F55736572732F61726B6F2F2E63617266
:101AD000676F2F72656769737472792F7372632FE2
:101AE0006769746875622E636F6D2D316563633647
:101AF00032393964623965633832332F73746D3328
:101B0000326C3078782D68616C2D302E352E302F68
:101B10007372632F6164632E727300000000000013
:101B2000617474656D707420746F20736869667475
:101B3000206C6566742077697468206F76657266BC
:101B40006C6F7700201B000823000000C01A0008FB
:101B50005A0000009E0000001D0000000000000070
:101B60002F55736572732F61726B6F2F2E636172C5
:101B7000676F2F72656769737472792F7372632F41
:101B80006769746875622E636F6D2D3165636336A6
:101B900032393964623965633832332F73746D3387
:101BA000326C3078782D68616C2D302E352E302FC8
:101BB0007372632F7370692E72730000F01900083E
:101BC00019000000601B00085A000000C700000058
:101BD00024000000696E7465726E616C206572721B
:101BE0006F723A20656E746572656420756E7265F9
:101BF00061636861626C6520636F64652F5573650E
:101C000072732F61726B6F2F2E636172676F2F7209
:101C1000656769737472792F7372632F676974686B
:101C200075622E636F6D2D316563633632393964A9
:101C3000623965633832332F73746D33326C3078A8
:101C4000782D68616C2D302E352E302F7372632FF6
:101C50007370692E72730000D41B00082800000006
:101C6000FC1B00085A0000003801000001000000C1
:101C7000617474656D707420746F206D756C746917
:101C8000706C792077697468206F766572666C6F06
:101C900077000000000000000000000000000000CD
:101CA0002F55736572732F61726B6F2F2E63617284
:101CB000676F2F72656769737472792F7372632F00
:101CC0006769746875622E636F6D2D316563633665
:101CD00032393964623965633832332F73746D3346
:101CE000326C3078782D68616C2D302E352E302F87
:101CF0007372632F73657269616C2E7273000000DA
:101D0000701C000821000000A01C00085D000000FD
:101D1000EE0000001F000000701C00082100000001
:101D2000A01C00085D000000EE0000003E00000066
:101D3000F019000819000000A01C00085D00000058
:101D4000EE0000001F000000301A00082100000013
:101D5000A01C00085D000000F0000000250000004D
:101D6000701C000821000000A01C00085D0000009D
:101D7000F000000025000000701A00081C000000A0
:101D8000A01C00085D000000F0000000240000001E
:101D9000701C000821000000A01C00085D0000006D
:101DA000F40000001F000000BB0000080400000059
:101DB0000400000091010008C50000086D01000842
:101DC000616C726561647920626F72726F776564AD
:101DD00063616C6C656420604F7074696F6E3A3A31
:101DE000756E77726170282960206F6E20612060A7
:101DF0004E6F6E65602076616C75657372632F6CD3
:101E00006962636F72652F6F7074696F6E2E727383
:101E1000D01D00082B000000FB1D0008150000006D
:101E20007A01000015000000BF000008000000005B
:101E300001000000150F000863616C6C6564206090
:101E4000526573756C743A3A756E777261702829B1
:101E500060206F6E20616E20604572726020766136
:101E60006C756500BD000008010000000100000065
:101E7000690C0008C100000801000000010000001A
:101E8000190D0008B9000008010000000100000061
:101E9000110E0008C300000800000000010000004F
:101EA000451800080A000000A41E000800000000F9
:101EB000A41E0008010000000D0A0000A41E000876
:101EC00000000000A41E000800000000B81E00086A
:101ED0000200000000012D202D202D202D20484142
:101EE0004245587069636F2076302E302E31202D98
:101EF000202D202D202D0D426F6F74696E672E2EC0
:101F00002E0D2D202D202D202D20424F4F542043CB
:101F10004F4D504C455445202D202D202D202D0D6A
:101F20004144433A205653544F52453D7372632FF8
:101F30006D61696E2E727354696D653D701A00088B
:101F40001C0000002C1F00080B00000060000000B7
:101F5000170000002062707320C2B5734275737958
:101F6000486967684E61636B41706231796561727F
:101F7000686F75724F76657272756E5F45787465BD
:101F80006E7369626C655061726974794E6F6973C2
:101F9000654672616D696E674372634D6F64654635
:101FA00061756C744672616D654572726F72556EC3
:101FB000646572666C6F774F766572666C6F774991
:101FC0006E66696E6974654E614E00000000000027
:101FD0007372632F6C6962636F72652F6E756D2FFC
:101FE00064656332666C742F72617766702E7273EB
:101FF000696E646578206F7574206F6620626F75F6
:102000006E64733A20746865206C656E2069732075
:10201000003E000001000000000000000000000081
:10202000200000000000000000C0000000030000CD
:10203000426F72726F774D75744572726F720000E5
:10204000010F00080000000001000000050F00085B
:10205000206275742074686520696E6465782069F3
:1020600073200000F01F000820000000502000082E
:102070001200000063616C6C656420604F707469CD
:102080006F6E3A3A756E77726170282960206F6EB4
:10209000206120604E6F6E65602076616C7565739F
:1020A00072632F6C6962636F72652F6F7074696FF2
:1020B0006E2E7273742000082B0000009F20000811
:1020C000150000007A010000150000003A20000011
:1020D000CC1F000800000000CC2000080200000017
:1020E0007372632F6C6962636F72652F72657375AB
:1020F0006C742E7273000000E020000815000000D0
:102100003C0400000500000029303030313032300E
:102110003330343035303630373038303931303193
:102120003131323133313431353136313731383183
:102130003932303231323232333234323532363271
:102140003732383239333033313332333333343357
:10215000353336333733383339343034313432343D
:102160003334343435343634373438343935303523
:102170003135323533353435353536353735383513
:102180003936303631363236333634363536363601
:1021900037363836393730373137323733373437E7
:1021A00035373637373738373938303831383238CD
:1021B00033383438353836383738383839393039B3
:1021C00031393239333934393539363937393839A3
:1021D000392C00000000000000000000000000009A
:1021E0007372632F6C6962636F72652F666D742FF3
:1021F0006D6F642E72730000E0210008160000006D
:102200005704000028000000E0210008160000002C
:1022100063040000110000004572726F720000003C
:1022200000000000040000000000000000000000AA
:10223000000000000000000000000000000000009E
:08224000000000000000000096
:0400000508000E9D44
:00000001FF
