:020000040800F2
:1000000000080020310F0008710F0008E9190008EE
:1000100000000000000000000000000000000000E0
:10002000000000000000000000000000710F000848
:100030000000000000000000710F0008710F0008B0
:10004000710F0008710F0008710F0008710F000890
:10005000710F0008710F0008710F0008710F000880
:1000600000000000710F0008710F0008710F0008F8
:10007000710F0008710F0008710F0008710F000860
:10008000710F0008710F0008710F000800000000D8
:10009000710F0008710F0008710F0008710F000840
:1000A000710F0008710F0008710F0008710F000830
:0800B000710F0008710F000838
:1000B8007047704770477047F0B581B00D460468C7
:1000C80000200090802903D268460570012035E0A1
:1000D800E80A0CD13F202946014080316A46517018
:1000E800C0436905C90E0D181570022026E0280CBA
:1000F80010D13F2028408030694688702805800E3E
:10010800803048701F20C0432A04120F15180D7044
:10011800032013E03F21294080316846C1700F2138
:10012800C943AA0C0A4302702905890E80318170DF
:10013800A903890E80314170042015466E46371890
:100148002046294600F04EFEC0B20528F8D0761C9D
:10015800BE4201D03578F3E7002001B0F0BD0000C1
:10016800B0B588B00068019002AA104638C938C0F6
:1001780038C938C001A8024900F0AAFF08B0B0BDCC
:10018800581D0008F0B581B0002A0DD00C468F1814
:10019800056826782846314600F024FEC0B20528B6
:1001A800F8D0641CBC42F4D1002001B0F0BD0000BE
:1001B80010B58CB002920191046801A80F4900F0B3
:1001C8008BFE03AA13C201200B9003A80A900020FB
:1001D80009900890022007900948069005A8094947
:1001E80006AA00F075FF002801D10CB010BD064822
:1001F8002B2106AA054B00F011FFFEDED10E0008E8
:10020800281E0008581D0008C81D0008F41D000815
:10021800B0B000F085FE012630401BA9087000F040
:100228007BFE00F080FEEC480078002801D0002416
:1002380002E000F067FE34461BA800F069FE0028C3
:1002480001D000F06BFE002C00D1CDE224AD284691
:1002580000F066FB1BAC2046294600F067FB24A88B
:10026800214600F039FD14A800F02CFD149D1598C6
:100278000F9005200207506A40210B910843B021D6
:10028800884350620327B80411688143F0040818B2
:100298001060506AD1490840D12189000C9140185A
:1002A800BC305062380511688143700508181192F6
:1002B8001060204600F016FE7204816B0D92114307
:1002C8008163204600F0FAFC1922002113910B46A5
:1002D80001F006FB4A1E914100D087E2BB07294680
:1002E8009943691A4A1E914100D081E208931296F7
:1002F800A90000D17EE201F00DFB044664252946E1
:1003080001F008FB06464543601B139B19465941FB
:10031800AC4200D270E20F2103910A07014607920E
:100328009143411A4A1E914100D067E2109701019A
:10033800084632301A465A41884200D260E21F46C7
:100348000F9D290A0E916421059101F0E3FA340109
:1003580004432FAE304600F0C1FDC460304600F0C3
:10036800BDFD4760304600F0B9FD83218901099140
:1003780081600E98C0B2411E02468A4191022A0647
:10038800120B5118801E4242424150020C180D3483
:10039800304600F0A3FD0460FF20049000032C0900
:1003A8000A900440304600F099FD446000F018FDC2
:1003B800119CE0680C2102918843E060606802218A
:1003C800009188436060206804210E910843082149
:1003D80001918843206014A800F074FC149D1598BE
:1003E8000690206A7D490840109A51020143216213
:1003F80020682021014310200F9081432160039839
:100408000003216A81435003081820622068802174
:1004180001430B98814321601BAC204600F062FD2C
:1004280012998904826B0A438263204600F046FCD5
:10043800192239463B4601F053FA4A1E914100D031
:10044800D4E12946089A9143691A4A1E914100D07D
:10045800CEE1A90000D1CDE12F4601F05BFA0446B8
:10046800059D294601F056FA06464543601B139B35
:1004780019465941AC4200D2BEE10146079A914360
:10048800411A4A1E914100D0B8E1010108463230B4
:100498001A465A418842089700D2B1E1642101F016
:1004A80039FA31010143049800060A468243881A42
:1004B800421E904100D0A5E1069F3C0A0E022FADD6
:1004C800284600F01BFDC660284600F017FD13996A
:1004D800416028462E460B9500F010FD0999816071
:1004E800E0B2411E02468A419102089A120D3B036E
:1004F800D2180A9D2A400A43801E414241414802BF
:1005080010430D240443304600F0F8FC04603C0915
:100518002C40304600F0F2FC446000F047FC119A91
:10052800D068C1490840D06050680F9B984350601C
:1005380010680840129D29024018106024A84189BB
:100548000A91C789279EB94800F0C3FB14ACA7805D
:1005580066802E4605460A982080204600F084FCD6
:10056800A01C00F091FC201D00F09EFC1BAC204656
:1005780000F0B8FC3103426B0A4342630B9800F069
:10058800B5FC13994160204600F09AFB002D00D17C
:100598003AE10446294601F0BDF9AC4200D235E102
:1005A80003280C9C1DD3062801D2083419E00C2816
:1005B80001D2103415E0182801D2183411E030287F
:1005C80001D220340DE0602801D2283409E0C02887
:1005D80006D3383405E0C04600000020FFF0FFFFD6
:1005E80030342FA800F082FC04602CA90C911598D7
:1005F800888014982C901BA800F07FF90446119F5E
:10060800F86810998843F86038680843386014AD72
:100618002E80AE1C062230460C9901F058F9200CA9
:1006280028736C811398A87368730E9828811A959B
:10063800199519AC7E4921222046FFF7B9FD7D495D
:100648000B222046FFF7B4FD0D98B86112980005FB
:10065800B8610A350D95784F7C1C3D78304600F01E
:1006680045FC8068410600D5B7E0810600D5B0E0BA
:10067800C10600D5AFE08007EFD5304600F036FC64
:100688000573304600F032FC8068410600D5A4E0CE
:10069800810600D59DE0C10600D59CE0C007F0D0DA
:1006A800304600F023FC007B6348801C84422746C8
:1006B800D2D111980F99816119A862491E22FFF7BA
:1006C80077FD0D9D284600F0E2F8284600F012FC60
:1006D800C16838229143179AD206120E0A4314A908
:1006E800C97A4907090E1143C160284600F0FAF893
:1006F800284600F0FFFB044600F0ECFAC1B22029BE
:1007080000D385E01F21084012998140A162284644
:1007180000F0F0FB0168019A11430160284600F0DF
:10072800E9FB816804220A438260284600F0E2FB64
:1007380000680007F9D5284600F0DCFB066C14A811
:10074800C07A012804D114A8007B032800D13602FE
:10075800284600F0B1F8304600F098F82EAC20801A
:1007680002982D9038482C902CA8384900F0B4FBFA
:10077800374A279224AA13C214A82F900220209047
:1007880024A81F9013981E901D9003201C90314898
:100798001B902FA830491BAA00F09AFC00283BD1D7
:1007A80014A800F005FB0C46C00707D114A8214681
:1007B80000F018FBC0B20528F8D0F1E7E0B2052830
:1007C800EED01BAA14701D482B21244B00F026FCE8
:1007D800FEDE109800E00E9800901BAA009810709A
:1007E80016482B21164BF1E70E4812E0264810E078
:1007F80024480EE022480CE020480AE01E4808E0A1
:100808001C4806E01A4804E0184802E0164800E0D0
:10081800144800F0B5FBFEDE08482B212FAA104B28
:10082800D4E7C046B01D0008FFFCFFFFA08601000A
:10083800561E0008771E0008541E0008C81D000830
:10084800041E0008821E0008A01E0008D10E000821
:10085800891800083C1E0008581D0008141E0008CE
:10086800F41D0008841A0008D81B00083C1B000867
:10087800401D0008281D0008101D0008F81C00086D
:10088800E01C0008C81C0008B01C00087047B0B580
:10089800044600F02FFB016801252943016020462A
:1008A80000F028FB816829438160204600F022FB84
:1008B8000068C007F9D0B0BD10B5044600F01AFBB7
:1008C800816802220A438260204600F013FB016817
:1008D80001220A430260204600F00CFB8068C00732
:1008E800F9D110BD10B5044600F004FB4169072298
:1008F800914322780A43426110BD10B582B000F0DE
:10090800F1FA01246102426B0A43426301A800F034
:10091800F1FA210782680A438260002002B010BD04
:10092800002181738181032101707047F0B587B080
:10093800054608780F4605970495C046784400791F
:1009480040008744013F1F2F0120054600037F78A0
:1009580079030C1806AE304600F0C4FA44603046FD
:1009680000F0C0FA03210902016006A800F0BAFAF3
:1009780000688005F9D5EE03781CC0B286400024D3
:10098800059FF4E07E6806A800F0ACFAB54901605E
:100998000120440406A800F0A5FA00682042F9D016
:1009A8000224E4E006A800F09DFA03210902491C8C
:1009B800016006A800F096FA00684007F9D50124FE
:1009C800A74ED4E0B8780290787800907E68BD6829
:1009D80006A800F087FA032103910C02012E0ED11C
:1009E800A049016001277E0406A800F07BFA006890
:1009F8003042F9D038040190009F2E460BE0611C6C
:100A0800016006A800F06EFA00684007F9D50020DA
:100A18000190934E009F06A800F064FA046001203C
:100A28004406029D06A800F05DFA00682042F9D14C
:100A3800B80001A108588746650A0008D30A0008CB
:100A4800910A0008A70A00087B0A0008E90A0008BA
:100A5800FF0A0008BD0A0008150B00080322002140
:100A680030460B4600F03CFF4A1E914158D0894859
:100A7800E8E00C22002130460B4600F031FF4A1E08
:100A880091414DD07C48DDE00622002130460B46DE
:100A980000F026FF4A1E914142D07948D2E0072053
:100AA800400731468143701A411E884100D0CCE08E
:100AB800F00035E01F20C00631468143701A411E00
:100AC800884100D0C3E070012AE0039880073146CE
:100AD8008143701A411E884100D0BAE0B0001FE07F
:100AE8000F20000731468143701A411E884100D00B
:100AF800B1E0300114E01822002130460B4600F026
:100B0800EFFE4A1E91410BD059489BE0302200214C
:100B180030460B4600F0E4FE4A1E914100D09CE0AE
:100B2800012D07D0022D01D0800804E0032100F038
:100B3800F1FE00E040085449884200D981E00646A9
:100B4800B804A905014301980D1806AF384600F00E
:100B5800C9F9C560384600F0C5F94C49016006A8D6
:100B680000F0C0F900682042F9D0059F039C06A850
:100B780000F0B8F9C168484A0A4011193A7B1307CE
:100B88001B0EC9187C7B23020B43B97BCD021D4386
:100B9800C560002A304609D0D21FD0B2904240D159
:100BA8001F2840D81F2002403046D040002C024663
:100BB80003460ED0E31EDAB29A4236D11F2A36D83F
:100BC8001F2213400246DA400024931864419342DE
:100BD8002FD30193029203960029044602460ED0B1
:100BE800C91ECCB28C4226D11F2C26D81F242140E6
:100BF8000446CC40002122194941A2421FD3009249
:100C0800049A1146059F68CF68C10399D1601061A5
:100C18000298506101989061D4610098106207B001
:100C2800F0BD1F480EE01D480CE020480AE01E48B1
:100C380008E01C4806E0204804E01E4802E01C4882
:100C480000E0134800F09CF9FEDE0C48FAE707487C
:100C5800F8E70C48F6E70748F4E70348F2E7C04628
:100C68000024F400000301009C1F0008B41F0008C2
:100C7800CC1F0008E41F0008FC1F0008142000080F
:100C88002C2000084420000800366E0100030001F3
:100C9800F42000085C2000080CC0FFFF2421000895
:100CA8000C2100086C210008542100083C21000890
:100CB800B42100089C21000884210008406970477D
:100CC800C06970470021817181804B21C901016091
:100CD800704770470020704710B50446084600F07A
:100CE80001F9C26A01210A43C2620020E0770F229B
:100CF800A27760770E222277E0760D22A2766076C0
:100D08000C222276E0750B22A27560750A222275E4
:100D1800E0740922A274607408222274E073072226
:100D2800A273607306222273E0720522A2726072B7
:100D380004222272E0710322A271607102222271E0
:100D4800E070A1706070207010BD000010B584B014
:100D58000078C04678440079400087440205090DB0
:100D6800110001AC104A05E001AC0E4A05230AE067
:100D780001AC0B4A072306E001AC084A062302E04F
:100D880001AC054A0B23204600F0E4FC204600F0A5
:100D980069F904B010BDC046EB210008F62100082F
:100DA800E4210008FC210008012200087047000027
:100DB8000A49081F0068020708D0012008600222BB
:100DC8000A6004220A6008220A6002E0800602D44F
:100DD800012005217047097900207047204800400C
:100DE8007047000004480268120601D405207047C5
:100DF800017306207047C0461C44004010B584B0FB
:100E08000078C046784400794000874402060A0EFC
:100E1800121601AC134A042312E001AC104A0A234B
:100E28000EE001AC0D4A07230AE001AC0A4A092387
:100E380006E001AC074A032302E001AC044A0B2395
:100E4800204600F087FC204600F00CF904B010BDE5
:100E5800EB210008082200080B220008E421000802
:100E680014220008E02100080F20000505210907C9
:100E78000A6A82430A62032080020A6882430120C8
:100E8800C0021018086070470F20000605210907E6
:100E98000A6A82430A62032000030A688243012027
:100EA80040031018086070470F2000070521090744
:100EB8000A6A82430A62032080030A688243012087
:100EC800C00310180860704780B50A460368416877
:100ED800184600F051FC80BD70470000004870477C
:100EE8000044004000487047001002400048704726
:100EF8000030014000487047002401400048704716
:100F0800004800400148012101707047000000209E
:100F1800017848424841704772B6704762B67047D8
:100F2800EFF310807047704700F01FF809480A492E
:100F3800814202D2002204C1FAE7084808498142E6
:100F480004D2084A08CA08C18142FBD3FFF760F9F6
:100F5800FEDEC04604000020000000200000002043
:100F68000000002060240008FEE77047704700007A
:100F7800014802497047C046D4459A0D92340DD0B5
:100F88008CB018C808380546083526CD40690026B3
:100F98000596094F0497039602960126019606AE18
:100FA8000096079406930B9008A826C0684608A9DF
:100FB80000F022F8FEDEC046202200088CB003466E
:100FC800019200910220079008A90691002105913D
:100FD800049103900648029006480B9069460A91CE
:100FE800099001A8089002A8194600F005F8FEDE4D
:100FF800A42200089718000888B01CC9096807913E
:1010080003A91DC1034802900348019001A800F0FC
:101018005DFCFEDE80220008202200088EB00191CF
:10102800009003930292022009900AA908910021D6
:101038000791069105900748049007480D9002A86B
:101048000C9006480B9068460A9004A80449FFF7DC
:10105800D3FFFEDE10230008B9180008C7180008DF
:1010680038230008B0B50446057A406800281ED029
:10107800002D01D0012519E001280FD1607A002840
:101088000CD021680878400708D48869C969CB68FA
:10109800094901252A469847002807D12168886907
:1010A800C969CB6805490122984705462572681E1B
:1010B80085412846B0BDC0461124000848230008D1
:1010C80080B50A460068012100F05EFB80BD000083
:1010D800F0B597B01469536930250AAF032607970E
:1010E8007E5520250B9500270A971593149410AD6B
:1010F80013C50E970C97DD00651913959668002E99
:1011080000D1C0E05468D368A342254600D81D46E4
:101118001268002D00D1E5E00695CB6811681546E8
:10112800526898470121002800D0EEE0029104940B
:1011380007983030079001950C351036002009903B
:10114800C0430590012705988300F018011F09681E
:101158000B91317C079A11700893F1580A91034654
:101168000C3BB168890002A254580999A746C046A9
:10117800891100088D110008AF110008CF1100086F
:10118800F2681FE0F168159A914200D3C0E0C900E7
:10119800149C039161184968634A9142099912D1D4
:1011A800039961580DE0129C13998C4209990AD051
:1011B80021460831129161685B4A9142099902D12E
:1011C80021680A6801210D920C913168890002A2F8
:1011D80054580999A746C046F1110008F5110008AE
:1011E800171200083712000872681FE07168159A14
:1011F800914200D38CE0C900149C0391611849689E
:10120800494A9142099912D1039961580DE0129CFB
:1012180013998C4209990AD02146083112916168C4
:10122800414A9142099902D121680A6801210F9225
:101238000E911968012908D108380168159A914258
:101248006AD2C8001499081806E0129813998842BF
:1012580066D0014608311291011D00680A680AA982
:10126800904700283BD10698874249D208982958C8
:101278001198C3682A6810989847083524367F1C47
:1012880000282CD15FE75568AB42049500D81D466D
:101298001268002D25D0CB68116816465268984709
:1012A8000121002831D1029101960C360020C0435B
:1012B80001278000099005CC0AA9083C904700281E
:1012C8000DD1AF421CD2099831581198C3683268C1
:1012D80010989847083608347F1C0028EBD00299EC
:1012E80013E0049CBC420FD9F8001158101842684A
:1012F8001198C36810989847002805D0012104E088
:10130800049C019ABC42EFD80021084617B0F0BDF2
:101318000648FFF753FEFEDE0648FFF74FFEFEDEE7
:101328000348FFF72DFEFEDEC91000084824000818
:10133800F422000838240008F0B587B01F46044698
:101348000D9B0029049305D020680121014006D097
:101358002B2506E020685D1C2D21059103E0112551
:101368002D040595CD1843070021002B02D40F4604
:10137800069114E0002F069203970CD00021134623
:1013880003E07F1E5B1C002F06D01E78B609022ED4
:10139800F7D1491CF5E70021039FEA19551A0C9E5D
:1013A800A168012916D10396E668AE421FD9000745
:1013B8002DD43020215C032900D10121751B002088
:1013C8007944097949008F444401410100212846A4
:1013D8000D463EE020460599069A3B4600F08EF8F9
:1013E800002840D1A069E169CB6831460BE020466E
:1013F8000599069A3B4600F081F8002833D1A06988
:10140800E169CB680399049A9847064671E0302051
:10141800012102912154606020460599069A3B46B5
:1014280000F06CF8002863D1204630300178032999
:1014380000D10121751B00207944097949008F44A6
:1014480038013501002128460D4632E06808691C3C
:101458004D08461C761E08D06168A069E2691269C9
:1014680090470028F6D0012643E0606801902046A6
:101478000599069A3B4600F041F80126002838D124
:10148800019FA069E169CB680399049A98470028ED
:101498002FD102966D1CA669E4696D1E2CD02269B5
:1014A8003046394690470028F7D021E06808691C83
:1014B8004D08461C761E07D06168A069E26912696A
:1014C80090470028F6D013E06668A069E169CB6808
:1014D8000399049A984700280AD16D1CA769E46902
:1014E8006D1E09D022693846314690470028F7D04A
:1014F800029E304607B0F0BD0026FAE770B51C46DC
:101508001546064611200004814207D0B069F269E9
:1015180012699047002801D0012070BD002D06D027
:10152800B069F169CB6829462246984770BD00200A
:1015380070BD0000F0B589B016460F460446006934
:10154800A1680129089402D1002803D194E0002859
:1015580000D1B7E0002E66D001910396BA19112088
:101568000004049060693E46471C002135460296F7
:1015780005926C1C287840B2C3B2002803D42546D3
:101588007F1E47D153E01F200790944206D06C7805
:101598003F2020400690AC1C254603E01046002260
:1015A80006920546079A1A405809062809D907924B
:1015B8000598854208D028783F2202406C1C2546B1
:1015C80004E09001069A11E0002205460698800181
:1015D800121818090F2807D3059885420CD02878C7
:1015E8003F2303406D1C09E00798000313182546A4
:1015F800059A7F1E0ED11AE0002325469001079A0E
:101608005207D20A8018C31804988342059A06D054
:101618007F1E0CD0881B4119AA422E46A9D1039ED1
:10162800029F089C09E00026002925D14AE0049879
:101638008342039E089C04D1029F019900291BD173
:1016480040E00029029F0CD0B1420AD00020B142EC
:10165800024608D27A563F20C34300209A420246E7
:1016680001DB38460A46002800D0164600280199B2
:1016780000D00746002925D00020002E0CD0314686
:101688003A4603E0491E521C002905D013789B09ED
:10169800022BF7D1401CF5E7301AE168884211D2D5
:1016A8000020002E024617D0002233463C4603E0B5
:1016B8005B1E641C002B0FD02578AD09022DF7D1D5
:1016C800521CF5E7A069E169CB683946324698476C
:1016D8000446204609B0F0BD921B3023089CE45C08
:1016E800032C034600D023465518C0467B441B797B
:1016F8005B009F4408010501002128460D4602E0D1
:101708006808691C4D08441C641E09D0089A516871
:101718009069D269126990470028F5D00124D8E76A
:101728003946089F78680790B869FA69D3683246DD
:10173800984701240028CCD16E1CBD69FF69761E2C
:1017480006D03A692846079990470028F7D0C0E79D
:101758000024BEE770B51D460E4604468869C9696F
:10176800CB6811462A46984720722660684268412D
:1017780060720020606070BD80B50B46014610465F
:101788001A46FFF7D7FE80BDF0B591B003920291DB
:101798000646364DA84251D90120C04327274000AC
:1017A800049034462046324900F0B4F80690691C8B
:1017B8004143601A059080B26425294600F0AAF8D2
:1017C80007A9C91942002B4B9B5C049E8B558919AC
:1017D800284B9A1852784A7045430598401B234D68
:1017E800069E80B240001A5C8A7018184078C8704B
:1017F8003F1F214884423446D4D8632E21DDB0B23D
:101808006425294600F086F84543711B89B24900D2
:10181800184A535CBF1E07ACE355E31951184978C1
:1018280059700A2810DB4000124A135CB91E07AC35
:101838006354631810184078587009E02727632EFE
:10184800DDDC30460A28EEDA791E303007AA50541B
:101858002720401A019007A840180090074A002343
:1018680003980299FFF768FD11B0F0BD0F2700003B
:101878001027000049230008FFE0F5052022000892
:1018880080B50A4600880121FFF77EFF80BD80B53C
:101898000A4600680121FFF777FF80BD80B5886997
:1018A800C969CB6801490522984780BD58240008BA
:1018B80080B502684068C3681046984780BD80B507
:1018C8000B4606C81846FFF735FE80BDFEE7002A1E
:1018D80005D00B780370491C401C521EF9D1704783
:1018E80070B55143050C140C2E46664371184343DA
:1018F800C91892B2554380B24243130C5B191D0CB0
:1019080049199BB260431818030CC918000492B215
:10191800801870BDF0B581B0002938D00446002089
:10192800002C32D00D460090202700293E4603D0D7
:10193800284600F02FF80646002C03D0204600F079
:1019480029F80746F11B1F2900981ED802D1204606
:1019580001B0F0BD481C1F2306461E402246F24037
:10196800591A19408C400021E30F5200D218D34372
:101978005B19DB171E462E40921B64000C430121A5
:101988001940401EF0D16000081801B0F0BDFEDE1D
:10199800FEDE0000030C1021002B01D018000021EE
:1019A800FF231B02184211D0F023000A034211D072
:1019B8000C230009034211D08008012243089A43EE
:1019C80002235242181A104040187047F023083179
:1019D8000342EDD10C2304310342EDD10231ECE78F
:1019E80070460421084202D1EFF3088002E0EFF3C9
:0619F8000980FFE7FEE795
:101A00002F55736572732F61726B6F2F2E63617226
:101A1000676F2F72656769737472792F7372632FA2
:101A20006769746875622E636F6D2D316563633607
:101A300032393964623965633832332F73746D33E8
:101A4000326C3078782D68616C2D302E342E302F2A
:101A50007372632F6164632E7273000000000000D4
:101A6000617474656D707420746F20736869667436
:101A7000206C6566742077697468206F766572667D
:101A80006C6F7700601A000823000000001A00083D
:101A90005A000000A90000001D0000000000000026
:101AA000617474656D707420746F20616464207754
:101AB000697468206F766572666C6F77000000004D
:101AC0002F55736572732F61726B6F2F2E63617266
:101AD000676F2F72656769737472792F7372632FE2
:101AE0006769746875622E636F6D2D316563633647
:101AF00032393964623965633832332F73746D3328
:101B0000326C3078782D68616C2D302E342E302F69
:101B10007372632F7370692E7273000000000000EF
:101B2000617474656D707420746F20646976696483
:101B300065206279207A65726F000000201B000822
:101B400019000000C01A00085A000000B40000008C
:101B500024000000696E7465726E616C206572729B
:101B60006F723A20656E746572656420756E726579
:101B700061636861626C6520636F64652F5573658E
:101B800072732F61726B6F2F2E636172676F2F728A
:101B9000656769737472792F7372632F67697468EC
:101BA00075622E636F6D2D3165636336323939642A
:101BB000623965633832332F73746D33326C307829
:101BC000782D68616C2D302E342E302F7372632F78
:101BD0007370692E72730000541B00082800000007
:101BE0007C1B00085A0000002501000001000000D5
:101BF000617474656D707420746F206D756C746998
:101C0000706C792077697468206F766572666C6F86
:101C1000770000000000000000000000000000004D
:101C2000617474656D707420746F20737562747262
:101C30006163742077697468206F766572666C6F73
:101C4000770000000000000000000000000000001D
:101C50002F55736572732F61726B6F2F2E636172D4
:101C6000676F2F72656769737472792F7372632F50
:101C70006769746875622E636F6D2D3165636336B5
:101C800032393964623965633832332F73746D3396
:101C9000326C3078782D68616C2D302E342E302FD8
:101CA0007372632F73657269616C2E72730000002A
:101CB000F01B000821000000501C00085D0000001F
:101CC000EC0000001F000000F01B000821000000D5
:101CD000501C00085D000000EC0000003E00000009
:101CE000201B000819000000501C00085D000000C7
:101CF000EC0000001F000000201C00082100000074
:101D0000501C00085D000000EE00000025000000EF
:101D1000F01B000821000000501C00085D000000BE
:101D2000EE00000025000000A01A00081C000000C2
:101D3000501C00085D000000EE00000024000000C0
:101D4000F01B000821000000501C00085D0000008E
:101D5000F20000001F000000BB00000804000000AB
:101D6000040000008D010008C1000008690100089E
:101D700063616C6C656420604F7074696F6E3A3A91
:101D8000756E77726170282960206F6E2061206007
:101D90004E6F6E65602076616C75657372632F6C33
:101DA0006962636F72652F6F7074696F6E2E7273E4
:101DB000701D00082B0000009B1D0008150000008E
:101DC0007A0100001500000063616C6C656420609E
:101DD000526573756C743A3A756E77726170282922
:101DE00060206F6E20616E206045727260207661A7
:101DF0006C756500BF0000080000000001000000D5
:101E0000A5180008BD000008010000000100000046
:101E1000050E0008B90000080100000001000000E4
:101E2000550D00080A000000241E000800000000F4
:101E3000241E0008010000000D0A0000241E0008F6
:101E400000000000241E000800000000381E0008EA
:101E50000200000000012D202D202D202D204841C2
:101E60004245587069636F2076302E302E31202D18
:101E7000202D202D202D0D426F6F74696E672E2E40
:101E80002E0D2D202D202D202D20424F4F5420434C
:101E90004F4D504C455445202D202D202D202D0DEB
:101EA0004144433A205653544F52453D00000000F0
:101EB000617474656D707420746F207375627472D0
:101EC0006163742077697468206F766572666C6FE1
:101ED000770000000000000000000000000000008B
:101EE000617474656D707420746F206D756C7469A5
:101EF000706C792077697468206F766572666C6F94
:101F0000770000000000000000000000000000005A
:101F1000617474656D707420746F20736869667481
:101F2000206C6566742077697468206F76657266C8
:101F30006C6F77000000000000000000000000004F
:101F40002F55736572732F61726B6F2F2E636172E1
:101F5000676F2F72656769737472792F7372632F5D
:101F60006769746875622E636F6D2D3165636336C2
:101F700032393964623965633832332F73746D33A3
:101F8000326C3078782D68616C2D302E342E302FE5
:101F90007372632F7263632E72730000E01E000879
:101FA00021000000401F00085A000000F20000005D
:101FB00026000000E01E000821000000401F00086D
:101FC0005A000000F100000026000000E01E00089A
:101FD00021000000401F00085A000000F00000002F
:101FE00026000000E01E000821000000401F00083D
:101FF0005A000000EF00000026000000E01E00086C
:1020000021000000401F00085A000000EE00000000
:1020100026000000E01E000821000000401F00080C
:102020005A000000ED00000025000000E01E00083E
:1020300021000000401F00085A000000EC000000D2
:1020400025000000E01E000821000000401F0008DD
:102050005A000000EB00000025000000E01E000810
:1020600021000000401F00085A000000EA000000A4
:1020700025000000617373657274696F6E2066617C
:10208000696C65643A2066726571203C3D2032348B
:102090002E6D687A28292E302F55736572732F6143
:1020A000726B6F2F2E636172676F2F726567697332
:1020B0007472792F7372632F6769746875622E6307
:1020C0006F6D2D316563633632393964623965630A
:1020D0003832332F73746D33326C3078782D6861F9
:1020E0006C2D302E342E302F7372632F7263632E5B
:1020F000727300007420000824000000982000087B
:102100005A000000FA00000011000000B01E000894
:1021100021000000401F00085A0000001A010000C2
:1021200024000000101F000823000000401F0008CA
:102130005A0000001A0100001E000000B01E000836
:1021400021000000401F00085A000000200100008C
:102150002D000000101F000823000000401F000891
:102160005A0000002001000027000000E01E0008C7
:1021700021000000401F00085A000000210100005B
:1021800018000000B01E000821000000401F0008D9
:102190005A000000280100002D000000101F000858
:1021A00023000000401F00085A0000002801000022
:1021B00027000000E01E000821000000401F00086A
:1021C0005A0000002901000018000000206270730E
:1021D00020C2B5734E61636B79656172686F757209
:1021E000427573794F76657272756E5F4578746566
:1021F0006E7369626C655061726974794E6F697350
:10220000654672616D696E674372634D6F646546C2
:1022100061756C744672616D654572726F72000013
:102220007372632F6C6962636F72652F6E756D2FA9
:1022300064656332666C742F72617766702E727398
:10224000696E646578206F7574206F6620626F75A3
:102250006E64733A20746865206C656E2069732023
:10226000003E00000100000000000000000000002F
:10227000200000000000000000C00000000300007B
:10228000750F00080000000001000000790F000831
:10229000206275742074686520696E6465782069B1
:1022A0007320000040220008200000009022000857
:1022B0001200000063616C6C656420604F7074698B
:1022C0006F6E3A3A756E77726170282960206F6E72
:1022D000206120604E6F6E65602076616C7565735D
:1022E00072632F6C6962636F72652F6F7074696FB0
:1022F0006E2E7273B42200082B000000DF2200084B
:10230000150000007A010000150000003A200000CE
:1023100020220008000000000C230008020000003A
:102320007372632F6C6962636F72652F7265737568
:102330006C742E727300000020230008150000004A
:102340003C040000050000002930303031303230CC
:102350003330343035303630373038303931303151
:102360003131323133313431353136313731383141
:10237000393230323132323233323432353236322F
:102380003732383239333033313332333333343315
:1023900035333633373338333934303431343234FB
:1023A00033343434353436343734383439353035E1
:1023B00031353235333534353535363537353835D1
:1023C00039363036313632363336343635363636BF
:1023D00037363836393730373137323733373437A5
:1023E000353736373737383739383038313832388B
:1023F0003338343835383638373838383939303971
:102400003139323933393439353936393739383960
:10241000392C000000000000000000000000000057
:102420007372632F6C6962636F72652F666D742FB0
:102430006D6F642E727300002024000816000000E7
:1024400057040000280000002024000816000000A7
:1024500063040000110000004572726F72000000FA
:0400000508000F31AF
:00000001FF
