:020000040800F2
:1000000000080020F10D0008310E0008C918000892
:1000100000000000000000000000000000000000E0
:10002000000000000000000000000000310E000889
:100030000000000000000000310E0008310E000832
:10004000310E0008310E0008310E0008310E000894
:10005000310E0008310E0008310E0008310E000884
:1000600000000000310E0008310E0008310E0008BB
:10007000310E0008310E0008310E0008950A000804
:10008000310E0008310E0008310E0008000000009B
:10009000310E0008310E0008310E0008310E000844
:1000A000310E0008310E0008310E0008310E000834
:0800B000310E0008310E0008BA
:1000B800704770477047704770477047F0B581B018
:1000C8000D46046800200090802903D26846057018
:1000D800012035E0E80A0CD13F2029460140803153
:1000E8006A465170C0436905C90E0D181570022083
:1000F80026E0280C10D13F202840803069468870BF
:100108002805800E803048701F20C0432A04120F33
:1001180015180D70032013E03F21294080316846EF
:10012800C1700F21C943AA0C0A4302702905890E20
:1001380080318170A903890E8031417004201546F1
:100148006E4637182046294600F080FDC0B20528C3
:10015800F8D0761CBE4201D03578F3E7002001B014
:10016800F0BD0000B0B588B00068019002AA104642
:1001780038C938C038C938C001A8024900F022FF80
:1001880008B0B0BDF81C0008F0B581B0002A0DD049
:100198000C468F18056826782846314600F056FD2B
:1001A800C0B20528F8D0641CBC42F4D1002001B0CC
:1001B800F0BD000010B58CB002920191046801A84E
:1001C8000F4900F0C9FD03AA13C201200B9003A830
:1001D8000A9000200990089002200790094806908C
:1001E80005A8094906AA00F0EDFE002801D10CB0C7
:1001F80010BD06482B2106AA054B00F089FEFEDE3D
:10020800510D0008F81D0008F81C0008881D00089A
:10021800E41D0008B0B58EB002AC238001920091B5
:1002280005686846114900F097FD114A069203AA2D
:1002380013C2079502200D9003A80C9000200B9084
:100248000A90032009900B48089007A80A4908AAB1
:1002580000F0B8FE002801D10EB0B0BD07482B2130
:1002680008AA074B00F054FEFEDEC046510D0008F8
:100278007D1700080C1E0008F81C0008881D0008DF
:10028800E41D0008BCB000F0DDFD0125284032A9BE
:10029800087000F0D3FD13AE00F0D7FDFC480078DD
:1002A800002801D0002402E000F098FD2C4632A876
:1002B80000F0C0FD002801D000F0C2FD002C00D1E4
:1002C80089E3129524360E963BA800F073FDF14998
:1002D80001603BA800F06EFD00684007F9D53BA817
:1002E80000F068FDC168EC4A0A40511CC160EB4E41
:1002F800304600F054FC0546304600F050FC1190A2
:10030800304600F04CFC1090304600F048FC0746A0
:10031800304600F044FC0446304600F040FC28AE6D
:100328000321317030902F970F462E9410982D90FE
:1003380011982C902B95304600F034FC32A800F030
:1003480027FC329C33980D9005200207506A402103
:100358000A910843B02188435062B8041168814368
:10036800129DE80408181060506ACD490840C94930
:10037800FF31014351623805116881436805081847
:1003880010921060304600F015FD6A04816B0B92E4
:1003980011438163304600F0F5FB192200252946F8
:1003A8002B4601F00EFA4A1E914100D007E3BB0725
:1003B80021469943611A4A1E914100D001E30793EF
:1003C8000F97A10000D1FEE201F015FA0646642756
:1003D800394601F010FA04464743F01B29466941A3
:1003E800BE4200D2F1E20F26330701469943411A73
:1003F8004A1E914100D0EAE202960693010108469E
:1004080032302A466A41884200D2E2E22E460D9FE7
:10041800390A0C916421049101F0EDF92501054395
:100428003BAC204600F0C2FCC560204600F0BEFC94
:1004380011964660204600F0B9FC83218901089195
:1004480081600C98C0B2411E02468A4191023A0668
:10045800120B5118801E4242424150020D180D35B0
:10046800204600F0A3FC0560FF20039000033D092F
:1004780009900540204600F099FC456000F0E4FB37
:10048800109CE0680C218843E060606802210191BB
:1004980088436060206804210C9108430826B04313
:1004A800206032A800F074FB329F33980590206AD0
:1004B8007B4908400F9A510201432162206820219C
:1004C800014310200D908143216002980003216AA6
:1004D80081435003081820622068802101430A984C
:1004E8008143216028AC204600F064FC12998904FD
:1004F800826B0A438263204600F044FB192211995B
:100508000B460D4601F05DF94A1E914100D056E2B6
:100518003946079A9143791A4A1E914100D050E210
:1005280007960A97B90000D14DE201F064F9064632
:10053800049F394601F05FF904464743F01B2946FA
:100548006941BE4200D240E20146069A9143411AEF
:100558004A1E914100D03AE20101084632302A464B
:100568006A41884200D234E2642101F044F9210151
:100578000143039800060A468243881A421E9041A6
:1005880000D02AE2059E340A0D023BAF384600F03F
:1005980021FCC560384600F01DFC119941603846C1
:1005A80000F018FC08998160E0B2411E02468A41B9
:1005B80091020A9A120D3303D218099D2A400A4360
:1005C800801E41424141480210430D2404433846ED
:1005D80000F000FC046034092C40384600F0FAFBB7
:1005E800446000F017FB109AD0682E490840D0608C
:1005F80050680D9B9843506010680840129D29026E
:1006080040181060284800F0CAFA0446384600F03E
:100618005FFB384600F06CFB384600F079FB28AEEB
:10062800304600F0C7FB2903426B0A434263384651
:1006380000F0C4FB11994160304600F0A7FA002C85
:1006480000D1CCE10646214601F0D5F8A6420F9E1E
:1006580000D2C6E10328129DF04C01D2433426E0B3
:10066800062801D24B3422E00C2801D253341EE074
:10067800182801D25B341AE0302801D2633416E01E
:10068800602801D26B3412E0C0280FD37B340EE00F
:1006980028000020010300000CC0FFFF0024F40024
:1006A800FFF0FFFFFFFCFFFFA086010073343BA8AB
:1006B80000F084FB046028AC204600F050FA0A9051
:1006C8001099C868B043C860086830430860284675
:1006D80000F065FA0646204600F06CFB816B294362
:1006E8008163204600F066FB816A294381622046C7
:1006F80000F060FBED43816A2940816232AF3846E1
:100708000ECC0EC00ECC0EC00ECC0EC0384600F07B
:100718005DFB016829400160384600F057FB119DD8
:100728008584384600F030FA002E00D15BE131466E
:1007380001F061F80446401E29466941012C00D2A7
:1007480053E1050C32AE304600F040FB85626D1C6B
:10075800AFB2781B411E8841304600F037FBAF42EC
:1007680000D044E10646280400D142E1204639463B
:1007780001F041F8010C00D03DE1B08532AC2046D3
:1007880000F024FB01680C9A11430160204600F038
:100798001DFB129E4661204600F018FB016831439C
:1007A800016013A801462CCC2CC12CCC2CC12CCC1C
:1007B8002CC10A9B190C0E9A917013801E901D90E3
:1007C8001DAC974921222046FFF7F4FC95490B22DE
:1007D8002046FFF7EFFC10990B9888613005886177
:1007E800914C27467E1C3D7813A800F0E7FA8068F4
:1007F800410600D5DAE0810600D5D3E0C10600D570
:10080800D2E08007EFD513A800F0D8FA057313A833
:1008180000F0D4FA8068410600D5C7E0810600D50B
:10082800C0E0C10600D5BFE0C007F0D013A800F0B3
:10083800C5FA007BA01C86423746D3D110980D9983
:1008480081611DA87B491E22FFF7B4FC0E9D284636
:1008580000F04FF9284600F0B5FAC16838229143F4
:10086800AA78D206120E0A4369784907090E11437D
:10087800C160284600F068F9284600F0A3FA04464B
:1008880000F08EF9C1B2202900D3BBE01F21084037
:10089800129E31468140A162284600F093FA016811
:1008A800079A11430160284600F08CFA81680422F7
:1008B8000A438260284600F085FA00680007F9D5E7
:1008C800284600F07FFA046C6878012803D1A878DC
:1008D800032800D12402284600F020F9204600F021
:1008E80007F903461DA854490C22FFF793FC13A8E7
:1008F80000F092F90C46C00708D0E0B20528F6D0FF
:1009080032AA147049482B214C4B55E013A82146B4
:1009180000F09CF9C0B20528F8D013A81FAC2146F6
:100928002CC82CC12CC82CC12CC82CC1204600F0C6
:10093800FFF928AD28460ECC0EC00ECC0EC00ECC4A
:100948000EC000F07FFA304031A9087000F076FA46
:1009580000F07BFA32A80ECD0EC00ECD0EC00ECD23
:100968000EC037480168002950D1011D32AA38CA83
:1009780038C138CA38C138CA38C11199016031A89C
:1009880000F058FA002801D000F05AFAF40300F0F9
:100998004DFA04602D4C1DA8052200232146FFF7BF
:1009A80039FCF8E70F9800E00C98019032AA0198FA
:1009B80010701E482B211E4B00F0AAFAFEDE3248AA
:1009C80021E030481FE02E481DE02C481BE02A4853
:1009D80019E0284817E0104815E0254813E0234897
:1009E80011E021480FE01F480DE01D480BE01B48AF
:1009F80009E0194807E01FAA022010700B482B21B4
:100A0800144BD9E7124800F035FAFEDE0D481021E4
:100A18003BAA0D4BD0E7C046601D0008010300004B
:100A2800261E0008471E0008241E0008881D00080E
:100A3800C41D0008521E0008701E0008B41D0008DE
:100A480000000020101D0008781D00087C1E00080A
:100A5800941A0008D41D0008F4190008DC190008CD
:100A6800A41900085C190008A81B00080C1B000842
:100A7800E01C0008C81C0008B01C0008981C0008EE
:100A8800801C0008681C0008501C000810B582B0C3
:100A980000F0D8F9012101406846017000F0CEF954
:100AA80000F0D3F90F4C2068002814D10020C1436E
:100AB80021602179042904D0201D00F03FF9206825
:100AC800401C2060684600F0B5F9002801D000F00D
:100AD800B7F902B010BD0448102101AA034B00F079
:100AE80017FAFEDE00000020101D0008781D00081F
:100AF8007047B0B5044600F065F90168012529433F
:100B08000160204600F05EF9816829438160204633
:100B180000F058F90068C007F9D0B0BD10B5044618
:100B280000F050F9816802220A438260204600F0F2
:100B380049F9016801220A430260204600F042F99F
:100B48008068C007F9D110BD10B5044600F03AF925
:100B580041690722914322780A43426110BD10B5CA
:100B680082B000F027F901246102426B0A43426314
:100B780001A800F027F9210782680A438260002053
:100B880002B010BD4069704780697047C0697047FE
:100B98000021817181804B21C90101607047704734
:100BA8000020704780B500F005F9C16A01220A43A8
:100BB800C26280BD10B584B00078C0467844007920
:100BC800400087440205090D110001AC104A05E0F8
:100BD80001AC0E4A05230AE001AC0B4A072306E0E4
:100BE80001AC084A062302E001AC054A0B23204663
:100BF80000F02AFD204600F0AFF904B010BDC04651
:100C0800A81E0008B31E0008A11E0008B91E00088F
:100C1800BE1E0008704700000A49081F0068020746
:100C280008D00120086002220A6004220A60082213
:100C38000A6002E0800602D4012005217047097984
:100C480000207047204800407047000004480268B0
:100C5800120601D405207047017306207047C0466C
:100C68001C44004010B584B00078C0467844007930
:100C78004000874402060A0E121601AC134A0423E8
:100C880012E001AC104A0A230EE001AC0D4A07231A
:100C98000AE001AC0A4A092306E001AC074A03232B
:100CA80002E001AC044A0B23204600F0CDFC2046AC
:100CB80000F052F904B010BDA81E0008C51E0008B7
:100CC800C81E0008A11E0008D11E0008891E0008C1
:100CD8000F200005052109070A6A82430A620320DA
:100CE80080020A6882430120C00210180860704719
:100CF8000F200006052109070A6A82430A620320B9
:100D080000030A68824301204003101808607047F6
:100D18000F200007052109070A6A82430A62032097
:100D280080030A6882430120C003101808607047D6
:100D380080B500F04BF80121C16080BD80B500F09E
:100D480045F80021016180BD80B50A460368416805
:100D5800184600F08BFC80BD7047000010B584B0C9
:100D68000078C0467844007940008744010C0408A4
:100D780001AC0D4A01E001AC094A082306E001ACC8
:100D8800064A092302E001AC064A0323204600F084
:100D98005BFC204600F0E0F804B010BDDB1E000844
:100DA800E41E0008F41E0008EC1E00080048704706
:100DB8000044004000487047001002400048704757
:100DC800003001400048704700240140012080079E
:100DD8007047000000487047004800400148012162
:100DE800017070472800002000F01FF809480A49E0
:100DF800814202D2002204C1FAE708480849814228
:100E080004D2084A08CA08C18142FBD3FFF73AFA5C
:100E1800FEDEC0462C00002028000020280000200C
:100E28000000002040210008FEE770470048704796
:100E380000E100E0017848424841704772B67047C7
:100E480062B67047EFF31080704770477047000034
:100E5800014802497047C046D4459A0D92340DD0D6
:100E680080B58869C969CB6801490E22984780BD59
:100E7800581F00088CB018C808380546083526CD14
:100E8800406900260596094F0497039602960126A5
:100E9800019606AE0096079406930B9008A826C004
:100EA800684608A900F022F8FEDEC046F81E0008D1
:100EB8008CB00346019200910220079008A9069180
:100EC80000210591049103900648029006480B9072
:100ED80069460A91099001A8089002A8194600F0ED
:100EE80005F8FEDE8C1F00088B17000888B01CC9A7
:100EF8000968079103A91DC103480290034801909E
:100F080001A800F05DFCFEDE681F0008F81E00085E
:100F18008EB00191009003930292022009900AA9D1
:100F28000891002107910691059007480490074809
:100F38000D9002A80C9006480B9068460A9004A8E9
:100F48000449FFF7D3FFFEDEF81F0008AD170008BD
:100F5800BB17000820200008B0B50446057A406891
:100F680000281ED0002D01D0012519E001280FD13D
:100F7800607A00280CD021680878400708D488696E
:100F8800C969CB68094901252A469847002807D12D
:100F980021688869C969CB680549012298470546CF
:100FA8002572681E85412846B0BDC046F920000854
:100FB8003020000880B50A460068012100F05EFB79
:100FC80080BD0000F0B597B01469536930250AAFA9
:100FD800032607977E5520250B9500270A9715931A
:100FE800149410AD13C50E970C97DD006519139571
:100FF8009668002E00D1C0E05468D368A342254605
:1010080000D81D461268002D00D1E5E00695CB6892
:1010180011681546526898470121002800D0EEE073
:101028000291049407983030079001950C351036DA
:1010380000200990C0430590012705988300F01807
:10104800011F09680B91317C079A11700893F158B8
:101058000A9103460C3BB168890002A254580999C9
:10106800A746C0467D10000881100008A31000089C
:10107800C3100008F2681FE0F168159A914200D386
:10108800C0E0C900149C039161184968634A914201
:10109800099912D1039961580DE0129C13998C4259
:1010A80009990AD021460831129161685B4A914238
:1010B800099902D121680A6801210D920C913168C1
:1010C800890002A254580999A746C046E5100008AD
:1010D800E91000080B1100082B11000872681FE0C6
:1010E8007168159A914200D38CE0C900149C039151
:1010F80061184968494A9142099912D1039961587E
:101108000DE0129C13998C4209990AD021460831A6
:1011180012916168414A9142099902D121680A688D
:1011280001210F920E911968012908D10838016828
:10113800159A91426AD2C8001499081806E01298C4
:101148001399884266D0014608311291011D006842
:101158000A680AA9904700283BD10698874249D2D5
:10116800089829581198C3682A681098984708352C
:1011780024367F1C00282CD15FE75568AB420495C4
:1011880000D81D461268002D25D0CB681168164678
:10119800526898470121002831D1029101960C36F6
:1011A8000020C04301278000099005CC0AA9083C0B
:1011B800904700280DD1AF421CD209983158119898
:1011C800C368326810989847083608347F1C00288E
:1011D800EBD0029913E0049CBC420FD9F8001158D7
:1011E800101842681198C36810989847002805D0CD
:1011F800012104E0049C019ABC42EFD80021084672
:1012080017B0F0BD0648FFF753FEFEDE0648FFF7AD
:101218004FFEFEDE0348FFF72DFEFEDEBD0F000881
:1012280028210008DC1F000818210008F0B587B045
:101238001F4604460D9B0029049305D02068012110
:10124800014006D02B2506E020685D1C2D21059164
:1012580003E011252D040595CD1843070021002B27
:1012680002D40F46069114E0002F069203970CD083
:101278000021134603E07F1E5B1C002F06D01E785A
:10128800B609022EF7D1491CF5E70021039FEA1998
:10129800551A0C9EA168012916D10396E668AE423C
:1012A8001FD900072DD43020215C032900D101214A
:1012B800751B00207944097949008F444401410194
:1012C800002128460D463EE020460599069A3B46F1
:1012D80000F08EF8002840D1A069E169CB6831465A
:1012E8000BE020460599069A3B4600F081F8002855
:1012F80033D1A069E169CB680399049A98470646F7
:1013080071E0302001210291215460602046059946
:10131800069A3B4600F06CF8002863D1204630302E
:101328000178032900D10121751B0020794409792E
:1013380049008F4438013501002128460D4632E026
:101348006808691C4D08461C761E08D06168A069AB
:10135800E269126990470028F6D0012643E06068E8
:10136800019020460599069A3B4600F041F801266F
:10137800002838D1019FA069E169CB680399049AD4
:10138800984700282FD102966D1CA669E4696D1E46
:101398002CD022693046394690470028F7D021E002
:1013A8006808691C4D08461C761E07D06168A0694C
:1013B800E269126990470028F6D013E06668A069D0
:1013C800E169CB680399049A984700280AD16D1CF3
:1013D800A769E4696D1E09D02269384631469047ED
:1013E8000028F7D0029E304607B0F0BD0026FAE785
:1013F80070B51C461546064611200004814207D0E8
:10140800B069F26912699047002801D0012070BDC7
:10141800002D06D0B069F169CB6829462246984765
:1014280070BD002070BD0000F0B589B016460F46AB
:1014380004460069A1680129089402D1002803D153
:1014480094E0002800D1B7E0002E66D00191039601
:10145800BA1911200004049060693E46471C002117
:101468003546029605926C1C287840B2C3B2002813
:1014780003D425467F1E47D153E01F20079094428E
:1014880006D06C783F2020400690AC1C254603E02F
:101498001046002206920546079A1A40580906285F
:1014A80009D907920598854208D028783F2202403A
:1014B8006C1C254604E09001069A11E000220546BE
:1014C80006988001121818090F2807D30598854235
:1014D8000CD028783F2303406D1C09E007980003CF
:1014E80013182546059A7F1E0ED11AE000232546BB
:1014F8009001079A5207D20A8018C31804988342A9
:10150800059A06D07F1E0CD0881B4119AA422E4688
:10151800A9D1039E029F089C09E00026002925D135
:101528004AE004988342039E089C04D1029F0199D3
:1015380000291BD140E00029029F0CD0B1420AD0FB
:101548000020B142024608D27A563F20C343002009
:101558009A42024601DB38460A46002800D0164661
:101568000028019900D00746002925D00020002E28
:101578000CD031463A4603E0491E521C002905D0DA
:1015880013789B09022BF7D1401CF5E7301AE16864
:10159800884211D20020002E024617D0002233467E
:1015A8003C4603E05B1E641C002B0FD02578AD0978
:1015B800022DF7D1521CF5E7A069E169CB683946DD
:1015C800324698470446204609B0F0BD921B3023A6
:1015D800089CE45C032C034600D023465518C046FB
:1015E8007B441B795B009F440801050100212846C4
:1015F8000D4602E06808691C4D08441C641E09D0A9
:10160800089A51689069D269126990470028F5D004
:101618000124D8E73946089F78680790B869FA69BD
:10162800D3683246984701240028CCD16E1CBD6986
:10163800FF69761E06D03A69284607999047002820
:10164800F7D0C0E70024BEE770B51D460E46044635
:101658008869C969CB6811462A469847207226606E
:101668006842684160720020606070BD80B50B46BA
:10167800014610461A46FFF7D7FE80BDF0B591B077
:10168800039202910646364DA84251D90120C04323
:1016980027274000049034462046324900F0ABF832
:1016A8000690691C4143601A059080B2642529465A
:1016B80000F0A1F807A9C91942002B4B9B5C049EB6
:1016C8008B558919284B9A1852784A7045430598C2
:1016D800401B234D069E80B240001A5C8A70181881
:1016E8004078C8703F1F214884423446D4D8632EBE
:1016F80021DDB0B26425294600F07DF84543711B11
:1017080089B24900184A535CBF1E07ACE355E31978
:101718005118497859700A2810DB4000124A135CA6
:10172800B91E07AC6354631810184078587009E064
:101738002727632EDDDC30460A28EEDA791E3030A2
:1017480007AA50542720401A019007A84018009073
:10175800074A002303980299FFF768FD11B0F0BD0E
:101768000F2700001027000031200008FFE0F505D2
:10177800F81E000880B50A4600880121FFF77EFFA1
:1017880080BD80B50A4600680121FFF777FF80BD5C
:1017980080B58869C969CB6801490522984780BD29
:1017A8003821000880B502684068C3681046984729
:1017B80080BD80B50B4606C81846FFF735FE80BDCC
:1017C800FEE770B55143050C140C2E46664371189C
:1017D8004343C91892B2554380B24243130C5B1974
:1017E8001D0C49199BB260431818030CC918000452
:1017F80092B2801870BDF0B581B0002938D0044687
:101808000020002C32D00D460090202700293E46AB
:1018180003D0284600F02EF80646002C03D02046B8
:1018280000F028F80746F11B1F2900981ED802D19E
:10183800204601B0F0BD481C1F2306461E40224624
:10184800F240591A19408C400021E30F5200D21877
:10185800D3435B19DB171E462E40921B64000C43D2
:1018680001211940401EF0D16000081801B0F0BDF8
:10187800FEDEFEDE030C1021002B01D01800002133
:10188800FF231B02184211D0F023000A034211D093
:101898000C230009034211D08008012243089A430F
:1018A80002235242181A104040187047F02308319A
:1018B8000342EDD10C2304310342EDD10231ECE7B0
:1018C80070460421084202D1EFF3088002E0EFF3EA
:0618D8000980FFE7FEE7B6
:1018E0002F55736572732F61726B6F2F2E63617248
:1018F000676F2F72656769737472792F7372632FC4
:101900006769746875622E636F6D2D316563633628
:1019100032393964623965633832332F73746D3309
:10192000326C3078782D68616C2D302E352E302F4A
:101930007372632F74696D65722E727300000000FC
:10194000617474656D707420746F20646976696465
:1019500065206279207A65726F00000040190008E6
:1019600019000000E01800085C000000A000000062
:101970002100000000000000000000000000000046
:10198000617474656D707420746F20737562747205
:101990006163742077697468206F766572666C6F16
:1019A000770000008019000821000000E0180008FE
:1019B0005C000000A1000000230000000000000007
:1019C000617474656D707420746F20616464207735
:1019D000697468206F766572666C6F77C01900084D
:1019E0001C000000E01800085C000000A8000000D7
:1019F0003A0000004019000819000000E018000833
:101A00005C000000A80000002E00000000000000A4
:101A10002F55736572732F61726B6F2F2E63617216
:101A2000676F2F72656769737472792F7372632F92
:101A30006769746875622E636F6D2D3165636336F7
:101A400032393964623965633832332F73746D33D8
:101A5000326C3078782D68616C2D302E352E302F19
:101A60007372632F6164632E7273000000000000C4
:101A7000617474656D707420746F20736869667426
:101A8000206C6566742077697468206F766572666D
:101A90006C6F7700701A000823000000101A00080D
:101AA0005A0000009E0000001D0000000000000021
:101AB0002F55736572732F61726B6F2F2E63617276
:101AC000676F2F72656769737472792F7372632FF2
:101AD0006769746875622E636F6D2D316563633657
:101AE00032393964623965633832332F73746D3338
:101AF000326C3078782D68616C2D302E352E302F79
:101B00007372632F7370692E72730000401900089E
:101B100019000000B01A00085A000000C7000000B9
:101B200024000000696E7465726E616C20657272CB
:101B30006F723A20656E746572656420756E7265A9
:101B400061636861626C6520636F64652F557365BE
:101B500072732F61726B6F2F2E636172676F2F72BA
:101B6000656769737472792F7372632F676974681C
:101B700075622E636F6D2D3165636336323939645A
:101B8000623965633832332F73746D33326C307859
:101B9000782D68616C2D302E352E302F7372632FA7
:101BA0007370692E72730000241B00082800000067
:101BB0004C1B00085A000000380100000100000022
:101BC000617474656D707420746F206D756C7469C8
:101BD000706C792077697468206F766572666C6FB7
:101BE000770000000000000000000000000000007E
:101BF0002F55736572732F61726B6F2F2E63617235
:101C0000676F2F72656769737472792F7372632FB0
:101C10006769746875622E636F6D2D316563633615
:101C200032393964623965633832332F73746D33F6
:101C3000326C3078782D68616C2D302E352E302F37
:101C40007372632F73657269616C2E72730000008A
:101C5000C01B000821000000F01B00085D00000010
:101C6000EE0000001F000000C01B00082100000063
:101C7000F01B00085D000000EE0000003E000000C8
:101C80004019000819000000F01B00085D0000006A
:101C9000EE0000001F000000801900082100000075
:101CA000F01B00085D000000F000000025000000AF
:101CB000C01B000821000000F01B00085D000000B0
:101CC000F000000025000000C01900081C00000002
:101CD000F01B00085D000000F00000002400000080
:101CE000C01B000821000000F01B00085D00000080
:101CF000F40000001F000000BB000008040000000A
:101D00000400000091010008C50000086D010008F2
:101D1000616C726561647920626F72726F7765645D
:101D200063616C6C656420604F7074696F6E3A3AE1
:101D3000756E77726170282960206F6E2061206057
:101D40004E6F6E65602076616C75657372632F6C83
:101D50006962636F72652F6F7074696F6E2E727334
:101D6000201D00082B0000004B1D0008150000007E
:101D70007A01000015000000BF000008000000000C
:101D800001000000690E000863616C6C65642060EE
:101D9000526573756C743A3A756E77726170282962
:101DA00060206F6E20616E206045727260207661E7
:101DB0006C756500BD000008010000000100000016
:101DC000BD0B0008C1000008010000000100000078
:101DD0006D0C0008B90000080100000001000000BF
:101DE000650D0008C30000080000000001000000AD
:101DF000991700080A000000F41D00080000000008
:101E0000F41D0008010000000D0A0000F41D000888
:101E100000000000F41D000800000000081E00087B
:101E20000200000000012D202D202D202D204841F2
:101E30004245587069636F2076302E302E31202D48
:101E4000202D202D202D0D426F6F74696E672E2E70
:101E50002E0D2D202D202D202D20424F4F5420437C
:101E60004F4D504C455445202D202D202D202D0D1B
:101E70004144433A205653544F52453D54696D6591
:101E80003D2062707320C2B57342757379486967EB
:101E9000684E61636B4170623179656172686F751C
:101EA000724F76657272756E5F457874656E736990
:101EB000626C655061726974794E6F6973654672C0
:101EC000616D696E674372634D6F64654661756CE1
:101ED000744672616D654572726F72556E6465729B
:101EE000666C6F774F766572666C6F77496E666960
:101EF0006E6974654E614E007372632F6C69626324
:101F00006F72652F6E756D2F64656332666C742F0A
:101F100072617766702E7273696E646578206F7572
:101F200074206F6620626F756E64733A2074686502
:101F3000206C656E20697320003E000001000000E7
:101F40000000000000000000200000000000000071
:101F500000C0000000030000426F72726F774D7581
:101F6000744572726F720000550E00080000000088
:101F700001000000590E0008206275742074686525
:101F800020696E646578206973200000181F0008BE
:101F900020000000781F00081200000063616C6CD4
:101FA000656420604F7074696F6E3A3A756E77722F
:101FB0006170282960206F6E206120604E6F6E6511
:101FC000602076616C75657372632F6C6962636FF4
:101FD00072652F6F7074696F6E2E72739C1F00088C
:101FE0002B000000C71F0008150000007A01000048
:101FF000150000003A200000F81E00080000000054
:10200000F41F0008020000007372632F6C696263A2
:102010006F72652F726573756C742E727300000099
:1020200008200008150000003C0400000500000026
:102030002930303031303230333034303530363092
:102040003730383039313031313132313331343168
:10205000353136313731383139323032313232324E
:102060003332343235323632373238323933303334
:102070003133323333333433353336333733383324
:102080003934303431343234333434343534363412
:1020900037343834393530353135323533353435F8
:1020A00035353635373538353936303631363236DE
:1020B00033363436353636363736383639373037C4
:1020C00031373237333734373537363737373837B4
:1020D00039383038313832383338343835383638A2
:1020E0003738383839393039313932393339343988
:1020F0003539363937393839392C000000000000BD
:102100007372632F6C6962636F72652F666D742FD3
:102110006D6F642E7273000000210008160000002D
:1021200057040000280000000021000816000000ED
:1021300063040000110000004572726F720000001D
:10214000000000000400000000000000000000008B
:10215000000000000000000000000000000000007F
:08216000000000000000000077
:0400000508000DF1F1
:00000001FF
