:020000040800F2
:1000000000080020150E0008550E0008ED18000825
:1000100000000000000000000000000000000000E0
:10002000000000000000000000000000550E000865
:100030000000000000000000550E0008550E0008EA
:10004000550E0008550E0008550E0008550E000804
:10005000550E0008550E0008550E0008550E0008F4
:1000600000000000550E0008550E0008550E00084F
:10007000550E0008550E0008550E0008550E0008D4
:10008000550E0008550E0008550E0008000000002F
:10009000B90A0008550E0008550E0008550E000854
:1000A000550E0008550E0008550E0008550E0008A4
:0800B000550E0008550E000872
:1000B800704770477047704770477047F0B581B018
:1000C8000D46046800200090802903D26846057018
:1000D800012035E0E80A0CD13F2029460140803153
:1000E8006A465170C0436905C90E0D181570022083
:1000F80026E0280C10D13F202840803069468870BF
:100108002805800E803048701F20C0432A04120F33
:1001180015180D70032013E03F21294080316846EF
:10012800C1700F21C943AA0C0A4302702905890E20
:1001380080318170A903890E8031417004201546F1
:100148006E4637182046294600F092FDC0B20528B1
:10015800F8D0761CBE4201D03578F3E7002001B014
:10016800F0BD0000B0B588B00068019002AA104642
:1001780038C938C038C938C001A8024900F034FF6E
:1001880008B0B0BD281D0008F0B581B0002A0DD018
:100198000C468F18056826782846314600F068FD19
:1001A800C0B20528F8D0641CBC42F4D1002001B0CC
:1001B800F0BD000010B58CB002920191046801A84E
:1001C8000F4900F0DBFD03AA13C201200B9003A81E
:1001D8000A9000200990089002200790094806908C
:1001E80005A8094906AA00F0FFFE002801D10CB0B5
:1001F80010BD06482B2106AA054B00F09BFEFEDE2B
:10020800750D0008281E0008281D0008B81D0008E4
:10021800141E0008B0B58EB002AC23800192009184
:1002280005686846114900F0A9FD114A069203AA1B
:1002380013C2079502200D9003A80C9000200B9084
:100248000A90032009900B48089007A80A4908AAB1
:1002580000F0CAFE002801D10EB0B0BD07482B211E
:1002680008AA074B00F066FEFEDEC046750D0008C2
:10027800A11700083C1E0008281D0008B81D00082A
:10028800141E0008C4B000F0EFFD012528403AA96B
:10029800087000F0E5FD12AE00F0E9FDFC480078BA
:1002A800002801D0002402E000F0AAFD2C463AA85C
:1002B80000F0D2FD002801D000F0D4FD002C00D1C0
:1002C8009EE3119524360C9643A800F085FDF1496C
:1002D800016043A800F080FD00684007F9D543A8F5
:1002E80000F07AFDC168EC4A0A40511CC160EB4D30
:1002F800284600F066FC0446284600F062FC109090
:10030800284600F05EFC0F90284600F05AFC07468D
:10031800284600F056FC0646284600F052FC31AD4F
:1003280003212970399038970F4637960F983690E1
:10033800109835903494284600F046FC3AA800F00E
:1003480039FC3A9E3B980D9005200207506A4021DF
:1003580009910843B02188435062B8041168814369
:10036800119CE00408181060506ACD490840C9493A
:10037800FF3101435162380511688143600508184F
:1003880010921060284600F027FD6204816B0A92E3
:1003980011438163284600F007FC192200242146F6
:1003A800234601F020FA4A1E914100D017E3BB070B
:1003B80031469943711A4A1E914100D011E30693C0
:1003C8000E97B10000D10EE301F027FA0646642724
:1003D800394601F022FA05464743F01B21466141A0
:1003E800BE4200D201E30F26330701469943411A62
:1003F8004A1E914100D0FAE2019605930101084690
:10040800323022466241884200D2F2E227460D9EEF
:10041800310A0B916421039101F0FFF92C01044387
:1004280043AD284600F0D4FCC460284600F0D0FC58
:100438000F974760284600F0CBFC8321890107917C
:1004480081600B98C0B2411E02468A419102320671
:10045800120B5118801E4242424150020C180D34B2
:10046800284600F0B5FC0460FF2002900003340920
:1004780008900440284600F0ABFC446000F0F6FB0E
:10048800109CE0680C218843E060606802210091BC
:1004980088436060206804210D9108430827B84309
:1004A80020603AA800F086FB3A9E3B980490206AA8
:1004B8007B4908400E9A510201432162206820219D
:1004C800014310200B908143216001980003216AA9
:1004D800814350030818206220688021014309984D
:1004E8008143216031AD284600F076FC11998904DA
:1004F800826B0A438263284600F056FB19220F9943
:100508000B460C4601F06FF94A1E914100D066E295
:100518003146069A9143711A4A1E914100D060E211
:1005280006970996B10000D15DE201F076F9074619
:10053800039E314601F071F905464643B81B214632
:100548006141B74200D250E20146059A9143411AEF
:100558004A1E914100D04AE2010108463230224643
:100568006241884200D244E2642101F056F929012F
:100578000143029800060A468243881A421E9041A7
:1005880000D03FE2049F3C0A0D0243AE304600F023
:1005980033FCC560304600F02FFC0F9941603046AF
:1005A80000F02AFC07998160E0B2411E02468A41A8
:1005B8009102099A120D3B03D218089D2A400A435A
:1005C800801E41424141480210430D2404433046F5
:1005D80000F012FC04603C092C40304600F00CFC92
:1005E800446000F029FB109AD0682E490840D0607A
:1005F80050680B9B9843506010680840119C21027A
:1006080040181060284800F0DCFA0546304600F033
:1006180071FB304600F07EFB304600F08BFB31AFBB
:10062800384600F0D9FB21030F9C426B0A43426312
:10063800304600F0D5FB4460384600F0B7FA002D8C
:1006480000D1E1E10646294601F0E7F8AE420E9EE8
:1006580000D2DBE10328F94D01D2433527E0062813
:1006680001D24B3523E00C2801D253351FE018285E
:1006780001D25B351BE0302801D2633517E06028D2
:1006880001D26B3513E0C02810D37B350FE0C0468C
:1006980030000020010300000CC0FFFF0024F4001C
:1006A800FFF0FFFFFFFCFFFFA0860100733543A8A2
:1006B80000F096FB056031AD284600F062FA09901B
:1006C8001099C868B043C8600868304308600A20B9
:1006D80000F077FA0746284600F07EFB416B0D9E36
:1006E80031434163284600F077FB416A3143416258
:1006F800284600F071FB416AB14341623AAE304688
:100708000ECD0EC00ECD0EC00ECD0EC0304600F080
:100718006FFB0168119A91430160304600F068FB55
:100728004462304600F044FA002F00D170E13946A7
:1007380001F073F80546401E21466141012D00D2A3
:1007480068E1040C3AAE304600F052FB8462641C47
:10075800A7B2381B411E8841304600F049FBA7422A
:1007680000D059E10646200400D157E12846394611
:1007780001F053F8010C00D052E180B2F0623AADBA
:10078800284600F035FB01680D9A114301602846A0
:1007980000F02EFB119E4661284600F029FB0168F7
:1007A8003143016012A801461CCD1CC11CCD1CC1DF
:1007B8001CCD1CC1099B190C0C9A917013801D90BB
:1007C8001C901CAD9E4921222846FFF7F3FC9D4949
:1007D8000B222846FFF7EEFC10980A998161310533
:1007E8000A918161984D2F467E1C3C7812A800F032
:1007F800F7FA8068410600D5E8E0810600D5E1E017
:10080800C10600D5E0E08007EFD512A800F0E8FAAD
:10081800047312A800F0E4FA8068410600D5D5E018
:10082800810600D5CEE0C10600D5CDE0C007F0D0E6
:1008380012A800F0D5FA007BA81C86423746D3D10F
:1008480010980B9981611CA882491E22FFF7B2FCFF
:100858000C9C204600F05FF9204600F0C5FAC168FC
:1008680038229143A278D206120E0A4361784907CA
:10087800090E1143C160204600F078F9204600F0C7
:10088800B3FA054600F09EF9C1B2202900D3CEE0A4
:100898001F210840119E31468140A962204600F080
:1008A800A3FA0168069A11430160204600F09CFAF9
:1008B800816804220A438260204600F095FA0068A5
:1008C8000007F9D5204600F08FFA056C60780128FA
:1008D80003D1A078032800D12D02204600F030F97A
:1008E800284600F017F903461CA85B490C22FFF7BD
:1008F80091FC12A800F0A2F90C46C00708D0E0B29B
:100908000528F6D03AAA147050482B21534B63E0BF
:1009180012A8214600F0ACF9C0B20528F8D012A8F8
:100928001EAC21462CC82CC12CC82CC12CC82CC1EB
:10093800204600F00FFA27AD28460ECC0EC00ECC8C
:100948000EC00ECC0EC000F08FFA304030A90870EF
:1009580000F086FA31A80ECD0EC00ECD0EC00ECD19
:100968000EC000F084FA3E480168002943D10F9F69
:100978000760466031A83AA91CC81CC11CC81CC124
:100988001CC81CC139480168002934D1011D3AAA84
:1009980038CA38C138CA38C138CA38C1076030A81F
:1009A80000F05AFA002801D000F05CFA00F050FA82
:1009B8000A9901602E4C1CA8052200232146FFF746
:1009C80029FCF8E70E9800E00D9800903AAA0098E4
:1009D80010701E482B211E4B00F0ACFAFEDE334887
:1009E80026E0314824E02F4822E02D4820E02B481B
:1009F8001EE029481CE01B48102143AA1A4BEBE7CC
:100A08000D4815E0234813E0214811E01F480FE086
:100A18001D480DE01B480BE0194809E0174807E09E
:100A280027AA0220107009482B21134BD4E711483C
:100A380000F032FAFEDEC046901D000801030000F7
:100A4800561E0008771E0008541E0008B81D00082E
:100A5800F41D0008821E0008A01E0008E41D0008FE
:100A680028000020401D0008A81D000800000020E4
:100A7800AC1E0008C41A0008041E0008241A000846
:100A88000C1A0008D41900088C190008D81B000893
:100A98003C1B0008101D0008F81C0008E01C00089A
:100AA800C81C0008B01C0008981C0008801C00081E
:100AB80010B582B000F0D8F90121014068460170F4
:100AC80000F0CEF900F0D3F90F4C2068002814D1BB
:100AD8000020C14321602179042904D0201D00F0A1
:100AE8003FF92068401C2060684600F0B5F90028EE
:100AF80001D000F0B7F902B010BD0448102101AAD6
:100B0800034B00F017FAFEDE00000020401D00082D
:100B1800A81D00087047B0B5044600F065F90168E3
:100B2800012529430160204600F05EF981682943C8
:100B38008160204600F058F90068C007F9D0B0BDC0
:100B480010B5044600F050F9816802220A43826019
:100B5800204600F049F9016801220A430260204654
:100B680000F042F98068C007F9D110BD10B50446FD
:100B780000F03AF941690722914322780A43426119
:100B880010BD10B582B000F027F901246102426B54
:100B98000A43426301A800F027F9210782680A4343
:100BA8008260002002B010BD40697047C06970477C
:100BB800006A70470021817181804B21C901016061
:100BC800704770470020704780B500F005F9C16A8A
:100BD80001220A43C26280BD10B584B00078C046C5
:100BE80078440079400087440205090D110001ACE2
:100BF800104A05E001AC0E4A05230AE001AC0B4A95
:100C0800072306E001AC084A062302E001AC054AC6
:100C18000B23204600F02AFD204600F0AFF904B06F
:100C280010BDC046D81E0008E31E0008D11E0008EB
:100C3800E91E0008EE1E0008704700000A49081F58
:100C48000068020708D00120086002220A60042216
:100C58000A6008220A6002E0800602D40120052109
:100C6800704709790020704720480040704700000D
:100C780004480268120601D4052070470173062053
:100C88007047C0461C44004010B584B00078C04688
:100C9800784400794000874402060A0E121601AC17
:100CA800134A042312E001AC104A0A230EE001ACF7
:100CB8000D4A07230AE001AC0A4A092306E001AC01
:100CC800074A032302E001AC044A0B23204600F044
:100CD800CDFC204600F052F904B010BDD81E000823
:100CE800F51E0008F81E0008D11E0008011F0008A4
:100CF800B91E00080F200005052109070A6A82436A
:100D08000A62032080020A6882430120C002101888
:100D1800086070470F200006052109070A6A824308
:100D28000A62032000030A68824301204003101866
:100D3800086070470F200007052109070A6A8243E7
:100D48000A62032080030A6882430120C003101846
:100D58000860704780B500F04BF80121C16080BD84
:100D680080B500F045F80021016180BD80B50A46D4
:100D780003684168184600F08BFC80BD704700008E
:100D880010B584B00078C0467844007940008744A4
:100D9800010C040801AC0D4A01E001AC094A082322
:100DA80006E001AC064A092302E001AC064A032327
:100DB800204600F05BFC204600F0E0F804B010BDCF
:100DC8000B1F0008141F0008241F00081C1F000820
:100DD8000048704700440040004870470010024037
:100DE8000048704700300140004870470024014027
:100DF800004870470008014000487047004800401C
:100E080001480121017070473000002000F01FF8F0
:100E180009480A49814202D2002204C1FAE7084877
:100E28000849814204D2084A08CA08C18142FBD352
:100E3800FFF728FAFEDEC046340000202800002014
:100E4800280000200000002070210008FEE77047FD
:100E58000048704700E100E0017848424841704787
:100E680072B6704762B67047EFF3108070477047EC
:100E780070470000014802497047C046D4459A0DA2
:100E880092340DD080B58869C969CB6801490E22B2
:100E9800984780BD881F00088CB018C808380546D8
:100EA800083526CD406900260596094F0497039614
:100EB80002960126019606AE0096079406930B90BB
:100EC80008A826C0684608A900F022F8FEDEC04639
:100ED800281F00088CB00346019200910220079059
:100EE80008A90691002105910491039006480290F3
:100EF80006480B9069460A91099001A8089002A833
:100F0800194600F005F8FEDEBC1F0008AF17000800
:100F180088B01CC90968079103A91DC1034802903C
:100F28000348019001A800F05DFCFEDE981F000850
:100F3800281F00088EB001910090039302920220AE
:100F480009900AA908910021079106910590074880
:100F5800049007480D9002A80C9006480B9068462C
:100F68000A9004A80449FFF7D3FFFEDE28200008F2
:100F7800D1170008DF17000850200008B0B5044654
:100F8800057A406800281ED0002D01D0012519E0FF
:100F980001280FD1607A00280CD021680878400712
:100FA80008D48869C969CB68094901252A46984740
:100FB800002807D121688869C969CB6805490122D9
:100FC800984705462572681E85412846B0BDC0462B
:100FD800292100086020000880B50A460068012120
:100FE80000F05EFB80BD0000F0B597B0146953694E
:100FF80030250AAF032607977E5520250B95002735
:101008000A971593149410AD13C50E970C97DD002D
:10101800651913959668002E00D1C0E05468D3680E
:10102800A342254600D81D461268002D00D1E5E0F0
:101038000695CB6811681546526898470121002823
:1010480000D0EEE0029104940798303007900195A3
:101058000C35103600200990C043059001270598EB
:101068008300F018011F09680B91317C079A1170F1
:101078000893F1580A9103460C3BB168890002A213
:1010880054580999A746C046A1100008A5100008A1
:10109800C7100008E7100008F2681FE0F168159A09
:1010A800914200D3C0E0C900149C039161184968BB
:1010B800634A9142099912D1039961580DE0129C33
:1010C80013998C4209990AD0214608311291616816
:1010D8005B4A9142099902D121680A6801210D925F
:1010E8000C913168890002A254580999A746C04654
:1010F800091100080D1100082F1100084F110008F0
:1011080072681FE07168159A914200D38CE0C9009B
:10111800149C039161184968494A9142099912D16E
:10112800039961580DE0129C13998C4209990AD0D1
:101138002146083112916168414A9142099902D1C8
:1011480021680A6801210F920E911968012908D1B6
:1011580008380168159A91426AD2C800149908188B
:1011680006E012981399884266D001460831129118
:10117800011D00680A680AA9904700283BD1069813
:10118800874249D2089829581198C3682A68109844
:101198009847083524367F1C00282CD15FE755680E
:1011A800AB42049500D81D461268002D25D0CB68A7
:1011B80011681646526898470121002831D10291DA
:1011C80001960C360020C04301278000099005CC09
:1011D8000AA9083C904700280DD1AF421CD20998B3
:1011E80031581198C36832681098984708360834FF
:1011F8007F1C0028EBD0029913E0049CBC420FD955
:10120800F8001158101842681198C3681098984748
:10121800002805D0012104E0049C019ABC42EFD8C3
:101228000021084617B0F0BD0648FFF753FEFEDE62
:101238000648FFF74FFEFEDE0348FFF72DFEFEDEF1
:10124800E10F0008582100080C2000084821000878
:10125800F0B587B01F4604460D9B0029049305D0BE
:1012680020680121014006D02B2506E020685D1C7E
:101278002D21059103E011252D040595CD1843076F
:101288000021002B02D40F46069114E0002F06928D
:1012980003970CD00021134603E07F1E5B1C002F30
:1012A80006D01E78B609022EF7D1491CF5E70021B1
:1012B800039FEA19551A0C9EA168012916D10396B5
:1012C800E668AE421FD900072DD43020215C0329DF
:1012D80000D10121751B00207944097949008F4408
:1012E80044014101002128460D463EE0204605996B
:1012F800069A3B4600F08EF8002840D1A069E169C3
:10130800CB6831460BE020460599069A3B4600F02B
:1013180081F8002833D1A069E169CB680399049A60
:101328009847064671E030200121029121546060FF
:1013380020460599069A3B4600F06CF8002863D1D0
:10134800204630300178032900D10121751B002087
:101358007944097949008F4438013501002128462C
:101368000D4632E06808691C4D08461C761E08D0F8
:101378006168A069E269126990470028F6D00126E1
:1013880043E06068019020460599069A3B4600F0C4
:1013980041F80126002838D1019FA069E169CB688E
:1013A8000399049A984700282FD102966D1CA669C4
:1013B800E4696D1E2CD022693046394690470028D2
:1013C800F7D021E06808691C4D08461C761E07D036
:1013D8006168A069E269126990470028F6D013E0B5
:1013E8006668A069E169CB680399049A9847002860
:1013F8000AD16D1CA769E4696D1E09D022693846B7
:10140800314690470028F7D0029E304607B0F0BD1D
:101418000026FAE770B51C4615460646112000045A
:10142800814207D0B069F26912699047002801D05B
:10143800012070BD002D06D0B069F169CB6829463E
:101448002246984770BD002070BD0000F0B589B0F5
:1014580016460F4604460069A1680129089402D17E
:10146800002803D194E0002800D1B7E0002E66D010
:1014780001910396BA1911200004049060693E4650
:10148800471C00213546029605926C1C287840B20C
:10149800C3B2002803D425467F1E47D153E01F203E
:1014A8000790944206D06C783F2020400690AC1CF0
:1014B800254603E01046002206920546079A1A4080
:1014C8005809062809D907920598854208D028782E
:1014D8003F2202406C1C254604E09001069A11E068
:1014E8000022054606988001121818090F2807D30C
:1014F800059885420CD028783F2303406D1C09E0ED
:101508000798000313182546059A7F1E0ED11AE086
:10151800002325469001079A5207D20A8018C3185B
:1015280004988342059A06D07F1E0CD0881B411967
:10153800AA422E46A9D1039E029F089C09E00026D4
:10154800002925D14AE004988342039E089C04D1CF
:10155800029F019900291BD140E00029029F0CD06D
:10156800B1420AD00020B142024608D27A563F2042
:10157800C34300209A42024601DB38460A46002847
:1015880000D016460028019900D00746002925D02A
:101598000020002E0CD031463A4603E0491E521C6A
:1015A800002905D013789B09022BF7D1401CF5E7D9
:1015B800301AE168884211D20020002E024617D066
:1015C800002233463C4603E05B1E641C002B0FD010
:1015D8002578AD09022DF7D1521CF5E7A069E1691C
:1015E800CB683946324698470446204609B0F0BDD4
:1015F800921B3023089CE45C032C034600D023464E
:101608005518C0467B441B795B009F4408010501BF
:10161800002128460D4602E06808691C4D08441C54
:10162800641E09D0089A51689069D2691269904776
:101638000028F5D00124D8E73946089F7868079034
:10164800B869FA69D3683246984701240028CCD192
:101658006E1CBD69FF69761E06D03A69284607994F
:1016680090470028F7D0C0E70024BEE770B51D46B4
:101678000E4604468869C969CB6811462A469847C8
:10168800207226606842684160720020606070BD08
:1016980080B50B46014610461A46FFF7D7FE80BDB7
:1016A800F0B591B0039202910646364DA84251D941
:1016B8000120C04327274000049034462046324981
:1016C80000F0ABF80690691C4143601A059080B29F
:1016D8006425294600F0A1F807A9C91942002B4B37
:1016E8009B5C049E8B558919284B9A1852784A702E
:1016F80045430598401B234D069E80B240001A5C66
:101708008A7018184078C8703F1F214884423446B0
:10171800D4D8632E21DDB0B26425294600F07DF8C7
:101728004543711B89B24900184A535CBF1E07AC78
:10173800E355E3195118497859700A2810DB40001D
:10174800124A135CB91E07AC63546318101840782A
:10175800587009E02727632EDDDC30460A28EEDAC8
:10176800791E303007AA50542720401A019007A844
:1017780040180090074A002303980299FFF768FD74
:1017880011B0F0BD0F2700001027000061200008ED
:10179800FFE0F505281F000880B50A4600880121EA
:1017A800FFF77EFF80BD80B50A4600680121FFF77C
:1017B80077FF80BD80B58869C969CB680149052272
:1017C800984780BD6821000880B502684068C368F2
:1017D8001046984780BD80B50B4606C81846FFF7E7
:1017E80035FE80BDFEE770B55143050C140C2E463E
:1017F800664371184343C91892B2554380B24243B5
:10180800130C5B191D0C49199BB260431818030C83
:10181800C918000492B2801870BDF0B581B00029D3
:1018280038D004460020002C32D00D4600902027E6
:1018380000293E4603D0284600F02EF80646002C24
:1018480003D0204600F028F80746F11B1F2900980E
:101858001ED802D1204601B0F0BD481C1F23064601
:101868001E402246F240591A19408C400021E30FCD
:101878005200D218D3435B19DB171E462E40921B29
:1018880064000C4301211940401EF0D16000081883
:1018980001B0F0BDFEDEFEDE030C1021002B01D0EE
:1018A80018000021FF231B02184211D0F023000A60
:1018B800034211D00C230009034211D080080122F1
:1018C80043089A4302235242181A1040401870479E
:1018D800F02308310342EDD10C2304310342EDD14A
:1018E8000231ECE770460421084202D1EFF3088088
:0A18F80002E0EFF30980FFE7FEE7CE
:101910002F55736572732F61726B6F2F2E63617217
:10192000676F2F72656769737472792F7372632F93
:101930006769746875622E636F6D2D3165636336F8
:1019400032393964623965633832332F73746D33D9
:10195000326C3078782D68616C2D302E352E302F1A
:101960007372632F74696D65722E727300000000CC
:10197000617474656D707420746F20646976696435
:1019800065206279207A65726F0000007019000886
:1019900019000000101900085C000000A000000001
:1019A0002100000000000000000000000000000016
:1019B000617474656D707420746F207375627472D5
:1019C0006163742077697468206F766572666C6FE6
:1019D00077000000B019000821000000101900086D
:1019E0005C000000A10000002300000000000000D7
:1019F000617474656D707420746F20616464207705
:101A0000697468206F766572666C6F77F0190008EC
:101A10001C000000101900085C000000A800000075
:101A20003A000000701900081900000010190008A1
:101A30005C000000A80000002E0000000000000074
:101A40002F55736572732F61726B6F2F2E636172E6
:101A5000676F2F72656769737472792F7372632F62
:101A60006769746875622E636F6D2D3165636336C7
:101A700032393964623965633832332F73746D33A8
:101A8000326C3078782D68616C2D302E352E302FE9
:101A90007372632F6164632E727300000000000094
:101AA000617474656D707420746F207368696674F6
:101AB000206C6566742077697468206F766572663D
:101AC0006C6F7700A01A000823000000401A00087D
:101AD0005A0000009E0000001D00000000000000F1
:101AE0002F55736572732F61726B6F2F2E63617246
:101AF000676F2F72656769737472792F7372632FC2
:101B00006769746875622E636F6D2D316563633626
:101B100032393964623965633832332F73746D3307
:101B2000326C3078782D68616C2D302E352E302F48
:101B30007372632F7370692E72730000701900083E
:101B400019000000E01A00085A000000C700000059
:101B500024000000696E7465726E616C206572729B
:101B60006F723A20656E746572656420756E726579
:101B700061636861626C6520636F64652F5573658E
:101B800072732F61726B6F2F2E636172676F2F728A
:101B9000656769737472792F7372632F67697468EC
:101BA00075622E636F6D2D3165636336323939642A
:101BB000623965633832332F73746D33326C307829
:101BC000782D68616C2D302E352E302F7372632F77
:101BD0007370692E72730000541B00082800000007
:101BE0007C1B00085A0000003801000001000000C2
:101BF000617474656D707420746F206D756C746998
:101C0000706C792077697468206F766572666C6F86
:101C1000770000000000000000000000000000004D
:101C20002F55736572732F61726B6F2F2E63617204
:101C3000676F2F72656769737472792F7372632F80
:101C40006769746875622E636F6D2D3165636336E5
:101C500032393964623965633832332F73746D33C6
:101C6000326C3078782D68616C2D302E352E302F07
:101C70007372632F73657269616C2E72730000005A
:101C8000F01B000821000000201C00085D0000007F
:101C9000EE0000001F000000F01B00082100000003
:101CA000201C00085D000000EE0000003E00000067
:101CB0007019000819000000201C00085D000000D9
:101CC000EE0000001F000000B01900082100000015
:101CD000201C00085D000000F0000000250000004E
:101CE000F01B000821000000201C00085D0000001F
:101CF000F000000025000000F01900081C000000A2
:101D0000201C00085D000000F0000000240000001E
:101D1000F01B000821000000201C00085D000000EE
:101D2000F40000001F000000BB00000804000000D9
:101D30000400000091010008C50000086D010008C2
:101D4000616C726561647920626F72726F7765642D
:101D500063616C6C656420604F7074696F6E3A3AB1
:101D6000756E77726170282960206F6E2061206027
:101D70004E6F6E65602076616C75657372632F6C53
:101D80006962636F72652F6F7074696F6E2E727304
:101D9000501D00082B0000007B1D000815000000EE
:101DA0007A01000015000000BF00000800000000DC
:101DB000010000008D0E000863616C6C656420609A
:101DC000526573756C743A3A756E77726170282932
:101DD00060206F6E20616E206045727260207661B7
:101DE0006C756500BD0000080100000001000000E6
:101DF000E10B0008C1000008010000000100000024
:101E0000910C0008B900000801000000010000006A
:101E1000890D0008C3000008000000000100000058
:101E2000BD1700080A000000241E00080000000082
:101E3000241E0008010000000D0A0000241E0008F6
:101E400000000000241E000800000000381E0008EA
:101E50000200000000012D202D202D202D204841C2
:101E60004245587069636F2076302E302E31202D18
:101E7000202D202D202D0D426F6F74696E672E2E40
:101E80002E0D2D202D202D202D20424F4F5420434C
:101E90004F4D504C455445202D202D202D202D0DEB
:101EA0004144433A205653544F52453D54696D6561
:101EB0003D2062707320C2B57342757379486967BB
:101EC000684E61636B4170623179656172686F75EC
:101ED000724F76657272756E5F457874656E736960
:101EE000626C655061726974794E6F697365467290
:101EF000616D696E674372634D6F64654661756CB1
:101F0000744672616D654572726F72556E6465726A
:101F1000666C6F774F766572666C6F77496E66692F
:101F20006E6974654E614E007372632F6C696263F3
:101F30006F72652F6E756D2F64656332666C742FDA
:101F400072617766702E7273696E646578206F7542
:101F500074206F6620626F756E64733A20746865D2
:101F6000206C656E20697320003E000001000000B7
:101F70000000000000000000200000000000000041
:101F800000C0000000030000426F72726F774D7551
:101F9000744572726F720000790E00080000000034
:101FA000010000007D0E00082062757420746865D1
:101FB00020696E646578206973200000481F00085E
:101FC00020000000A81F00081200000063616C6C74
:101FD000656420604F7074696F6E3A3A756E7772FF
:101FE0006170282960206F6E206120604E6F6E65E1
:101FF000602076616C75657372632F6C6962636FC4
:1020000072652F6F7074696F6E2E7273CC1F00082B
:102010002B000000F71F0008150000007A010000E7
:10202000150000003A200000281F000800000000F2
:1020300024200008020000007372632F6C69626341
:102040006F72652F726573756C742E727300000069
:1020500038200008150000003C04000005000000C6
:102060002930303031303230333034303530363062
:102070003730383039313031313132313331343138
:10208000353136313731383139323032313232321E
:102090003332343235323632373238323933303304
:1020A00031333233333334333533363337333833F4
:1020B00039343034313432343334343435343634E2
:1020C00037343834393530353135323533353435C8
:1020D00035353635373538353936303631363236AE
:1020E0003336343635363636373638363937303794
:1020F0003137323733373437353736373737383784
:102100003938303831383238333834383538363871
:102110003738383839393039313932393339343957
:102120003539363937393839392C0000000000008C
:102130007372632F6C6962636F72652F666D742FA3
:102140006D6F642E727300003021000816000000CD
:10215000570400002800000030210008160000008D
:1021600063040000110000004572726F72000000ED
:10217000000000000400000000000000000000005B
:10218000000000000000000000000000000000004F
:08219000000000000000000047
:0400000508000E15CC
:00000001FF
