:020000040800F2
:1000000000080020ED0A00082D0B000885150008E7
:1000100000000000000000000000000000000000E0
:100020000000000000000000000000002D0B000890
:1000300000000000000000002D0B00082D0B000840
:100040002D0B00082D0B00082D0B00082D0B0008B0
:100050002D0B00082D0B00082D0B00082D0B0008A0
:10006000000000002D0B00082D0B00082D0B0008D0
:100070002D0B00082D0B00082D0B00082D0B000880
:100080002D0B00082D0B00082D0B000800000000B0
:100090002D0B00082D0B00082D0B00082D0B000860
:1000A0002D0B00082D0B00082D0B00082D0B000850
:0800B0002D0B00082D0B0008C8
:1000B800704770477047F0B581B00D46046800205E
:1000C8000090802903D268460570012035E0E80ACF
:1000D8000CD13F202946014080316A465170C04307
:1000E8006905C90E0D181570022026E0280C10D1DC
:1000F8003F2028408030694688702805800E80306F
:1001080048701F20C0432A04120F15180D700320D1
:1001180013E03F21294080316846C1700F21C9434F
:10012800AA0C0A4302702905890E80318170A9033F
:10013800890E80314170042015466E4637182046D6
:10014800294600F09BFCC0B20528F8D0761CBE42B8
:1001580001D03578F3E7002001B0F0BDB0B588B024
:100168000068019002AA104638C938C038C938C09A
:1001780001A8024900F08AFD08B0B0BD4417000884
:10018800F0B581B0002A0DD00C468F180568267886
:100198002846314600F072FCC0B20528F8D0641C2D
:1001A800BC42F4D1002001B0F0BD000010B58CB005
:1001B80002920191046801A80F4900F073FC03AA98
:1001C80013C201200B9003A80A9000200990089000
:1001D800022007900948069005A8094906AA00F0D8
:1001E80055FD002801D10CB010BD06482B2106AAE8
:1001F800054B00F0F1FCFEDE9D0A0008041800081B
:1002080044170008B4170008E0170008A2B000F06F
:1002180065FC012630400DA9087000F05BFC00F079
:1002280060FCD9480078002801D0002402E000F0E2
:1002380047FC34460DA800F049FC002801D000F026
:100248004BFC002C00D18CE116AD284600F0BAF921
:100258000DAC2046294600F0BBF916A8214600F04F
:1002680088FB1EA800F07EFB1E9D1F9808900520A5
:100278000207506A402109910843B021884350621F
:100288000327B80411688143F00408181060506A05
:10029800BF490840B10240185062380511688143CF
:1002A800700508180B921060204600F001FC7204DB
:1002B800816B0A9211438163204600F051FB192299
:1002C80000242146234601F0DAF84A1E914100D065
:1002D80049E1BA07294605929143691A4A1E914194
:1002E80000D042E107970C96A90000D13FE101F048
:1002F800E0F805466427394601F0DBF8064647432F
:10030800E81B21466141BD4200D232E10F21009134
:100318000A07014604929143411A4A1E914100D0AE
:1003280029E101010846323022466241884200D262
:1003380023E12746089D290A03916421029101F0CF
:10034800B8F83401044321AE304600F0ADFBC46078
:10035800304600F0A9FB4760304600F0A5FB83213A
:100368008901069181600398C0B2411E02468A4104
:1003780091022A06120B5118801E42424241500235
:100388000C180D34304600F08FFB0460FF200190FC
:1003980000032C0908900440304600F085FB4460B7
:1003A80000F06AFB0B9CE0680C218843E060606801
:1003B80002218843606020680421014308208143AA
:1003C80021601EA800F0CEFA1E9D1F980390206A97
:1003D8006F490840079A5102014321622068202191
:1003E800014310208143216000980003216A814362
:1003F800500308182062206880210143099881432E
:1004080021600DAE304600F053FB0C998904826BD5
:100418000A438263304600F0A3FA192239463B4664
:1004280001F02DF84A1E914100D09CE02946059A1A
:100438009143691A4A1E914100D096E00795A90098
:1004480000D194E03C4601F034F80746029D294665
:1004580001F02FF806464543781B21466141AF421B
:1004680000D286E00146049A9143411A4A1E9141FE
:1004780000D080E0010108463230224662418842BD
:100488007BD30994642101F014F8310101430198E8
:1004980000060A468243881A421E90416FD1039F84
:1004A8003E0A0C0221AD284600F006FBC46028462F
:1004B80000F002FB09994160284600F0FDFA069910
:1004C8008160F0B2411E02468A419102079A120DDC
:1004D8003B03D218089E32400A43801E41424141E4
:1004E800480210430D240443284600F0E5FA04604E
:1004F8003C093440284600F0DFFA446000F0A2FAD4
:100508001EA80C9901800E900D900DAC2149212256
:100518002046FFF74BFE20490B222046FFF746FEF8
:100528000B980A9981611D491E222046FFF73EFE5D
:100538001EA800F089FA0C46C00707D11EA821465C
:1005480000F09CFAC0B20528F8D0F1E7E0B205281F
:10055800EED016AA147012482B21124B00F03CFB67
:10056800FEDE0A480CE016480AE0144808E0124883
:1005780006E0104804E00E4802E00C4800E00A4893
:1005880000F0DCFAFEDEC046000000209C170008E0
:10059800FFF0FFFF1418000835180008401800087D
:1005A800B4170008F01700082C17000814170008E3
:1005B800FC160008E4160008CC1600089816000877
:1005C8008016000800218173818103210170704722
:1005D800F0B587B0054608780F4605970495C046DC
:1005E8007844007940008744013F1F2F01200546C9
:1005F80000037F7879030C1806AE304600F058FAED
:100608004460304600F054FA03210902016006A84C
:1006180000F04EFA00688005F9D5EE03781CC0B2E8
:1006280086400024059FF4E07E6806A800F040FAA2
:10063800B54901600120440406A800F039FA0068B1
:100648002042F9D00224E4E006A800F031FA0321A0
:100658000902491C016006A800F02AFA0068400750
:10066800F9D50124A74ED4E0B878029078780090A4
:100678007E68BD6806A800F01BFA032103910C02EE
:10068800012E0ED1A049016001277E0406A800F0C2
:100698000FFA00683042F9D038040190009F2E46C6
:1006A8000BE0611C016006A800F002FA0068400730
:1006B800F9D500200190934E009F06A800F0F8F9A4
:1006C800046001204406029D06A800F0F1F90068C4
:1006D8002042F9D1B80001A1085887460907000847
:1006E80077070008350700084B0700081F070008B0
:1006F8008D070008A307000861070008B90700086C
:100708000322002130460B4600F0B9FE4A1E9141F3
:1007180058D08948E8E00C22002130460B4600F00A
:10072800AEFE4A1E91414DD07C48DDE006220021F4
:1007380030460B4600F0A3FE4A1E914142D079484C
:10074800D2E00720400731468143701A411E884194
:1007580000D0CCE0F00035E01F20C00631468143D0
:10076800701A411E884100D0C3E070012AE0039846
:10077800800731468143701A411E884100D0BAE093
:10078800B0001FE00F20000731468143701A411E58
:10079800884100D0B1E0300114E018220021304631
:1007A8000B4600F06CFE4A1E91410BD059489BE065
:1007B8003022002130460B4600F061FE4A1E91416E
:1007C80000D09CE0012D07D0022D01D0800804E064
:1007D800032100F06EFE00E040085449884200D929
:1007E80081E00646B804A905014301980D1806AF33
:1007F800384600F05DF9C560384600F059F94C49B3
:10080800016006A800F054F900682042F9D0059F5D
:10081800039C06A800F04CF9C168484A0A4011191F
:100828003A7B13071B0EC9187C7B23020B43B97B49
:10083800CD021D43C560002A304609D0D21FD0B270
:10084800904240D11F2840D81F2002403046D04057
:10085800002C024603460ED0E31EDAB29A4236D185
:100868001F2A36D81F2213400246DA400024931864
:10087800644193422FD301930292039600290446C0
:1008880002460ED0C91ECCB28C4226D11F2C26D8C7
:100898001F2421400446CC40002122194941A2428C
:1008A8001FD30092049A1146059F68CF68C1039927
:1008B800D16010610298506101989061D4610098EC
:1008C800106207B0F0BD1F480EE01D480CE020483C
:1008D8000AE01E4808E01C4806E0204804E01E48DC
:1008E80002E01C4800E0134800F028F9FEDE0C483E
:1008F800FAE70748F8E70C48F6E70748F4E703483B
:10090800F2E7C0460024F400000301004C19000877
:10091800641900087C19000894190008AC1900082B
:10092800C4190008DC190008F419000800366E0123
:1009380000030001A41A00080C1A00080CC0FFFFED
:10094800D41A0008BC1A00081C1B0008041B000865
:10095800EC1A0008641B00084C1B0008341B000834
:10096800406970470021817181804B21C901016074
:10097800704710B50446084600F09AF8C26A01218B
:100988000A43C2620020E0770F22A27760770E2226
:100998002277E0760D22A27660760C222276E07528
:1009A8000B22A27560750A222275E0740922A274CE
:1009B800607408222274E0730722A273607306220F
:1009C8002273E0720522A272607204222272E07120
:1009D8000322A271607102222271E070A17060701E
:1009E800207010BD10B584B00078C04678440079F6
:1009F800400087440205090D110001AC104A05E0CA
:100A080001AC0E4A05230AE001AC0B4A072306E0B5
:100A180001AC084A062302E001AC054A0B23204634
:100A280000F076FC204600F0FBF804B010BDC0468C
:100A3800831B00088E1B00087C1B0008941B000801
:100A4800991B0008704700000A49081F0068020740
:100A580008D00120086002220A6004220A600822E5
:100A68000A6002E0800602D4012005217047097956
:100A78000020704720480040704700000448026882
:100A8800120601D405207047017306207047C0463E
:100A98001C44004080B50A4603684168184600F0C7
:100AA80049FC80BD70470000004870470044004082
:100AB8000048704700100240004870470048004056
:100AC8000148012101707047000000200178484268
:100AD8004841704772B6704762B67047EFF31080AE
:100AE8007047704700F01FF809480A49814202D24E
:100AF800002204C1FAE708480849814204D2084A9A
:100B080008CA08C18142FBD3FFF780FBFEDEC0465E
:100B18000400002000000020000000200000002049
:100B2800E01D0008FEE770477047000001480249D1
:100B38007047C046D4459A0D92340DD08CB018C871
:100B480008380546083526CD406900260596094F20
:100B58000497039602960126019606AE009607941E
:100B680006930B9008A826C0684608A900F022F84A
:100B7800FEDEC046A01B00088CB00346019200911F
:100B88000220079008A9069100210591049103907D
:100B98000648029006480B9069460A91099001A8F8
:100BA800089002A8194600F005F8FEDE241C00088B
:100BB8004514000888B01CC90968079103A91DC11C
:100BC800034802900348019001A800F057FCFEDE9C
:100BD800001C0008A01B00088EB001910090039330
:100BE8000292022009900AA9089100210791069112
:100BF80005900748049007480D9002A80C900648F5
:100C08000B9068460A9004A80449FFF7D3FFFEDE5C
:100C1800901C00086914000877140008B81C000824
:100C2800B0B50446057A406800281ED0002D01D0D2
:100C3800012519E001280FD1607A00280CD021681D
:100C48000878400708D48869C969CB68094901252B
:100C58002A469847002807D121688869C969CB685E
:100C680005490122984705462572681E8541284690
:100C7800B0BDC046911D0008C81C000880B50A46D2
:100C88000068012100F05EFB80BD0000F0B597B060
:100C98001469536930250AAF032607977E55202526
:100CA8000B9500270A971593149410AD13C50E974A
:100CB8000C97DD00651913959668002E00D1C0E0E9
:100CC8005468D368A342254600D81D461268002DF3
:100CD80000D1E5E00695CB6811681546526898473B
:100CE8000121002800D0EEE00291049407983030EA
:100CF800079001950C35103600200990C0430590E7
:100D0800012705988300F018011F09680B91317CB1
:100D1800079A11700893F1580A9103460C3BB16881
:100D2800890002A254580999A746C046450D0008F3
:100D3800490D00086B0D00088B0D0008F2681FE0D4
:100D4800F168159A914200D3C0E0C900149C039140
:100D580061184968634A9142099912D10399615807
:100D68000DE0129C13998C4209990AD0214608314A
:100D7800129161685B4A9142099902D121680A6817
:100D880001210D920C913168890002A254580999E9
:100D9800A746C046AD0D0008B10D0008D30D0008E8
:100DA800F30D000872681FE07168159A914200D32C
:100DB8008CE0C900149C039161184968494A914222
:100DC800099912D1039961580DE0129C13998C422C
:100DD80009990AD02146083112916168414A914225
:100DE800099902D121680A6801210F920E911968A8
:100DF800012908D108380168159A91426AD2C800B9
:100E08001499081806E012981399884266D001468A
:100E180008311291011D00680A680AA99047002844
:100E28003BD10698874249D2089829581198C36837
:100E38002A6810989847083524367F1C00282CD13A
:100E48005FE75568AB42049500D81D461268002D2F
:100E580025D0CB68116816465268984701210028AA
:100E680031D1029101960C360020C0430127800041
:100E7800099005CC0AA9083C904700280DD1AF423B
:100E88001CD2099831581198C3683268109898474D
:100E9800083608347F1C0028EBD0029913E0049C24
:100EA800BC420FD9F8001158101842681198C3684D
:100EB80010989847002805D0012104E0049C019A65
:100EC800BC42EFD80021084617B0F0BD0648FFF72E
:100ED80053FEFEDE0648FFF74FFEFEDE0348FFF72F
:100EE8002DFEFEDE850C0008C81D0008741C0008D5
:100EF800B81D0008F0B587B01F4604460D9B0029B1
:100F0800049305D020680121014006D02B2506E076
:100F180020685D1C2D21059103E011252D04059500
:100F2800CD1843070021002B02D40F46069114E088
:100F3800002F069203970CD00021134603E07F1E72
:100F48005B1C002F06D01E78B609022EF7D1491C6B
:100F5800F5E70021039FEA19551A0C9EA16801299B
:100F680016D10396E668AE421FD900072DD430206B
:100F7800215C032900D10121751B002079440979DE
:100F880049008F4444014101002128460D463EE0B6
:100F980020460599069A3B4600F08EF8002840D175
:100FA800A069E169CB6831460BE020460599069AAD
:100FB8003B4600F081F8002833D1A069E169CB688D
:100FC8000399049A9847064671E03020012102915E
:100FD8002154606020460599069A3B4600F06CF85B
:100FE800002863D1204630300178032900D101213F
:100FF800751B00207944097949008F44380135016F
:10100800002128460D4632E06808691C4D08461C38
:10101800761E08D06168A069E269126990470028C5
:10102800F6D0012643E06068019020460599069AAB
:101038003B4600F041F80126002838D1019FA069FD
:10104800E169CB680399049A984700282FD1029642
:101058006D1CA669E4696D1E2CD02269304639469C
:1010680090470028F7D021E06808691C4D08461C05
:10107800761E07D06168A069E26912699047002866
:10108800F6D013E06668A069E169CB680399049A11
:10109800984700280AD16D1CA769E4696D1E09D01C
:1010A80022693846314690470028F7D0029E3046DC
:1010B80007B0F0BD0026FAE770B51C46154606468F
:1010C80011200004814207D0B069F2691269904783
:1010D800002801D0012070BD002D06D0B069F1694B
:1010E800CB6829462246984770BD002070BD000095
:1010F800F0B589B016460F4604460069A168012973
:10110800089402D1002803D194E0002800D1B7E068
:10111800002E66D001910396BA191120000404909C
:1011280060693E46471C00213546029605926C1CB4
:10113800287840B2C3B2002803D425467F1E47D181
:1011480053E01F200790944206D06C783F2020403F
:101158000690AC1C254603E0104600220692054680
:10116800079A1A405809062809D90792059885420E
:1011780008D028783F2202406C1C254604E09001E4
:10118800069A11E0002205460698800112181809EF
:101198000F2807D3059885420CD028783F230340B1
:1011A8006D1C09E00798000313182546059A7F1E51
:1011B8000ED11AE0002325469001079A5207D20A59
:1011C8008018C31804988342059A06D07F1E0CD055
:1011D800881B4119AA422E46A9D1039E029F089C4A
:1011E80009E00026002925D14AE004988342039E9D
:1011F800089C04D1029F019900291BD140E00029D5
:10120800029F0CD0B1420AD00020B142024608D257
:101218007A563F20C34300209A42024601DB3846F3
:101228000A46002800D016460028019900D0074633
:10123800002925D00020002E0CD031463A4603E084
:10124800491E521C002905D013789B09022BF7D19F
:10125800401CF5E7301AE168884211D20020002EC0
:10126800024617D0002233463C4603E05B1E641C4E
:10127800002B0FD02578AD09022DF7D1521CF5E7C8
:10128800A069E169CB68394632469847044620464A
:1012980009B0F0BD921B3023089CE45C032C034684
:1012A80000D023465518C0467B441B795B009F44F9
:1012B80008010501002128460D4602E06808691C5E
:1012C8004D08441C641E09D0089A51689069D26977
:1012D800126990470028F5D00124D8E73946089FBD
:1012E80078680790B869FA69D36832469847012444
:1012F8000028CCD16E1CBD69FF69761E06D03A69FC
:101308002846079990470028F7D0C0E70024BEE791
:1013180070B51D460E4604468869C969CB681146F2
:101328002A46984720722660684268416072002009
:10133800606070BD80B50B46014610461A46FFF73F
:10134800D7FE80BDF0B591B0039202910646364DA6
:10135800A84251D90120C0432727400004903446B1
:101368002046324900F0A5F80690691C4143601AEE
:10137800059080B26425294600F09BF807A9C91991
:1013880042002B4B9B5C049E8B558919284B9A185D
:1013980052784A7045430598401B234D069E80B2FB
:1013A80040001A5C8A7018184078C8703F1F21489E
:1013B80084423446D4D8632E21DDB0B26425294650
:1013C80000F077F84543711B89B24900184A535C0D
:1013D800BF1E07ACE355E3195118497859700A281C
:1013E80010DB4000124A135CB91E07AC6354631843
:1013F80010184078587009E02727632EDDDC304646
:101408000A28EEDA791E303007AA50542720401AED
:10141800019007A840180090074A002303980299F2
:10142800FFF768FD11B0F0BD0F270000102700007E
:10143800C91C0008FFE0F505A01B000880B50A4696
:1014480000680121FFF77EFF80BD000080B5886934
:10145800C969CB6801490522984780BDD81D000895
:1014680080B502684068C3681046984780BD80B55B
:101478000B4606C81846FFF73BFE80BDFEE770B571
:101488005143050C140C2E46664371184343C91882
:1014980092B2554380B24243130C5B191D0C491993
:1014A8009BB260431818030CC918000492B2801844
:1014B80070BDF0B581B0002938D004460020002C5A
:1014C80032D00D460090202700293E4603D02846FA
:1014D80000F02EF80646002C03D0204600F028F82D
:1014E8000746F11B1F2900981ED802D1204601B0DB
:1014F800F0BD481C1F2306461E402246F240591ADA
:1015080019408C400021E30F5200D218D3435B19D5
:10151800DB171E462E40921B64000C430121194024
:10152800401EF0D16000081801B0F0BDFEDEFEDEFE
:10153800030C1021002B01D018000021FF231B02EF
:10154800184211D0F023000A034211D00C230009DD
:10155800034211D08008012243089A4302235242D1
:10156800181A104040187047F02308310342EDD193
:101578000C2304310342EDD10231ECE7704604211B
:10158800084202D1EFF3088002E0EFF30980FFE799
:02159800FEE76C
:1015A000617474656D707420746F20616464207759
:1015B000697468206F766572666C6F770000000052
:1015C000617474656D707420746F206D756C7469CE
:1015D000706C792077697468206F766572666C6FBD
:1015E0007700000000000000000000000000000084
:1015F000617474656D707420746F20737562747299
:101600006163742077697468206F766572666C6FA9
:101610007700000000000000000000000000000053
:101620002F55736572732F61726B6F2F2E6361720A
:10163000676F2F72656769737472792F7372632F86
:101640006769746875622E636F6D2D3165636336EB
:1016500032393964623965633832332F73746D33CC
:10166000326C3078782D68616C2D302E342E302F0E
:101670007372632F73657269616C2E727300000060
:10168000C015000821000000201600085D000000C1
:10169000EC0000001F000000C01500082100000041
:1016A000201600085D000000EC0000003E00000075
:1016B000617474656D707420746F206469766964F8
:1016C00065206279207A65726F000000B01600080C
:1016D00019000000201600085D000000EC0000006A
:1016E0001F000000F015000821000000201600086F
:1016F0005D000000EE00000025000000C01500089D
:1017000021000000201600085D000000EE0000002F
:1017100025000000A01500081C000000201600088D
:101720005D000000EE00000024000000C01500086D
:1017300021000000201600085D000000F2000000FB
:101740001F000000BB0000080400000004000000AF
:1017500089010008BF0000086501000863616C6C26
:10176000656420604F7074696F6E3A3A756E777277
:101770006170282960206F6E206120604E6F6E6559
:10178000602076616C75657372632F6C6962636F3C
:1017900072652F6F7074696F6E2E72735C1700081C
:1017A0002B00000087170008150000007A010000D8
:1017B0001500000063616C6C656420605265737590
:1017C0006C743A3A756E77726170282960206F6E7A
:1017D00020616E2060457272602076616C756500D4
:1017E000BD000008000000000100000055140008C2
:1017F000B90000080100000001000000ED09000828
:101800000A0000000018000800000000001800088E
:10181000010000002D202D202D202D204841424583
:10182000587069636F2076302E302E31202D202D98
:10183000202D202D0D426F6F74696E672E2E2E0D98
:101840002D202D202D202D20424F4F5420434F4D31
:10185000504C455445202D202D202D202D0D0000CD
:10186000617474656D707420746F20737562747226
:101870006163742077697468206F766572666C6F37
:1018800077000000000000000000000000000000E1
:10189000617474656D707420746F206D756C7469FB
:1018A000706C792077697468206F766572666C6FEA
:1018B00077000000000000000000000000000000B1
:1018C000617474656D707420746F207368696674D8
:1018D000206C6566742077697468206F766572661F
:1018E0006C6F7700000000000000000000000000A6
:1018F0002F55736572732F61726B6F2F2E63617238
:10190000676F2F72656769737472792F7372632FB3
:101910006769746875622E636F6D2D316563633618
:1019200032393964623965633832332F73746D33F9
:10193000326C3078782D68616C2D302E342E302F3B
:101940007372632F7263632E727300009018000825
:1019500021000000F01800085A000000F20000000A
:10196000260000009018000821000000F018000870
:101970005A000000F1000000260000009018000846
:1019800021000000F01800085A000000F0000000DC
:10199000260000009018000821000000F018000840
:1019A0005A000000EF000000260000009018000818
:1019B00021000000F01800085A000000EE000000AE
:1019C000260000009018000821000000F018000810
:1019D0005A000000ED0000002500000090180008EB
:1019E00021000000F01800085A000000EC00000080
:1019F000250000009018000821000000F0180008E1
:101A00005A000000EB0000002500000090180008BC
:101A100021000000F01800085A000000EA00000051
:101A200025000000617373657274696F6E206661D2
:101A3000696C65643A2066726571203C3D203234E1
:101A40002E6D687A28292E302F55736572732F6199
:101A5000726B6F2F2E636172676F2F726567697388
:101A60007472792F7372632F6769746875622E635D
:101A70006F6D2D3165636336323939646239656360
:101A80003832332F73746D33326C3078782D68614F
:101A90006C2D302E342E302F7372632F7263632EB1
:101AA00072730000241A000824000000481A00087D
:101AB0005A000000FA000000110000006018000841
:101AC00021000000F01800085A0000001A01000070
:101AD00024000000C018000823000000F0180008CF
:101AE0005A0000001A0100001E00000060180008E3
:101AF00021000000F01800085A000000200100003A
:101B00002D000000C018000823000000F018000895
:101B10005A00000020010000270000009018000873
:101B200021000000F01800085A0000002101000008
:101B3000180000006018000821000000F0180008DC
:101B40005A000000280100002D000000C018000805
:101B500023000000F01800085A00000028010000CF
:101B6000270000009018000821000000F01800086D
:101B70005A00000029010000180000004F7665722D
:101B800072756E5F457874656E7369626C655061DD
:101B9000726974794E6F6973654672616D696E67BB
:101BA0007372632F6C6962636F72652F6E756D2F30
:101BB00064656332666C742F72617766702E72731F
:101BC000696E646578206F7574206F6620626F752A
:101BD0006E64733A20746865206C656E20697320AA
:101BE000003E0000010000000000000000000000B6
:101BF000200000000000000000C000000003000002
:101C0000310B00080000000001000000350B000847
:101C1000206275742074686520696E646578206937
:101C200073200000C01B000820000000101C0008EA
:101C30001200000063616C6C656420604F70746911
:101C40006F6E3A3A756E77726170282960206F6EF8
:101C5000206120604E6F6E65602076616C756573E3
:101C600072632F6C6962636F72652F6F7074696F36
:101C70006E2E7273341C00082B0000005F1C0008DD
:101C8000150000007A010000150000003A20000055
:101C9000A01B0008000000008C1C000802000000CF
:101CA0007372632F6C6962636F72652F72657375EF
:101CB0006C742E7273000000A01C00081500000058
:101CC0003C04000005000000293030303130323053
:101CD00033303430353036303730383039313031D8
:101CE00031313231333134313531363137313831C8
:101CF00039323032313232323332343235323632B6
:101D0000373238323933303331333233333334339B
:101D10003533363337333833393430343134323481
:101D20003334343435343634373438343935303567
:101D30003135323533353435353536353735383557
:101D40003936303631363236333634363536363645
:101D5000373638363937303731373237333734372B
:101D60003537363737373837393830383138323811
:101D700033383438353836383738383839393039F7
:101D800031393239333934393539363937393839E7
:101D9000392C0000000000000000000000000000DE
:101DA0007372632F6C6962636F72652F666D742F37
:101DB0006D6F642E72730000A01D000816000000F5
:101DC0005704000028000000A01D000816000000B5
:101DD00063040000110000004572726F7200000081
:0400000508000AEDF8
:00000001FF
