:020000040800F2
:100000000008002051070008910700084508000873
:1000100000000000000000000000000000000000E0
:100020000000000000000000000000009107000830
:100030000000000000000000910700089107000880
:100040009107000891070008910700089107000830
:100050009107000891070008910700089107000820
:1000600000000000910700089107000891070008B0
:100070009107000891070008910700085906000839
:100080009107000891070008910700080000000090
:1000900091070008910700089107000891070008E0
:1000A00091070008910700089107000891070008D0
:0800B000910700089107000808
:1000B80070477047F0B581B04118112212040092C0
:1000C800214B461C047865B2ECB2002D01D43046B1
:1000D80031E01F258E4204D047783F263E40801CE1
:1000E80001E00026084625406709062F06D9884200
:1000F80007D002783F271740401C04E0AC013419B0
:1001080019E000270846B201BE1822090F2A06D3B3
:10011800884207D002783F241440401C03E02A0399
:10012800B41808E00024B2016D07ED0A5219141939
:10013800009A944205D01A681206FCD51C738842AE
:10014800BFD101B0F0BDC0461C4400409AB000F0D9
:1001580069FB044600F062FBF6480178002901D0EB
:10016800002501E001250570E00701D100F058FBEA
:10017800002D00D131E2F048F04D056001684907D3
:10018800FCD5C168EE4A0A40511CC160C16A01240D
:100198002143C1620646052009900307596A402099
:1001A80004900143B0229143596203208104074619
:1001B8001A688A43E10451181960596AE1480140F4
:1001C8002A46FF320A435A6239051A688A4361058A
:1001D8005118196060040C940690B16B0143B16327
:1001E80079023D460A468332D748C26000260A96FD
:1001F800466062030592C032039282600D22029229
:10020800026046601A46DB680C24A343D360536837
:100218000224A34353601368042633430827BB43CF
:100228001360136AF24803405918116213682021B9
:10023800194310200090C0430190014011600F2025
:1002480007900103106A88430B95690340181062F0
:100258001068802101430498814311600C9B980425
:10026800E14DA96B0143A963E34DE448E8600A98AE
:1002780068600399A960029929606860D068E049BC
:100288000840D06050680199084050601068DC4907
:10029800084019024018106007980005116A814348
:1002A80011620B98800211688143D8020818106007
:1002B80007980006116A814311620B9B18031168A5
:1002C8008143059808181060106ACE4908401062EA
:1002D800114608929803126882430C9BD803049035
:1002E800101808601903C048426B0A434263C649A4
:1002F8000A9A4A60BD4A73320A605902426B0A433D
:100308004263C048401CC14A916801439160089A01
:10031800D0680B998843D060106808431060B24ACF
:10032800906B18439063906A18439062DB4305937F
:10033800906A1840906213AA16AB079303CA03C3C6
:1003480010889178997018800C9A91070868059B15
:10035800184008600A988884F4208862AC48888528
:100368000868304308604A610868104305910860CE
:100378000DA8079B06CB06C019889A788270018061
:10038800A4482221FFF796FE0698089988610C98E0
:1003980000058861A04A511C9B4883685806400F95
:1003A80000D00EE19807F7D51078974A1073964851
:1003B80082685006400F00D003E1D007F7D092487A
:1003C800007B9548801C81420A46E4D10898009930
:1003D80081618E4A10680C99084310609068084340
:1003E80090601068C007FCD0D06838218843D0607E
:1003F80050690721884350610C989062106838430F
:10040800106090683043906010680007FCD5106C4D
:1004180090682043906010680C99084310609068B9
:10042800C007FCD10DA810A907910CC80CC10288FF
:10043800807888700A800C980599C86000F0F2F9F5
:10044800089000F0EBF913A8079B06CB06C01988A3
:100458009A788270018073480168002900D0B7E05B
:1004680073490A9A0260416013A816A90CC80CC106
:100478000288807888700A806E490868002800D051
:10048800A6E00B980871481D16A90B2200F0CDF9BB
:1004980069486849086148618861C86108624862BA
:1004A8000A9808600898C00701D100F0B9F96348B4
:1004B80004990160E869010705D00C9828622C624C
:1004C8002E622F62F6E78006F4D55D48007824286E
:1004D800F0D1E869010705D00C9828622C622E62D9
:1004E8002F62F6E78006F4D5554800780B900C98F3
:1004F800E9690A0704D028622C622E622F62F7E7A6
:100508008906F5D54E490978EA69130704D02862A7
:100518002C622E622F62F7E79206F5D548480278DA
:10052800EB69180712D00C9828622C622E622F6291
:10053800F6E7C0463000002000100240010300002A
:100548000CC0FFFFFFF0FFFF004400409806E7D50E
:100558003B4803780B984728BBD14E29B9D1472A85
:10056800B7D1472BB5D10998224B64280FD0E96938
:100578000A0705D00C9929622C622E622F62F6E7D1
:100588008906F4D5401C2E4909780A29EDD116A808
:100598002C4901810A9A16923520000617901146B7
:1005A8001046DA691206FCD5274A1170401C0A2841
:1005B80002D016A9095CF4E709212448FFF77AFD5F
:1005C80078E716482B2116AA154B00F08BF8FEDEAB
:1005D8001548102119AA154BF7E7024800F075F8DD
:1005E800FEDEC046AC08000800100240010300000F
:1005F800FFF0FFFF00440040004800400083060071
:10060800FFFCFFFFFFFFFF0F003001400024014007
:100618001AFF00001209000810090008D408000891
:1006280000090008280000205C080008C408000829
:1006380001000100000000200024F40000E100E0B7
:100648002448004038390000284400403409000894
:10065800B0B582B000F0E6F8044600F0DFF81448C0
:10066800016800291DD10021CA4302600379042BC7
:1006780010D0124B00211960114B1D68002D10D1AC
:100688001A609A88012A02D1DA88521CDA80196025
:100698000168491C0160E00701D100F0C1F802B00F
:1006A800B0BD0448102101AA034B00F01BF8FEDE80
:1006B800000000205C080008C40800081000004082
:1006C8002800002000F062F8FEDEFFF7FBFFFEDEE8
:1006D80080B58869C969CB6801490E22984780BDF1
:1006E8003D090008FFF7EEFFFEDE0000B0B5044646
:1006F800057A406800281ED0002D01D0012519E098
:1007080001280FD1607A00280CD0216808784007AA
:1007180008D48869C969CB68094901252A469847D8
:10072800002807D121688869C969CB680549012271
:10073800984705462572681E85412846B0BDC046C3
:100748004C0900084B09000800F01FF809480A493D
:10075800814202D2002204C1FAE7084808498142CE
:1007680004D2084A08CA08C18142FBD3FFF7EEFC4D
:10077800FEDEC046340000202800002028000020AB
:10078800000000207C090008FEE77047FEE7000033
:1007980010B584B000780C4678440079400087444E
:1007A80002080E141A20A069E169CB681A490422CC
:1007B8001CE0A069E169CB6816490A2216E0A06925
:1007C800E169CB681249072210E0A069E169CB68AA
:1007D8000E4909220AE0A069E169CB680A490322A7
:1007E80004E0A069E169CB6806490B2298470146F5
:1007F80001A801720021417201940291FFF776FF6E
:1008080004B010BD58090008760900086D090008F1
:1008180051090008630900084D09000872B67047BD
:1008280062B67047EFF310807047002A05D00B7846
:100838000370491C401C521EF9D1704770460421B0
:10084800084202D1EFF3088002E0EFF30980FFE7E6
:02085800FEE7B9
:10085C00616C726561647920626F72726F77656426
:10086C0063616C6C656420604F7074696F6E3A3AAA
:10087C00756E77726170282960206F6E2061206020
:10088C004E6F6E65602076616C75657372632F6C4C
:10089C006962636F72652F6F7074696F6E2E7273FD
:1008AC006C0800082B0000009708000815000000D9
:1008BC007A01000015000000B900000800000000DB
:1008CC0001000000D906000863616C6C656420604F
:1008DC00526573756C743A3A756E7772617028292B
:1008EC0060206F6E20616E206045727260207661B0
:1008FC006C756500BB0000080100000001000000E1
:10090C009907000800012D202D202D202D20484175
:10091C004245587069636F2076302E302E31202D71
:10092C00202D202D202D0D0A2D202D202D202D0D9C
:10093C000A426F72726F774D75744572726F7229BD
:10094C002C427573794F76657272756E5F4578744B
:10095C00656E7369626C654672616D654572726F26
:10096C00724D6F64654661756C7443726300000070
:10097C000000000004000000000000000000000067
:10098C00000000000000000000000000000000005B
:08099C00000000000000000053
:040000050800075197
:00000001FF
