:020000040800F2
:100000000008002099060008D9060008EB07000840
:1000100000000000000000000000000000000000E0
:10002000000000000000000000000000D9060008E9
:100030000000000000000000D9060008D9060008F2
:10004000D9060008D9060008D9060008D906000814
:10005000D9060008D9060008D9060008D906000804
:1000600000000000D9060008D9060008D9060008DB
:10007000D9060008D9060008D9060008A10500081D
:10008000D9060008D9060008D906000800000000BB
:10009000D9060008D9060008D9060008D9060008C4
:1000A000D9060008D9060008D9060008D9060008B4
:0800B000D9060008D90600087A
:1000B80070477047C8B000F059FB044600F052FB87
:1000C800F2480178002901D0002501E001250570DA
:1000D800E00701D100F048FB002D00D125E2EC49F2
:1000E800EC4B0B6008684007FCD5C868EA4A024038
:1000F800501CC860C86A01263043C86205200B90AE
:100108000707786A402206921043B022904378622B
:100118000325A8043A688243F00410183860786A06
:10012800DE4A10401A46FF3202437A6228053A68CE
:10013800824370051018386072040D92886B104362
:1001480088636A020A9510468330FE4CE0600020FE
:100158000C90606073030793C033A3600D21059171
:1001680021606060F8680C24A0433C460997F86059
:10017800786802270E97B8436060206804270897BC
:1001880038430827B8432060206AED4908408018A2
:10019800206220682022024310200190C04303906F
:1001A800024022600F2004900203206A90436A03F1
:1001B80080182062206880220243069882432260C9
:1001C800B004DD498A6B02438A63DF4DDF48E8608B
:1001D8000C986860AB60059A2A606860E068DC4A41
:1001E8001040E06060680399084060602068104033
:1001F80032028018206004990805226A824322622C
:100208000A9B980222688243F002101820600806B0
:10021800226A8243226218032268824307981018D0
:100228002060226ACB48024022629A0323689343E3
:10023800F00305901A1822603203BF494B6B134331
:100248004B63C54B0C985860BC48733018607202F9
:10025800486B10434863BF48401CC04CA268024327
:10026800A260099CE0680A9A9043E0602068104305
:100278002060886B30438863886A30438862F04323
:1002880006908A6A02408A6215AC2EA9079105CCAD
:1002980005C12088A2788A700880B207106806997C
:1002A800084010600C989084F4209062AC489085C7
:1002B800106808990C460843106002965661106849
:1002C8003043069210600FA8079E06CE06C03188FC
:1002D800B278827001800D98099988610298064663
:1002E800000588619F48411C0D919A685106490F85
:1002F80000D00EE19107F8D5007818739868410688
:10030800490F00D005E1C007F8D0187B9548801C3C
:100318000D9981420846E6D10998019981618F4A71
:100328001068314630431060906830439060106820
:10033800C007FCD0D06838218843D06050690721B5
:100348008843506196621068384310609068204373
:10035800906010680007FCD5106C90680E990843EF
:1003680090601068304310609068C007FCD10FA8F7
:1003780012A909910CC80CC10288807888700A807B
:100388000698C66000F0F2F90D9000F0EBF915A898
:10039800099B06CB06C019889A7882700180744838
:1003A8000168002900D0BBE074490C9A02604160E2
:1003B80015A82EA90CC80CC10288807888700A80FC
:1003C8006F490868002800D0AAE00A980871481DFB
:1003D8002EA90B2200F0CDF96A48694908614861E5
:1003E8008861C861086248620C9808600D98C00767
:1003F80001D100F0B9F964480599016015A8642194
:1004080000F0EAF915A8642100F0E6F9E8690107A7
:1004180005D02E620E9828622C622F62F6E78006BD
:10042800F4D55A4800782428F0D1E869010705D0A6
:100438002E620E9828622C622F62F6E78006F4D5A9
:10044800524800780D90E9690A0705D02E620E9887
:1004580028622C622F62F6E78906F4D54B480178AA
:10046800EA69130705D02E620E9828622C622F6263
:10047800F6E79206F4D545480278EB6918070FD0DD
:100488002E620E9828622C622F62F6E73000002058
:1004980000100240010300000CC0FFFFFFF0FFFF47
:1004A8009806EAD5394803780D984728BDD14E29D2
:1004B800BBD1472AB9D1472BB7D115A8472101711C
:1004C800334815900B98642811D0E9690A0705D0BC
:1004D8002E620E9929622C622F62F6E78906F4D5FE
:1004E8002A49097815AA1154401C0A29EBD12EA8CB
:1004F80015A9642200F046F90C98124B2EA9095C44
:10050800DA691206FCD5234A1170401C6328F5D11C
:1005180078E715482B212EAA144B00F087F8FEDE49
:100528001448102147AA144BF7E7024800F071F865
:10053800FEDEC0465008000800100240010300001B
:10054800FFF0FFFF00440040004800400083060021
:10055800FFFCFFFFFFFFFF0F0030014000240140B8
:100568001AFF0000B408000878080008A40800086A
:1005780028000020000800086808000801000100A1
:10058800000000200024F40000E100E024480040BE
:1005980024474E4728440040B0B582B000F0E6F842
:1005A800044600F0DFF81448016800291DD1002135
:1005B800CA4302600379042B10D0124B0021196042
:1005C800114B1D68002D10D11A609A88012A02D19A
:1005D800DA88521CDA8019600168491C0160E0075A
:1005E80001D100F0C1F802B0B0BD0448102101AA41
:1005F800034B00F01BF8FEDE000000200008000896
:1006080068080008100000402800002000F062F888
:10061800FEDEFFF7FBFFFEDE80B58869C969CB689F
:1006280001490E22984780BDB6080008FFF7EEFF83
:10063800FEDE0000B0B50446057A406800281ED0EA
:10064800002D01D0012519E001280FD1607A00287A
:100658000CD021680878400708D48869C969CB6834
:10066800094901252A469847002807D12168886941
:10067800C969CB6805490122984705462572681E55
:1006880085412846B0BDC046C5080008C408000812
:1006980000F01FF809480A49814202D2002204C129
:1006A800FAE708480849814204D2084A08CA08C13A
:1006B8008142FBD3FFF7FEFCFEDEC046340000207B
:1006C800280000202800002000000020F40800086E
:1006D800FEE77047FEE7000010B584B000780C46CE
:1006E800784400794000874402080E141A20A06953
:1006F800E169CB681A4904221CE0A069E169CB686A
:1007080016490A2216E0A069E169CB681249072256
:1007180010E0A069E169CB680E4909220AE0A069E6
:10072800E169CB680A49032204E0A069E169CB6862
:1007380006490B229847014601A80172002141721F
:1007480001940291FFF776FF04B010BDD1080008AC
:10075800EF080008E6080008CA080008DC080008D6
:10076800C608000872B6704762B67047EFF310808B
:100778007047002A05D00B780370491C401C521E94
:10078800F9D1704710B5042A07D3134610C910C011
:100798001B1F032BFAD803231A40FFF7EAFF10BDEB
:1007A800002903D00270401C491EFBD1704710B5C8
:1007B8001346D2B204290CD31B06D31814041B19F0
:1007C80014021B190C4608C0241F032CFBD8032352
:1007D8001940FFF7E5FF10BD80B50022FFF7E7FFDE
:1007E80080BD70460421084202D1EFF3088002E080
:0807F800EFF30980FFE7FEE7C3
:10080000616C726561647920626F72726F77656482
:1008100063616C6C656420604F7074696F6E3A3A06
:10082000756E77726170282960206F6E206120607C
:100830004E6F6E65602076616C75657372632F6CA8
:100840006962636F72652F6F7074696F6E2E727359
:10085000100800082B0000003B08000815000000ED
:100860007A01000015000000BB0000080000000035
:10087000010000002106000863616C6C6564206063
:10088000526573756C743A3A756E77726170282987
:1008900060206F6E20616E2060457272602076610C
:1008A0006C756500B900000801000000010000003F
:1008B000E10600080001426F72726F774D75744552
:1008C00072726F72292C427573794F7665727275E8
:1008D0006E5F457874656E7369626C654672616DB2
:1008E000654572726F724D6F64654661756C7443D5
:0408F000726300002F
:1008F40000000000040000000000000000000000F0
:1009040000000000000000000000000000000000E3
:080914000000000000000000DB
:040000050800069950
:00000001FF
