:020000040800F2
:10000000000800202115000865150008B523000828
:1000100000000000000000000000000000000000E0
:10002000000000000000000000000000651500084E
:1000300000000000000000006515000865150008BC
:1000400065150008651500086515000865150008A8
:100050006515000865150008651500086515000898
:10006000000000006515000865150008651500080A
:100070006515000865150008651500080D120008D3
:1000800065150008651500086515000800000000EA
:100090006515000865150008651500086515000858
:1000A0006515000865150008651500086515000848
:0800B000651500086515000844
:1000B8007047704770477047F0B503AF83B0002AA8
:1000C80049D00D4604468B18112000040190029374
:1000D800691C287840B2C6B2002801D40D4630E029
:1000E8001F20994204D06A783F211140AD1C01E0DD
:1000F80000211D463040DF2E07D99D4207D02A78BF
:100108003F2313406D1C2A4603E080010EE01A4687
:10011800002389015918F02E07D3029B9A4207D071
:1001280015783F232B40551C03E000030E1808E008
:10013800002389014007C00A0818C618019886429A
:1001480009D02068314601F041F9C0B20528F8D03D
:10015800029B9D42BCD103B0F0BDD4D4F0B503AF2F
:1001680083B00446002A48D00D468B18112000049D
:1001780001900293691C287840B2C6B2002801D4C5
:100188000D4630E01F20994204D06A783F21114083
:10019800AD1C01E000211D463040DF2E07D99D42ED
:1001A80007D02A783F2313406D1C2A4603E08001BC
:1001B8000EE01A46002389015918F02E07D3029B36
:1001C8009A4207D015783F232B40551C03E00003C3
:1001D8000E1808E0002389014007C00A0818C6184D
:1001E8000198864209D02068314601F0EFF8C0B284
:1001F8000528F8D0029B9D42BCD103490222204623
:10020800FFF75AFF03B0F0BD04270008D0B502AFCE
:1002180082B00446606801F0C3F8C0070CD0C8B2C9
:100228000528F7D001AA11700548009005482B2130
:10023800054B01F0B3F9FEDEC8B202B0D0BDC0462E
:1002480010270008A8260008E4260008F0B503AF28
:1002580089B0029000200690054604460391A2004A
:100268008A18641C16683346303B092B07D92D2E93
:1002780036D1121D641C01250C2CF3D139E0002362
:10028800089308AA00920A220699059301F0D3FF61
:1002980001900898431E02469A41002850D1012235
:1002A80006910029049201DA05980490303E059BD6
:1002B8009B410198801906995941069100291646D3
:1002C80000DA059E04998E1B711E8E41002B00DA00
:1002D800059A0499891A4A424A41324002D032E0CA
:1002E800002E25D103990B2CB9D1EA0706990FD016
:1002F80000E006990023079307AA0092DA43134601
:1003080001F099FF079C621E23469341002C20D1DF
:100318000122D40700230419594104D102994860E5
:1003280008461A4609E0042002994870084604E085
:1003380003200299487008460122027009B0F0BDF6
:100348000648212101E007481C21074A01F04AF923
:10035800FEDE02482121024AF8E7C046D0250008FF
:1003680078280008902400086828000880B500AFA5
:1003780000F002F8FEDED4D4F0B503AFFFB0FFB052
:100388009BB0FFA80C300F9001F0EEF80446012650
:10039800344001F0E5F818A8169024A80A9001F056
:1003A800E6F8DC480178002901D0002502E00121A7
:1003B800017035461596002C01D101F0D3F8002DB7
:1003C800169801D100F08EFE243016900A982C3031
:1003D8000A90D149D148086008684007FCD5C86828
:1003E8000A46CF490140481CD060CE4D284600F04F
:1003F80078FF1790284600F074FF1490284600F004
:1004080070FF1390284600F06CFF0646284600F05F
:1004180068FF0446284600F064FF39AD03212970BF
:10042800419040960E463F9413983E9014983D9004
:1004380017983C90284600F057FF4B20C0011390B6
:1004480000F04EFF0446052004900307586A402137
:1004580011910843B02188435862B0041968814358
:100468000122D00408181860586AAF490840AB49FF
:10047800FF31014359623005196881435005081856
:10048800179318600D925104A34A906B0E9108437C
:100498009063284600F01EFF1922002529462B46A6
:1004A80001F09DFE4A1E914101D000F027FEB207DF
:1004B800214608929143611A4A1E914101D000F0E9
:1004C8001DFE14961295A10001D100F00FFE01F057
:1004D80047FC04466426314601F042FC0546464383
:1004E800A01B12994941B44201D200F002FE0F212B
:1004F80006910A07014607929143411A4A1E914103
:1005080001D000F0FBFD010108463230129E324650
:100518007241884201D200F0EEFD6424214601F0C8
:100528001FFC290101438148C1604660832189017C
:100538000B9181600D2109910160466000F044FF34
:10054800179DE8680C218843E860686802210291D9
:1005580088436860286804211091084308210391A2
:1005680088432860139800F0BBFE0590286A6E49FE
:100578000840149A510201432962286820210C91ED
:100588000843102113918843286006980003296ABC
:100598008143500308182862286880210143119874
:1005A800814329600D9880045B4A916B01439163F4
:1005B80039A800F08FFE192231461192334601F016
:1005C8000EFE4A1E914101D000F098FD059B194688
:1005D800089A9143591A4A1E914101D000F08EFDA4
:1005E800990001D100F082FD01F0BAFB06462146D0
:1005F80001F0B6FB05464443301B12994941A64217
:1006080001D200F076FD0146079A9143411A4A1E2D
:10061800914101D000F072FD010108463230129A72
:100628005241884201D200F066FD642101F098FB36
:1006380029010143FF2000060A468243881A421E08
:10064800904101D000F05AFD08023949C860129A59
:100658004A600B988860099808604A6000F07CFE40
:10066800179AD06833490840D0605068139B984364
:100678005060106808400D9C2102401810602E48F8
:1006880000F02FFE0646FFAD0835284600F0E0FED4
:10069800284600F0EDFE284600F0FAFE20031E4A28
:1006A800516B01435163254C1298606039A800F0E2
:1006B80015FE002E01D100F025FD0546314601F05A
:1006C8004FFBB54201D200F020FD03280D9D02D258
:1006D8001248433036E0062802D210484B3031E049
:1006E8000C2802D20D4853302CE0182802D20B48AF
:1006F8005B3027E0302802D20848633022E06028C7
:1007080002D206486B301DE0C02819D303487B305D
:1007180018E0C04634000020001002400103000029
:100728000CC0FFFF0024F400FFF0FFFF004400406E
:1007380000480040FFFCFFFFA08601000030014098
:10074800F5487330206039AE304600F0B1FD0B90AB
:10075800179AD06814998843D060106808431060CD
:10076800284600F0BEFD0990EC49886B2843886351
:10077800886A28438862EA430892886A1040886237
:100788009DA802462ACE2AC22ACE2AC22ACE2AC228
:100798000D998E073168089A11403160129DB58411
:1007A80000F09AFD0999002901D100F0B2FC01F08E
:1007B800D7FA411E2A466A41012801D200F0ACFC52
:1007C800090CB1624A1C91B28B1A5D1EAB41914271
:1007D80001D000F0A4FC01F0C3FA010C0D9901D07E
:1007E80000F0A1FCB0853068109A10433060716148
:1007F8003068084330609DA818AD29464CC84CC1E4
:100808004CC84CC14CC84CC10B99080C169A907036
:1008180011802395229522A8C1490C9E3246FFF7E4
:100828009DFC0A99129808802E902D962C902B905A
:100838002A96299028902790269525952495179AE9
:100848000E9890610D9800059061481C0E90B5486F
:1008580001460A78491CA3685D0601D500F037FCFB
:100868009D0601D500F02FFCDD0601D500F02DFC1A
:100878009B07F0D522730D9DA268530601D500F0A1
:1008880026FC930601D500F01EFCD30601D500F026
:100898001CFCD207F0D0227B821C9142D9D1179838
:1008A80013998161A04C206828432060A0682843E0
:1008B800A0602068C007FCD000F014FDC2B21F2A57
:1008C80001D900F039FC169E7078411E4B424B410D
:1008D8005B01B178CD001D43EB1CE360636907251C
:1008E800AB4335781D4365610D9D2B469340A3624C
:1008F8002268039B1A432260A268042309931A43BF
:10090800A26022681207FCD5226CA368022608960A
:100918003343A36023682B432360A368DB07FCD120
:10092800012801D0104600E01002032900D010462B
:1009380000F0BCFC18A830AC21462CC82CC12CC82F
:100948002CC12CC82CC1204600F0B2FD0D9EF0032E
:1009580076490860FFAD3C3528460ECC0EC00ECC5B
:100968000EC00ECC0EC000F0FFFD179000F0F8FD91
:1009780039A80ECD0EC00ECD0EC00ECD0EC000F0A3
:10098800F6FD6B480168002900D0D9E3129C50C0DD
:10099800066039A89DA92CC82CC12CC82CC12CC80C
:1009A8002CC1644A1168002900D0CBE31798304065
:1009B800111D9DAA68CA68C168CA68C168CA68C1A9
:1009C8005C490C600028254601D100F0CBFD22A827
:1009D80059491D22FFF7C2FBFFA8083028300790AD
:1009E800FFA808302830069039A8143010909DA828
:1009F800C01C0590E843139022A807224F49FFF72F
:100A0800ADFB1198010139A8149101F02EFA25982F
:100A18001790179800F0BEFC24A8FFF7F7FB0446D0
:100A2800E80701D0264606E024A8FFF7EFFB0646B4
:100A3800242C0446F8D124AD2846FFF7E7FB16908E
:100A48002846FFF7E3FB04462846FFF7DFFB472C61
:100A580015990D46DDD147280D46DAD147203D903E
:100A68003C9016983B903A96242039906024109D2B
:100A7800641E07D02E1D24A8FFF7C8FB28600A288B
:100A88003546F5D19DA839A9149A01F0C8F9A0985E
:100A98004728139E00D091E2A298A199472900D037
:100AA8008CE2412800D089E200210E98017017914C
:100AB80008460D9D012D02D19E99179108E0A900C5
:100AC8009DAA51582A2900D1AEE1179A4A40179297
:100AD8002C2903D02A2900D09DE1A5E1401C00D78C
:100AE80090E26C1EA1009DAA51582C2900D192E1D8
:100AF800821E082A00D98EE15200C0467A449288A4
:100B0800520097441D0070005000D900530188011D
:100B1800880188015300C04601030000001002400C
:100B280014290008E02800080024014000E100E042
:100B380028000020000000203F2900085C29000848
:100B4800FFA808302C2101F090F90321079A00230F
:100B5800601A5B418C4200D23CE2632800D933E240
:100B6800491C80009DAB18581060B0001218092964
:100B7800EDD1FFA90831FFAA3C32169258C958C2D4
:100B880059C959C259C959C2FFAC343420461699BB
:100B9800FFF75CFB2078012800D111E20F98C06AAA
:100BA8002790022000E12A91042034E1FFA80830B0
:100BB8002C2101F05AF90699089A0023A01A5B41E2
:100BC800944200D211E2632800D915E280009DAB5F
:100BD80018582C2800D1ECE0521C0860B000091805
:100BE800072AEAD1FDE0FFA80830242101F03DF9E9
:100BF8000021204608380A464A41082C179E00D290
:100C080013E2632800D916E29DAA2346093B49410D
:100C1800092C00D214E2632B00D917E28000105887
:100C2800169099009DAA50581490FFAB0833FFA95D
:100C38003C310C4645CB45C445CB45C445CB45C4A2
:100C48000F9E149870651698B065FFAC3434204632
:100C5800FFF7FCFA2078012800D1B1E1F06A28906A
:100C6800A8009DA940180146203909681691014637
:100C78001C39096814910146143909680C91103817
:100C88000468FFA83C300B901C2101F0EEF8169880
:100C9800F064149830650C987065B465FFAC08343E
:100CA80020460B99FFF7D2FA2078012800D187E176
:100CB80030682990032077E0FFA80830202101F050
:100CC800D4F800212646083E08464841082C00D2A0
:100CD800C1E1632E00D9C5E19DAA2346093B084618
:100CE8004841092C00D2C4E1632B00D9C8E19DA872
:100CF800149020460A3849410A2C00D2C7E16328DB
:100D080000D9CDE1B100515816919900149A515863
:100D1800149180009DA908580B90FFA90831FFAED7
:100D28003C360C961DC91DC61DC91DC60F9E0B98C5
:100D38003065149870651698B065FFAC3434204659
:100D48000C99FFF783FA2078012800D138E1F06A7E
:100D58002B90A8009DA940180146203909681691D2
:100D680001461C39096814910146143909680C9127
:100D780010380468FFA83C300B901C2101F075F86E
:100D88001698F064149830650C987065B465FFACDB
:100D9800083420460B99FFF759FA2078012800D12A
:100DA8000EE130682C900498139E34E02D910620B3
:100DB80031E0FFA90831FFAA3C32169258C958C23F
:100DC80059C959C259C959C2FFAC34342046169979
:100DD800FFF73CFA2078012800D1F1E00F98C06AAB
:100DE8002E90FFA90831FFAA3C32169258C958C262
:100DF80059C959C259C959C2139EFFAC3434204647
:100E08001699FFF723FA2078012800D1D8E00F9827
:100E1800C06A2E900A206D1C642D00D04AE60A98FC
:100E2800179E467000784AE00E98179E0670A81C18
:100E3800612D00D93AE180009DAA1158A8008018B8
:100E480043680020159A099C1D46303D0A2D0BD297
:100E5800E3B29D40EBB2C0B2C018C3B21C1A651E03
:100E6800AC41834223D0BCE01D46613D062D0CD227
:100E7800E4B2573BA340DBB2C0B2C018C3B21C1ADD
:100E8800651EAC41834212D0C3E01D46413D062D8C
:100E980000D393E0E4B2373BA340DBB2C0B2C01842
:100EA800C3B21C1A651EAC41834200D0B5E0D3071B
:100EB8000022002B0B461446C6D10A990870C0B20E
:100EC800F1B281427AD1279DFFA83C302C2100F055
:100ED800CCFF002D07D40A21284600F041FF064622
:100EE80028460F9C0EE02D200F9908630A242846F7
:100EF800214601F08FF9C11746184E404443601B44
:100F08000F9C0A300A21179100F061FF0935302043
:100F1800132D02D20143A1652BE016900143A16570
:100F28003046002109250A2E17D30446C80778D170
:100F38002046179E314600F013FF4643A31B16991F
:100F48000B43A900FFAA3C32535000226D1E5241A8
:100F58000121891A632C0446E8D8C90700D0A8E003
:100F68000A2D00D9A9E0AB003030C1B2FFAA3C324B
:100F7800D150FFA93C312C24059D2846224600F07B
:100F880045FF39A82946224600F040FF22A806223C
:100F98009349FFF791F80025A80039A90C5818A81B
:100FA800214600F013FAC0B20528F8D06D1C0B2DAD
:100FB800F2D122A802228B49FFF77EF8129D1BE589
:100FC8000E9817990170F9E70E99179A0A7064211B
:100FD8007D4A75E00E98179901706F4821217B4A68
:100FE8005BE068481C216A4A57E00E98179901701F
:100FF80069482121694A50E00E99179A0A706421BC
:10100800644A5DE00E98179901705E481C21704A89
:1010180043E05C481C215D4A3FE05A481C215A4A7B
:101028003BE05D4821216D4A37E00E9806705A482A
:101038002121644A31E00E990E7064215E4A3FE036
:101048000E980670544821215D4A26E00E980670D5
:1010580064215A4A19E00E98179901704E482121C7
:10106800544A1AE00E981799017064214C4A304688
:1010780026E00E9817990170474821214C4A0CE048
:101088000E98179901706421464A184618E00E9880
:101098001799017040482121444A00F0A3FAFEDE66
:1010A8000E99179A0A7064213F4A09E06421344A6C
:1010B80006E039482121484AEFE70B21454A2846EE
:1010C80000F0A6FAFEDE149800E0109802909DAA9F
:1010D800029810702148009021482B21214B00F0E4
:1010E8005DFAFEDE1B482B211B4AD6E74048192132
:1010F80006E0294803E023481C2101E03F4821215C
:101108003F4ACAE73A48192101E03A4828213A4AB1
:10111800C3E73748192104E01F48212101E0194895
:101128001C21314AB9E724AA022010702E480090E9
:101138000B482B212D4BD2E70B4823210B4AACE758
:101148000B4800E00D4800900A481021FFAA083219
:10115800094BC4E76C260008C4280008E4280008E6
:10116800A8260008D4260008402500084C260008B8
:101178006C2900085C260008982600087C290008CD
:101188002C27000890240008A828000898280008A0
:10119800882800085C270008602400084C270008FD
:1011A8007C2700089C270008BC270008AC270008FB
:1011B8008C2700086C270008DC270008FC2700089B
:1011C800EC270008CC2700081C2800080C28000879
:1011D8003C27000858280008482800083828000834
:1011E800632900080427000828240008F4260008BA
:1011F800402400081825000808250008D025000804
:10120800C0250008F0B503AF83B000F0ADF904467F
:1012180000F0A6F900F0ABF91C4D2868002823D18E
:101228000020C6432E602979042915D0281D00F016
:1012380045F91A480168002918D106604168012952
:1012480006D182680023511C5B41914217D381600B
:10125800002101602868401C01210C40286001D150
:1012680000F080F903B0F0BD094800E00C48009098
:101278000848102102AA084B00F090F9FEDE094840
:101288001C21094A00F0AEF9FEDEC046000000202D
:101298008C2900085C2600089826000828000020F1
:1012A8009C29000890240008AC2900087047D4D471
:1012B80001204102054A13680B43136000070449E3
:1012C8000A6802430A6000207047C0463410024092
:1012D800082401404069704780697047C0697047B9
:1012E80070477047002070470248016801220A438E
:1012F800026070472C100240D0B502AF84B000786D
:1013080078440079400087440205090D110001ACBA
:10131800104A05E001AC0E4A05230AE001AC0B4A6D
:10132800072306E001AC084A062302E001AC054A9F
:101338000B23204600F055FC204600F09BF904B032
:10134800D0BDC046C7290008D2290008C029000816
:10135800D8290008DD2900087047D4D40C4908684A
:10136800C20707D1820708D4420709D400070AD464
:10137800052070470320012207E00020022204E034
:101388000120042201E0022008224A607047C0467A
:101398001C48004001480F21016070472048004068
:1013A80080B500AFFFF7DAFFC1B20120052904D1EB
:1013B80004490A68920601D4052180BD097A0020F3
:1013C80080BDC0461C4800407047D4D40448026819
:1013D800120601D405207047017306207047C046E5
:1013E8001C440040D0B502AF84B00078784400793E
:1013F8004000874402060A0E121601AC134A042361
:1014080012E001AC104A0A230EE001AC0D4A072392
:101418000AE001AC0A4A092306E001AC074A0323A3
:1014280002E001AC044A0B23204600F0DAFB204618
:1014380000F020F904B0D0BDC7290008E42900084D
:10144800E7290008C0290008F0290008BC2900087D
:101458000F200005052109070A6A82430A62032052
:1014680080020A6882430120C00210180860704791
:101478000F200006052109070A6A82430A62032031
:1014880000030A688243012040031018086070476F
:101498000F200007052109070A6A82430A62032010
:1014A80080030A6882430120C0031018086070474F
:1014B80001480121016070470C00004001480021EB
:1014C8000160704710000040D0B502AF84B00078CA
:1014D8007844007940008744010C040801AC0D4AA7
:1014E80001E001AC094A082306E001AC064A0923D9
:1014F80002E001AC064A0323204600F072FB2046B6
:1015080000F0B8F804B0D0BDFA290008032A000892
:10151800132A00080B2A000880B500AF00F01FF856
:1015280009480A49814202D2002204C1FAE7084860
:101538000849814204D2084A08CA08C18142FBD33B
:10154800FEF714FFFEDEC046380000202800002009
:101558002800002000000020382B0008FEE7704714
:1015680072B6704762B67047EFF3108070477047E5
:101578007047D4D4014802497047C046938EA95D8C
:101588007E76EAAD80B500AF8869C969CB68024943
:101598000E22984780BDC046182A000880B500AFC3
:1015A8008EB00191009003930292022009900AA93B
:1015B8000891002107910691059007480490074873
:1015C8000D9002A80C9006480B9068460A9004A853
:1015D800B96800F03DF8FEDE282A0008191D000849
:1015E800291D000880B500AF88B000230593074C7B
:1015F8000494039302930123019306AB009307918C
:1016080006906846114600F023F8FEDE182A000806
:1016180080B500AF8CB0019100900220079008A916
:10162800069100210591049103900748029007480C
:101638000B9069460A91099001A8089002A81146E2
:1016480000F006F8FEDEC0465C2A0008151C0008FB
:1016580080B500AF84B0039102900448019004481B
:101668000090684600F064FBFEDEC046382A000899
:10167800182A0008B0B502AF0446017A406800286D
:1016880020D00125002918D101280ED1607A002820
:101698000BD021680878400707D48869C969CB68E6
:1016A8000B4901229847002807D121688869C96930
:1016B800CB6808490122984705462572681E85416E
:1016C8002846B0BD0D46681E85412846B0BDC046B7
:1016D8006C2A00086D2A0008F0B503AF89B00446EB
:1016E800FE68002905D025680121294007D02B2054
:1016F80007E02568701C07902D20059004E0112054
:1017080000040590881907906807002100280495AF
:1017180007D408910691079BBD68A16801291ED0CE
:101728003BE00396002B089306920ED00021184642
:10173800134603E0401E5B1C002807D01E78C02516
:101748003540802DF6D1491CF4E70021089A079806
:101758008218531A039EBD68A16801291DD1E1684A
:1017680099421AD9049800072DD42020225C032A14
:1017780000D10122C91A00200295920001A39A58AB
:101788000B469746351800089D1700082F180008C3
:101798009D1700080023084648E020460599069A48
:1017A800089B00F0AFF8002803D00125284609B0AF
:1017B800F0BDA069E169CB682946324698470546DD
:1017C800284609B0F0BD029107932020215C0191C1
:1017D8000121049121546068009030206060204607
:1017E8000599069A089B00F08DF8002803D0049DFF
:1017F800284609B0F0BD2046203006900278032A1A
:101808000798029900D101220396091A002002952F
:101818000E46C0467A441279520097443A0137017D
:101828000026084635E04808491C4B080393451C28
:101838006D1E07D06168A069E269126990470028A7
:10184800F6D0B2E76068079020460599069A089B8B
:1018580000F058F801250028A8D1A069E169CB68F3
:101868000299324698470028A0D104950398461C4F
:10187800A569E469761E38D02269284607999047F9
:101888000028F7D0049D284609B0F0BD4808491C37
:101898004E08451C6D1E0AD06168A069E26912698C
:1018A80090470028F6D0049D284609B0F0BD60682E
:1018B8000890A069E169CB680299039A98470028C3
:1018C80003D0049D284609B0F0BD751CA069079097
:1018D800E6696D1E0DD0326907980899904700286F
:1018E800F7D0049D284609B0F0BD0025284609B068
:1018F800F0BD019806990870009860600025284698
:1019080009B0F0BDF0B503AF81B01C4615460646D8
:1019180011200004814208D0B069F2691269904729
:10192800002802D0012001B0F0BD002D07D0B06919
:10193800F169CB6829462246984701B0F0BD0020DE
:1019480001B0F0BDF0B503AF8BB006460069B368CF
:10195800012B0A9602D1012803D085E0012800D086
:1019680037E104930792881809907369002B08914E
:1019780053D0112000040290072080040190002613
:101988000846099904E00999421B96195B1E47D03D
:10199800814200D116E10546401C2A7852B2002A3D
:1019A800F2D5D4B2884207D068783F210140A81CFC
:1019B8000246E02CE7D303E00A460021E02CE2D3FC
:1019C800069109998A4208D010783F210140059173
:1019D800501C0246F02CD6D304E0002205920A4699
:1019E800F02CD0D309998A4205D010783F210140C4
:1019F8000391501C01E000210391A20401990A40BF
:101A080006990C03A21805998C011219039952180A
:101A180002998A420999B7D1D4E000260846099963
:101A2800814200D1CEE0027852B2002A69D4002E59
:101A3800079A08990CD096420AD00020964203468D
:101A480008D28C573F20C34300209C42034601DB49
:101A58000846334600282CD01A4600280A9E2BD167
:101A68000498012800D0B4E00891002A29D0002069
:101A78001546089B03E06D1E5B1C002D06D01C78E4
:101A8800C0210C40802CF6D1401CF4E7131AF068F2
:101A980083421BD2002607921346089C03E05B1E74
:101AA800641C002B17D025780D40802DF7D1761CAB
:101AB800F5E700280A9ED3D0014604980128D3D020
:101AC80087E0F068002801D0002605E0B069F169D8
:101AD800CB68089980E0079AB51A20210A9B5C5CBC
:101AE8000021032C0B4600D02346079228180646EF
:101AF8007B441B795B009F4412010F0100260146BD
:101B08000DE0441CD3B28C4237D0851C4078800647
:101B1800000DE02B36D28AE74108401C46084C1CD1
:101B2800641E0BD00A9A51689069D269126990476D
:101B38000028F5D0012420460BB0F0BD0A9D686846
:101B48000990A869E969CB680899079A9847012418
:101B580000280BD1761CA8690890ED69761E08D07C
:101B68002A690898099990470028F7D020460BB0B1
:101B7800F0BD002420460BB0F0BD00200D46E02B40
:101B880000D254E78D4206D02A783F2414406A1CBC
:101B9800F02B05D24BE700240A46F02B00D246E78B
:101BA80004438A4203D012783F20104000E000200E
:101BB800A2015B07DB0AD218101811221204904206
:101BC80000D034E7079A08990A9E0498012800D1A2
:101BD8004AE7B069F369DB689847044620460BB0CA
:101BE800F0BDF0B503AF81B01D460E4604468869C6
:101BF800C969CB6811462A46984720722660684210
:101C0800684160720020606001B0F0BDF0B503AFBC
:101C180091B0029106683948864255D90120C043DF
:101C2800272440000390354606952846344900F09D
:101C380097F8014605903148401C4843281A0490FB
:101C480080B26426314600F08BF807A909194200D2
:101C58002C4B9B5C039D4B5549192A4B9A1852787B
:101C68004A7046430498801B059E80B240001A5C67
:101C78008A7018184078C870241F23480699814232
:101C88003546D1D8632E22DDB0B26425294600F04E
:101C980067F84543711B89B249001A4A535C2546C7
:101CA800A51E07AC635563195118497859700A285D
:101CB80011DB4000134A135CA91E07AC6354631878
:101CC8001018407858700AE02724632EDCDC304670
:101CD80025460A28EDDA691E303007AA5054272015
:101CE800401A019007A8401800900121074A0023D4
:101CF8000298FFF7F1FC11B0F0BDC0460F270000B5
:101D0800102700006E2A0008FFE0F505182A0008D1
:101D180080B500AF02684068C3681046984780BD28
:101D280080B500AF0B4606C81846FFF70BFE80BD0E
:101D3800FEE7D0B502AF93060BD4002A08D01F23C4
:101D480054421A40D0401C400B46A3401843D1408F
:101D5800D0BD1F200240D140002208461146D0BD08
:101D6800F0B503AF81B000292FD004460026002823
:101D78000DD00D46084600F0EFFA0090204600F01E
:101D8800EBFA0099091A1F2901D803D126463046D3
:101D980001B0F0BD481C2246C2401F23591A8C408E
:101DA8000021E30F5200D218D3435B19DB171E46FC
:101DB8002E40921B64000C4301211940401EF0D1B3
:101DC80060000E18304601B0F0BDFEDEFEDE00B544
:101DD80081B06A4600F0AEF9009901B000BDFEDEA0
:101DE80010B584B002AC009400F045F8029A039B49
:101DF80004B010BDFEDE10B584B002AC009400F053
:101E080075FA029A039B04B010BDFEDE002A05D0C5
:101E18000B780370491C401C521EF9D1704780B5DD
:101E280000AF042A04D308C908C0121F032AFAD82D
:101E3800FFF7ECFF80BD002903D00270401C491E4B
:101E4800FBD17047D0B502AF1346D2B2042909D3EB
:101E58001B06D31814041B1914021B1908C0091FE8
:101E68000329FBD8FFF7E7FFD0BD80B500AF0022FC
:101E7800FFF7E8FF80BDD0B502AF82B0BC68009420
:101E880000F002F802B0D0BDF0B503AF89B0144637
:101E9800BD680029079116D00E46002C2AD006905E
:101EA800002B039366D00494184600F055FA0446B4
:101EB800304600F051FA201A1F2800D8AEE0002D55
:101EC80052D006984DE00026F1434A1C3146714134
:101ED800A21A8B4142D2002D00D1F8E0002C00D18B
:101EE8001EE10021696021460690FFF770FF069801
:101EF8002960EEE0002B00D112E1002860D00690A6
:101F080004945808874908401A1A874C18469308B9
:101F180022402340D2181309D418844A1440844B11
:101F28005C43240E012C6ED1002D324604D0441E91
:101F38001440069E2E606C60441E844365080D4064
:101F4800611B8C08784801400440081901094018B1
:101F5800764908404343180EC24041E0002D00D1A5
:101F6800BFE0286007986860002216461046314690
:101F780009B0F0BD60086B490840221A6A49930805
:101F88000A400B40D21813092046D418674A144057
:101F9800674B5C43240E012C27D1002D07D0002469
:101FA8002946451E069E35400D604C605E49012855
:101FB80000D09BE0069A079E1046314609B0F0BD56
:101FC800002D08D000202860304619461C46FFF72F
:101FD800FEFE2346696030461946FFF7C1FE0246F9
:101FE80000261046314609B0F0BD049000F0B4F95F
:101FF8000446304600F0B0F9211A2020C043401AA8
:10200800019021310EE0039000F0A6F90446304615
:1020180000F0A2F9201A1E2800D950E73F21091A1A
:102028000191411C089102953F200090089A0240B6
:10203800069D2846079C2146FFF77BFE05900E4625
:10204800019A009802402846214600F0B2F8089A02
:10205800002A36D000240790059D05940892E80FC1
:1020680073001E18F0436B000691CD0FEB18DD438B
:1020780004996D18039C6041C21715462540104607
:102088000840181AAE410546012313400799480035
:10209800059A1043C90F069A52005118089A521E01
:1020A8001C460790D9D1029A002A01D02C4660C25A
:1020B8004200D218C00F49000E181046314609B028
:1020C800F0BD0023059D029A002AEFD1F0E7002C0D
:1020D80026D02146FFF744FE02461046314609B095
:1020E800F0BD32461046314609B0F0BD441E844367
:1020F80065080C4805400846611B8C0801400440EF
:10210800081901094018104043431A0E0698079908
:10211800FFF70FFE02460E461046314609B0F0BDE5
:10212800FEDEFEDE55555555333333330F0F0F0F93
:1021380001010101F0B503AF83B0002937D00D4686
:102148000446002600282AD02846019200F004F907
:1021580002940446029800F0FFF8019A211A029CA2
:102168001F291CD826461AD0481C2346C3401F22C4
:10217800521A214691400022CC0F5B001B19DC4308
:102188006419E41726462E409B1B4900114301227F
:102198002240401EF0D148001618019A029C002ADD
:1021A80002D07543601B1060304603B0F0BDFEDE00
:1021B800FEDED0B502AF93060BD4002A08D01F2349
:1021C80054421A4091401C400346E3401943904052
:1021D800D0BD1F210A40014691400020D0BDF0B576
:1021E80003AF5143050C140C2E4666437118434344
:1021F800C91892B2554380B24243130C5B191D0CA7
:1022080049199BB260431818030CC918000492B20C
:102218008018F0BDD0B502AFCC176140091B08D0BB
:10222800C21754405040801AFFF79AFD6040001BC7
:10223800D0BDFEDEFEDEF0B503AF89B00C46B9684E
:10224800002603910E6001210491C90725464D40DF
:10225800054305920894069007931D4604D1901EE5
:102268002846B04137D239E04D40154304D1801E8D
:102278000898B0412FD231E0DD176B406A40521BFD
:102288000292AB41E21754405040801A94410190A9
:10229800801E2046B04121DB0298801E1846B041BE
:1022A8001CDB6A4012430AD104984042B141029AA9
:1022B800FFF796FD019A801AA1410CDB0EE0029807
:1022C800424235469D4130462B46FFF794FD019A20
:1022D800801AA14102DA03980499016005980799C8
:1022E800069A089BFFF77BFF09B0F0BDF0B503AF76
:1022F80085B01D460490DC17234603956B402046A5
:1023080002925040001BA3410090184322D0CD17E1
:102318006C40B86801900E4669402846049A5040BF
:10232800401BA941009AFFF75BFD0D4665406040E0
:10233800001BA54104462946029A039BFFF74FFF5D
:10234800049A101A019A10608E4156602046294658
:1023580005B0F0BDFEDEFEDE80B5030C00AF002B3D
:102368001AD0180008210022FF231B02184201D0AE
:102378001100000AF023034211D00C230009034284
:1023880011D08008012243089A430223BD465242D5
:10239800181A1040401880BD18211022E4E70C23B9
:1023A80004310342EDD10231ECE7C0467046042106
:1023B800084202D1EFF3088002E0EFF30980FFE75B
:0423C800FEE7D4D484
:1023CC002F55736572732F61726B6F2F2E63617251
:1023DC00676F2F72656769737472792F7372632FCD
:1023EC006769746875622E636F6D2D316563633632
:1023FC0032393964623965633832332F73746D3313
:10240C00326C3078782D68616C2D302E362E322F50
:10241C007372632F74696D65722E7273CC2300080E
:10242C005C000000D2000000010000000000000071
:10243C0000000000617474656D707420746F20640A
:10244C006976696465206279207A65726F00000094
:10245C0000000000617474656D707420746F2073DB
:10246C00756274726163742077697468206F766525
:10247C0072666C6F77000000000000000000000026
:10248C0000000000617474656D707420746F2061BD
:10249C0064642077697468206F766572666C6F77F8
:1024AC002F55736572732F61726B6F2F2E63617270
:1024BC00676F2F72656769737472792F7372632FEC
:1024CC006769746875622E636F6D2D316563633651
:1024DC0032393964623965633832332F73746D3332
:1024EC00326C3078782D68616C2D302E362E322F70
:1024FC007372632F7370692E72730000AC24000822
:10250C005A0000003801000001000000696E74657B
:10251C00726E616C206572726F723A20656E7465B2
:10252C0072656420756E726561636861626C6520AA
:10253C00636F6465617474656D707420746F20735F
:10254C0068696674206C6566742077697468206F9E
:10255C00766572666C6F772F55736572732F617227
:10256C006B6F2F2E636172676F2F7265676973745F
:10257C0072792F7372632F6769746875622E636F3B
:10258C006D2D316563633632393964623965633870
:10259C0032332F73746D33326C3078782D68616CF4
:1025AC002D302E362E322F7372632F736572696144
:1025BC006C2E7273632500085D000000CB020000D6
:1025CC0001000000617474656D707420746F206D6F
:1025DC00756C7469706C792077697468206F766596
:1025EC0072666C6F772F55736572732F61726B6F98
:1025FC002F2E636172676F2F7265676973747279BE
:10260C002F7372632F6769746875622E636F6D2DFB
:10261C003165636336323939646239656338323314
:10262C002F73746D33326C3078782D68616C2D306B
:10263C002E362E322F7372632F6164632E727300E9
:10264C00F12500085A0000003F0100002A0000009C
:10265C00616C726561647920626F72726F77656408
:10266C0063616C6C656420604F7074696F6E3A3A8C
:10267C00756E77726170282960206F6E2061206002
:10268C004E6F6E65602076616C756500BB0000084E
:10269C0000000000010000008D15000863616C6CE7
:1026AC0065642060526573756C743A3A756E777216
:1026BC006170282960206F6E20616E2060457272F7
:1026CC00602076616C756500BD000008010000009B
:1026DC0001000000ED130008B90000080100000023
:1026EC000100000001130008BF00000801000000F9
:1026FC0001000000D11400080D0A7372632F67707B
:10270C00732E7273062700080A00000026000000D2
:10271C002B0000007372632F6E6D65612E72730057
:10272C00202700080B000000A7000000200000007C
:10273C00202700080B0000003900000021000000D9
:10274C00202700080B0000008D0000002F00000067
:10275C00202700080B0000008D000000280000005E
:10276C00202700080B0000006D0000003E00000058
:10277C00202700080B0000006D000000370000004F
:10278C00202700080B0000006E0000003D00000038
:10279C00202700080B0000006E000000360000002F
:1027AC00202700080B0000006F0000003D00000017
:1027BC00202700080B0000006F000000360000000E
:1027CC00202700080B0000004F0000003D00000017
:1027DC00202700080B0000004F000000360000000E
:1027EC00202700080B000000500000003C000000F7
:1027FC00202700080B0000005000000035000000EE
:10280C00202700080B000000430000003F000000E0
:10281C00202700080B0000004300000038000000D7
:10282C007372632F6E666D742E7273002C28000801
:10283C000B0000002E0000000D0000002C280008EA
:10284C000B00000033000000090000002C280008D9
:10285C000B00000034000000090000002C280008C8
:10286C000B00000045000000160000002C2800089A
:10287C000B00000055000000120000002C2800087E
:10288C000B0000006B000000240000002C28000846
:10289C000B0000006C000000240000002C28000835
:1028AC000B0000006D000000240000007372632F09
:1028BC0070616C2E72730000B82800080A000000CA
:1028CC00170000002B0000007372632F72616469A3
:1028DC006F2E727300010000D42800080C00000059
:1028EC001B00000027000000696E646578206F757E
:1028FC0074206F6620626F756E64733A207468651D
:10290C00206C656E206973202D202D202D202D200C
:10291C0048414245587069636F2076302E302E3115
:10292C00202D202D202D202D7372632F6D61696E4B
:10293C002E72732D202D202D202D20424F4F5420F0
:10294C00434F4D504C455445202D202D202D202DEE
:10295C002D202D202D202D555443203D20000000EE
:10296C00342900080B000000400000001800000093
:10297C00342900080B000000410000001B0000007F
:10298C00342900080B00000075000000370000001F
:10299C00342900080B00000079000000350000000D
:1029AC00342900080B0000007A000000170000001A
:1029BC00427573794F76657272756E5F4578746582
:1029CC006E7369626C655061726974794E6F69736C
:1029DC00654672616D696E674372634D6F646546DF
:1029EC0061756C744672616D654572726F72556E6D
:1029FC00646572666C6F774F766572666C6F77493B
:102A0C006E66696E6974654E614E0000426F72723B
:102A1C006F774D75744572726F723A20182A0008E0
:102A2C0000000000262A00080200000079150008AA
:102A3C0000000000010000007D1500082062757484
:102A4C002074686520696E646578206973200000C5
:102A5C00F428000820000000482A0008120000009A
:102A6C002C29303030313032303330343035303650
:102A7C003037303830393130313131323133313423
:102A8C003135313631373138313932303231323209
:102A9C0032333234323532363237323832393330EF
:102AAC0033313332333333343335333633373338DE
:102ABC0033393430343134323433343434353436CD
:102ACC0034373438343935303531353235333534B3
:102ADC003535353635373538353936303631363299
:102AEC00363336343635363636373638363937307F
:102AFC00373137323733373437353736373737386E
:102B0C00373938303831383238333834383538365C
:102B1C003837383838393930393139323933393442
:0C2B2C003935393639373938393900006D
:102B38000000000004000000000000000000000089
:102B4800000000000000000000000000000000007D
:082B5800000000000000000075
:0400000508001521B9
:00000001FF
