:020000040800F2
:100000000008002065070008A9070008E1080008AB
:1000100000000000000000000000000000000000E0
:10002000000000000000000000000000A907000818
:100030000000000000000000A9070008A907000850
:10004000A9070008A9070008A9070008A9070008D0
:10005000A9070008A9070008A9070008A9070008C0
:1000600000000000A9070008A9070008A907000868
:10007000A9070008A9070008A907000859060008F1
:10008000A9070008A9070008A90700080000000048
:10009000A9070008A9070008A9070008A907000880
:1000A000A9070008A9070008A9070008A907000870
:0800B000A9070008A9070008D8
:1000B8007047704770470000F0B503AF84B044182C
:1000C800112109040291072189040191484B0094E8
:1000D800411C027852B2D5B2002A01D4084634E055
:1000E8001F26A14204D042783F211140801C01E024
:1000F800002120462E406A09062A09D9A04209D0C3
:10010800027803923F22039C2240009C401C03E09B
:10011800B2010EE000222046890151182A090F2A4F
:1001280006D3A04207D005783F222A40401C03E0AE
:1001380032038D1809E00022B504019E354089017B
:1001480049198D1802998D4205D019680906FCD500
:100158001D73A042BCD1274A1446601C217849B2BD
:10016800CDB2002901D4044639E01F26921C9042E2
:1001780004D060783F210140A21C00E000212E40FD
:100188006809062808D91B48841CA24209D014789B
:100198003F202040541C05E0B0010D181446154AB4
:1001A8001DE00020134A8901411828090F2807D3A8
:1001B800901C844207D020783F220240641C04E04F
:1001C80030030D180BE000220446B004019D2840BE
:1001D80089010818851802988542064A06D01868C9
:1001E8000006FCD51D73901C8442B6D104B0F0BD46
:1001F8001C4400409009000880B500AF00F002F8E8
:10020800FEDE000080B500AF9EB000F059FB04464A
:1002180001201090044000F04FFBF14801780029BC
:1002280001D0002501E001250570002C01D100F066
:1002380045FB002D00D1CEE1EB48EC4B0360016893
:100248004907FCD5C168EA4A0A40511CC160C16A25
:10025800109A11431446C162052106460807416AEF
:10026800402205921143B022914341620322910436
:1002780015460F9202688A43E10451180160416AE9
:10028800DC4A11401A46FF320A43426229050268D5
:100298008A4361055118016062040892B16B1143E9
:1002A800B16369020A468332D34EF260002272605B
:1002B80065030695C0350495B5600D230393336037
:1002C8007260C3680C24A3430446C36043680220D9
:1002D8000A9083436360236804200C90034308203A
:1002E800099083432360236AC24803405918216256
:1002F8002168234620200790014310200190C04325
:100308000290014021600F200B900403186AA0435B
:100318000F994C0300191862186880240443059843
:1003280084431C60109DA804AF498C6B04438C6304
:10033800B24CB348E0600E9262600498A0600398E3
:1003480020606260D868AF4A1040D8605868029947
:10035800084058601868104029462A02801818601A
:100368000B9800051A6A82431A620F9DA8021A6840
:100378008243C802101818600B980006196A814356
:100388001962280319688143069808181860186AC2
:100398009D4908401862A8031A6819460D938243BC
:1003A800109BD80305901018086018038E494A6BF3
:1003B80002434A63954D0E9868608C4873302860F4
:1003C80058024A6B02434A638F48401C904A91681E
:1003D800014391600D9AD0680F998843D0601068E6
:1003E80008431060804A906B18439063906A1843E2
:1003F8009062DB430693906A1840906217AA1AAB82
:100408000B9303CA03C31088917899701880109BC6
:100418009A0710680699084010600E989084F42096
:1004280090627C48908510680C990843106053616D
:10043800106818430692106011A80B9B06CB06C0E3
:1004480019889A788270018073480799FFF734FEFB
:1004580008980D9988611098000588616F4A511CA9
:10046800AB685806400F00D0ABE09807F8D5107875
:100478002873AA685006400F00D0A2E0D007F8D031
:10048800287B6648801C81420A46E8D10D9801996C
:1004980081615F4B1868109A104318609868104380
:1004A80098601868C007FCD00F98D8605869072171
:1004B800884358619A6218680999084318609868CF
:1004C8000C990843986018680007FCD5186C986860
:1004D8000A99084398601868104318609868C0071C
:1004E800FCD111A814AD29460CC80CC1028880782B
:1004F80088700A8006981099C1604B480599016078
:1005080000F0DEF90D9000F0D7F917A806CD06C067
:100518002988AA788270018044480168002955D149
:100528000E99016010994160816017A81AA90CC83A
:100538000CC10288807888700A803F4D286800289E
:1005480044D110980D9901400D910F982871681D9C
:100558001AA90B2200F0B7F9384828616861A86128
:10056800E861286268620E9828600D98002801D119
:1005780000F0A4F932481D21FFF79EFD32483349A7
:10058800E269D30710D1930710D453070AD412078E
:100598000ED4E2699206F3D50278F3691B06FCD5FE
:1005A8000A70EDE70C9804E0109802E00A9800E061
:1005B800099820621A482B211AAA224B00F09AF8AF
:1005C800FEDE17482B211AAA164BF7E71848102108
:1005D8001DAA184BF2E703482B2100F075F8FEDE40
:1005E8003400002008090008001002400103000040
:1005F8000CC0FFFFFFF0FFFF004400400048004030
:1006080000830600FFFCFFFFFFFFFF0F00300140E3
:10061800002401401AFF000094090008920900080C
:10062800440900088009000800E100E028000020D3
:10063800F808000834090008000000200024F4002D
:10064800B409000870090008244800402844004004
:10065800B0B502AF82B000F033F9044600F02CF9CF
:100668001448016800291ED10021CA430260037999
:10067800042B10D0124B00211960124B1D68002D5D
:1006880011D11A605A68012A02D19A68521C9A60DC
:1006980019600168491C01221440016001D100F071
:1006A8000DF902B0B0BD0448102101AA034B00F0B7
:1006B80021F8FEDE00000020F808000834090008D0
:1006C800100000402800002080B500AF00F001F8BD
:1006D800FEDE80B500AF00F065F8FEDE80B500AF45
:1006E8008869C969CB6802490E22984780BDC0460F
:1006F800D109000880B500AFFFF7EBFFFEDE000070
:10070800B0B502AF0446057A406800281ED0002D17
:1007180001D0012519E001280FD1607A00280CD0FA
:1007280021680878400708D48869C969CB680949ED
:1007380001252A469847002807D121688869C96990
:10074800CB6805490122984705462572681E8541F0
:100758002846B0BDDF090008E009000880B500AFF1
:1007680000F01FF809480A49814202D2002204C158
:10077800FAE708480849814204D2084A08CA08C169
:100788008142FBD3FFF738FDFEDEC046380000206B
:10079800280000202800002000000020200A00086F
:1007A800FEE77047FEE70000D0B502AF84B00078DE
:1007B8000C46C046784400794000874402070D1370
:1007C8001900A069E169CB68164909E0A069E169E7
:1007D800CB681349052210E0A069E169CB680F498D
:1007E80007220AE0A069E169CB680B49062204E008
:1007F800A069E169CB6807490B229847014601A81F
:1008080001720021417201940291FFF779FF04B04F
:10081800D0BDC046EC090008030A0008E509000835
:10082800FE090008F7090008D0B502AF84B00078C7
:100838000C46C046784400794000874402080E14EC
:100848001A20A069E169CB681A4904221CE0A06952
:10085800E169CB6816490A2216E0A069E169CB680C
:100868001249072210E0A069E169CB680E49092204
:100878000AE0A069E169CB680A49032204E0A0699B
:10088800E169CB6806490B229847014601A8017225
:100898000021417201940291FFF732FF04B0D0BDEC
:1008A800EC0900081C0A0008130A0008E5090008FA
:1008B800090A0008E109000872B6704762B6704775
:1008C800EFF310807047002A05D00B780370491C9D
:1008D800401C521EF9D1704770460421084202D1CB
:1008E800EFF3088002E0EFF30980FFE7FEE700007E
:1008F800616C726561647920626F72726F7765648A
:1009080063616C6C656420604F7074696F6E3A3A0D
:10091800756E77726170282960206F6E2061206083
:100928004E6F6E65602076616C756500BD000008CD
:100938000000000001000000E506000863616C6C1F
:1009480065642060526573756C743A3A756E777297
:100958006170282960206F6E20616E206045727278
:10096800602076616C756500B90000080100000020
:1009780001000000B1070008BB00000801000000EA
:1009880001000000310800080D0A00012D202D206B
:100998002D202D2048414245587069636F207630DC
:1009A8002E302E31202D202D202D202D2D202D20B4
:1009B8002D202D20424F4F5420434F4D504C45542D
:1009C80045202D202D202D202D426F72726F774DDE
:1009D80075744572726F722C29427573794F7665FA
:1009E8007272756E5F457874656E7369626C654680
:1009F80072616D696E674E6F697365506172697473
:100A0800794672616D654572726F724D6F646546A5
:080A180061756C744372630008
:100A200000000000040000000000000000000000C2
:100A300000000000000000000000000000000000B6
:080A40000000000000000000AE
:040000050800076583
:00000001FF
